:020000040800F2
:100000000009002069040008BD14000861140008FC
:10001000A114000861140008811400086B04000892
:100020006B0400086B0400086B040008B53400087A
:100030006B0400086B0400086B04000849390008D1
:100040006B0400086B0400086B0400086B040008D4
:100050006B0400086B04000875360008A136000820
:10006000CD360008F9360008253700086B04000873
:100070006B0400086B0400086B0400086B040008A4
:100080006B0400086B0400086B040008C923000817
:100090003524000889240008DD24000851370008B1
:1000A0006B0400086B0400086B0400086B04000874
:1000B0006B0400086B0400086B0400086B04000864
:1000C0006B0400086B0400086B0400086B04000854
:1000D0006B0400087D280008912800086B040008C4
:1000E000B93700086B0400086B0400086B040008B3
:1000F0006B0400086B0400086B0400086B04000824
:100100006B0400086B0400086B0400086B04000813
:100110006B0400086B0400086B0400086B04000803
:100120006B0400086B0400086B0400086B040008F3
:100130006B0400086B0400086B0400086B040008E3
:100140006B0400086B0400086B0400086B040008D3
:100150006B0400086B0400086B0400086B040008C3
:1001600053B94AB9002908BF00281CBF4FF0FF311E
:100170004FF0FF3000F076B9ADF1080C6DE904CE18
:1001800000F006F8DDF804E0DDE9022304B0704772
:100190002DE9F047089E0D4604468846002B4DD1B8
:1001A0008A42944668D9B2FA82F252B101FA02F355
:1001B000C2F1200120FA01F10CFA02FC41EA030825
:1001C00094404FEA1C41B8FBF1F71FFA8CFE01FB8B
:1001D000178807FB0EF0230C43EA084398420AD91C
:1001E0001CEB030307F1FF3580F01E81984240F2BB
:1001F0001B81023F63441B1AB3FBF1F001FB103378
:1002000000FB0EFEA4B244EA0344A6450AD91CEB47
:10021000040400F1FF3380F00981A64540F2068115
:10022000644402380021A4EB0E0440EA07401EB1EA
:100230000023D440C6E90043BDE8F0878B4208D9CB
:10024000002E00F0EE800021C6E900050846BDE85A
:10025000F087B3FA83F100294AD1AB4202D382423C
:1002600000F2FC80841A65EB030301209846002EFF
:10027000E2D0C6E90048DFE702B9FFDEB2FA82F257
:10028000002A40F09180A1EB0C0001214FEA1C47AD
:100290001FFA8CFEB0FBF7F307FB1300250C45EAB1
:1002A00000450EFB03F0A84208D91CEB050503F13D
:1002B000FF3802D2A84200F2CE8043462D1AB5FB89
:1002C000F7F007FB10550EFB00FEA4B244EA05440C
:1002D000A64508D91CEB040400F1FF3502D2A6455F
:1002E00000F2B6802846A4EB0E0440EA03409EE7E5
:1002F000C1F120078B4022FA07FC4CEA030C25FAD7
:1003000007FA4FEA1C49BAFBF9F820FA07F309FB90
:1003100018AA8D401FFA8CFE1D4300FA01F308FB5A
:100320000EF02C0C44EA0A44A04202FA01F20BD966
:100330001CEB040408F1FF3A80F08880A04240F2F0
:100340008580A8F102086444241AB4FBF9F009FB83
:10035000104400FB0EFEADB245EA0444A64508D9A0
:100360001CEB040400F1FF356CD2A6456AD90238B3
:10037000644440EA0840A0FB0295A4EB0E04AC42A2
:10038000C846AE4656D353D0002E69D0B3EB080210
:1003900064EB0E0422FA01F304FA07F71F43CC4082
:1003A000C6E90074002147E70CFA02FCC2F1200103
:1003B00025FA01F34FEA1C4720FA01F195400D435D
:1003C000B3FBF7F107FB11331FFA8CFE280C40EA50
:1003D000034001FB0EF3834204FA02F408D91CEB3C
:1003E000000001F1FF382FD283422DD90239604439
:1003F000C01AB0FBF7F307FB1300ADB245EA0045A6
:1004000003FB0EF0A84208D91CEB050503F1FF38E9
:1004100016D2A84214D9023B6544281A43EA014186
:1004200038E73146304607E72F46E4E61846F9E656
:100430004B45A9D2B9EB020865EB0C0E0138A3E7D6
:100440004346EAE7284694E74146D1E7D0467BE7B2
:100450006444023847E7023B65442FE7084606E755
:100460003146E9E6704700BF02E000F000F8FEE721
:1004700072B6284880F30888274880F309882748FF
:100480004EF60851CEF200010860022080F3148875
:10049000BFF36F8F03F080F803F05CF803F07EF891
:1004A0004FF055301E491B4A91423CBF41F8040BA6
:1004B000FAE71C49184A91423CBF41F8040BFAE79D
:1004C00019491A4A1A4B9A423EBF51F8040B42F896
:1004D000040BF8E700201749174A91423CBF41F846
:1004E000040BFAE703F03AF803F05AF8134C144DF2
:1004F000AC4203DA54F8041B8847F9E700F03CF8F3
:10050000104C114DAC4203DA54F8041B8847F9E74C
:1005100003F022B8000900200011002000000008AC
:100520000001002000090020103B000800110020FD
:1005300024110020281100209825002060010008C7
:100540006001000860010008600100082DE9F04F1B
:10055000C1F80CD0C3689D46BDE8F08F002383F33B
:1005600011882846A047002002F048FDFEE702F06F
:10057000CDFC00DFFEE700002DE9F04102F038FF7E
:10058000074602F083FF054600283ED12B4B9F42D1
:100590003BD001339F423BD0294B27F0FF029A42C8
:1005A0003AD1F8B200F052FAA84642F2107400F0C4
:1005B00057FC08B10024A04600F04EFA064678B376
:1005C00084BB464635B11F4B9F4203D0002402F046
:1005D00055FF2646002002F015FF1B4B9B6813F0C9
:1005E000400322D00EB100F031F800F097FC00F08B
:1005F00077FE00F065FF0546CCB100F061FF401BBF
:10060000A04214D900F022F8F3E7A8460024CEE770
:1006100004464FF00108CAE780464FF47A74C6E7F3
:100620000446CFE74FF47A74CCE71C46DDE700F0D0
:1006300025FD012002F0E8FCDEE700BF010007B065
:10064000000008B0263A09B0000C014038B51D4A38
:100650001D4B1968013134D004339342F9D11B4C3E
:10066000194DD4F80424AA422BD3194B9B6803F1EB
:10067000006303F5C8439A4223D202F0D3FE02F08E
:10068000E5FE002000F046FE0220124B187000F03C
:100690007DFE114BDA690022DA61D96999699A61A4
:1006A0009B6972B64FF0E023C3F8085DD4F80034BC
:1006B000D4F80424202181F311889D4683F308880F
:1006C000104738BD2064000800640008006000087E
:1006D00000110020281100200010024049F269009A
:1006E000084A136899B21B0C00FB013344F25061B5
:1006F0001360054B186882B2000C01FB0200186001
:1007000080B27047201100201C11002010B5044653
:100710000021102200F054FE034B03CB20606160E7
:100720001868A06010BD00BFE8F7FF1F2DE9F04377
:10073000BBB000F0C5FE40F2ED22204DAB68C31AFD
:10074000934232D906AF2B4628220021A8603846B2
:1007500001F07AFB05F10E0000F02AFE00260446A7
:100760005FFA80F905F10E08F3B2F100994501F145
:10077000280107D908EB06030822384601F064FB7C
:100780000136F1E708230122CDE902320C4B053492
:1007900001933023A4B20093CDE9047405A3D3E9F7
:1007A0000023297B074801F065F93BB0BDE8F083E1
:1007B000AFF3008078F6339F93CACD8D6821002077
:1007C000752100204421002070B50D4614461E46B8
:1007D00001F0E6F850B9022E10D1012C0ED112A36F
:1007E000D3E900230120C5E9002307E0282C10D01D
:1007F00005D8012C09D0052C0FD0002070BD302C5D
:10080000FBD10BA3D3E90023ECE70BA3D3E900232F
:10081000E8E70BA3D3E90023E4E70BA3D3E9002324
:10082000E0E700BFAFF30080401DA12026812A0B26
:1008300078F6339F93CACD8D9E6AC421818A46EE95
:1008400026417272DF25D7B7F017304A39059E5618
:1008500038B50D460446034620222846002101F003
:10086000F3FA22792346032A28BF0322284603F8F5
:10087000042F2021022201F0E7FA62792346072A99
:1008800028BF0722284603F8052F2221032201F062
:10089000DBFAA2792346072A28BF0722284603F855
:1008A000062F2521032201F0CFFA28461022282105
:1008B00004F1080301F0C8FA382038BD2DE9F04FE3
:1008C0000024FFB00CAE40F2751280460F4620A8FF
:1008D00021461F9400F074FD21464822304600F066
:1008E0006FFD00F0EDFD4FF47A72B0FBF2F0554B66
:1008F0001FAD186093E80700012386E807000DF19B
:1009000052003382FFF702FF45F21D33338406ABFA
:1009100018464D4903F050F81522294630643046F8
:1009200086F83C20FFF794FF08220446014610ABEE
:10093000284601F089FA08222846A1180DF1410342
:1009400001F082FA082228460DF1420304F1100159
:1009500001F07AFA2022284611AB04F1180101F0C7
:1009600073FA4022284612AB04F1380101F06CFA08
:100970000822284614AB04F1780101F065FA082238
:1009800028460DF1510304F1800101F05DFA04F1F4
:10099000880A0DF1520904F5847B4B465146082222
:1009A00028460AF1080A01F04FFAD34509F1010976
:1009B000F3D108225946284619AB01F045FA4FF009
:1009C000000904F5887496F834304B450AD9B36BA6
:1009D00021464B440822284601F036FA083409F132
:1009E0000109F0E74FF0000996F83C3004EBC9012B
:1009F0004B4508D9336C08224B44284601F024FAB1
:100A000009F10109F0E700230393BB7E073102934C
:100A100007F1190301930123C1F3CF01CDE904517B
:100A20000093404605A3D3E90023F97E01F022F8A4
:100A30007FB0BDE8F08F00BFAFF300809E6AC42195
:100A4000818A46EE2C110020C8390008014B18702D
:100A5000704700BF38110020F0B5334B85B01C7BC8
:100A600034B10E22314B1A810024204605B0F0BD6E
:100A70002F4A02AB1068516803C308232D492E4842
:100A80000DEB030202F078FF054630B90A22274B2E
:100A90002A481A8100F0E0FCE6E70169B1F5CE3F93
:100AA00006D90B22214B26481A8100F0D5FCDCE741
:100AB00041F65352438B934207D00C201B490881C7
:100AC0001946204800F0C8FCCFE71F4A024402F153
:100AD0001003994204D21022144B1C481A81E4E7F7
:100AE00010398E1A2046144900F0EEFC07463246B3
:100AF000204605F1180100F0E7FCAB689F4202D1E7
:100B0000EB6898420AD00D22084B1A8100903B46B0
:100B1000D5E902120E4800F09FFCA5E70D4800F051
:100B20009BFC0124A1E700BF682100202C110020BC
:100B3000713A0008DC9B010000640008E0390008FD
:100B4000EC390008FE390008089CFFF71C3A000841
:100B5000393A0008623A00082DE9F04FADB006AF0F
:100B600080460C4600F01CFF0546002859D1237E24
:100B7000022B1AD1E38A012B17D100F0A1FC064603
:100B8000FFF7ACFD4FF4C873B0FBF3F202FB1300A8
:100B9000DFF8B49206F5167680B2E37E0644C9F813
:100BA000006033B90022A94B1A709C37BD46BDE8DE
:100BB000F08FA38AEEB2013BB34205F101050BD9D8
:100BC0003B1D1E44E900002308222046009601F048
:100BD000F80100F0FBFFECE707F11400FFF796FDCA
:100BE000324607F11401381D02F0B6FE0346002814
:100BF000D8D10F2E08D8954B1E70D9F80030A3F528
:100C00001673C9F80030D0E7FA1CF870014600925C
:100C10002046072200F0DAFF4046F97800F0B8FEDF
:100C2000C3E7E38A282B26D010D8012B1ED0052B32
:100C3000BBD1BFF34F8F8649864BCA6802F4E0628E
:100C40001343CB60BFF34F8F00BFFDE7302BACD118
:100C5000637E814D01336A7BDBB29342E94603D167
:100C6000E27E2B7B9A4265D0CD469EE721464046E8
:100C7000FFF724FE99E7A38A013B9BB2C92B94D8C6
:100C8000754D2E7B26BB05F10C03009308223346DD
:100C90003146204600F09AFF731CF2B2D9001E467E
:100CA000A38A013B9A4205DA0E322A4400920023BD
:100CB0000822EEE700230022C5E900230023AB60F1
:100CC00085F8D730C5F8D8302B7B0BB9E37E2B7372
:100CD000002507F114060822294630463B1DC7E9C6
:100CE0000155FD6001F0B0F83B7A05F10109AB4216
:100CF0004FEAC90107D9FB6808222B44304601F0AE
:100D0000A3F84D46F0E70023C1F3CF01E07ECDE923
:100D100004610393A37E19340293282301460093B0
:100D2000404647A3D3E90023019400F0A3FEFFF758
:100D3000FDFC3AE74FF0000807F11403A7F8148010
:100D40001022009341460123204600F03FFFA68A6F
:100D5000023EB6B2F31C9B109B000733DB08A9EBE5
:100D6000C3039D460DF1180A1FFA88F34FEAC80124
:100D7000B34201F110010AD20AEB080300930822E2
:100D80000023204600F022FF08F10108ECE795F867
:100D9000D70000F0C9FAD5F8D83004461BB995F849
:100DA000D70000F0D1FAD5F8D83033449C4204D2B1
:100DB00095F8D700013000F0C7FA4FF000084FEA6D
:100DC000960B1FFA88F18B45D5E9003209D90AEB59
:100DD000880103EB8800012200F0FAFA08F101080B
:100DE000EFE7F31842F10002C5E90032D5F8D83038
:100DF00095F8D70006EB0308C5F8D88000F094FA00
:100E0000804509D395F8D730D5F8D8000133001BB9
:100E100085F8D730C5F8D800FF2E08D800232B73EB
:100E200000F0A4FAFFF718FE08B1FFF70FFC2B68DB
:100E30000A4A9B0A013313810023AB6014E700BF09
:100E400026417272DF25D7B7402100203D210020C6
:100E500000ED00E00400FA05682100202C110020BC
:100E600030B54FF00054244B226885B09A4207D029
:100E700002F016FB0446A8B90024204605B030BD98
:100E8000627D1E4B1E481A70237DC92203731D49C3
:100E90000E3000F083FA2046E022002100F090FAA4
:100EA0000124EAE7184A194DD36943F00073D3616E
:100EB000AA6D174B9A42DFD12B6E013B7E2BDBD8FC
:100EC000144A01AB07CA83E807001846032100F063
:100ED00011FB6B6D83424FF00003CDD12A6D8A4226
:100EE00003BFAB652A6E054B1C4601BF1A70EA6D45
:100EF000094B1A60C1E700BF9AAD44C53811002004
:100F0000682100201600002000100240006600400A
:100F10005041A0B0586600401811002002232DE96E
:100F2000F0434A4C85B0637100230293484BD3F8D9
:100F300000C0BCF57A7F12D3464F474BB7FBFCF598
:100F40009C458CBF0A231123B5FBF3F603FB165215
:100F5000591EC8B2002A3ED002290B46F4D89DF88B
:100F60000B303E495A1E9DF80A303D48013B1B0498
:100F700043EA0253BDF80820013A13434B6001F0E5
:100F8000E3FC00230193374B374900934FF4805221
:100F9000364B374800F0D4FC364B197811B1344841
:100FA00000F0F6FC00F08CFA0546FFF797FB4FF4D3
:100FB000C873B0FBF3F202FB130305F516709BB286
:100FC00018442D4B186002F061FA08B10F232381F9
:100FD00005B0BDE8F083731EB3F5806FBFD24FF448
:100FE0007A75C0EBC00E0EF103034FEAE30909FB6B
:100FF0000555C3F3C703C11AC9B209F101088844F2
:10100000B5FBF8F5B5F5617F08D90EF1FF33C3F3F1
:10101000C703C11A581E0F28C9B214D84A1E072A7E
:101020008CBF00220122581800FB0660B7FBF0F7C6
:10103000BC4594D1002A92D0ADF808608DF80A30F2
:101040008DF80B108BE71346EDE700BF2C11002045
:1010500018110020005125023F420F0010110020FE
:1010600080220020C90700083C110020590B00080D
:101070004421002038110020402100202DE9F04FAC
:1010800093A7D7E900670FF25029D9E90089854D68
:1010900093B0DFF814B2854C284600F04FFD0DF1F7
:1010A000300A079070B310220021504600F088F9F2
:1010B0004FF00002079B197B61F303028DF830208B
:1010C000586899680EAA03C21B680D9A584663F3C4
:1010D0001C029DF830300D9243F020038DF8303023
:1010E00000235246194601F03FFC079028B92846D4
:1010F00000F028FD079B2370CEE72378072B3CD810
:101100000133237018220021504600F059F9DFF80E
:1011100098B1674C002352461946584601F04CFCE2
:10112000014670BB102208A800F04AF9E36883F07A
:101130001003E36000F0C6F90DF1240C0B4612A970
:10114000024611E903008CE803009DF83410C1F356
:101150000300890649BF0E99BDF83810C1F31C0180
:1011600041F0004158BFC1F30A018DF82C000891ED
:10117000284608A900F0B0FECCE7284600F0E2FCC3
:10118000C0E7284600F00CFC8346002844D100F05C
:1011900097F9484B1A6890423ED300F091F9044603
:1011A000FFF79CFA4FF4C872B0FBF2F101FB12009A
:1011B0008DF820B0DFF800B13E4B04F5167480B214
:1011C0009BF8001004441C6011B901238DF82030F5
:1011D00050460791FFF79AFA07990DF12100C1F1E6
:1011E0001004E4B2062C28BF06245144224600F025
:1011F000D5F808AB039318230293304B01340193C5
:101200000123E4B2009332463B462846049400F0A2
:10121000C9FB00238BF8003000F052F9284A294C12
:101220001368C31AB3F57A7F31D3106000F04AF91E
:1012300002460B46284600F08FFC284600F0B0FB23
:1012400028B3237BDFF880B0002B14BF03230223D5
:101250008BF8053000F034F94FF47A73B0FBF3F0FB
:101260005146CBF800005846FFF7F2FA18230293D4
:10127000164B0730019340F25513C0F3CF00CDE970
:1012800003A0009342464B46284600F08BFB237B8D
:101290002BB1FFF74BFA237B002B7FF4FAAE13B090
:1012A000BDE8F08F44210020802200204D22002044
:1012B000000C0140402100203D2100203C21002065
:1012C00048220020682100202C1100204C22002000
:1012D000401DA12026812A0BF1C6A7C1D068080FA6
:1012E00070B501F06BFF0024084E094D308028686E
:1012F0003388834208D901F05DFF2B680444013331
:10130000B4F5C84F2B60F2D370BD00BF7C22002023
:101310005022002001F0E0BF00F10060920000F5D3
:10132000C84001F085BF0000054B1A68054B1B88BB
:101330009B1A834202D9104401F03CBF0020704741
:10134000502200207C22002038B50446064D286833
:10135000204401F035FF28B928682044BDE8384012
:1013600001F040BF38BD00BF50220020064991F86F
:10137000243033B100230822086A81F82430FFF7B3
:10138000CBBF0120704700BF54220020022802BFBB
:101390001022014B1A617047000C0140002310B568
:1013A000934203D0CC5CC4540133F9E710BD000074
:1013B00003460246D01A12F9011B0029FAD17047E0
:1013C00003460244934202D003F8011BFAE7704738
:1013D0002DE9F8431F4D144695F82420074688460A
:1013E00052BBDFF870909CB395F824302BB92022C3
:1013F000FF2148462F62FFF7E3FF95F8240041469E
:10140000C0F10802A24228BF224605EB8000D6B2F6
:101410009200FFF7C3FF95F82430A41B1E44F6B2D8
:10142000082E17449044E4B285F82460DBD1FFF71E
:101430009DFF0028D7D108E02B6A03EB820383428B
:10144000CFD0FFF793FF0028CBD10020BDE8F88371
:101450000120FBE7542200200FB4002004B07047A5
:10146000EFF30983EFF30583044B9A6BDA6A9A6A08
:101470009A6A9A6A9A6A9A6A9B6AFEE700ED00E0A5
:10148000EFF30983EFF30583044B9A6B9A6A9A6A28
:101490009A6A9A6A9A6A9B6AFEE700BF00ED00E0CA
:1014A000EFF30983EFF30583034B5A6B9A6A9A6A49
:1014B0009A6A9A6A9B6AFEE700ED00E0FEE7000088
:1014C00001F044BF01F01CBF30B5094D0A44914200
:1014D0000DD011F8013B5840082340F30004013BB4
:1014E0002C4013F0FF0384EA5000F6D1EFE730BD43
:1014F0002083B8ED4FF0FF33F7B500EB81061946B6
:10150000DFF848C0DFF848E0B0421BD050F8042BA9
:1015100001AF0192042217F8014B81EA046108240B
:101520000D46DB184941013C002DBCBF83EA0C038A
:1015300081EA0E0114F0FF04F2D1013A12F0FF0229
:10154000E9D1E1E7D843C94303B0F0BD9336EAA936
:10155000EBE1F0422DE9F041C56915B9C161BDE883
:10156000F0814B68AC4623F06047C3F38A4616EA25
:10157000230638BF3E464FEAD37EC3F380782B461E
:101580005A68BEEBD27F22F060440AD0002A18DAF3
:10159000A40CB44217D19D420FD10D60DEE7134673
:1015A000EEE7A74207D102F08044C2F380724245C1
:1015B0000BD054B1EFE708D2EDE7CCF800100B6088
:1015C000CDE7B44201D0B442E5D81A689C46002A5F
:1015D000E5D11960C3E700002DE9F0474FF47F49DA
:1015E000089D01F007044FEAD508224405F00705DD
:1015F00000EBD100944201D1BDE8F08704F0070769
:1016000005F0070A57453E4638BF5646111BC6F13E
:1016100008068E4228BF0E46E108415C08EBD50E55
:1016200013F80EC0B94029FA06F721FA0AF1FFB201
:101630008CEA010147FA0AF739408CEA010C03F8F9
:101640000EC034443544D5E7082341F2210280EA34
:10165000012001B24000002980B203F1FF33B8BF7E
:10166000504013F0FF03F4D17047000038B50C462A
:101670008D18A54200D138BD14F8011BFFF7E4FF17
:10168000F7E700000346006848B1026819891A604C
:10169000DA88013292B29142DA8038BF1A817047FB
:1016A00070B504460D4688B0202200216846FFF739
:1016B00087FE20460495FFF7E5FF024658B16B46CA
:1016C000054608AE1C4603CCB44228606960234638
:1016D00005F10805F6D1104608B070BD10B54B688D
:1016E00023B9CA8A63F30902CA8210BDC4681A68A2
:1016F0001C60C360438A013B43824A60EFE70000FD
:101700002DE9F84F1D46CB8A0F46C3F30901062980
:10171000814692460B4630D00020AAB207F1190448
:101720009EB2052E1FFA80F80FD8904503F10103F1
:1017300006D3FB8A0A4462F309030120FB821AE004
:101740001AF800600130E654EAE79045F1D21C2314
:10175000A1F1060BBBFBF3F203FB12BB7C681FFA83
:101760008BF6002C45D14846FFF78CFF044638B96C
:1017700078606FF00200BDE8F88F4FF00008E6E7F0
:101780000026066078604FF0000BADB2454510D9D9
:101790000AEB0803221D13F8011B08F101089155FB
:1017A000B1B21B291FFA88F82BD0454506F1010676
:1017B000F1D8FB8AC3F30902154465F30903BCE7BA
:1017C0001C46013292B22368002BF9D1AB1F0B44A7
:1017D0001C21B3FBF1F301339BB29A42D3D2BBF18C
:1017E000000FD0D14846FFF74DFF20B9C4F800B034
:1017F000BFE70122E7E7C0F800B05E46206004467C
:10180000C1E74545D5D94846FFF73CFF08B92060F8
:10181000AFE7C0F800B0002620600446B6E700003D
:101820002DE9F04F85B080469246CDE90113BDF811
:101830003C40002A00F0818024B10E9B002B7CD01C
:10184000072C29D808F10C00FFF71CFF054628B922
:101850006FF00205284605B0BDE8F08F1422002184
:10186000FFF7AEFD22460E9905F10800FFF796FD41
:10187000631C2B749AF800302C4403F01F0363F0B0
:101880003F032372019B404643F0004169602946B3
:10189000FFF760FE0125DDE74FF000094FF0800BF8
:1018A0004E464D4600F10C0303930398FFF7EAFE02
:1018B00007460028CCD014220021FFF781FD002E1E
:1018C00039D10222029B3B810E9B02F10801C9B271
:1018D000981939449446B44202F10102D2B201D8B7
:1018E000624607E010F801CB0136062A01F801CB69
:1018F000B6B2EFD9B44208BF4FF0400B9AF80010CF
:10190000B81801F01F0141EA49114BEA01030372C3
:10191000019B013243F00043394640467B603A74F4
:10192000FFF718FE0135B4424FF0000B2DB289F0DD
:101930000109BAD18EE70022C6E76FF0010589E7F9
:10194000F8B5044615460E46242200211F46FFF72F
:1019500037FD069BB5F5001F6360079B28BF4FF658
:10196000FF7223624FF0000338BF6A09A76004F1D9
:101970000C0097B29A4205D8002303602782638245
:10198000A382F8BD0660013330462036F2E700003E
:1019900003781BB94BB2002BC8BF01707047000021
:1019A000007870472DE9F74FDDF83C90804692466D
:1019B0009B46BDF830500D9E9DF83840BDF84070F4
:1019C000B9F1000F01D1002F51D11F2C4FD898F839
:1019D0000000B0B9072F47D835F0030347D13A4686
:1019E00049464FF6FF70FFF741FE20F001002D023F
:1019F000400445EA0464400C44EA40244FF6FF7377
:101A000021E040EA0520072F40EA0464F6D90025CA
:101A10004FF6FF73C5F12000A5F120022AFA05F167
:101A20000BFA00F001432BFA02F211431846C9B237
:101A3000FFF70AFE0835402D0346EBD13A464946EA
:101A4000FFF714FE0346324621464046CDE9009793
:101A5000FFF7E6FE33780133DBB21F2B88BF00238C
:101A6000337003B0BDE8F08F6FF00300F9E76FF05B
:101A70000100F6E72DE9F04F85B0DDF84880924689
:101A800006469B460F9D9DF840209DF84490BDF86A
:101A90004C70B8F1000F01D1002F48D11F2A46D851
:101AA0003378002B46D00C0244EA02649DF83810CB
:101AB00044EAC93444EA01441C43072F44F080043B
:101AC00032D900234FF6FF72C3F1200CA3F120009E
:101AD0002AFA03F10BFA0CFC41EA0C012BFA00F094
:101AE0000143C9B210460393FFF7AEFD039B0246C4
:101AF0000833402BE8D13A464146FFF7B7FD03468D
:101B00002A4621463046CDE90087FFF789FEB9F124
:101B1000010F06D12B780133DBB21F2B88BF0023C6
:101B20002B7005B0BDE8F08F4FF6FF73E8E76FF05C
:101B30000100F6E76FF00300F3E70000C06900B1B1
:101B400004307047C3691A68C261C2681A60C36012
:101B5000438A013B438270472DE9F041D0F8188059
:101B600014461D4641460027174E09B9BDE8F081CD
:101B7000D1E90223A21A65EB0303964277EB030334
:101B80001ED283698B420DD1FFF7A8FD83691B68C4
:101B90008361C3680B60438AC1608169013B8846E9
:101BA0004382E2E7FFF79AFD0B68C8F80030C3688C
:101BB0000B60438AC160013B4382D8F80010D4E730
:101BC00088460968D1E700BF80841E002DE9F04FE8
:101BD0008BB00D4614469B468046DDF85090002899
:101BE00000F01A81B9F1000F00F01681531E3F2B4F
:101BF00000F21281012A03D1BBF1000F40F00C81E9
:101C00000023CDE90833B8F81430B5EBC30F4FEA21
:101C1000C30703D300200BB0BDE8F08F2B199F4200
:101C2000D8F80C3036BF7F1B2746FFB21BB9D8F857
:101C30001030002B7BD02F2D4ED8C5F13006B74287
:101C40004FF0000334BF3E46F6B2009329463246B9
:101C5000D8F8080008ABFFF7BFFCA7EB060A35442D
:101C60005FFA8AFA3021B8F8143003F10053063BCA
:101C7000DB000493D8F80C300393039B13B1BAF143
:101C8000000F2CD1D8F8100040B1BAF1000F05D0E8
:101C90005246009608AB691AFFF79EFC38B2002F37
:101CA000B8D066070AD00AAB03EBD40111F8083CA0
:101CB000624202F00702134101F8083C082C3DD9AA
:101CC000102C40F2B680202C40F2B880BBF1000FFF
:101CD00000F09D80082335E0BA460026C2E7049B49
:101CE000E02B28BFE02306930B44AB42059315D9A4
:101CF0005A1B924538BF5246039828BFD2B200966D
:101D0000691A08AB04300792FFF766FC079A16447D
:101D1000AAEB020A1544F6B25FFA8AFA049B069A05
:101D200005999B1A0493039B1B680393A5E70093F3
:101D30003A462946D8F8080008ABADE7BBF1000FDA
:101D400013D00123B4EBC30F6CD0082C12D89DF82C
:101D50002030621E23FA02F2D50706D54FF0FF327B
:101D600002FA04F423438DF820309DF8203089F8DE
:101D7000003050E7102C12D8BDF82030621E23FA34
:101D800002F2D10706D54FF0FF3202FA04F42343E2
:101D9000ADF82030BDF82030A9F800303BE7202C0A
:101DA0000FD80899631E21FA03F3DA0705D54FF01F
:101DB000FF3202FA04F40C430894089BC9F800307F
:101DC00029E7402C2BD0DDE90865611EC4F1210212
:101DD000A4F1210326FA01F105FA02F225FA03F330
:101DE00011431943CB0712D50122A4F12003C4F1FA
:101DF000200102FA03F322FA01F1A240524243EA1F
:101E0000010363EB430332432B43CDE90823DDE9B0
:101E10000823C9E90023FEE66FF00100FBE66FF03E
:101E20000800F8E6082CA0D9102CB3D9202CEED845
:101E3000C3E7BBF1000FADD0022383E7BBF1000F76
:101E4000BBD004237EE70000012A30B5144638BF1A
:101E500001220025402A28BF402285B0012CCDE96F
:101E6000025517D81B788DF8083053070AD004ABF9
:101E700003EBD20515F8083C544204F00704A340D4
:101E800005F8083C0346009102A80021FFF7A4FBD7
:101E900005B030BD082CE5D9102C03D81B88ADF84F
:101EA0000830E2E7202C02D81B680293DDE7D3E973
:101EB0000045CDE90245D8E710B5CB681BB98B606A
:101EC0000B618B8210BDC4681A681C60C360438AB2
:101ED000013B4382CA60F0E72DE9F04FD1F8008062
:101EE00093B018F0800FCDE90323C8F3C01207BFE9
:101EF0004FF0020B1646C8F3C03BC8F30626B8F1F4
:101F0000000F04460D4680F2C88118F0C0430593C7
:101F100040F0C3810B7B002B00F0BF81BBF1020FAF
:101F200003D00178B14240F0BB8108F07F010791F6
:101F30007AB3C8F3074A2B4493F80390760646EA2F
:101F40000B4608F07F0246EA82465FEAD91346EA6A
:101F50000A06069300F0918000220023CDE90A23AF
:101F600008F07F03009352465B46204667680AA943
:101F7000B84700287ED0A7699FB9314604F10C000C
:101F8000FFF78EFB0746E0B96FF0020013B0BDE823
:101F9000F08FC8F30F2A18F07F0F08BF0AF0030A6A
:101FA000C9E73B699E420DD03F68002FF9D1314609
:101FB00004F10C00FFF774FB07460028E4D0A36986
:101FC0003B60A7610026DDE90A234FF6FF70C6F1EA
:101FD000200E22FA06F103FA0EFEA6F1200C23FAD7
:101FE0000CFC41EA0E0141EA0C01C9B20836099223
:101FF0000893FFF729FBDDE90832402EE7D1B882CC
:10200000FB7D09F01F06C3F384039B1B98B2002BD2
:10201000BCBF00F120031BB2D7E9022152EA010044
:10202000C8F304680FD00398821A049860EB01018A
:10203000A14890424FF000028A4104D3069A002A38
:1020400055D0012B23DDFA7D4FEA890302F003020C
:1020500003F07C031343FB7539462046FFF73EFB34
:10206000069BA3B9FB7DC3F38402013262F38603AE
:10207000FB7504E06FF00B0088E7A76917B96FF0F4
:102080000C0083E73B699E42BAD03F68F6E719F03F
:10209000400F2CD0039B1422BB60049B0021FB60EB
:1020A0000DA8FFF78DF9039B20460A93049BADF81A
:1020B0003EA00B932B1D0C932B7B8DF840B0013B66
:1020C000DBB2ADF83C30079B8DF841608DF84330B2
:1020D0008DF84280A3680AA99847FB7DC3F3840367
:1020E000013303F01F039B02FB8200204EE7FB7DC0
:1020F000C9F34012B2EBD31F40F0D580C3F3840381
:10210000B34240F0D38006992B7B4FEA9912002905
:1021100034D0D20741D4032B40F2CB80039BAE1DB9
:10212000BB60049B3246FB602B7B3946033BDBB232
:1021300004F10C00FFF7E4FA00280DDA20463946D6
:10214000FFF7CCFAFB7D0320C3F38403013303F0D4
:102150001F039B02FB8219E7AB883B832A7B033A70
:10216000B88AD2B23146FFF781FAFB7DB882DA43F2
:10217000C2F3C01262F3C713FB75B6E76AB92E1D2E
:10218000013B32463946DBB204F10C00FFF7B8FAE6
:102190000028D3DB2A7B013AE2E7F98A013BC1F34D
:1021A00009010529DAB255D80023281D07F11A0CB8
:1021B0009A4208D910F801EB01330CF801E0013123
:1021C0000629DBB2F4D1934228BF0023039938BF1C
:1021D00004330A91049938BFDBB20B9107F11A015D
:1021E0000C91796838BF5B190D910E93FB8AADF89D
:1021F0003EA0C3F309031A44079BADF83C208DF8B9
:10220000433000238DF840B08DF841608DF8428056
:102210007B602A7BB88A013A291DFFF727FA3B8B9E
:10222000B882834203D12046A3680AA99847204672
:102230000AA9FFF741FEFB7DB88AC3F3840301338B
:1022400003F01F039B02FB823B8B984214BF1120BB
:1022500000209BE67B68002BB5D0062001E063469A
:102260001C30D3F800C0BCF1000FF8D1091A081DCA
:1022700005F1040C1844DDF814E09DF814308E4488
:10228000BEF11B0F9FD89A429DD91CF8013B00F864
:10229000013B059B01330593EDE76FF0090075E6FF
:1022A0006FF00A0072E66FF00D006FE66FF00E003F
:1022B0006CE66FF00F0069E680841E00F0B53F4DBC
:1022C0003F4FEB6943F00073EB61EB693D4B9B6A59
:1022D000D3F800623E4046F00106C3F80062D3F82E
:1022E00000423C4044EA002444F00104C3F80042A8
:1022F000002955D000200646C3F81C02C3F804028A
:10230000C3F80C02C3F8140203EBC00401300E281A
:10231000C4F84062C4F84462F6D100274FF0010CC3
:102320009678148816F0010F18BFD3F804E20CFA5F
:1023300004F01CBF40EA0E0EC3F804E216F0020FD0
:1023400018BFD3F80CE203EBC4041CBF40EA0E0E26
:10235000C3F80CE2760748BFD3F8146207F101070F
:1023600044BF0643C3F814625668B942C4F84062D9
:10237000966802F10C02C4F84462D3F81C4240EAA9
:102380000400C3F81C02CBD1D3F8002222F00102D2
:10239000C3F80022EB6923F00073EB61EB69F0BD39
:1023A0000122C3F84012C3F84412C3F80412C3F860
:1023B0001412C3F80C22C3F81C22E5E700100240F7
:1023C0000000FFFF80220020184A08B5916A8B6840
:1023D0008B6013F0010104D013F00C0F18BF4FF401
:1023E0008031D80506D513F4406F14BF41F4003195
:1023F00041F00201D80306D513F4402F14BF41F475
:10240000802141F00401D3690BB10848984720238B
:1024100083F311880021064800F01EFE002383F399
:102420001188BDE8084001F073B800BF8022002089
:102430008822002038B5124CA36ADD68AA0712D0A2
:102440005A6922F002025A61A36913B101212046A0
:102450009847202383F3118800210A4800F0FCFDEF
:10246000002383F31188EB0606D51021A36AD960F7
:10247000236A0BB102489847BDE8384001F048B8DC
:10248000802200209022002038B5124CA36A1D69DA
:10249000AA0712D05A6922F010025A61A36913B137
:1024A000022120469847202383F3118800210A48FF
:1024B00000F0D2FD002383F31188EB0606D510212E
:1024C000A36A1961236A0BB102489847BDE83840F6
:1024D00001F01EB8802200209022002038B50F4C59
:1024E000A36A5D682A075D600AD5042222701A6813
:1024F00022F002021A60636A13B100212046984755
:102500006B0706D5A36A9969236A13B103480904C6
:102510009847BDE8384000F0FBBF00BF8022002094
:1025200010B50E4C204600F0FDF90D4B0B21132089
:10253000A36200F0D7F90B21142000F0D3F90B218E
:10254000152000F0CFF90B21162000F0CBF9BDE8E3
:10255000104000220E201146FFF7B0BE802200205E
:10256000006400400F4B10B59842044605D10E4B55
:10257000DA6942F00072DA61DB690122A36A1A604B
:10258000A36A5A68D20707D5626851681268D96190
:102590001A60064A5A6110BD0121082000F052FC61
:1025A000EEE700BF80220020001002405B870100A0
:1025B00003291AD8DFE801F0020A0F14836A9B6826
:1025C00013F0E05F14BF012000207047836A986811
:1025D000C0F380607047836A9868C0F3C06070473A
:1025E000836A9868C0F3007070470020704700004D
:1025F00010B5032927D8DFE801F002272B2F836AC3
:102600009968C1F30161183103EB01131078840656
:1026100048BF5468C0F3001158BF94884FEA410185
:1026200048BF41EAC40100F00F00586048BF41F0C4
:102630000401906858BF41EA4451D26841F0010159
:102640009860DA60196010BD836A03F5C073DDE736
:10265000836A03F5C873D9E7836A03F5D073D5E7B6
:1026600001290AD002290FD081B9836ADA6892075A
:1026700001D1186903E001207047836AD86810F01F
:10268000030018BF01207047836AF2E700207047FB
:1026900010B539B9836AD96889071BD11B699C07B2
:1026A00004D110BD012915D00229FAD1816AD1F8CF
:1026B000C031D1F8C441D1F8C8011061D1F8CC01C2
:1026C0005061202008610869800717D1486940F0EF
:1026D000100012E0816AD1F8B031D1F8B441D1F8DC
:1026E000B8011061D1F8BC0150612020C860C868F1
:1026F000800703D1486940F002004861C3F34000FD
:10270000C3F38001000140EA4111107920F030004C
:102710000143117189064BBF91681189DB085B0D7C
:102720004CBF63F31C0163F30A01137948BF916046
:1027300064F3030313714FEA14234FEA144458BFA0
:10274000118113705480ACE7026843680A43026049
:1027500003B1184770470000024AD36843F0C00332
:10276000D360704700380140024AD36843F0C00389
:10277000D3607047004400402DE9F041D0F89C60E0
:102780000446F7683368DA059DB20DD5202383F33C
:1027900011884FF400710430FFF7D6FF6FF4807397
:1027A0003360002383F31188202383F3118804F11D
:1027B000040815F02F033AD183F31188380615D594
:1027C000290613D5202383F3118804F1380000F083
:1027D0002FFA00284DDA0821201DFFF7B5FF4FF62C
:1027E0007F733B40F360002383F311887A0616D58C
:1027F0006B0614D5202383F31188D4E913239A425E
:102800000AD1236C43B127F040073F041021201D5B
:102810003F0CFFF799FFF760002383F31188D4F88A
:10282000A420D3683BB3BDE8F041106918472B07DB
:1028300013D015F0080F0CBF00218021E80748BF16
:1028400041F02001AA0748BF41F040016B07404614
:1028500048BF41F48071FFF777FFAD06736805D577
:1028600094F8A0102046194000F082FA3568ADB205
:102870009FE77060B7E7BDE8F081000008B5034846
:10288000FFF77AFFBDE8084000F042BEAC2200200E
:1028900008B50348FFF770FFBDE8084000F038BEF8
:1028A0005423002010B5094C00212046084A00F0AE
:1028B0003FFA084B0021C4F89C30074C074A2046D9
:1028C00000F036FA064BC4F89C3010BDAC22002054
:1028D00059270008003801405423002069270008C8
:1028E000004400400122090100F1604303F5614307
:1028F000C9B283F8001300F01F039A4043099B00FC
:1029000003F1604303F56143C3F880211A60704707
:10291000090100F16040C9B200F56D4001767047D1
:10292000FFF7FEBD01230370002300F10802C0E998
:10293000022200F11002C0E90422C0E90633C0E916
:10294000083343607047000010B52023044683F32A
:102950001188022341600370FFF704FE04232370F3
:10296000002383F3118810BD2DE9F0411F46044672
:102970000D461646202383F3118800F108082378BA
:10298000052B0DD029462046FFF712FE40B1204608
:1029900032462946FFF72CFE002080F3118808E01C
:1029A0003946404600F03CFB0028E8D0002383F382
:1029B0001188BDE8F08100002DE9F0411F46044672
:1029C0000D461646202383F3118800F11008237862
:1029D000052B0DD029462046FFF742FE40B1204688
:1029E00032462946FFF754FE002080F3118808E0A4
:1029F0003946404600F014FB0028E8D0002383F35A
:102A00001188BDE8F0810000F8B5154682680B46D4
:102A1000AA428169066938BF8568761AB5420446BC
:102A20000BD218462A46FEF7B9FCA3692B44A361D2
:102A3000A36828465B1BA360F8BD0CD91846324634
:102A4000FEF7ACFCAF1B3A46E1683044FEF7A6FC4B
:102A5000E3683B44EBE718462A46FEF79FFCE36831
:102A6000E5E700002DE9F0411546836804469342EE
:102A700038BF8568D0E904703F1ABD420E460BD2BC
:102A80002A46FEF78BFC63692B446361A3682846E2
:102A90005B1BA360BDE8F0810CD93A46A5EB0708A3
:102AA000FEF77CFC4246E068F119FEF777FCE3682C
:102AB0004344EAE72A46FEF771FCE368E5E70000D5
:102AC00010B50024C361029BC0E90511C160114427
:102AD000C0E9000084600161036210BD08B5D0E95F
:102AE0000532934201D1826892B9826801328260D4
:102AF0005A1C42611970D0E904329A4228BFC36857
:102B00004FF0000128BF436100F09AFA002008BD91
:102B10004FF0FF30FBE7000070B5202304460D4660
:102B200083F31188A668A6B1A368A269013BA360DC
:102B3000531CA36115782269934224BFE368A36103
:102B4000E3690BB120469847002383F31188284698
:102B500007E02946204600F063FA0028E2DA86F30F
:102B6000118870BD2DE9F74F04460E46174698466A
:102B7000D0F81C904FF0200A8AF311884FF0000B18
:102B8000154665B12A4631462046FFF73DFF03460C
:102B900060B94146204600F043FA0028F1D00023F6
:102BA00083F31188781B03B0BDE8F08FB9F1000FF3
:102BB00003D001902046C847019B8BF31188ED1A82
:102BC0001E448AF31188DCE7C361009BC0E905114C
:102BD000C1601144C0E90000826001610362704776
:102BE000F8B504460D461646202383F31188A768DE
:102BF000A7B1A368013BA36063695A1C62611D70A1
:102C0000D4E904329A4224BFE3686361E3690BB1FB
:102C100020469847002080F3118807E0314620467F
:102C200000F0FEF90028E2DA87F31188F8BD000011
:102C3000D0E905239A4210B501D182687AB9826839
:102C40000021013282605A1C82611C7803699A4219
:102C500024BFC368836100F0F3F9204610BD4FF034
:102C6000FF30FBE72DE9F74F04460E46174698461E
:102C7000D0F81C904FF0200A8AF311884FF0000B17
:102C8000154665B12A4631462046FFF7EBFE03465E
:102C900060B94146204600F0C3F90028F1D0002376
:102CA00083F31188781B03B0BDE8F08FB9F1000FF2
:102CB00003D001902046C847019B8BF31188ED1A81
:102CC0001E448AF31188DCE7026843680A43026005
:102CD00003B11847704700001430FFF743BF0000EE
:102CE0004FF0FF331430FFF73DBF00003830FFF7DF
:102CF000B9BF00004FF0FF333830FFF7B3BF00001B
:102D00001430FFF709BF00004FF0FF311430FFF718
:102D100003BF00003830FFF763BF00004FF0FF3201
:102D20003830FFF75DBF000000207047FFF7BABDE5
:102D300037B515460D4A0446026000224260C0E9DC
:102D4000022201220B46027400F15C010090202255
:102D50001430FFF7B5FE2B462022009404F17C01CD
:102D600004F13800FFF730FF03B030BD7C3A0008B3
:102D700038B5C36904460D461BB904210844FFF762
:102D8000A3FF294604F11400FFF7A8FE002806DA85
:102D9000201D4FF48061BDE83840FFF795BF38BD76
:102DA0000022024BC3E900339A607047FC230020E5
:102DB000002382680374054B1B6899689142FBD21B
:102DC0005A6803604260106058607047FC2300201E
:102DD00008B5202383F31188037C032B05D0042B33
:102DE0000DD02BB983F3118808BD002243691A6006
:102DF0004FF0FF334361FFF7DBFF0023F2E7D0E939
:102E0000003213605A60F3E7002382680374054BB5
:102E10001B6899689142FBD85A6803604260106051
:102E200058607047FC230020054B19690874186826
:102E3000026853601A60186101230374FDF786BBB2
:102E4000FC23002030B54B1C04460B4D87B010D03E
:102E50002B690A4A01A800F01BF92046FFF7E4FF9E
:102E6000049B13B101A800F02FF92B69586907B032
:102E700030BDFFF7D9FFF8E7FC230020D12D000873
:102E800038B50C4D41612B6981689A6804469142BE
:102E900003D8BDE83840FFF78BBF1846FFF7B4FFF3
:102EA00001232C61014623742046BDE83840FDF71C
:102EB0004DBB00BFFC230020044B1A681B699068BF
:102EC0009B68984294BF002001207047FC2300209B
:102ED00010B5084C236820691A68546022600122EA
:102EE00023611A74FFF790FF01462069BDE8104086
:102EF000FDF72CBBFC23002008B5FFF7DDFF18B160
:102F0000BDE80840FFF7E4BF08BD0000FFF7E0BFE1
:102F1000FEE7000010B50C4CFFF742FF00F0AAF8E6
:102F200080220A49204600F031F8012344F8180CA9
:102F3000037400F0C9FA002383F3118862B6BDE878
:102F40001040034800F042B824240020A43A0008AE
:102F5000B43A000800F0CAB8EFF3118020B9EFF3DB
:102F60000583202282F311887047000010B530B924
:102F7000EFF30584C4F3080414B180F3118810BD85
:102F8000FFF7BAFF84F31188F9E70000826002229C
:102F9000028270478368A3F13C0243F80C2C02695B
:102FA00043F83C2C426943F8382C074A43F81C2C60
:102FB000C268A3F1180043F8102C022203F8082C71
:102FC000002203F8072C70475D05000810B5202388
:102FD00083F31188FFF7DEFF00210446FFF750FF5F
:102FE000002383F31188204610BD0000024B1B69AB
:102FF00058610F20FFF718BFFC230020202383F324
:103000001188FFF7F3BF000008B50146202383F3C2
:1030100011880820FFF716FF002383F3118808BDED
:1030200049B1064B42681B6918605A6013604360DF
:103030000420FFF707BF4FF0FF307047FC2300204C
:1030400003460068834205D002681A6053604161FC
:10305000FFF7AEBE7047000038B504460D46206845
:10306000844200D138BD036823605C604561FFF78E
:103070009FFEF4E7054B03F11402C3E905224FF06C
:10308000FF32DA6100221A62704700BFFC23002081
:1030900010B5C0E903230B4A136A53699C68A14227
:1030A0000CD85C6881600360446020605860986858
:1030B000411A99604FF0FF33D36110BD1B68091BA3
:1030C000ECE700BFFC230020036881689A680A448B
:1030D0009A60426813605A6000234FF0FF32C36069
:1030E000014BDA61704700BFFC23002038B50F4C5C
:1030F0002246236A0133236252F8143F934206D0DA
:1031000020259A68013A9A6063699A6802B138BDCD
:10311000D3E9001001604860D968DA6082F3118851
:103120001869884785F31188EEE700BFFC2300206B
:1031300000207047FEE70000704700004FF0FF30AE
:1031400070470000BFF34F8F024AD368DB07FCD4FF
:10315000704700BF0020024008B5074B1B7853B9E9
:10316000FFF7F0FF054B1A69120641BF044A5A6087
:1031700002F188325A6008BD00250020002002407C
:103180002301674508B5054B1B7833B9FFF7DAFF14
:10319000034A136943F08003136108BD0025002032
:1031A000002002407F289ABF00F5003080020020F6
:1031B000704700004FF48060704700008020704727
:1031C0007F2808B50BD8FFF7EDFF00F58063026894
:1031D000013204D104308342F9D1012008BD00201E
:1031E000FCE700007F2810B504461CD8FFF7AAFFB3
:1031F000FFF7B2FFF3220D4B4FF48061DA60022239
:103200001A61FFF7CFFF58611A6942F040021A6154
:10321000FFF798FF00F004F9FFF7B4FF2046BDE880
:103220001040FFF7CDBF002010BD00BF00200240BE
:103230002DE9F843054612F00100144606D040F28D
:10324000B72200201E4B1A60BDE8F8831D4BAA1858
:103250009A4204D94FF42F72194B1A60F4E7FFF722
:103260007BFF4FF00109FFF76DFFDFF85C806D1AFF
:10327000012C0F4605EB010603D8FFF783FF012061
:10328000E2E73B88C8F8109033800020FFF75AFF30
:10329000C8F81000338831F8022B9BB29A420CD048
:1032A00040F2D322064B1A60084B1E60084B1C608C
:1032B000084B1F60FFF766FFC6E7023CD8E700BF78
:1032C000FC2400200000020800200240F02400201E
:1032D000F8240020F4240020084908B50B7828B110
:1032E0001BB9FFF739FF01230B7008BD002BFCD081
:1032F000BDE808400870FFF745BF00BF002500206B
:1033000070B5FFF729FE4FF47A710D4B0D4E1B6A15
:10331000326801FB03F3934237BF0B4A0A495168F5
:10332000156836BF4C1CD1E9005454605D1944F156
:1033300000043360FFF71AFE2846214670BD00BF27
:10334000FC230020042500200825002070B5FFF78D
:1033500003FE4FF47A710F4B0F4E1B6A326801FB6C
:1033600003F3934237BF0D4A0C49516815683ABFC1
:103370004C1C5460D1E900545D1944F100043360E1
:10338000FFF7F4FD4FF47A72002328462146FCF73C
:10339000E7FE70BDFC230020042500200825002046
:1033A00010B5094C013AD2B2FF2A00D110BD500825
:1033B00054F82030013054F820009BB243EA004317
:1033C00041F8043BEEE700BF046C004010B507482D
:1033D000013AD2B2FF2A00D110BD0C88530840F840
:1033E00023404C88013340F82340F1E7046C00404F
:1033F00007B50122002001A9FFF7D2FF019803B011
:103400005DF804FB13B50446FFF7F2FFA04205D0B8
:103410000122002001A90194FFF7D8FF02B010BDDE
:103420007047000045F25552064B1A6002225A605E
:1034300040F6FF729A604CF6CC421A600122024BB1
:103440001A7070470030004014250020034B1B7891
:103450001BB14AF6AA22024B1A60704714250020BD
:1034600000300040044B1A682AB902F1804202F58C
:103470000432526A1A607047102500204FF08072A3
:10348000014B5A62704700BF0010024008B5FFF7B9
:10349000E9FF024B1868C0F3407008BD10250020FA
:1034A00008B5FFF7DFFF024B1868C0F3007008BDD6
:1034B00010250020EFF30983203383F309880023CC
:1034C00083F3118870470000202080F3118862B6D2
:1034D0000C4B0D4AD96821F4E0610904090C0A4338
:1034E000DA60D3F8FC20094942F08072C3F8FC206E
:1034F0000A6842F001020A601022DA7783F822009B
:10350000704700BF00ED00E00003FA05001000E086
:10351000202310B583F311880B4B5B6813F4006311
:103520000FD0EFF309844FF08073203CE36184F304
:103530000988FFF7C1FC10B1044BA36110BD044B17
:10354000FBE783F31188F9E700ED00E06F05000861
:103550007205000870470000FEE700000A4B0B48A8
:103560000B4A90420BD30B4BC11EDA1C121A22F0ED
:1035700003028B4238BF00220021FDF721BF53F820
:10358000041B40F8041BECE7343B0008982500209E
:1035900098250020982500207047000000F030B8E2
:1035A00008B500F063F9FFF7B5FCBDE80840FFF788
:1035B00059BF0000704700004FF0FF310E4B1A69F1
:1035C00019611A6900221A611869D868D960D96826
:1035D000DA60DA68DA6942F08052DA61DA69DA6967
:1035E00042F00062DA61054ADB69136843F48073D4
:1035F000136000F01BB900BF0010024000700040D3
:10360000194B1A6842F001021A601A689007FCD53B
:103610001A6802F0F9021A6000225A605A6812F021
:103620000C0FFBD11A6842F480321A601A689103B9
:10363000FCD55A6842F4E8125A601A6842F0807267
:103640001A601A689201FCD51221084A5A60084A89
:1036500011605A6842F002025A605A6802F00C0285
:10366000082AFAD1704700BF0010024000641D0014
:1036700000200240084A08B5516913680B4003F066
:103680000103536123B1054A13680BB15068984791
:10369000BDE80840FFF73CBF0004014018250020AA
:1036A000084A08B5516913680B4003F002035361DF
:1036B00023B1054A93680BB1D0689847BDE808402C
:1036C000FFF726BF0004014018250020084A08B56E
:1036D000516913680B4003F00403536123B1054A99
:1036E00013690BB150699847BDE80840FFF710BF58
:1036F0000004014018250020084A08B551691368E4
:103700000B4003F00803536123B1054A93690BB1E1
:10371000D0699847BDE80840FFF7FABE00040140B1
:1037200018250020084A08B5516913680B4003F0BA
:103730001003536123B1054A136A0BB1506A9847CD
:10374000BDE80840FFF7E4BE000401401825002052
:10375000174B10B55A691C68144004F478725A610A
:10376000A30604D5134A936A0BB1D06A9847600642
:1037700004D5104A136B0BB1506B9847210604D542
:103780000C4A936B0BB1D06B9847E20504D5094AFC
:10379000136C0BB1506C9847A30504D5054A936C84
:1037A0000BB1D06C9847BDE81040FFF7B1BE00BF29
:1037B00000040140182500201A4B10B55A691C68F6
:1037C000144004F47C425A61620504D5164A136D14
:1037D0000BB1506D9847230504D5134A936D0BB177
:1037E000D06D9847E00404D50F4A136E0BB1506EAC
:1037F0009847A10404D50C4A936E0BB1D06E98473C
:10380000620404D5084A136F0BB1506F9847230424
:1038100004D5054A936F0BB1D06F9847BDE81040AF
:10382000FFF776BE0004014018250020062108B5E8
:103830000846FFF757F806210720FFF753F806213F
:103840000820FFF74FF806210920FFF74BF8062163
:103850000A20FFF747F806211720FFF743F8BDE8D5
:10386000084006212820FFF73DB8000008B5FFF703
:10387000A3FE064800F00EF8FFF752F8FFF756FADD
:10388000FFF798FEBDE8084000F002B8CC3A000807
:1038900000F042B8002319461C4A0133102BC2E93C
:1038A000001102F10802F8D1194B9A6942F07D0229
:1038B0009A619B690268174BDA6082685A604268B5
:1038C0001A60C26803F58063DA6042695A6002696F
:1038D0001A608269C3F80C24026AC3F80424C2691E
:1038E000C3F80024426AC3F80C28C26AC3F804284B
:1038F000826AC3F80028026BC3F80C2C826BC3F8F1
:10390000042C426BC3F8002C704700BF1825002020
:1039100000100240000801404FF0E023044A082153
:103920005A6100229A6107220B201A61FEF7F0BF4C
:103930003F19010008B5202383F31188FFF70AFB24
:10394000002383F3118808BD08B5FFF7F3FFBDE836
:103950000840FFF7DDBD000010B501390244904278
:1039600001D1002005E0037811F8014FA34201D0F6
:10397000181B10BD0130F2E72DE9F0419BB1044660
:10398000C91A1778014403F1FF3C8C42204601D943
:10399000002008E005780134BD42F6D10CEB0405A7
:1039A000D618A54201D1BDE8F08115F8018D16F8B1
:1039B00001EDF045F5D0E8E7034611F8012B03F8D7
:1039C000012B002AF9D170476F72672E61726475FE
:1039D00070696C6F742E51463130475053000000AF
:1039E0004E6F20617070207369670A004261642025
:1039F0006677206C656E6774682025750A004261E1
:103A00006420626F6172645F696420257520736849
:103A10006F756C642062652025750A004261642020
:103A200066772064657363726970746F72206C6569
:103A30006E6774682025750A0042616420617070A9
:103A400020435243203078253038783A307825307A
:103A50003878203078253038783A30782530387802
:103A60000A00476F6F64206669726D776172650A3C
:103A70000040A2E4F164689106000000000000002C
:103A8000F52C0008E12C00081D2D0008092D000868
:103A9000152D0008012D0008ED2C0008D92C000878
:103AA000292D00086D61696E0000000069646C6575
:103AB00000000000AC3A000840240020F024002060
:103AC00001000000112F0008000000000C1E000083
:103AD000447B4844B45749440000000048444144F2
:103AE00044444444000000004444444444444444A6
:103AF00000000000444444444444444400000000A6
:103B0000444444444444444488C6FF7F01000000C8
:103B1000531D000000000000009C01000000000098
:103B2000640000000000000040420F00FE2A010077
:043B3000D2040000BB
:00000001FF
