:020000040800F2
:1000000000090020A1040008C1130008C51300085E
:1000100005140008C5130008E5130008A304000830
:10002000A3040008A3040008A30400082134000866
:10003000A3040008A3040008A3040008293800084A
:10004000A3040008A3040008A3040008A3040008F4
:10005000A3040008A3040008D535000801360008F1
:100060002D3600085936000885360008A30400081C
:10007000A3040008A3040008A3040008A3040008C4
:10008000A3040008A3040008A30400081123000827
:100090007D230008D123000825240008B13600087C
:1000A000A3040008A3040008A3040008A304000894
:1000B000A3040008A3040008A3040008A304000884
:1000C000A3040008A3040008A3040008A304000874
:1000D000A3040008492800085D280008A3040008BC
:1000E00019370008A3040008A3040008A3040008AB
:1000F000A3040008A3040008A3040008A304000844
:10010000A3040008A3040008A3040008A304000833
:10011000A3040008A3040008A3040008A304000823
:10012000A3040008A3040008A3040008A304000813
:10013000A3040008A3040008A3040008A304000803
:10014000A3040008A3040008A3040008A3040008F3
:10015000A3040008A3040008A3040008A3040008E3
:10016000D0400B1CD1409C46203AD3401843524209
:1001700063469340184370479140031C90409C464F
:10018000203A9340194352426346D3401943704783
:1001900053B94AB9002908BF00281CBF4FF0FF31EE
:1001A0004FF0FF3000F07AB9ADF1080C6DE904CEE4
:1001B00000F006F8DDF804E0DDE9022304B0704742
:1001C0002DE9F0478C460E460446089D002B50D181
:1001D0008A4217466CD9B2FA82FEBEF1000F0BD0EC
:1001E000CEF1200C01FA0EF620FA0CFC02FA0EF702
:1001F0004CEA060C00FA0EF43A0CBCFBF2F9BBB266
:1002000002FB19CC09FB03FA4FEA144848EA0C46F2
:10021000B2450AD9F61909F1FF3180F02581B245BE
:1002200040F22281A9F102093E44A6EB0A06B6FB80
:10023000F2F002FB106600FB03F3A4B244EA0644AA
:10024000A34209D9E41900F1FF3280F00B81A342E7
:1002500040F2088102383C440021E41A40EA094097
:10026000002D62D0002324FA0EF42C606B60BDE8F0
:10027000F0878B4207D9002D55D0002185E8410039
:100280000846BDE8F087B3FA83F1002940F08F807B
:10029000B34202D3824200F2FC80841A66EB03066A
:1002A0000120B446002D40D085E81010BDE8F0874D
:1002B00012B90127B7FBF2F7B7FA87FEBEF1000FBC
:1002C00035D10121F61B4FEA174C1FFA87F8B6FB10
:1002D000FCF20CFB126608FB02F0230C43EA064614
:1002E000B04207D9F61902F1FF3302D2B04200F250
:1002F000D2801A46361AB6FBFCF00CFB106608FBDF
:1003000000F8A3B243EA0644A04507D9E41900F176
:10031000FF3302D2A04500F2B9801846A4EB0804CE
:1003200040EA02409CE729462846BDE8F08707FAE4
:100330000EF7CEF1200326FA03F24FEA174CB2FB78
:10034000FCF11FFA87F80CFB112206FA0EF620FAD0
:1003500003F301FB08F933431E0C46EA0246B1459C
:1003600000FA0EF409D9F61901F1FF3280F08C8001
:10037000B14540F2898002393E44A6EB0906B6FB3E
:10038000FCF00CFB106200FB08F99EB246EA024644
:10039000B14507D9F61900F1FF3371D2B1456FD9D4
:1003A00002383E44A6EB090640EA01418FE7C1F15D
:1003B000200722FA07F88B4048EA030326FA07F4DD
:1003C0004FEA134EB4FBFEF91FFA83FC0EFB1944EF
:1003D0008E4020FA07F809FB0CFA48EA06084FEAB3
:1003E000184646EA0444A24502FA01F200FA01F670
:1003F00008D9E41809F1FF3044D2A24542D9A9F145
:1004000002091C44A4EB0A04B4FBFEF00EFB1044EA
:1004100000FB0CFC1FFA88F848EA0444A44507D9FD
:10042000E41800F1FF3E29D2A44527D902381C4424
:1004300040EA0940A0FB0289A4EB0C0CCC45C24663
:10044000CE4615D312D055B1B6EB0A036CEB0E06AF
:1004500006FA07F7CB401F43CE402F606E600021A5
:10046000BDE8F0871046F7E68946DEE64645EAD263
:10047000B8EB020A69EB030E0138E4E77046D7E7F0
:1004800018468FE78146BDE7114676E702383C44BF
:1004900044E7084606E7023A3E442BE7704700BFB0
:1004A00002E000F000F8FEE772B6274880F3088803
:1004B000264880F3098826484EF60851CEF20001FE
:1004C0000860022080F31488BFF36F8F02F0F8FFFA
:1004D00003F014F84FF055301E491B4A91423CBFBF
:1004E00041F8040BFAE71C49184A91423CBF41F815
:1004F000040BFAE719491A4A1A4B9A423EBF51F8BF
:10050000040B42F8040BF8E700201749174A914200
:100510003CBF41F8040BFAE702F0D6FF02F0F0FF0F
:10052000134C144DAC4203DA54F8041B8847F9E726
:1005300000F03CF8104C114DAC4203DA54F8041BA7
:100540008847F9E702F0BEBF000900200011002033
:10055000000000080001002000090020F039000818
:10056000001100201C110020201100208C250020EB
:1005700060010008600100086001000860010008D7
:100580002DE9F04FC1F80CD0C3689D46BDE8F08F4F
:10059000002383F311882846A047002002F014FDB1
:1005A000FEE702F07BFC00DFFEE700002DE9F041F2
:1005B000324A936943F005039361A2F58832536888
:1005C00043F00073536002F0D5FE074602F022FFAD
:1005D0000546C8BB2A4B9F4236D001339F4236D0D6
:1005E000284B27F0FF029A4235D1F8B200F04CFABE
:1005F000A84642F2107400F05DFC00F04BFA06468B
:1006000068B374BB464635B11F4B9F4203D00024EC
:1006100002F0F8FE2646002002F0B6FE1B4B9B6857
:1006200013F0400320D00EB100F032F800F064FC6B
:1006300000F0FEFD00F0F4FE0546BCB900F0B2FC8F
:10064000012002F0C7FCF8E7A8460024D3E70446DF
:100650004FF00108CFE780464FF47A74CBE70446A9
:10066000D1E74FF47A74CEE71C46DFE700F0D8FEFE
:10067000401BA042E2D900F00BF8DBE7001002407B
:10068000010007B0000008B0263A09B0000C014094
:1006900010B51C4B1C4953F8042F013200D110BD7A
:1006A0008B42F8D1194C1A4B22689A4228D9194B1F
:1006B0009B6803F1006303F5C8439A4220D202F01D
:1006C00075FE02F087FE002000F0CCFD0220124BE8
:1006D000187000F003FE114BDA690022DA61D96963
:1006E00099699A619B6972B60D4B0E4A202113607D
:1006F0001B68226881F311889D4683F308881047A0
:1007000010BD00BFFC6300081C64000804640008FE
:10071000FF6300080011002020110020001002409B
:100720000064000808ED00E049F2690008490B6820
:100730009AB21B0C00FB02330B6044F25061054A75
:10074000136898B21B0C01FB0030106080B2704738
:10075000181100201411002010B5044600211022A9
:1007600000F0D6FD034B03CB206061601868A060E9
:1007700010BD00BFE8F7FF1FF0B5BBB000F050FEA2
:100780001D4CA368C31AF92B30D906AD2346A060CF
:1007900028220021284601F0C5FA04F10E0000F0DD
:1007A000AFFD0023C6B2591D5F1CDBB2B3424FEA56
:1007B000C10107DA0E3323440822284601F0B2FAB9
:1007C0003B46F0E701230393082302930B4B207B66
:1007D00001933023C1F3CF0105910093014604A397
:1007E000D3E900230495064801F0D6F83BB0F0BDEC
:1007F00078F6339F93CACD8D602100206D210020B3
:100800003C21002070B50D4614461E4601F06CF8E0
:1008100050B9022E0ED1012C0CD112A3D3E9002322
:10082000C5E90023012070BD052C14D003D8012C8C
:1008300009D0002070BD282C09D0302CF9D10BA391
:10084000D3E90023ECE70BA3D3E90023E8E70BA3EC
:10085000D3E90023E4E70BA3D3E90023E0E700BFDB
:10086000AFF30080401DA12026812A0B78F6339F2C
:1008700093CACD8D9E6AC421818A46EE264172724A
:10088000DF25D7B7F017304A39059E5638B50D46E3
:100890000446034620222846002101F043FA22792B
:1008A0002346032A28BF0322284603F8042F2021C9
:1008B000022201F037FA62792346072A28BF07226D
:1008C000284603F8052F2221032201F02BFAA279F2
:1008D0002346072A28BF0722284603F8062F25218A
:1008E000032201F01FFA284604F1080310222821F0
:1008F00001F018FA382038BD2DE9F04FFFB01FAED7
:100900000CAD40F2791280460F463046002100F0CF
:10091000FFFC48220021284600F0FAFC00F080FD90
:100920004FF47A72B0FBF2F0554B0DF1520918609A
:1009300093E8070001232B74002385E807000DF1DD
:1009400052006B74FFF708FF1D2385F820305323F6
:1009500085F8213006AB18464A4902F09BFF152264
:1009600028643146284685F83C20FFF78FFF10ABFE
:10097000044601460822304601F0D4F908220DF160
:100980004103A118304601F0CDF90DF142030822D0
:1009900004F11001304601F0C5F911AB202204F139
:1009A0001801304601F0BEF912AB402204F13801C3
:1009B000304601F0B7F914AB082204F17801304653
:1009C00001F0B0F90DF15103082204F18001304625
:1009D00001F0A8F904F1880A04F5847B4B465146DE
:1009E000082230460AF1080A01F09CF9D34509F1C2
:1009F0000109F3D119AB08225946304601F092F9AA
:100A00004FF0000904F5887495F834304B4510D840
:100A10004FF0000995F83C304B4515D92B6C214619
:100A20004B440822304601F07DF9083409F10109F0
:100A3000F0E7AB6B21464B440822304601F072F9D7
:100A4000083409F10109DFE7E31DC3F3CF03F97EA1
:100A50000593002304960393BB7E19370293012369
:100A600001970093404604A3D3E9002300F094FFCC
:100A70007FB0BDE8F08F00BF9E6AC421818A46EE38
:100A80002411002040390008014B1870704700BF46
:100A900030110020F0B5334B85B01C7B34B10E22F1
:100AA000314B1A810024204605B0F0BD2F4A02AB1D
:100AB0001068516803C308232D490DEB03022D482C
:100AC00002F0CAFE054630B90A22274B2A481A818D
:100AD00000F072FCE6E70169B1F5CE3F06D90B22C2
:100AE000214B26481A8100F067FCDCE741F653529F
:100AF000438B934207D00C201B490881194620489C
:100B000000F05AFCCFE71F4A024402F11003994259
:100B100004D21022144B1C481A81E4E710398E1AB3
:100B20002046144900F080FC0746324605F11801C2
:100B3000204600F079FCAB689F4202D1EB689842F6
:100B40000AD00D22084B1A8100903B46EA68A9683A
:100B50000E4800F031FCA5E70D4800F02DFC012403
:100B6000A1E700BF6021002024110020A438000864
:100B7000DC9B010000640008AC380008B8380008AD
:100B8000CA380008089CFFF7E83800080539000853
:100B90002E3900082DE9F04FADB006AF80460C4667
:100BA00000F0A2FE064600285BD1237E022B19D15D
:100BB000E38A012B16D100F033FC0546FFF7B4FDA4
:100BC0004FF4C873B0FBF3F101FB1300B34A80B2DA
:100BD00005F51675E37E28441060914633B900226E
:100BE000AF4B1A709C37BD46BDE8F08FA38AF5B2B3
:100BF000013BAB4206F101060CD93B1D691CC90043
:100C00001D4400950023082201F0F801204600F061
:100C10005BFFEBE707F11400FFF79EFD2A4607F1A3
:100C20001401381D02F008FE03460028D7D10F2D0D
:100C300008D89B4B1D70D9F80030A3F51673C9F87E
:100C40000030CFE707F1980202F8950D00920146B7
:100C50000722204600F038FFF978404600F03CFEBD
:100C6000C0E7E38A052B00F0068106D8012BB9D135
:100C700021464046FFF740FEB4E7282B3DD0302BFD
:100C8000B0D1637E874D01336A7BDBB29342E94684
:100C900040F0EF80E27E2B7B9A4240F0EA80002613
:100CA00007F1980323F8846D009310220123314645
:100CB000204600F009FFB4F81480A8F102081FFADA
:100CC00088F808F1030323F003030A3323F0070332
:100CD000ADEB030D0DF1180A33469BB2B11C9845DC
:100CE0004FEAC10106F101066CDD5344009308226E
:100CF0000023204600F0E8FEEEE7A38A013B9BB20A
:100D0000C92B3FF66FAF674E357B4DBB06F10C0329
:100D1000009308222B462946204600F0D5FEA38AE0
:100D200005F10109013BEDB29D424FEAC90109DA23
:100D30000E353544009500230822204600F0C4FEFD
:100D40004D46ECE700230022C6E900230023B360F0
:100D500086F8D730C6F8D830337B0BB9E37E3373CF
:100D6000002507F114063B1D0822294630467D6008
:100D7000BD60FD6000F0D6FF3B7A05F10109AB4292
:100D80004FEAC90107D9FB6808222B44304600F01E
:100D9000C9FF4D46F0E70023C1F3CF01E07E059186
:100DA00004960393A37E19340293282301460093EB
:100DB000019438A3D3E90023404600F0EDFDFFF78E
:100DC000DBFC0FE795F8D70000F056FAD5F8D830DD
:100DD00006461BB995F8D70000F05EFAD5F8D83072
:100DE00043449E4204D295F8D700013000F054FAF3
:100DF00000244FEA980BA0B2584504F1010408DA28
:100E00002B6880000AEB00010122184400F088FAE8
:100E1000F1E7D5F8D840D5E9002312EB080243F1F9
:100E20000003444495F8D700C5E90023C5F8D8402D
:100E300000F022FA844209D395F8D730013385F8BF
:100E4000D730D5F8D8309E1BC5F8D860B8F1FF0F61
:100E500008DC00232B7300F031FAFFF71BFE08B10A
:100E6000FFF716FC2B68104A9B0A013313810023FD
:100E7000AB60CD46B6E6BFF34F8F0C490C4BCA684A
:100E800002F4E0621343CB60BFF34F8F00BFFDE776
:100E9000AFF3008026417272DF25D7B738210020DA
:100EA00035210020602100202411002000ED00E009
:100EB0000400FA0508B54FF000530B4A1968914237
:100EC0000AD1597D094A0A4811701B7DC922037352
:100ED00008490E3000F00AFABDE80840E02200217F
:100EE0004FF0005000F014BA9AAD44C53011002004
:100EF0006021002016000020022330B51F4C85B071
:100F0000637104230025ADF8083001230722ADF8F2
:100F10000C501B498DF80C308DF80B30194B1A48CA
:100F20004B608DF80A2001F0F5FC184B01950093F9
:100F30001749184B4FF48052174800F0A5FC174B87
:100F40002546197811B1144800F0C6FC00F068FA83
:100F50000446FFF7E9FB4FF4C873B0FBF3F202FB62
:100F6000130304F516749BB21C440D4B1C6002F075
:100F700051FA08B10F232B8105B030BD2411002098
:100F80000C1100200300060078220020050800084C
:100F900034110020950B00083C2100203011002066
:100FA000382100202DE9F04F96A7D7E900670FF20E
:100FB0005C29D9E900898F4C93B0DFF858B2DFF88B
:100FC00058A2204600F032FD0CAD079098B31022D5
:100FD0000021284600F09CF94FF00002079B197B86
:100FE00061F3030219468DF8302051F8040F0EAA60
:100FF000496803C21B680D9A584663F31C029DF8AA
:1010000030300D9243F020038DF8303000232A4613
:10101000194601F08FFC079030B9204600F00AFD18
:10102000079B8AF80030CCE79AF80030072B40DCA9
:1010300001338AF8003018220021284600F068F9B0
:10104000DFF8D0B1DFF8D4A100232A46194658466C
:1010500001F098FC014680BB102208A800F058F966
:10106000DAF80C3083F01003CAF80C3000F0DAF92B
:101070000DF1240E0B4612A9024611E903008EE879
:1010800003009DF83410C1F30300890649BF0E998F
:10109000BDF83810C1F31C0141F0004158BFC1F345
:1010A0000A018DF82C000891204608A900F082FE64
:1010B000CAE7204600F0BEFCBDE7204600F014FC65
:1010C000824600284AD100F0ABF9DFF854B1DBF8D2
:1010D0000030984242D300F0A3F90790FFF724FBB9
:1010E0004FF4C873B0FBF3F101FB1300079A80B211
:1010F00002F516721044CBF80000DFF828B18DF825
:1011000020A09BF8001011B901238DF8203028464B
:101110000791FFF721FB07990DF12100C1F1100A9A
:101120005FFA8AFABAF1060F28BF4FF0060A29447F
:10113000524600F0DBF80AF10103049308AB039375
:10114000182302932C4B324601930123204600932F
:101150003B4600F0CBFB00238BF8003000F060F939
:10116000264ADFF8C4A01368C31AB3F57A7F32D3D6
:10117000106000F057F902460B46204600F064FC70
:10118000204600F0B1FB30B39AF80C30DFF89CB089
:10119000002B14BF032302238BF8053000F040F925
:1011A0004FF47A73B0FBF3F02946CBF800005846B1
:1011B000FFF76CFB18230293114B0730019340F2A9
:1011C0005513C0F3CF0004900093039542464B465D
:1011D000204600F08BFB9AF80C300BB1FFF7CCFAED
:1011E0009AF80C30002B7FF4E8AE13B0BDE8F08F16
:1011F000AFF300803C210020342100204022002059
:1012000044220020401DA12026812A0BF1C6A7C13F
:10121000D068080F7822002045220020000C0140F1
:1012200038210020352100206021002024110020D9
:1012300070B501F0A7FF0025084C094E20803068EA
:101240002388834208D901F099FF336805440133AC
:10125000B5F5C84F3360F2D370BD00BF74220020D3
:101260004822002002F01CB800F10060920000F556
:10127000C84001F0C1BF0000054B1A68054B1B8830
:101280009B1A834202D9104401F078BF00207047B6
:10129000482200207422002038B50446064D2868F4
:1012A000204401F071FF28B928682044BDE8384087
:1012B00001F07CBF38BD00BF48220020064991F8EC
:1012C000243033B100230822086A81F82430FFF764
:1012D000CBBF0120704700BF4C220020022802BF74
:1012E0001022014B1A617047000C0140002310B519
:1012F000934203D0CC5CC4540133F9E710BD000025
:1013000002460346981A13F9011B0029FAD17047C7
:1013100003460244934202D003F8011BFAE77047E8
:101320002DE9F047234C054694F8243088461746AB
:1013300083BB2E46DFF87C90C7B394F824302BB9DA
:101340002022FF2148462662FFF7E2FF94F824009E
:101350004146C0F10805BD4228BF3D465FFA85FA07
:10136000AD002A4604EB8000FFF7C0FF94F824305C
:10137000A7EB0A079A445FFA8AFABAF1080F2E44DB
:10138000A844FFB284F824A0D6D1FFF797FF002825
:10139000D2D108E0266A06EB8306B042CAD0FFF736
:1013A0008DFF0028C5D10020BDE8F0870120BDE8F1
:1013B000F08700BF4C2200200FB4002004B070471B
:1013C000FEE70000EFF30983EFF30583044B9A6B0C
:1013D000DA6A9A6A9A6A9A6A9A6A9A6A9B6AFEE7CB
:1013E00000ED00E0EFF30983EFF30583044B9A6B04
:1013F0009A6A9A6A9A6A9A6A9A6A9B6AFEE700BF30
:1014000000ED00E0EFF30983EFF30583034B5A6B24
:101410009A6A9A6A9A6A9A6A9B6AFEE700ED00E005
:1014200001F076BF01F050BF30B5084D0A4491423B
:101430000BD0092411F8013B5840013CF7D040F390
:1014400000032B4083EA5000F7E730BD2083B8ED5E
:101450002DE9F0474FF47F49089E01F007054FEA58
:10146000D60C2A4406F0070600EBD100954201D1C4
:10147000BDE8F08705F0070E06F0070AD645774667
:1014800038BF5746511BC7F108078F4228BF0F4688
:10149000EC08045D0CEBD60813F8081004FA0EF4FF
:1014A00029FA07FE24FA0AF45FFA8EFE4C404EFA3F
:1014B0000AFE04EA0E04614003F808103D443E446D
:1014C000D4E700000246006848B103681189136040
:1014D000D38801339BB29942D38038BF13817047C0
:1014E00070B504460D4688B0202200216846FFF7FB
:1014F0000FFF20460495FFF7E5FF054658B16B4600
:10150000044608AE1A4603CAB24220606160134620
:1015100004F10804F6D1284608B070BD2DE9F04169
:10152000056885B90160BDE8F081002B29DA930CCC
:10153000B34229D1A54201D10D60F3E7C8F80010EC
:101540000C60BDE8F0814B68A84623F06047BE0CF4
:1015500016EA230638BF3E462C464FEAD37EC3F335
:10156000807C6368BEEBD37F23F06042DDD197427D
:1015700003D1C3F380739C450AD1974205E01C4612
:10158000EFE7B24206D013469E422CBF0023012350
:10159000002BCFD12368A046002BF0D12160BDE8FD
:1015A000F08100002DE9F04106460F4600254FF678
:1015B000FF7441F221082A4630463946FEF7D0FD35
:1015C0000823C0B284EA002414F4004F4FEA440414
:1015D000A4B203F1FF3318BF84EA080413F0FF0339
:1015E000F2D10835402DE6D12046BDE8F08100005B
:1015F00010B54B6833B9CA8A002063F30902CA8266
:10160000002110BDC4681A681C60C360438A013B96
:1016100043824A60EDE7000010B541F221040A441C
:10162000914200D110BD11F8013B80EA032008234C
:1016300010F4004F4FEA400080B203F1FF3318BFAF
:10164000604013F0FF03F3D1EAE700002DE9F04F0B
:1016500085B081468DE80A00BDF83C409346002ADB
:1016600000F0838024B10E9B002B7ED0072C2AD85B
:1016700009F10C00FFF726FF054628B96FF00205B7
:10168000284605B0BDE8F08F14220021FFF740FE88
:1016900022460E9905F10800FFF728FE631C2B7403
:1016A0009BF800302C4403F01F0363F03F032372C8
:1016B000009B294643F000436B6009F11C00FFF7D3
:1016C0002DFF0125DCE74FF000084FF0800A464669
:1016D0004546019B1B0A029300F10C0303930398F8
:1016E000FFF7F0FE07460028C8D014220021FFF7BC
:1016F0000FFEC6BB02229DF804303B729DF80830F5
:101700007B720E9B711E1944B4420AD9B81801327B
:1017100011F801EFD2B20136072A80F808E0B6B21C
:10172000F2D1B44208BF4FF0400A9BF80010B8183D
:1017300001F01F0141EA48114AEA01030372009BCC
:10174000013243F000437B603A74394609F11C00D2
:10175000FFF7E4FE0135B4422DB288F001084FF0E6
:10176000000ABCD18CE70022CBE76FF0010587E7C8
:101770002DE9F0471E46CB8A9146C3F30902062A9B
:1017800080460F4619D013460021B0B28DB25A19C7
:1017900092B2052A09D9A84210D8FA8A034463F301
:1017A0000902FA820120BDE8F087A842F3D919F8AE
:1017B00001403A4494760131E8E70025FB8A7C68D1
:1017C000C3F309001C23821FB2FBF3FA03FB1A2A9E
:1017D0001FFA8AF27CB301212368002B39D1B31F91
:1017E00003441C20B3FBF0F301339BB299420CD2AB
:1017F000BAF1000F09D14046FFF764FE08B1C0F806
:1018000000A0206008B3044600224FF0000AB6B2E0
:10181000B54230D21346691E4944E018013311F82D
:1018200001EF9BB201351C2B80F804E0ADB214D05F
:10183000AE42F2D8ECE74046FFF744FE044608B15A
:10184000002303607C60002CDED16FF00200BDE855
:10185000F087013189B21C46BEE7AE42D8D9404676
:10186000FFF730FE08B1C0F800A020600028ECD0DF
:1018700004460022CCE7FB8AC3F30902164466F350
:101880000903FB828EE70000F8B5044615460E46B4
:10189000242200211F46FFF73BFD069B00206360CA
:1018A000079B6A0923624FF6FF739A4228BF1A46C4
:1018B0000346A760207097B204F10C059A4205D147
:1018C00000232B6027826382A382F8BD2E60013340
:1018D00035462036F2E7000003781BB94BB2002BE7
:1018E000C8BF017070470000007870472DE9F743CA
:1018F0000D9E074619461046BDF828900B9D9DF891
:101900003040BDF8388016B9B8F1000F40D11F2C17
:101910003ED83B78D3B9B8F1070F36D839F0030376
:1019200036D1424631464FF6FF70FFF775FE4FEA5B
:10193000092920F0010009F44079400449EA0464CF
:10194000400C44EA40244FF6FF730DE043EA0923BC
:10195000B8F1070F43EA0464F5D9FFF723FE4246C6
:101960003146FFF759FE03468DE840012A462146DD
:101970003846FFF76BFE2B780133DBB21F2B88BF95
:1019800000232B7003B0BDE8F0836FF00300F9E78C
:101990006FF00100F6E700002DE9F7430E9F814646
:1019A0000B9D9DF830009DF83480BDF83C6007B970
:1019B000AEBB1F2833D899F800E0BEF1000F31D03C
:1019C0000C0244F080049DF8281044EAC83444EA2C
:1019D000014444EA0E04072E44EA00641CD9194667
:1019E0001046FFF7DFFD32463946FFF715FE034686
:1019F000019600972A4621464846FFF727FEB8F190
:101A0000010F06D12B780133DBB21F2B88BF0023D7
:101A10002B7003B0BDE8F0834FF6FF73E8E76FF07B
:101A20000100F6E76FF00300F3E70000C06900B1C2
:101A300004307047C3691A68C261C2681A60C36023
:101A4000438A013B438270472DE9F047D0F818A044
:101A5000054616461F4654464FF00009DFF86480DD
:101A60000CB9BDE8F087D4E90223B21A67EB03038F
:101A7000994508BF904523D2AB6921469C42284630
:101A80000FD1FFF7B5FDAB691B68AB61EB68236055
:101A90006B8AEC60AC69013B6B822346A2461C4614
:101AA000DEE7FFF7A5FD2368CAF80030EB68236086
:101AB0006B8AEC60013B6B82DAF800305446EDE74C
:101AC0002368EBE780841E002DE9F04F8BB00E46B3
:101AD00014460793DDF850808346002800F01181FA
:101AE000B8F1000F00F00D81531E3F2B00F2098169
:101AF000012A03D1079B002B40F003810023BBF890
:101B000014500893ED00AE42099304D300263046EA
:101B10000BB0BDE8F08F33199D42DBF80C303ABFB3
:101B2000AD1BEDB2254623B9DBF81030002B00F0D9
:101B300094802F2E65D8C6F13007BD424FF00003C8
:101B400034BF2F46FFB20093314608AB3A46DBF86C
:101B50000800FFF77DFCA5EB07093E445FFA89F911
:101B60003021BBF8143003F10053063BDB00049333
:101B7000DBF80C300393039B13B1B9F1000F43D191
:101B8000DBF8100040B1B9F1000F05D04A460097CC
:101B900008AB711AFFF75CFC2EB2002DB6D06007BF
:101BA0000AD00AAB03EBD40111F8083C624202F000
:101BB0000702134101F8083C082C55D9102C55D9BF
:101BC000202C8CBF08230423079A002A00F09F8052
:101BD000B4EBC30F00F09E80082C49D89DF820304C
:101BE000621E23FA02F2D10706D54FF0FF3202FA45
:101BF00004F423438DF820309DF8203088F800301D
:101C000085E7A9460027ABE7049BE02B28BFE0232C
:101C100006930B44B342059316D9A3EB060AD145AC
:101C200038BFCA46039828BF5FFA8AFA0097711A2C
:101C300008AB52460430FFF70BFC5744A9EB0A09E6
:101C40005644FFB25FFA89F9049B069A05999B1ADC
:101C50000493039B1B6803938DE700932A4608AB0C
:101C60003146DBF8080095E70123ADE70223ABE737
:101C7000102C12D8BDF82030621E23FA02F2D207CF
:101C800006D54FF0FF3202FA04F42343ADF82030BA
:101C9000BDF82030A8F8003039E7202C0FD8089A7A
:101CA000631E22FA03F3DB0705D54FF0FF3303FA77
:101CB00004F414430894089BC8F8003027E7402C2C
:101CC00022D0DDE908AB621E50465946FEF748FABD
:101CD000002100F0010050EA01030DD0224601204E
:101CE0000021FEF749FA404261EB410140EA0A0057
:101CF00041EA0B01CDE90801DDE90823C8E9002329
:101D000005E76FF0010602E76FF00806FFE6012C19
:101D10003FF472AF082C7FF66FAF102CB8D9202C8F
:101D2000EAD8C8E730B5402A85B01FD8002A08BFD6
:101D300001220024012A0294039419D11B788DF802
:101D4000083053070AD004AB03EBD20515F8083C62
:101D5000544204F00704A34005F8083C00910346F0
:101D6000002102A8FFF774FB05B030BD4022E0E778
:101D7000082AE3D9102A03D81B88ADF80830E0E719
:101D8000202A02D81B680293DBE7D3E90045CDE99E
:101D90000245D6E710B5CB681BB98B600B618B820F
:101DA00010BDC4681A681C60C360438A013B43824B
:101DB000CA60F0E72DE9F04FD1F800908FB0C9F379
:101DC000C01604460D46CDE90223002E50D0C9F3BB
:101DD000C03AC9F30626B9F1000F80F2CC8119F0A0
:101DE000C04F40F0C8812B7B002B00F0C481BAF1BA
:101DF000020F03D02278B24240F0C08109F07F0286
:101E0000BAF1020F059236D119F07F0FC9F30F2BEB
:101E100001D10BF0030B2B447606059A93F803804F
:101E200046EA0A4646EA82465FEAD81346EA0B06C5
:101E3000049300F0A280002200230EA961E9082388
:101E4000059B676800935A4653462046B8470028CA
:101E500000F09080A7698FB9314604F10C00FFF7BC
:101E60003FFB0746D0B96FF002000FB0BDE8F08F1E
:101E70004FF0020AAFE7C9F3074BCCE73B699E423C
:101E80000DD03F68002FF9D1314604F10C00FFF767
:101E900027FB07460028E6D0A3693B60A761DDE980
:101EA0000601FFF77FFBB882F97D08F01F06C1F33A
:101EB0008401711A89B20FFA81FEBEF1000FB8BF1A
:101EC00001F1200ED7E90223B8BF0FFA8EFE52EAC5
:101ED0000301C9F3046900F05D81DDE90201801AA4
:101EE00061EB03010B4600210246B548994208BF49
:101EF0009042C0F04F81049B002B48D0BEF1010FEF
:101F000000F3488118F0400F41D0DDE902230021A1
:101F1000C7E9022306A82022FFF7FAF9DDE9022328
:101F2000CDE906232B1D08932B7BADF82EB0013B8A
:101F3000DBB2ADF82C309DF814308DF830A08DF860
:101F400033308DF83160A3688DF8329006A92046B1
:101F50009847FB7DC3F38402013262F38603FB756D
:101F6000FB8A6FF30903FB821B0A6FF3C713FB7530
:101F700000207AE76FF00B0077E7A76917B96FF0D9
:101F80000C0072E73B699E428ED03F68F6E7FB7D0E
:101F9000C8F34012B2EBD31F40F0F380C3F38403C5
:101FA000B34240F0F18004992B7B4FEA981200294C
:101FB0003BD012F001085CD1032B40F2E880DDE950
:101FC0000223C7E902232B7BAE1D033BDBB2324663
:101FD000394604F10C00FFF7CBFB002814DA394630
:101FE0002046FFF705FBFB7DC3F38402013262F359
:101FF0008603FB75FB8A68F30903FB821B0A68F3FF
:10200000C713FB75032030E7AB883B832A7B033A79
:10201000D2B2B88A3146FFF7FFFAFB7DB882DA43C5
:10202000C2F3C01262F3C713A1E712BB2E1D013B1E
:10203000DBB23246394604F10C00FFF799FB002869
:1020400014DA39462046FFF7D3FAFB7DC3F3840246
:10205000013262F38603FB75049AFB8A62F309037B
:10206000FB82049A1B0A62F3C713CAE72A7B013A70
:10207000CEE7F98A013BC1F309010529DAB25AD842
:102080000023281D9A420AD907EB010E10F801CB54
:102090000131013306298EF81AC0DBB2F2D1934226
:1020A00028BF0023DDE90201CDE9060107F11A018D
:1020B000089179683CBF04335B1909910A93FB8A44
:1020C000ADF82EB0C3F309031A449DF81430ADF8EF
:1020D0002C208DF8333000238DF830A08DF831603E
:1020E0008DF832907B602A7BB88A013A291DFFF770
:1020F00093FA3B8BB882834203D1A36806A920469A
:102100009847204606A9FFF745FEFB7DB88AC3F332
:102110008402013262F38603FB75FB8A6FF30903C5
:10212000FB821B0A6FF3C713FB753B8B984214BFEE
:102130001120002099E6D7F804E0BEF1000F18D076
:102140000623DEF8000088B9C91A05F1040800EB7F
:10215000010CBCF11B0FC3B2A1D893429FD218F857
:10216000013BF4448CF804300130F0E71C33864620
:10217000E7E7734693E76FF0090076E66FF00A0031
:1021800073E66FF00D0070E66FF00E006DE66FF015
:102190000F006AE6FB7D394668F386036FF3C713C9
:1021A000FB752046FFF724FA049B002B7FF4AAAEB0
:1021B000FB7DC3F38402013262F38603FB75DEE626
:1021C00080841E002DE9F0414E4EB04240F08680E2
:1021D0004D4CDFF838E1E56945F00075E561E469EB
:1021E000846AD4F8007207EA0E0747F00107C4F8C2
:1021F0000072D4F8005205EA0E0545F0010545EAE3
:102200000121C4F80012002A6AD000210F46C4F848
:102210001C12C4F80412C4F80C12C4F8141204EB13
:10222000C10501310E29C5F84072C5F84472F6D1D6
:102230004FF0000E4FF0010C964510D1826AB0426B
:10224000D2F8003223F00103C2F8003258D12E4BED
:10225000DA6922F00072DA61DB69BDE8F0819F780B
:102260001D8817F0010F18BFD4F804820CFA05F18D
:102270001CBF41EA0808C4F8048217F0020F18BF17
:10228000D4F80C8204EBC5051CBF41EA0808C4F869
:102290000C827F0748BFD4F8147203F10C0344BFCB
:1022A0000F43C4F8147253F8087C0EF1010EC5F800
:1022B000407253F8047CC5F84472D4F81C52294388
:1022C000C4F81C12B8E70021846AC4F81C12C4F8D0
:1022D0000412C4F80C12C4F81412A9E7002AF2D1AF
:1022E0000022836AC3F84022C3F84422C3F80422C0
:1022F000C3F814220122C3F80C22C3F81C229DE764
:10230000BDE8F08178220020001002400000FFFFAD
:10231000184A08B5916A8B688B6013F0010105D0EB
:1023200013F00C0F14BF4FF480310121D80506D5EE
:1023300013F4406F14BF41F4003141F00201D8039F
:1023400006D513F4402F14BF41F4802141F004015D
:10235000D3690BB107489847202383F311880021E4
:10236000054800F05FFE002383F31188BDE80840B4
:1023700001F084B8782200208022002038B5124C69
:10238000A36ADD68AA0712D05A6922F002025A61D4
:10239000A36913B1012120469847202383F31188B4
:1023A00000210A4800F03EFE002383F31188EB066B
:1023B00006D51021A36AD960236A0BB10248984759
:1023C000BDE8384001F05AB8782200208822002069
:1023D00038B5124CA36A1D69AA0712D05A6922F0B7
:1023E00010025A61A36913B10221204698472023A5
:1023F00083F3118800210A4800F014FE002383F3C0
:102400001188EB0606D51021A36A1961236A0BB166
:1024100002489847BDE8384001F030B878220020E3
:102420008822002038B50F4CA36A5D682A075D60DA
:102430000AD5042222701A6822F002021A60636A26
:1024400013B10021204698476B0706D5A36A996906
:10245000236A13B1090403489847BDE8384001F0E6
:102460000DB800BF7822002010B50F4C204600F0B8
:102470003FFA0E4B0B211320A36200F019FA0B2137
:10248000142000F015FA0B21152000F011FA0B2191
:10249000162000F00DFA00232046BDE810401A4631
:1024A0000E21FFF78FBE00BF78220020006400409D
:1024B0000F4B10B59842044605D10E4BDA6942F035
:1024C0000072DA61DB690122A36A1A60A36A5A68A2
:1024D000D20707D5626851681268D9611A60064A46
:1024E0005A6110BD0121082000F092FCEEE700BF08
:1024F00078220020001002405B87010003291AD8CF
:10250000DFE801F0020A0F14836A9B6813F0E05FB2
:1025100014BF012000207047836A9868C0F3806070
:102520007047836A9868C0F3C0607047836A986890
:10253000C0F30070704700207047000010B50329F9
:102540001FD8DFE801F0021F2327816A8B68C3F3DD
:102550000163183301EB0313107881061ED554680C
:10256000C0F30011490041EAC40141F0040100F048
:102570000F005860906841F001019860D268DA60FD
:10258000196010BD836A03F5C073E5E7836A03F53C
:10259000C873E1E7836A03F5D073DDE79488C0F37D
:1025A0000011490041EA4451E1E7000001290CD043
:1025B00003D3022910D000207047836ADA6892079B
:1025C00001D1186903E001207047836AD86810F0D0
:1025D000030018BF01207047836AF2E710B539B9CC
:1025E000836AD96889071BD11B699B0704D110BD79
:1025F000012915D0022948D1816AD1F8C031D1F81A
:10260000C401D1F8C8411461D1F8CC4154612024EF
:102610000C610C69A40717D14C6944F0100412E056
:10262000816AD1F8B031D1F8B401D1F8B841146160
:10263000D1F8BC4154612024CC60CC68A40703D1FC
:102640004C6944F002044C6111795C0864F3041194
:102650009C0864F34511117189064BBF916811897B
:10266000DB085B0D4CBF63F31C0163F30A011379B4
:1026700048BF916060F3030313714FEA10234FEAE0
:10268000104058BF11811370508010BD00231A46AE
:1026900010B51C495A50CC180833802B6260F9D110
:1026A000194B9A6942F07D029A619B690268174B47
:1026B000DA6082685A6042681A60C26803F5806313
:1026C000DA6042695A6002691A608269C3F80C24B0
:1026D000026AC3F80424C269C3F80024426AC3F83A
:1026E0000C28C26AC3F80428826AC3F80028026B67
:1026F000C3F80C2C826BC3F8042C426BC3F8002C7B
:1027000010BD00BFA42200200010024000080140BC
:10271000026843681143016003B118477047000025
:10272000024AD36843F0C003D360704700380140C9
:10273000024AD36843F0C003D360704700440040AE
:102740002DE9F041D0F89C600546F7683368DA055A
:102750009CB20DD5202383F311884FF4007104300F
:10276000FFF7D6FF6FF480733360002383F3118883
:10277000202383F3118805F1040814F02F0333D1CB
:1027800083F31188380615D5210613D5202383F34A
:10279000118805F1380000F02FFA002846DA0821E8
:1027A000281DFFF7B5FF4FF67F733B40F360002312
:1027B00083F311887A060ED563060CD5202383F3A4
:1027C0001188EA6C2B6D9A4202D12B6C002B2FD111
:1027D000002383F31188D5F8A420D368002B31D0CF
:1027E000BDE8F04110691847230713D014F0080F13
:1027F0000CBF00218021E00748BF41F02001A20763
:1028000048BF41F04001630748BF41F48071404632
:10281000FFF77EFFA406736805D595F8A01028463B
:10282000194000F089FA3468A4B2A6E77060BEE7E8
:1028300027F040073F041021281D3F0CFFF768FFD9
:10284000F760C5E7BDE8F08108B50348FFF778FFFA
:10285000BDE8084000F012BE2423002008B503485C
:10286000FFF76EFFBDE8084000F008BECC23002053
:1028700010B5094C094A2046002100F03DFA084BEA
:10288000084AC4F89C30084C0021204600F034FA75
:10289000064BC4F89C3010BD2423002021270008DB
:1028A0000038014031270008CC23002000440040BC
:1028B00000F16043090103F56143C9B283F80013D5
:1028C000012300F01F024009800000F160409340A6
:1028D00000F56140C0F8803103607047090100F1E4
:1028E0006040C9B200F56D4001767047FFF7BCBD8E
:1028F00001230370002300F108028260C26000F12E
:1029000010024360026142618361C36103624362FA
:102910007047000010B52023044683F3118802237A
:1029200041600370FFF7C4FD04232370002383F389
:10293000118810BD2DE9F0411F4604460D4616468C
:10294000202383F3118800F108082378052B0ED08B
:1029500029462046FFF7D2FD48B120463246294697
:10296000FFF7ECFD002080F31188BDE8F0813946C7
:10297000404600F03BFB0028E7D0002383F311889A
:10298000BDE8F0812DE9F0411F4604460D4616468C
:10299000202383F3118800F110082378052B0ED033
:1029A00029462046FFF702FE48B120463246294616
:1029B000FFF714FE002080F31188BDE8F08139464E
:1029C000404600F013FB0028E7D0002383F3118872
:1029D000BDE8F081F8B5154682680B46AA428169C8
:1029E000066938BF8568761AB542044607D218468C
:1029F0002A46FEF77BFCA3692B44A3610DE011D9A5
:102A000032461846FEF772FCAF1B3A46E168304486
:102A1000FEF76CFCE2683A44A261A36828465B1B9F
:102A2000A360F8BD18462A46FEF760FCE368E4E7B9
:102A30002DE9F0410446154683682669934238BF64
:102A4000856840690F46361AB54206D22A46FEF717
:102A50004DFC63692B4463610DE012D93246A5EB4E
:102A60000608FEF743FC4246B919E068FEF73EFC53
:102A7000E26842446261A36828465B1BA360BDE82C
:102A8000F0812A46FEF732FCE368E4E710B5002443
:102A9000C361029B0A44006040608460C160816140
:102AA00041610261036210BD08B5826943699342C6
:102AB00001D1826882B98268013282605A1C426107
:102AC0001970426903699A4201D3C36843610021C6
:102AD00000F09CFA002008BD4FF0FF3008BD000058
:102AE00070B5202304460E4683F31188A568A5B16E
:102AF000A368A269013BA360531CA36115782269F6
:102B0000934224BFE368A361E3690BB12046984771
:102B1000002383F31188284670BD3146204600F01B
:102B200065FA0028E2DA85F3118870BD2DE9F74FC8
:102B300005460F4690469A46D0F81C90202686F30C
:102B400011884FF0000B144664B1224639462846DE
:102B5000FFF740FF034668B95146284600F046FAA1
:102B60000028F1D0002383F31188A8EB040003B000
:102B7000BDE8F08FB9F1000F03D001902846C84797
:102B8000019B8BF31188E41A1F4486F31188DBE75D
:102B9000C361009BC160816141611144006040607C
:102BA0008260016103627047F8B504460E4617461D
:102BB000202383F31188A568A5B1A368013BA36016
:102BC00063695A1C62611E70236962699A4224BF5C
:102BD000E3686361E3690BB120469847002080F306
:102BE0001188F8BD3946204600F000FA0028E2DAE4
:102BF00085F31188F8BD00008369426910B59A42D7
:102C000001D182687AB98268013282605A1C82617D
:102C10001C7803699A4201D3C3688361002100F0E4
:102C2000F5F9204610BD4FF0FF3010BD2DE9F74FEC
:102C300005460F4690469A46D0F81C90202686F30B
:102C400011884FF0000B144664B1224639462846DD
:102C5000FFF7EEFE034668B95146284600F0C6F974
:102C60000028F1D0002383F31188A8EB040003B0FF
:102C7000BDE8F08FB9F1000F03D001902846C84796
:102C8000019B8BF31188E41A1F4486F31188DBE75C
:102C9000026843681143016003B1184770470000A0
:102CA0001430FFF743BF00004FF0FF331430FFF73D
:102CB0003DBF00003830FFF7B9BF00004FF0FF33D1
:102CC0003830FFF7B3BF00001430FFF709BF000032
:102CD0004FF0FF311430FFF703BF00003830FFF72B
:102CE00063BF00004FF0FF323830FFF75DBF0000D8
:102CF00000207047FFF7BCBD0E4B37B503600023C3
:102D000043608360C3600123044615460374202298
:102D100000900B4600F15C011430FFF7B7FE009401
:102D20002B46202204F17C0104F13800FFF730FF2C
:102D300003B030BD5839000838B5C36904460D46A4
:102D40001BB904210844FFF7A3FF294604F114002E
:102D5000FFF7AAFE002806DA201D4FF48061BDE8C7
:102D60003840FFF795BF38BD0022024B1B605B6007
:102D70009A60704774240020002382680374054B16
:102D80001B6899689142FBD25A68036042601060E8
:102D9000586070477424002008B5202383F31188FD
:102DA000037C032B05D0042B0DD02BB983F31188A2
:102DB00008BD002243691A604FF0FF334361FFF7FB
:102DC000DBFF0023F2E790E80C001A600268536012
:102DD000F2E70000002382680374054B1B689968C2
:102DE0009142FBD85A680360426010605860704797
:102DF00074240020054B1969087418680268536030
:102E00001A60186101230374FDF7BABB7424002013
:102E100030B54B1C87B005460A4C10D023690A4ACE
:102E200001A800F01BF92846FFF7E4FF049B13B14B
:102E300001A800F02DF92369586907B030BDFFF7EC
:102E4000D9FFF8E774240020992D000838B50C4DFF
:102E500041612B6981689A680446914203D8BDE8B4
:102E60003840FFF789BF1846FFF7B4FF01232C61F4
:102E7000014623742046BDE83840FDF781BB00BF02
:102E800074240020044B1A681B6990689B68984260
:102E900094BF0020012070477424002010B5084C16
:102EA000236820691A6854602260012223611A7421
:102EB000FFF790FF01462069BDE81040FDF760BBB9
:102EC0007424002008B5FFF7DDFF18B1BDE8084005
:102ED000FFF7E4BF08BD0000FEE7000010B50C4C92
:102EE000FFF742FF00F0ACF880220A49204600F0CC
:102EF00031F8012344F8180C037400F09BFA002306
:102F000083F3118862B6BDE81040034800F044B86E
:102F10009C240020803900088839000800F0CAB8D5
:102F2000EFF3118020B9EFF30583202282F311889B
:102F30007047000010B558B9EFF30584C4F30804D6
:102F400014B180F3118810BDFFF7BCFF84F3118822
:102F500010BD000082600222027400224274704799
:102F60008368A3F13C0243F80C2C026943F83C2C23
:102F7000426943F8382C074A43F81C2CC268A3F175
:102F8000180043F8102C022203F8082C002203F842
:102F9000072C70479105000810B5202383F3118892
:102FA000FFF7DEFF00210446FFF750FF002383F305
:102FB0001188204610BD0000024B1B6958610F208C
:102FC000FFF718BF74240020202383F31188FFF734
:102FD000F3BF000008B50146202383F311880820C1
:102FE000FFF716FF002383F3118808BD49B1064B94
:102FF00042681B6918605A60136043600420FFF741
:1030000007BF4FF0FF3070477424002003689842D8
:1030100006D01A680260506059611846FFF7ACBECE
:103020007047000038B504460D462068844200D140
:1030300038BD036823605C604561FFF79DFEF4E7DF
:10304000054B03F114025A619A614FF0FF32DA61C5
:1030500000221A62704700BF7424002010B5C260BD
:103060000A4A036153699C68A1420CD85C680360FA
:1030700044602060586081609868411A99604FF000
:10308000FF33D36110BD091B1B68ECE774240020DB
:10309000036881689A680A449A604268136003680A
:1030A0005A6000234FF0FF32C360014BDA61704772
:1030B00074240020F8B50F4C226A013222622246A5
:1030C00052F8141F9142154606D020268B68013B0A
:1030D0008B6063699A6802B1F8BD1968DF68DA60CD
:1030E0004D60616182F311881869B84786F31188D1
:1030F000EFE700BF7424002000207047FEE70000C7
:10310000704700004FF0FF3070470000BFF34F8F53
:10311000024AD368DB07FCD4704700BF002002409E
:1031200008B5074B1B7853B9FFF7F0FF054B1A6939
:10313000120641BF044A5A6002F188325A6008BD43
:1031400078250020002002402301674508B5054B83
:103150001B7833B9FFF7DAFF034A136943F08003A2
:10316000136108BD78250020002002407F289ABF07
:1031700000F5003080020020704700004FF48060AE
:1031800070470000802070477F2808B50BD8FFF7F4
:10319000EDFF00F580630268013204D10430834200
:1031A000F9D1012008BD002008BD00007F2810B51E
:1031B00004461CD8FFF7AAFFFFF7B2FFF3220D4B1E
:1031C000DA6002221A61FFF7D1FF58611A6942F0F2
:1031D00040021A61FFF79AFF4FF4806100F0E4F8B3
:1031E000FFF7B4FF2046BDE81040FFF7CDBF002039
:1031F00010BD00BF002002402DE9F84312F001038A
:10320000144606D040F281221F4B1A600020BDE810
:10321000F88385181D4A954204D940F286211A4A3E
:103220001160F3E7FFF77CFFFFF770FF4FF0010934
:10323000DFF86880451A012C05EB01060F4604D81B
:10324000FFF784FF0120BDE8F883C8F8109031F83B
:10325000023B3380FFF75AFF0020C8F81000338884
:103260003A889BB29A420DD040F29D22064B1A60DA
:10327000074B1E60074B1C60074B1F60FFF766FF84
:10328000BDE8F883023CD6E774250020FFFF010863
:1032900068250020702500206C25002000200240B9
:1032A000084908B50B7828B153B9FFF739FF012356
:1032B0000B7008BD23B1BDE808400870FFF746BF9A
:1032C00008BD00BF7825002038B5FFF729FE4FF470
:1032D0007A730C490C4A0C6A116803FB04F38B42A5
:1032E0000A49D1E9004504D2003445F10105C1E99C
:1032F0000045E41845F100051360FFF71BFE20466A
:10330000294638BD742400207C250020802500201B
:1033100008B5FFF7D9FF4FF47A720023FCF738FFA6
:1033200008BD00BF10B5094C0439013AD2B2FF2ADA
:1033300000D110BD53089800043054F823300059D0
:103340009BB243EA004341F8043FEEE7046C0040BF
:1033500030B50748013AD2B2FF2A00D130BD0D88FE
:10336000540840F82450A3004C8804331C50F1E763
:10337000046C004007B5012201A90020FFF7D2FF2D
:10338000019803B05DF804FB13B50446FFF7F2FFA4
:10339000A04206D002A941F8044D01220020FFF707
:1033A000D7FF02B010BD00007047000045F2555233
:1033B000064B1A6002225A6040F6FF729A604CF681
:1033C000CC421A600122024B1A7070470030004054
:1033D00089250020034B1B781BB14AF6AA22024B19
:1033E0001A6070478925002000300040034B1B689D
:1033F0009B0042BF0122024B1A707047241002400A
:10340000882500204FF08072014B1A60704700BF82
:1034100024100240014B1878704700BF8825002017
:10342000EFF30983203383F30988002383F31188A2
:1034300070470000202080F3118862B60B4B0C4AC5
:10344000D96821F4E0610904090C0A430949DA60EA
:10345000CA6842F08072CA6007490A6842F00102F5
:103460000A601022DA7783F82200704700ED00E04E
:103470000003FA05F0ED00E0001000E010B5202395
:1034800083F311880B4B5B6813F400630FD0EFF3E9
:1034900009844FF08073203CE36184F30988FFF7CF
:1034A000F1FC10B1044BA36110BD044BFBE783F3A7
:1034B000118810BD00ED00E0A3050008A605000876
:1034C00070470000FEE70000084A094B09498B429B
:1034D00004D30021084A934205D3704752F8040FE1
:1034E00043F8040BF3E743F8041BF4E7083A000839
:1034F0008C2500208C2500208C25002000F030B881
:1035000008B500F063F9FFF7E9FCBDE80840FFF7F4
:103510006DBF0000704700004FF0FF310E4B1A697D
:1035200019611A6900221A611869D868D960D968C6
:10353000DA60DA68DA6942F08052DA61DA69DA6907
:1035400042F00062DA61054ADB69136843F4807374
:10355000136000F01BB900BF001002400070004073
:10356000194B1A6842F001021A601A689007FCD5DC
:103570001A6802F0F9021A6000225A605A6812F0C2
:103580000C0FFBD11A6842F480321A601A6891035A
:10359000FCD55A6842F4E8125A601A6842F0807208
:1035A0001A601A689201FCD51221084A5A60084A2A
:1035B00011605A6842F002025A605A6802F00C0226
:1035C000082AFAD1704700BF0010024000641D00B5
:1035D00000200240084A08B5536911680B4003F007
:1035E0000103536123B1054A13680BB15068984732
:1035F000BDE80840FFF742BF00040140A4220020BC
:10360000084A08B5536911680B4003F0020353617F
:1036100023B1054A93680BB1D0689847BDE80840CC
:10362000FFF72CBF00040140A4220020084A08B57F
:10363000536911680B4003F00403536123B1054A39
:1036400013690BB150699847BDE80840FFF716BFF2
:1036500000040140A4220020084A08B553691168FB
:103660000B4003F00803536123B1054A93690BB182
:10367000D0699847BDE80840FFF700BF000401404B
:10368000A4220020084A08B5536911680B4003F0D2
:103690001003536123B1054A136A0BB1506A98476E
:1036A000BDE80840FFF7EABE00040140A422002064
:1036B000174B10B55C691A68144004F478725A61AB
:1036C000A30604D5134A936A0BB1D06A98476006E3
:1036D00004D5104A136B0BB1506B9847210604D5E3
:1036E0000C4A936B0BB1D06B9847E20504D5094A9D
:1036F000136C0BB1506C9847A30504D5054A936C25
:103700000BB1D06C9847BDE81040FFF7B7BE00BFC3
:1037100000040140A42200201A4B10B55C691A680D
:10372000144004F47C425A61620504D5164A136DB4
:103730000BB1506D9847230504D5134A936D0BB117
:10374000D06D9847E00404D50F4A136E0BB1506E4C
:103750009847A10404D50C4A936E0BB1D06E9847DC
:10376000620404D5084A136F0BB1506F98472304C5
:1037700004D5054A936F0BB1D06F9847BDE8104050
:10378000FFF77CBE00040140A4220020062108B5FA
:103790000846FFF78DF806210720FFF789F8062174
:1037A0000820FFF785F806210920FFF781F8062198
:1037B0000A20FFF77DF806211720FFF779F8BDE80A
:1037C000084006212820FFF773B8000008B5FFF76E
:1037D000A3FE0648FEF75AFFFFF788F8FFF78AFABC
:1037E000FFF798FEBDE8084000F002B8A8390008CD
:1037F00000F000B8054B064A08215A6000229A6082
:1038000007220B201A60FFF769B800BF10E000E044
:103810003F19010008B5202383F31188FFF77EFBD1
:10382000002383F3118808BD08B5FFF7F3FFBDE857
:103830000840FFF723BE000010B501390244904252
:1038400001D1002010BD10F8013B11F8014FA34237
:10385000F5D0181B10BD00002DE9F8430746884637
:1038600091461E468BB10D46A8EB0500B54207EB0D
:10387000000402D20020BDE8F883324649462046C3
:10388000FFF7DAFF18B1013DEEE7BDE8F883204607
:10389000BDE8F883034611F8012B03F8012B002A39
:1038A000F9D1704740A2E4F1646891064E6F20613F
:1038B0007070207369670A00426164206677206C2B
:1038C000656E6774682025750A0042616420626F26
:1038D0006172645F69642025752073686F756C641C
:1038E0002062652025750A004261642066772064A5
:1038F000657363726970746F72206C656E6774684B
:103900002025750A00426164206170702043524393
:10391000203078253038783A3078253038782030A3
:1039200078253038783A3078253038780A00476F73
:103930006F64206669726D776172650A000000002D
:103940006F72672E6172647570696C6F742E514668
:10395000313047505300000000000000BD2C00082B
:10396000A92C0008E52C0008D12C0008DD2C00084B
:10397000C92C0008B52C0008A12C0008F12C000867
:103980006D61696E00000000A0390008B8240020B5
:103990006825002001000000D92E0008000000006A
:1039A00069646C65000000000C1E0000447B484404
:1039B000B45749440000000048444144444444444E
:1039C00000000000444444444444444400000000D7
:1039D00044444444444444440000000044444444B7
:1039E00044444444DCC7FF7F0100000000000000A5
:1039F000531D000000000000009C01006400000056
:0C3A000000000000FE2A0100D2040000BB
:00000001FF
