:020000040800F2
:1000000000090020A1040008391400083D1400086C
:10001000791400083D14000859140008A3040008CE
:10002000A3040008A3040008A3040008D5360008B0
:10003000A3040008A3040008A3040008693A000808
:10004000A3040008A3040008A3040008A3040008F4
:10005000A3040008A3040008493800087538000804
:10006000A1380008CD380008F9380008A3040008BA
:10007000A3040008A3040008A3040008A3040008C4
:10008000A3040008A3040008A30400088D250008A9
:10009000F92500084D260008A1260008253900088A
:1000A000A3040008A3040008A3040008A304000894
:1000B000A3040008A3040008A3040008A304000884
:1000C000A3040008A3040008A3040008A304000874
:1000D000A3040008C52A0008D92A0008A3040008C0
:1000E0008D390008A3040008A3040008A304000835
:1000F000A3040008A3040008A3040008A304000844
:10010000A3040008A3040008A3040008A304000833
:10011000A3040008A3040008A3040008A304000823
:10012000A3040008A3040008A3040008A304000813
:10013000A3040008A3040008A3040008A304000803
:10014000A3040008A3040008A3040008A3040008F3
:10015000A3040008A3040008A3040008A3040008E3
:10016000D0400B1CD1409C46203AD3401843524209
:1001700063469340184370479140031C90409C464F
:10018000203A9340194352426346D3401943704783
:1001900053B94AB9002908BF00281CBF4FF0FF31EE
:1001A0004FF0FF3000F07AB9ADF1080C6DE904CEE4
:1001B00000F006F8DDF804E0DDE9022304B0704742
:1001C0002DE9F0478C460E460446089D002B50D181
:1001D0008A4217466CD9B2FA82FEBEF1000F0BD0EC
:1001E000CEF1200C01FA0EF620FA0CFC02FA0EF702
:1001F0004CEA060C00FA0EF43A0CBCFBF2F9BBB266
:1002000002FB19CC09FB03FA4FEA144848EA0C46F2
:10021000B2450AD9F61909F1FF3180F02581B245BE
:1002200040F22281A9F102093E44A6EB0A06B6FB80
:10023000F2F002FB106600FB03F3A4B244EA0644AA
:10024000A34209D9E41900F1FF3280F00B81A342E7
:1002500040F2088102383C440021E41A40EA094097
:10026000002D62D0002324FA0EF42C606B60BDE8F0
:10027000F0878B4207D9002D55D0002185E8410039
:100280000846BDE8F087B3FA83F1002940F08F807B
:10029000B34202D3824200F2FC80841A66EB03066A
:1002A0000120B446002D40D085E81010BDE8F0874D
:1002B00012B90127B7FBF2F7B7FA87FEBEF1000FBC
:1002C00035D10121F61B4FEA174C1FFA87F8B6FB10
:1002D000FCF20CFB126608FB02F0230C43EA064614
:1002E000B04207D9F61902F1FF3302D2B04200F250
:1002F000D2801A46361AB6FBFCF00CFB106608FBDF
:1003000000F8A3B243EA0644A04507D9E41900F176
:10031000FF3302D2A04500F2B9801846A4EB0804CE
:1003200040EA02409CE729462846BDE8F08707FAE4
:100330000EF7CEF1200326FA03F24FEA174CB2FB78
:10034000FCF11FFA87F80CFB112206FA0EF620FAD0
:1003500003F301FB08F933431E0C46EA0246B1459C
:1003600000FA0EF409D9F61901F1FF3280F08C8001
:10037000B14540F2898002393E44A6EB0906B6FB3E
:10038000FCF00CFB106200FB08F99EB246EA024644
:10039000B14507D9F61900F1FF3371D2B1456FD9D4
:1003A00002383E44A6EB090640EA01418FE7C1F15D
:1003B000200722FA07F88B4048EA030326FA07F4DD
:1003C0004FEA134EB4FBFEF91FFA83FC0EFB1944EF
:1003D0008E4020FA07F809FB0CFA48EA06084FEAB3
:1003E000184646EA0444A24502FA01F200FA01F670
:1003F00008D9E41809F1FF3044D2A24542D9A9F145
:1004000002091C44A4EB0A04B4FBFEF00EFB1044EA
:1004100000FB0CFC1FFA88F848EA0444A44507D9FD
:10042000E41800F1FF3E29D2A44527D902381C4424
:1004300040EA0940A0FB0289A4EB0C0CCC45C24663
:10044000CE4615D312D055B1B6EB0A036CEB0E06AF
:1004500006FA07F7CB401F43CE402F606E600021A5
:10046000BDE8F0871046F7E68946DEE64645EAD263
:10047000B8EB020A69EB030E0138E4E77046D7E7F0
:1004800018468FE78146BDE7114676E702383C44BF
:1004900044E7084606E7023A3E442BE7704700BFB0
:1004A00002E000F000F8FEE772B6274880F3088803
:1004B000264880F3098826484EF60851CEF20001FE
:1004C0000860022080F31488BFF36F8F03F032F9C5
:1004D00003F04EF94FF055301E491B4A91423CBF84
:1004E00041F8040BFAE71C49184A91423CBF41F815
:1004F000040BFAE719491A4A1A4B9A423EBF51F8BF
:10050000040B42F8040BF8E700201749174A914200
:100510003CBF41F8040BFAE703F010F903F02AF9A5
:10052000134C144DAC4203DA54F8041B8847F9E726
:1005300000F03AF8104C114DAC4203DA54F8041BA9
:100540008847F9E703F0F8B80009002000110020FF
:10055000000000080001002000090020A841000858
:1005600000110020741100207811002018260020AE
:1005700060010008600100086001000860010008D7
:100580002DE9F04FC1F80CD0C3689D46BDE8F08F4F
:10059000002383F311882846A047002002F090FE34
:1005A00002F0BAFD00DFFEE76FF01702F8B5394B35
:1005B00000251A70032201245A706FF063029D70A7
:1005C000DD701D715D719D71DD711D725A729C72BD
:1005D000DD7203F029F8074603F076F80646A0BB63
:1005E0002D4B9F4233D023449F4231D02B4B27F0D9
:1005F000FF029A422ED1F8B200F050FA344642F28D
:10060000107500F08BFC00F04FFA70B335BB2EB1C3
:10061000234B9F4202D003F04FF80024002003F048
:100620000DF814B1002400F03DF800F099FC00F042
:1006300033FE00F02FFF0546ECB100F02BFF401B0E
:10064000A04218D900F02EF8F3E70446D9E7044693
:100650003546D6E704464FF47A75D2E7AEB90020A6
:1006600002F0ECFF4FF47A74DDE756B9002002F097
:10067000E5FF0024D9E700F0C9FC012002F026FEC6
:10068000DAE7074B9F42C6D1F0E7054B9F42C2D144
:10069000E5E700BF78110020010007B0000008B0B6
:1006A000263A09B010B51C4B1C4953F8042F0132EF
:1006B00000D110BD8B42F8D1194C1A4B22689A42D6
:1006C00028D9194B9B6803F1006303F5C8439A428C
:1006D00020D202F0C5FF02F0D7FF002000F0F6FDA7
:1006E0000220124B187000F02DFE114BDA69002227
:1006F000DA61D96999699A619B6972B60D4B0E4AA4
:10070000202113601B68226881F311889D4683F3C2
:100710000888104710BD00BFFC6300081C64000877
:1007200004640008FF630008781100208411002091
:10073000001002400064000808ED00E049F2690082
:1007400008490B689AB21B0C00FB02330B6044F2A1
:100750005061054A136898B21B0C01FB0030106011
:1007600080B270470C1100200811002010B504461B
:100770000021102200F002FE034B03CB20606160D9
:100780001868A06010BD00BFE8F7FF1FF0B5BBB050
:1007900000F080FE1D4CA368C31AF92B30D906ADBA
:1007A0002346A06028220021284601F001FC04F124
:1007B0000E0000F0DBFD0023C6B2591D5F1CDBB24A
:1007C000B3424FEAC10107DA0E3323440822284618
:1007D00001F0EEFB3B46F0E701230393082302936D
:1007E0000B4B207B01933023C1F3CF010591009384
:1007F000014604A3D3E900230495064801F0A8F9B3
:100800003BB0F0BD78F6339F93CACD8DE821002030
:10081000F5210020C021002070B50D4614461E466B
:1008200001F03CF950B9022E0ED1012C0CD112A3CB
:10083000D3E90023C5E90023012070BD052C14D0A5
:1008400003D8012C09D0002070BD282C09D0302CF1
:10085000F9D10BA3D3E90023ECE70BA3D3E90023E1
:10086000E8E70BA3D3E90023E4E70BA3D3E90023D4
:10087000E0E700BFAFF30080401DA12026812A0BD6
:1008800078F6339F93CACD8D9E6AC421818A46EE45
:1008900026417272DF25D7B7F017304A39059E56C8
:1008A00038B50D460446034620222846002101F0B3
:1008B0007FFB22792346032A28BF0322284603F818
:1008C000042F2021022201F073FB62792346072ABC
:1008D00028BF0722284603F8052F2221032201F012
:1008E00067FBA2792346072A28BF0722284603F878
:1008F000062F2521032201F05BFB284604F10803A3
:100900001022282101F054FB382038BD2DE9F04F8A
:10091000FFB01FAE0CAD40F2791280460F46304654
:10092000002100F02BFD48220021284600F026FD82
:1009300000F0B0FD4FF47A72B0FBF2F0554B0DF1C0
:100940005209186093E8070001232B74002385E8FF
:1009500007000DF152006B74FFF708FF032385F8C1
:100960002030E82385F8213006AB18464A4903F0C9
:10097000E5F8172228643146284685F83C20FFF721
:100980008FFF10AB044601460822304601F010FBF1
:1009900008220DF14103A118304601F009FB0DF1C9
:1009A0004203082204F11001304601F001FB11ABB3
:1009B000202204F11801304601F0FAFA12AB40226D
:1009C00004F13801304601F0F3FA14AB082204F1C7
:1009D0007801304601F0ECFA0DF15103082204F1E0
:1009E0008001304601F0E4FA04F1880A04F5847BC2
:1009F0004B465146082230460AF1080A01F0D8FA5F
:100A0000D34509F10109F3D119AB08225946304603
:100A100001F0CEFA4FF0000904F5887495F83430EF
:100A20004B4510D84FF0000995F83C304B4515D98F
:100A30002B6C21464B440822304601F0B9FA0834A9
:100A400009F10109F0E7AB6B21464B44082230461F
:100A500001F0AEFA083409F10109DFE7E31DC3F341
:100A6000CF03F97E0593002304960393BB7E1937C9
:100A70000293012301970093404604A3D3E9002386
:100A800001F066F87FB0BDE8F08F00BF9E6AC42118
:100A9000818A46EE88110020F43C0008014B187052
:100AA000704700BFB4110020F0B5314B85B01C7BFE
:100AB00034B10E222F4B1A810024204605B0F0BD20
:100AC0002D4A02AB1068516803C308232B490DEB74
:100AD00003022B4803F014F8054630B90A22254BCF
:100AE00028481A8100F09EFCE6E70169B1F5CE3F87
:100AF00006D90B221F4B24481A8100F093FCDCE737
:100B0000438BB3F57A7F09D00C211A4A1F48118113
:100B10004FF47A72194600F085FCCEE71C4A024475
:100B200002F110039942E4D310398E1A2046144979
:100B300000F0B4FC0746324605F11801204600F0EB
:100B4000ADFCAB689F4202D1EB6898420AD00D22FF
:100B5000084B1A8100903B46EA68A9680D4800F0EE
:100B600061FCA9E70C4800F05DFC0124A5E700BF8B
:100B7000E821002088110020E43B0008DC9B0100F4
:100B800000640008EC3B0008F83B00080A3C000841
:100B9000089CFFF7283C0008513C00082DE9F04F65
:100BA000ADB006AF80460E4600F078FF0446002840
:100BB0006AD1337E022B18D1F38A012B15D100F0B4
:100BC00069FC8146FFF7BAFD4FF4C873B0FBF3F23E
:100BD00002FB1300BF4D80B209F51679F37E48443D
:100BE00028608BB90022BC4B1A709C37BD46BDE80B
:100BF000F08F3B1D1C440094002308224FEAC901DA
:100C0000304601F039F84C46B38A5FFA84F9013B6B
:100C1000A3420BD904F10109B9F1110FE9D14FF445
:100C2000A171AE4BAE4AAF4802F03CFF07F1140091
:100C3000FFF79CFD224607F11401381D02F050FF1A
:100C400003460028CED1B9F1100F07D0A24B83F88C
:100C500000902B68A3F516732B60C6E707F1980286
:100C600002F8950D014600923046072201F004F883
:100C7000F9787F2904DD9C4B994A40F25911D2E75B
:100C8000404600F0EFFEB0E7F38A052B00F0348118
:100C900006D8012BA9D131464046FFF737FEA4E71D
:100CA000282B3AD0302BA0D1737E904C0133627B3D
:100CB000DBB29342E94640F00581F27E237B9A4203
:100CC00040F000814FF0000A07F1980323F884AD4B
:100CD0000093102201235146304600F0CDFFB58A23
:100CE000023DADB2EB1C23F003030A3323F00703EC
:100CF000ADEB030D0DF118085346991C9BB29D42B4
:100D00004FEAC1010AF1010A71DD43440093082250
:100D10000023304600F0B0FFEEE7B38A013B9BB200
:100D2000C92B3FF662AF714D2022FF21704800F0C1
:100D300025FB2C7B4CBB05F10C03009308222346BA
:100D40002146304600F098FFB38A04F10109013BC7
:100D5000E4B29C424FEAC90109DA0E342C440094F3
:100D600000230822304600F087FF4C46ECE70023C2
:100D70000022C5E900230023AB6085F8D730C5F811
:100D8000D8302B7B0BB9F37E2B73002407F11405AD
:100D90003B1D0822214628467C60BC60FC6001F0B7
:100DA00007F93B7A04F10109A3424FEAC90107D9C7
:100DB000FB6808222344284601F0FAF84C46F0E785
:100DC0000023C1F3CF01F07E059104950393B37E18
:100DD0001936029328230146009301963BA3D3E9D9
:100DE0000023404600F0B4FEFFF7D0FCFDE694F887
:100DF000D70000F075FAD4F8D83082461BB994F8C1
:100E0000D70000F07DFAD4F8D8302B449A4504D2AC
:100E100094F8D700013000F073FA00264FEA950BE2
:100E2000B1B259451BDA94F8D73088007BB9D4E9C0
:100E30000023121843EBE073002B08BF202A06D2D0
:100E400058F821302A4A42F821300136E8E7236871
:100E500008EB00010122184400F098FAF5E7D4F8F5
:100E6000D860D4E90023521943F100032E4494F8CA
:100E7000D700C4E90023C4F8D86000F031FA8642F4
:100E80000AD394F8D730013384F8D730D4F8D83067
:100E9000A3EB0A03C4F8D830FF2D0CDC0020082295
:100EA0001349207300F072FA00F03CFAFFF7FCFDE2
:100EB00008B1FFF7F7FB23680E4A9B0A0133138141
:100EC0000023A360CD4690E6AFF300802641727206
:100ED000DF25D7B7BC210020B9210020603C0008E5
:100EE0000C3D0008B93C0008DB3C0008E82100206C
:100EF0009411002088110020BFF34F8F0549064B45
:100F0000CA6802F4E0621343CB60BFF34F8F00BFA7
:100F1000FDE700BF00ED00E00400FA0508B54FF062
:100F200000530B4A196891420AD1597D094A0A486F
:100F300011701B7DC922037308490E3000F00CFAB2
:100F4000BDE80840E02200214FF0005000F016BA42
:100F50009AAD44C5B4110020E821002016000020FD
:100F6000022330B51F4C85B0637104230025ADF812
:100F7000083001230722ADF80C501B498DF80C30C6
:100F80008DF80B30194B1A484B608DF80A2001F090
:100F9000FFFD184B019500931749184B4FF48052F1
:100FA000174800F029FD174B2546197811B1144850
:100FB00000F058FD00F06EFA0446FFF7BFFB4FF457
:100FC000C873B0FBF3F202FB130304F516749BB273
:100FD0001C440D4B1C6002F077FB08B10F232B81E2
:100FE00005B030BD8811002000110020030006006C
:100FF0000023002019080008B81100209D0B0008EC
:10100000C0210020B4110020BC2100202DE9F04FA8
:1010100096A7D7E900670FF25C29D9E900898F4CC0
:1010200093B0DFF858B2DFF858A2204600F0DCFD9C
:101030000CAD079098B310220021284600F09EF9CD
:101040004FF00002079B197B61F3030219468DF8EC
:10105000302051F8040F0EAA496803C21B680D9A8C
:10106000584663F31C029DF830300D9243F0200384
:101070008DF8303000232A46194601F099FD07907B
:1010800030B9204600F0B4FD079B8AF80030CCE769
:101090009AF80030072B40DC01338AF80030182220
:1010A0000021284600F06AF9DFF8D0B1DFF8D4A1BA
:1010B00000232A461946584601F0A2FD014680BB8E
:1010C000102208A800F05AF9DAF80C3083F4005323
:1010D000CAF80C3000F0E0F90DF1240E0B4612A90D
:1010E000024611E903008EE803009DF83410C1F3B5
:1010F0000300890649BF0E99BDF83810C1F31C01E1
:1011000041F0004158BFC1F30A018DF82C0008914D
:10111000204608A900F0B2FFCAE7204600F068FDAB
:10112000BDE7204600F0BAFC824600284AD100F014
:10113000B1F9DFF854B1DBF80030984242D300F047
:10114000A9F90790FFF7FAFA4FF4C873B0FBF3F16F
:1011500001FB1300079A80B202F516721044CBF817
:101160000000DFF828B18DF820A09BF8001011B91D
:1011700001238DF8203028460791FFF7F7FA0799E9
:101180000DF12100C1F1100A5FFA8AFABAF1060FD7
:1011900028BF4FF0060A2944524600F0DDF80AF154
:1011A0000103049308AB0393182302932C4B32469C
:1011B00001930123204600933B4600F071FC00237D
:1011C0008BF8003000F066F9264ADFF8C4A01368F7
:1011D000C31AB3F57A7F32D3106000F05DF902468E
:1011E0000B46204600F00AFD204600F057FC30B3C5
:1011F0009AF80C30DFF89CB0002B14BF03230223B5
:101200008BF8053000F046F94FF47A73B0FBF3F039
:101210002946CBF800005846FFF742FB18230293FB
:10122000114B0730019340F25513C0F3CF000490E7
:101230000093039542464B46204600F031FC9AF855
:101240000C300BB1FFF7A2FA9AF80C30002B7FF4A8
:10125000E8AE13B0BDE8F08FAFF30080C0210020EE
:10126000B8210020C8220020CC220020401DA1204F
:1012700026812A0BF1C6A7C1D068080F00230020E1
:10128000CD22002000100140BC210020B921002007
:10129000E82100208811002070B502F0CDF800256B
:1012A000084C094E207030682378834208D902F038
:1012B000BFF8336805440133B5F5C84F3360F2D346
:1012C00070BD00BFFC220020D022002002F042B9F5
:1012D00000F10060920000F5C84002F0E7B800009D
:1012E000054B1A68054B1B789B1A834202D91044A0
:1012F00002F09EB800207047D0220020FC2200207F
:1013000038B50446064D2868204402F097F828B9FD
:1013100028682044BDE8384002F0A2B838BD00BFBC
:10132000D0220020064991F8243033B1002308224E
:10133000086A81F82430FFF7CBBF0120704700BF57
:10134000D4220020022802BF4FF00052014B1A6144
:10135000704700BF00100140002310B5934203D036
:10136000CC5CC4540133F9E710BD000002460346CB
:10137000981A13F9011B0029FAD170470346024459
:10138000934202D003F8011BFAE770472DE9F047BA
:10139000234C054694F824308846174683BB2E46D6
:1013A000DFF87C90C7B394F824302BB92022FF21BA
:1013B00048462662FFF7E2FF94F824004146C0F158
:1013C0000805BD4228BF3D465FFA85FAAD002A46B2
:1013D00004EB8000FFF7C0FF94F82430A7EB0A0766
:1013E0009A445FFA8AFABAF1080F2E44A844FFB271
:1013F00084F824A0D6D1FFF795FF0028D2D108E0C9
:10140000266A06EB8306B042CAD0FFF78BFF00289E
:10141000C5D10020BDE8F0870120BDE8F08700BFFE
:10142000D42200200FB4002004B070470FB44FF056
:10143000FF3004B070470000FEE70000EFF30983BF
:10144000EFF30583034B9A6B9A6A9A6A9A6A9A6ACF
:101450009B6AFEE700ED00E0EFF30983EFF30583FD
:10146000044B9A6B9A6A9A6A9A6A9A6A9A6A9B6A0F
:10147000FEE700BF00ED00E0EFF30983EFF3058323
:10148000034B5A6B9A6A9A6A9A6A9A6A9B6AFEE74F
:1014900000ED00E002F096B802F070B830B5084DEB
:1014A0000A4491420BD0092411F8013B5840013CF9
:1014B000F7D040F300032B4083EA5000F7E730BD3C
:1014C0002083B8ED0246006848B1036811891360B3
:1014D000D38801339BB29942D38038BF13817047C0
:1014E00070B504460D4688B0202200216846FFF7FB
:1014F00045FF20460495FFF7E5FF054658B16B46CA
:10150000044608AE1A4603CAB24220606160134620
:1015100004F10804F6D1284608B070BD2DE9F04169
:1015200030B940F2C531264B264A274802F0BAFAB4
:101530000B7C23B9254B234A40F2C631F5E7C66937
:1015400086B9C161BDE8F081002B29DA930CAB426A
:1015500029D1B44201D10C60F3E7C8F800100C6047
:10156000BDE8F0814B68B04623F06047BD0C15EA3A
:10157000230538BF3D4634464FEAD37EC3F3807C13
:101580006368BEEBD37F23F06042DDD1974203D185
:10159000C3F380739C450AD1974205E01C46EFE7F0
:1015A000AA4206D013469D422CBF00230123002BE4
:1015B000CFD12368A046002BF0D12160BDE8F08197
:1015C000E03F0008D43D000898400008B9400008FA
:1015D00008B5034A034B40F25E31034802F062FA59
:1015E000B03D0008584000089840000808B503685E
:1015F0000B60C388016033B9044B054A4FF4C761DF
:10160000044802F04FFA013BC38008BD284000089F
:10161000243E00089840000870B50C4600F10C0507
:10162000616831B9E38A002061F30903E382002194
:1016300070BD0E682846FFF7D9FF6660F0E700002E
:1016400008B5426832B10B4B0B4A40F22F410B48B0
:1016500002F028FAC37DC3F38401013161F38603EC
:10166000C375C38A62F30903C3821B0A62F3C713FB
:10167000C37508BD74400008E03D000898400008AC
:101680002DE9F047089E32B91F4B204A40F23951EC
:101690001F4802F007FA4FF47F4901F007054FEAAF
:1016A000D6082A4406F0070600EBD100954201D186
:1016B000BDE8F08705F0070E06F0070AD645774625
:1016C00038BF5746511BC7F108078F4228BF0F4646
:1016D000EC08045D08EBD60113F801C004FA0EF41F
:1016E00029FA07FE24FA0AF45FFA8EFE8CEA040453
:1016F0004EFA0AFE04EA0E048CEA040C03F801C058
:101700003D443E44D2E700BFF43F0008F83D0008E6
:10171000984000082DE9F04106460F4600254FF697
:10172000FF7441F221082A4630463946FEF718FD7B
:101730000823C0B284EA002414F4004F4FEA4404A2
:10174000A4B203F1FF3318BF84EA080413F0FF03C7
:10175000F2D10835402DE6D12046BDE8F0810000E9
:1017600010B541F221040A44914200D110BD11F894
:10177000013B80EA0320082310F4004F4FEA4000A9
:1017800080B203F1FF3318BF604013F0FF03F3D1C1
:10179000EAE700002DE9F04F85B08A468DE80C009D
:1017A000BDF83C40814630B940F26E31484B494A61
:1017B000494802F077F911F0604F04D0474B454A91
:1017C00040F26F31F4E7009B002B7ED024B10E9BDA
:1017D000002B7AD0072C28D809F10C00FFF772FEF5
:1017E000054628B96FF00205284605B0BDE8F08F20
:1017F00014220021FFF7C2FD22460E9905F10800D0
:10180000FFF7AAFD631C2B74009B2C441B78294610
:1018100003F01F0363F03F0323724AF000436B6041
:101820004846FFF77BFE0125DEE74FF000084FF04A
:10183000800B46464546019B1B0A029300F10C03B0
:1018400003930398FFF73EFE07460028CAD01422F0
:101850000021FFF793FDB6BB02229DF804303B72D6
:101860009DF808307B720E9B711E1944B4420AD950
:10187000B818013211F801EFD2B20136072A80F808
:1018800008E0B6B2F2D1B44208BF4FF0400B009B63
:10189000B8181978013201F01F0141EA48114BEAEA
:1018A000010303724AF000437B603A7439464846AC
:1018B000FFF734FE0135B4422DB288F001084FF035
:1018C000000BBED190E70022CDE76FF001058BE75A
:1018D000E03F0008C43D00089840000804400008AC
:1018E0002DE9F0471E46CB8A9146C3F30902062A2A
:1018F00080460F4619D013460021B0B28DB25A1956
:1019000092B2052A09D9A84210D8FA8A034463F38F
:101910000902FA820120BDE8F087A842F3D919F83C
:1019200001403A4494760131E8E70025FB8A7C685F
:10193000C3F309001C23821FB2FBF3FA03FB1A2A2C
:101940001FFA8AF27CB301212368002B39D1B31F1F
:1019500003441C20B3FBF0F301339BB299420CD239
:10196000BAF1000F09D14046FFF7ACFD08B1C0F84D
:1019700000A0206008B3044600224FF0000AB6B26F
:10198000B54230D21346691E4944E018013311F8BC
:1019900001EF9BB201351C2B80F804E0ADB214D0EE
:1019A000AE42F2D8ECE74046FFF78CFD044608B1A2
:1019B000002303607C60002CDED16FF00200BDE8E4
:1019C000F087013189B21C46BEE7AE42D8D9404605
:1019D000FFF778FD08B1C0F800A020600028ECD027
:1019E00004460022CCE7FB8AC3F30902164466F3DF
:1019F0000903FB828EE70000F8B50E4615461F4628
:101A0000044628B9144B154A4F21154802F04AF8EC
:101A100024220021FFF7B2FC069B6A096360079B42
:101A2000002023624FF6FF739A4228BF1A46A76030
:101A30002070A061E06197B204F10C05824205D1EB
:101A400000232B6027826382A382F8BD2E600130C1
:101A500035462036F2E700BFDC3F0008503D000865
:101A60009840000808B528B97321084B084A09486E
:101A700002F018F8037823B94BB2002B01DD017096
:101A800008BD054B024A7D21F1E700BFE03F000899
:101A90005C3D000898400008243F0008007870472B
:101AA0002DE9F7430D9E074619461046BDF82890CC
:101AB0000B9D9DF83040BDF8388016B9B8F1000F85
:101AC00043D11F2C41D83B78D3B9B8F1070F39D88F
:101AD00039F0030339D1424631464FF6FF70FFF724
:101AE0003FFE4FEA092920F0010009F44079400443
:101AF00049EA0464400C44EA40244FF6FF730DE0C9
:101B000043EA0923B8F1070F43EA0464F5D9FFF764
:101B100001FE42463146FFF723FE03468DE84001B1
:101B20002A4621463846FFF735FE0DB9FFF750FD2E
:101B30002B780133DBB21F2B88BF00232B7003B03F
:101B4000BDE8F0836FF00300F9E76FF00100F6E7FE
:101B50002DE9F7430E9F81460B9D9DF830009DF8BF
:101B60003480BDF83C6007B9C6BB1F2836D899F849
:101B700000E0BEF1000F34D00C0244F080049DF868
:101B8000281044EAC83444EA014444EA0E04072E0B
:101B900044EA006415D919461046FFF7BBFD3246EA
:101BA0003946FFF7DDFD0346019600972A46214698
:101BB0004846FFF7EFFDB8F1010F0CD125B9FFF74B
:101BC00007FD4FF6FF73EFE72B780133DBB21F2BD6
:101BD00088BF00232B7003B0BDE8F0836FF00100D5
:101BE000F9E76FF00300F6E7C06900B10430704711
:101BF000C1690C300B680361FFF7F8BC2DE9F84FA1
:101C0000D0F818A0054616461F4654464FF0000966
:101C1000DFF8608000F10C0B0CB9BDE8F88FD4E957
:101C20000223B21A67EB0303994508BF90451FD200
:101C3000AB6921469C4228460DD1FFF7EDFCAB690C
:101C400021461B685846AB61FFF7D0FCAC692346C0
:101C5000A2461C46E0E7FFF7DFFC23682146CAF8EE
:101C600000305846FFF7C2FC5446DAF80030EFE780
:101C70002368EDE780841E002DE9F04F8BB00D4600
:101C800014460793DDF850908246002800F06481E6
:101C9000B9F1000F00F06081531E3F2B00F25C8110
:101CA000012A03D1079B002B40F056810023BAF88C
:101CB00014600893F600B542099380F053812B1904
:101CC0009E420AD2761B16F0FF0607D140F26751FA
:101CD000AA4BAB4AAB4801F0E5FE2646DAF80C30D9
:101CE00023B9DAF81030002B00F0A5802F2D31D861
:101CF000C5F1300846454FF0000334BFB0465FFAE7
:101D000088F80093294608AB4246DAF80800FFF746
:101D1000B7FCA6EB08074544FFB24FF0300BBAF80A
:101D2000143003F10053063BDB000293DAF80C3069
:101D30000593059B002B51D087B9DAF810000028D5
:101D400061D0002F5FD0AB4550D98F4B8C4A40F209
:101D5000A651BFE737464FF00008DEE7029B23B9E4
:101D60008A4B874A4FF4B161B4E7029BE02B28BF4E
:101D7000E02306935B44AB4204931DD95B1B9F4257
:101D800026BFDBB203930397AB4504D97E4B7C4A55
:101D900040F291519EE70598CDF8008008ABA5EB85
:101DA0000B01039A0430FFF76BFC039B9844FF1A66
:101DB0001D445FFA88F8FFB2049B9B4504D3744B23
:101DC0006F4A40F29B5185E7029B069ADDF810B0FE
:101DD0009B1A0293059B1B680593AAE7029BBB42D3
:101DE000ABD26C4B664A40F2A15173E7CDF800804C
:101DF0003A46A5EB0B0108ABB8443D44FFF740FC65
:101E000000275FFA88F8BAF81430B5EBC30F04D98D
:101E1000614B5B4A40F2B1515CE7B8F1400F04D925
:101E20005E4B574A40F2B25154E767B15C4B544A9B
:101E300040F2B3514EE70093324608AB2946DAF838
:101E40000800FFF71DFC731E3F2B35B201D8A642D8
:101E500004DD544B544A40F235213BE760070AD079
:101E60000AAB03EBD40111F8083C624202F007020E
:101E7000134101F8083C082C21D9102C21D9202C21
:101E80008CBF08230423079A002A6DD0B4EBC30F3C
:101E90006CD0082C04F1FF3215D89DF8203023FABD
:101EA00002F2D10706D54FF0FF3202FA04F42343C1
:101EB0008DF820309DF8203089F800304EE0012365
:101EC000E1E70223DFE7102C11D8BDF8203023FA18
:101ED00002F2D20706D54FF0FF3202FA04F4234390
:101EE000ADF82030BDF82030A9F8003036E0202CC5
:101EF0000ED8089921FA02F2D30705D54FF0FF3327
:101F000003FA04F40C430894089BC9F8003025E058
:101F1000402C1CD0DDE9086730463946FEF720F931
:101F2000002100F0010050EA01030BD022460120FD
:101F30000021FEF721F9404261EB410106430F43C6
:101F4000CDE90867DDE90823C9E9002306E0174B5E
:101F5000154A4FF42071BDE66FF0010528460BB01D
:101F6000BDE8F08F1D46F9E7012CA3D0082CA1D9BC
:101F7000102CB7D9202CE5D8C6E700BF303E0008AA
:101F8000083E000898400008523E00083F3E000806
:101F9000773E00089F3E0008C63E0008F43E000859
:101FA0000C3F0008263F0008883D0008243F000839
:101FB00030B585B030B940F2B121234B234A2448D3
:101FC00001F070FD23B9234B204A40F2B221F6E71D
:101FD000402A04D9204B1D4A40F2B621EFE722B92E
:101FE0001D4B1A4A4FF42F71E9E70024012A02948D
:101FF000039417D11B788DF8083053070AD004AB2F
:1020000003EBD20313F8084C554205F00705AC402A
:1020100003F8084C00910346002102A8FFF730FBAB
:1020200005B030BD082AE5D9102A03D81B88ADF8C1
:102030000830E2E7202A02D81B680293DDE7D3E9E3
:102040000045CDE90245D8E7603F00089C3D000807
:10205000984000087B3F0008243F000870B50C46FC
:1020600000F10C05E16819B9A1602161A18270BD80
:102070000E682846FFF7BAFAE660F3E72DE9F04F5D
:10208000D1F8009091B0C9F3C01604460D46CDE9D1
:102090000223002E50D0C9F3C03BC9F30626B9F184
:1020A000000F80F29F8119F0C04F40F09B812B7B85
:1020B000002B00F09781BBF1020F03D02278B242CF
:1020C00040F0938109F07F02BBF1020F059236D1F7
:1020D00019F07F0FC9F30F2A01D10AF0030A2B442C
:1020E0007606059A93F8038046EA0B4646EA82464E
:1020F0005FEAD81346EA0A06069300F09A800022A7
:10210000002310A961E90823059B676800935246E4
:102110005B462046B847002800F08880A7698FB941
:10212000314604F10C00FFF7DBF90746D0B96FF038
:10213000020011B0BDE8F08F4FF0020BAFE7C9F31A
:10214000074ACCE73B699E420DD03F68002FF9D18A
:10215000314604F10C00FFF7C3F907460028E6D02A
:10216000A3693B60A761DDE90801FFF7D3FAB882F4
:10217000F97D08F01F06C1F38401711A89B20FFAC4
:1021800081FEBEF1000FB8BF01F1200EC9F304615A
:10219000D7E90223B8BF0FFA8EFE079152EA030176
:1021A00000F02F81DDE90201801A61EB03010B468B
:1021B000002102469E48994208BF9042C0F021810A
:1021C000069B002B3FD0BEF1010F00F31A8118F0DF
:1021D000400F38D0DDE90223C7E902232022002185
:1021E0000DEB0200FFF7CAF8DDE90223CDE9082371
:1021F0002B1D0A932B7B2046013BDBB2ADF834301C
:102200009DF81C30ADF836A08DF83A309DF81430AA
:102210008DF838B08DF83B308DF83960A36808A987
:1022200098473846FFF70CFA002082E76FF00B0062
:102230007FE7A76917B96FF00C007AE73B699E4208
:1022400096D03F68F6E7FB7DC8F34012B2EBD31F90
:1022500040F0CE80C3F38403B34240F0CC800699B3
:102260002B7B4FEA981279B3D2073CD4032B40F270
:10227000C580DDE90223C7E902232B7BAE1D033BAA
:10228000DBB23246394604F10C00FFF729FB002887
:1022900008DA39462046FFF7BFF93846FFF7D0F98C
:1022A000032046E7AB883B832A7B033AD2B2B88A45
:1022B0003146FFF755FAFB7DB882DA43C2F3C0120C
:1022C00062F3C713FB75AFE76AB92E1D013BDBB2A2
:1022D0003246394604F10C00FFF702FB0028D8DB38
:1022E0002A7B013AE2E7FA8A013BC2F30902052A96
:1022F000D9B250D80023281D99420AD907EB020E03
:1023000010F801CB01320133062A8EF81AC0DBB275
:10231000F2D18B4228BF0023DDE9028907F11A02BE
:10232000CDE908890A927A683CBF04335B190B92A5
:102330000C93FB8AADF836A0C3F3090319449DF84A
:102340001C30ADF834108DF83A309DF814308DF80B
:1023500038B08DF83B3000238DF839607B602A7BE4
:10236000B88A013A291DFFF7FBF93B8BB8828342FB
:1023700003D1A36808A92046984708A92046FFF77B
:102380006DFE3846FFF75CF9B88A3B8B984214BF64
:1023900011200020CDE6786810B34FF0060E0368D8
:1023A0009BB9A2EB0E021B2A13D80332024405F19B
:1023B000040E1F309942ACD91EF801CB013302F84C
:1023C00001CF9042DBB2F5D1A3E70EF11C0E184607
:1023D000E5E7184B184A40F2B311184801F062FBC8
:1023E000034696E76FF00900A3E66FF00A00A0E647
:1023F0006FF00D009DE66FF00E009AE66FF00F0093
:1024000097E6FB7D394668F386036FF3C713FB75C8
:102410002046FFF701F9069B002B7FF4D8AEFB7D29
:10242000C3F38402013262F38603FB7503E700BF46
:1024300080841E00903F0008743D0008984000080A
:102440002DE9F0414E4EB04240F086804D4CDFF811
:1024500038E1E56945F00075E561E469846AD4F81E
:10246000007207EA0E0747F00107C4F80072D4F8BB
:10247000005205EA0E0545F0010545EA0121C4F8C0
:102480000012002A6AD000210F46C4F81C12C4F8BA
:102490000412C4F80C12C4F8141204EBC105013183
:1024A0000E29C5F84072C5F84472F6D14FF0000EFF
:1024B0004FF0010C964510D1826AB042D2F800323A
:1024C00023F00103C2F8003258D12E4BDA6922F012
:1024D0000072DA61DB69BDE8F0819F781D8817F032
:1024E000010F18BFD4F804820CFA05F11CBF41EAB1
:1024F0000808C4F8048217F0020F18BFD4F80C8241
:1025000004EBC5051CBF41EA0808C4F80C827F072C
:1025100048BFD4F8147203F10C0344BF0F43C4F84E
:10252000147253F8087C0EF1010EC5F8407253F88E
:10253000047CC5F84472D4F81C522943C4F81C1218
:10254000B8E70021846AC4F81C12C4F80412C4F865
:102550000C12C4F81412A9E7002AF2D10022836AEF
:10256000C3F84022C3F84422C3F80422C3F814225B
:102570000122C3F80C22C3F81C229DE7BDE8F081BC
:1025800000230020001002400000FFFF184A08B599
:10259000916A8B688B6013F0010105D013F00C0F6A
:1025A00014BF4FF480310121D80506D513F4406FD4
:1025B00014BF41F4003141F00201D80306D513F4F1
:1025C000402F14BF41F4802141F00401D3690BB1C5
:1025D00007489847202383F311880021054800F01D
:1025E0009DFE002383F31188BDE8084001F07CB80C
:1025F000002300200823002038B5124CA36ADD68B0
:10260000AA0712D05A6922F002025A61A36913B1D3
:10261000012120469847202383F3118800210A488E
:1026200000F07CFE002383F31188EB0606D5102111
:10263000A36AD960236A0BB102489847BDE83840C5
:1026400001F052B8002300201023002038B5124CAE
:10265000A36A1D69AA0712D05A6922F010025A61B2
:10266000A36913B1022120469847202383F31188E0
:1026700000210A4800F052FE002383F31188EB0684
:1026800006D51021A36A1961236A0BB10248984745
:10269000BDE8384001F028B80023002010230020B6
:1026A00038B50F4CA36A5D682A075D600AD503221E
:1026B00022701A6822F002021A60636A13B10021C4
:1026C000204698476B0706D5A36A9969236A13B118
:1026D000090403489847BDE8384001F005B800BF39
:1026E0000023002010B50F4C204600F03FFA0E4B9F
:1026F0000B211320A36200F019FA0B21142000F023
:1027000015FA0B21152000F011FA0B21162000F00C
:102710000DFA00232046BDE810401A460E21FFF7AF
:102720008FBE00BF00230020006400400F4B10B597
:102730009842044605D10E4BDA6942F00072DA6124
:10274000DB690122A36A1A60A36A5A68D20707D517
:10275000626851681268D9611A60064A5A6110BDF0
:102760000121082000F092FCEEE700BF00230020CA
:10277000001002405B87010003291AD8DFE801F04E
:10278000020A0F14836A9B6813F0E05F14BF0120F4
:1027900000207047836A9868C0F380607047836A3E
:1027A0009868C0F3C0607047836A9868C0F300708F
:1027B000704700207047000010B503291FD8DFE8DC
:1027C00001F0021F2327816A8B68C3F3016318336A
:1027D00001EB0313107881061ED55468C0F3001175
:1027E000490041EAC40141F0040100F00F005860C3
:1027F000906841F001019860D268DA60196010BDFC
:10280000836A03F5C073E5E7836A03F5C873E1E7FC
:10281000836A03F5D073DDE79488C0F300114900A3
:1028200041EA4451E1E7000001290CD003D3022919
:1028300010D000207047836ADA68920701D11869C6
:1028400003E001207047836AD86810F0030018BFC6
:1028500001207047836AF2E710B539B9836AD968F5
:1028600089071BD11B699B0704D110BD012915D015
:10287000022948D1816AD1F8C031D1F8C401D1F818
:10288000C8411461D1F8CC41546120240C610C6919
:10289000A40717D14C6944F0100412E0816AD1F802
:1028A000B031D1F8B401D1F8B8411461D1F8BC41CC
:1028B00054612024CC60CC68A40703D14C6944F057
:1028C00002044C6111795C0864F304119C0864F300
:1028D0004511117189064BBF91681189DB085B0DA9
:1028E0004CBF63F31C0163F30A01137948BF916085
:1028F00060F3030313714FEA10234FEA104058BFEF
:1029000011811370508010BD00231A4610B51C4968
:102910005A50CC180833802B6260F9D1194B9A6950
:1029200042F07D029A619B690268174BDA60826807
:102930005A6042681A60C26803F58063DA604269CF
:102940005A6002691A608269C3F80C24026AC3F8EB
:102950000424C269C3F80024426AC3F80C28C26A7E
:10296000C3F80428826AC3F80028026BC3F80C2C51
:10297000826BC3F8042C426BC3F8002C10BD00BF5F
:102980002C23002000100240000801400268436828
:102990001143016003B1184770470000024AD36831
:1029A00043F0C003D360704700380140024AD36847
:1029B00043F0C003D3607047004400402DE9F0416C
:1029C000D0F89C600546F7683368DA059CB20DD5EF
:1029D000202383F311884FF400710430FFF7D6FFF2
:1029E0006FF480733360002383F31188202383F313
:1029F000118805F1040814F02F0333D183F31188F3
:102A0000380615D5210613D5202383F3118805F147
:102A1000380000F02FFA002846DA0821281DFFF7B9
:102A2000B5FF4FF67F733B40F360002383F31188BB
:102A30007A060ED563060CD5202383F31188EA6C41
:102A40002B6D9A4202D12B6C002B2FD1002383F3E4
:102A50001188D5F8A420D368002B31D0BDE8F0410F
:102A600010691847230713D014F0080F0CBF00217A
:102A70008021E00748BF41F02001A20748BF41F094
:102A80004001630748BF41F480714046FFF77EFF75
:102A9000A406736805D595F8A0102846194000F0E3
:102AA00089FA3468A4B2A6E77060BEE727F0400751
:102AB0003F041021281D3F0CFFF768FFF760C5E7B2
:102AC000BDE8F08108B50348FFF778FFBDE808408E
:102AD00000F00ABEAC23002008B50348FFF76EFFE4
:102AE000BDE8084000F000BE5424002010B5094C99
:102AF000094A2046002100F03DFA084B084AC4F874
:102B00009C30084C0021204600F034FA064BC4F8F3
:102B10009C3010BDAC2300209D29000800380140E6
:102B2000AD290008542400200044004000F1604317
:102B3000090103F56143C9B283F80013012300F0D2
:102B40001F024009800000F16040934000F56140A1
:102B5000C0F8803103607047090100F16040C9B2DC
:102B600000F56D4001767047FFF7BCBD012303708F
:102B7000002300F108028260C26000F1100243608D
:102B8000026142618361C361036243627047000076
:102B900010B52023044683F311880223416003709B
:102BA000FFF7C4FD03232370002383F3118810BDB6
:102BB0002DE9F0411F4604460D461646202383F3B7
:102BC000118800F108082378042B0ED029462046EE
:102BD000FFF7D2FD48B1204632462946FFF7ECFD0B
:102BE000002080F31188BDE8F0813946404600F0AE
:102BF00079FB0028E7D0002383F31188BDE8F0813A
:102C00002DE9F0411F4604460D461646202383F366
:102C1000118800F110082378042B0ED02946204695
:102C2000FFF702FE48B1204632462946FFF714FE60
:102C3000002080F31188BDE8F0813946404600F05D
:102C400051FB0028E7D0002383F31188BDE8F08111
:102C5000F8B5154682680B46AA428169066938BFF5
:102C60008568761AB542044607D218462A46FEF70A
:102C700073FBA3692B44A3610DE011D932461846BA
:102C8000FEF76AFBAF1B3A46E1683044FEF764FB8F
:102C9000E2683A44A261A36828465B1BA360F8BDC2
:102CA00018462A46FEF758FBE368E4E72DE9F041B1
:102CB0000446154683682669934238BF8568406993
:102CC0000F46361AB54206D22A46FEF745FB63691F
:102CD0002B4463610DE012D93246A5EB0608FEF7DE
:102CE0003BFB4246B919E068FEF736FBE268424416
:102CF0006261A36828465B1BA360BDE8F0812A4699
:102D0000FEF72AFBE368E4E710B50024C361029BE9
:102D10000A44006040608460C16081614161026179
:102D2000036210BD08B582694369934201D182688C
:102D300082B98268013282605A1C4261197042690C
:102D400003699A4201D3C3684361002100F0DAFAB3
:102D5000002008BD4FF0FF3008BD000070B52023F3
:102D600004460E4683F31188A568A5B1A368A2693D
:102D7000013BA360531CA36115782269934224BFD1
:102D8000E368A361E3690BB120469847002383F30E
:102D90001188284670BD3146204600F0A3FA00286D
:102DA000E2DA85F3118870BD2DE9F74F05460F462D
:102DB00090469A46D0F81C90202686F311884FF052
:102DC000000B144664B1224639462846FFF740FFFF
:102DD000034668B95146284600F084FA0028F1D02D
:102DE000002383F31188A8EB040003B0BDE8F08F43
:102DF000B9F1000F03D001902846C847019B8BF31F
:102E00001188E41A1F4486F31188DBE7C361009B35
:102E1000C160816141611144006040608260016174
:102E200003627047F8B504460E461746202383F325
:102E30001188A568A5B1A368013BA36063695A1C0A
:102E400062611E70236962699A4224BFE36863610C
:102E5000E3690BB120469847002080F31188F8BD44
:102E60003946204600F03EFA0028E2DA85F3118860
:102E7000F8BD00008369426910B59A4201D18268A9
:102E80007AB98268013282605A1C82611C780369B7
:102E90009A4201D3C3688361002100F033FA2046CF
:102EA00010BD4FF0FF3010BD2DE9F74F05460F461E
:102EB00090469A46D0F81C90202686F311884FF051
:102EC000000B144664B1224639462846FFF7EEFE51
:102ED000034668B95146284600F004FA0028F1D0AC
:102EE000002383F31188A8EB040003B0BDE8F08F42
:102EF000B9F1000F03D001902846C847019B8BF31E
:102F00001188E41A1F4486F31188DBE702684368DE
:102F10001143016003B11847704700001430FFF7F8
:102F200043BF00004FF0FF331430FFF73DBF0000F8
:102F30003830FFF7B9BF00004FF0FF333830FFF7EC
:102F4000B3BF00001430FFF709BF00004FF0FF319E
:102F50001430FFF703BF00003830FFF763BF0000F5
:102F60004FF0FF323830FFF75DBF000000207047A0
:102F7000FFF7BCBD0E4B37B5036000234360836091
:102F8000C3600123044615460374202200900B46BB
:102F900000F15C011430FFF7B7FE00942B462022AD
:102FA00004F17C0104F13800FFF730FF03B030BDBD
:102FB000D440000838B5C36904460D461BB9042146
:102FC0000844FFF7A3FF294604F11400FFF7AAFE07
:102FD000002806DA201D4FF48061BDE83840FFF775
:102FE00095BF38BD0022024B1B605B609A60704742
:102FF000FC240020002382680374054B1B68996839
:103000009142FBD25A68036042601060586070477A
:10301000FC24002008B5202383F31188037C032BB4
:1030200005D0042B0DD02BB983F3118808BD0022E5
:1030300043691A604FF0FF334361FFF7DBFF002362
:10304000F2E790E80C001A6002685360F2E70000B3
:10305000002382680374054B1B6899689142FBD872
:103060005A6803604260106058607047FC2400207A
:10307000054B196908741868026853601A60186172
:1030800001230374FDF77CBAFC24002030B54B1CEF
:1030900087B005460A4C10D023690A4A01A800F0FF
:1030A00059F92846FFF7E4FF049B13B101A800F08B
:1030B0006BF92369586907B030BDFFF7D9FFF8E70E
:1030C000FC2400201530000838B50C4D41612B69F7
:1030D00081689A680446914203D8BDE83840FFF7FA
:1030E00089BF1846FFF786FF01232C610146237430
:1030F0002046BDE83840FDF743BA00BFFC2400205D
:10310000044B1A681B6990689B68984294BF002022
:1031100001207047FC24002010B5084C236820696A
:103120001A6854602260012223611A74FFF790FF2D
:1031300001462069BDE81040FDF722BAFC240020BA
:1031400008B5FFF7DDFF18B1BDE80840FFF7E4BFA1
:1031500008BD0000FEE7000010B5174CFFF742FF66
:1031600000F0EAF880221549204600F06FF80123AC
:1031700044F8180C0374124B124AD96821F4E06128
:103180000904090C0A431049DA60CA6842F08072E7
:10319000CA600E490A6842F001020A601022DA771A
:1031A000202283F82220002383F3118862B6BDE831
:1031B0001040074800F06CB824250020FC400008AF
:1031C00000ED00E00003FA05F0ED00E0001000E083
:1031D00004410008F8B50F4C226A013222622246EF
:1031E00052F8141F9142154606D020268B68013BE9
:1031F0008B6063699A6802B1F8BD1968DF68DA60AC
:103200004D60616182F311881869B84786F31188AF
:10321000EFE700BFFC240020EFF3118020B9EFF3AB
:103220000583202282F311887047000010B558B939
:10323000EFF30584C4F3080414B180F3118810BDC2
:10324000FFF77EFF84F3118810BD00008260022228
:1032500002740022427470478368A3F13C0243F871
:103260000C2C026943F83C2C426943F8382C074A7D
:1032700043F81C2CC268A3F1180043F8102C02225A
:1032800003F8082C002203F8072C7047910500086A
:1032900010B5202383F31188FFF7DEFF00210446D9
:1032A000FFF712FF002383F31188204610BD0000B2
:1032B000024B1B6958610F20FFF7DABEFC24002087
:1032C000202383F31188FFF7F3BF000008B5014600
:1032D000202383F311880820FFF7D8FE002383F30F
:1032E000118808BD49B1064B42681B6918605A60D5
:1032F000136043600420FFF7C9BE4FF0FF307047F2
:10330000FC2400200368984206D01A6802605060CE
:1033100059611846FFF76EBE7047000038B5044685
:103320000D462068844200D138BD036823605C608C
:103330004561FFF75FFEF4E7054B03F114025A61A4
:103340009A614FF0FF32DA6100221A62704700BFC3
:10335000FC24002010B5C2600A4A036153699C68CE
:10336000A1420CD85C6803604460206058608160B2
:103370009868411A99604FF0FF33D36110BD091B63
:103380001B68ECE7FC240020036881689A680A4403
:103390009A604268136003685A6000234FF0FF325E
:1033A000C360014BDA617047FC24002000207047A5
:1033B000FEE70000704700004FF0FF30704700004C
:1033C000BFF34F8F024AD368DB07FCD4704700BFBE
:1033D0000020024008B5074B1B7853B9FFF7F0FFF8
:1033E000054B1A69120641BF044A5A6002F188323D
:1033F0005A6008BD002600200020024023016745D6
:1034000008B5054B1B7833B9FFF7DAFF034A136998
:1034100043F08003136108BD002600200020024015
:103420007F289ABF00F5003080020020704700001E
:103430004FF4806070470000802070477F2808B5F7
:103440000BD8FFF7EDFF00F580630268013204D16D
:1034500004308342F9D1012008BD002008BD0000DE
:103460007F2810B504461CD8FFF7AAFFFFF7B2FF6C
:10347000F3220D4BDA6002221A61FFF7D1FF586187
:103480001A6942F040021A61FFF79AFF4FF4806117
:1034900000F0E4F8FFF7B4FF2046BDE81040FFF766
:1034A000CDBF002010BD00BF002002402DE9F84331
:1034B00012F00103144606D040F249221F4B1A6055
:1034C0000020BDE8F88385181D4A954204D940F2D2
:1034D0004E211A4A1160F3E7FFF77CFFFFF770FFF8
:1034E0004FF00109DFF86880451A012C05EB010651
:1034F0000F4604D8FFF784FF0120BDE8F883C8F821
:10350000109031F8023B3380FFF75AFF0020C8F8D3
:10351000100033883A889BB29A420DD040F265225F
:10352000064B1A60074B1E60074B1C60074B1F6061
:10353000FFF766FFBDE8F883023CD6E7FC250020D4
:10354000FFFF0108F0250020F8250020F4250020C9
:1035500000200240084908B50B7828B153B9FFF79D
:1035600039FF01230B7008BD23B1BDE80840087086
:10357000FFF746BF08BD00BF0026002038B5FFF7A3
:103580004BFE4FF47A730C490C4A0C6A116803FB2A
:1035900004F38B420A49D1E9004504D2003445F1D5
:1035A0000105C1E90045E41845F100051360FFF786
:1035B0003DFE2046294638BDFC240020042600207C
:1035C0000826002008B5FFF7D9FF4FF47A720023D0
:1035D000FCF7DEFD08BD00BF10B5094C0439013A07
:1035E000D2B2FF2A00D110BD53089800043054F81D
:1035F000233000599BB243EA004341F8043FEEE711
:10360000046C004030B50748013AD2B2FF2A00D11D
:1036100030BD0D88540840F82450A3004C88043372
:103620001C50F1E7046C004007B5012201A90020FD
:10363000FFF7D2FF019803B05DF804FB13B5044611
:10364000FFF7F2FFA04206D002A941F8044D012283
:103650000020FFF7D7FF02B010BD00007047000048
:1036600045F25552064B1A6002225A6040F6FF722C
:103670009A604CF6CC421A600122024B1A707047D5
:103680000030004011260020034B1B781BB14AF686
:10369000AA22024B1A607047112600200030004019
:1036A000034B1B689B0042BF0122024B1A707047FC
:1036B00024100240102600204FF08072014B1A6047
:1036C000704700BF24100240014B1878704700BFBC
:1036D00010260020EFF30983203383F309880023A9
:1036E00083F311887047000010B5202383F31188FD
:1036F0000D4B5B6813F4006312D0EFF309844FF0B5
:10370000807344F8043CA4F1200383F30988FFF795
:10371000F7FC18B1054B44F8083C10BD044BFAE720
:1037200083F3118810BD00BF00ED00E0A105000883
:10373000A405000870470000FEE70000084A094B96
:1037400009498B4204D30021084A934205D37047AC
:1037500052F8040F43F8040BF3E743F8041BF4E7B3
:1037600018420008182600201826002018260020DD
:1037700000F030B808B500F063F9FFF7EDFCBDE8E4
:103780000840FFF78DBF0000704700004FF0FF3189
:103790000E4B1A6919611A6900221A611869D868F2
:1037A000D960D968DA60DA68DA6942F08052DA61A1
:1037B000DA69DA6942F00062DA61054ADB691368A6
:1037C00043F48073136000F01BB900BF0010024087
:1037D00000700040194B1A6842F001021A601A6822
:1037E0009007FCD51A6802F0F9021A6000225A60AC
:1037F0005A6812F00C0FFBD11A6842F480321A603A
:103800001A689103FCD55A6842F4E8125A601A68A3
:1038100042F080721A601A689201FCD51221084A9F
:103820005A60084A11605A6842F002025A605A68A7
:1038300002F00C02082AFAD1704700BF00100240C3
:1038400000641D0000200240084A08B55369116851
:103850000B4003F00103536123B1054A13680BB118
:1038600050689847BDE80840FFF73EBF000401409C
:103870002C230020084A08B5536911680B4003F057
:103880000203536123B1054A93680BB1D06898478E
:10389000BDE80840FFF728BF000401402C230020AA
:1038A000084A08B5536911680B4003F004035361DB
:1038B00023B1054A13690BB150699847BDE8084028
:1038C000FFF712BF000401402C230020084A08B56E
:1038D000536911680B4003F00803536123B1054A93
:1038E00093690BB1D0699847BDE80840FFF7FCBE6B
:1038F000000401402C230020084A08B553691168D0
:103900000B4003F01003536123B1054A136A0BB156
:10391000506A9847BDE80840FFF7E6BE0004014042
:103920002C230020174B10B55C691A68144004F46E
:1039300078725A61A30604D5134A936A0BB1D06A10
:103940009847600604D5104A136B0BB1506B98472B
:10395000210604D50C4A936B0BB1D06B9847E20556
:1039600004D5094A136C0BB1506C9847A30504D5D4
:10397000054A936C0BB1D06C9847BDE81040FFF737
:10398000B3BE00BF000401402C2300201A4B10B529
:103990005C691A68144004F47C425A61620504D5DB
:1039A000164A136D0BB1506D9847230504D5134A81
:1039B000936D0BB1D06D9847E00404D50F4A136E98
:1039C0000BB1506E9847A10404D50C4A936E0BB10D
:1039D000D06E9847620404D5084A136F0BB1506F3C
:1039E0009847230404D5054A936F0BB1D06F9847CD
:1039F000BDE81040FFF778BE000401402C230020F2
:103A0000062108B50846FFF791F806210720FFF7C1
:103A10008DF806210820FFF789F806210920FFF715
:103A200085F806210A20FFF781F806211720FFF705
:103A30007DF8BDE8084006212820FFF777B8000090
:103A400008B5FFF7A3FE0648FEF75EFFFFF78CF808
:103A5000FFF78EFAFFF798FEBDE8084000F002B8C5
:103A60002441000800F00EB808B5202383F3118824
:103A7000FFF7B0FB002383F31188BDE80840FFF790
:103A800033BE0000054B064A08215A6000229A60A6
:103A900007220B201A60FFF75FB800BF10E000E0BC
:103AA0003F1901001FB51C46094B05461B68D86825
:103AB00052B1084B8DE80A0002922B462246064975
:103AC000FDF7B4FC00F042F8044B1A46F2E700BFE1
:103AD00010110020604100086D4100085F3C0008A3
:103AE00010B501390244904201D1002010BD10F8F8
:103AF000013B11F8014FA342F5D0181B10BD000087
:103B00002DE9F8430746884691461E468BB10D467F
:103B1000A8EB0500B54207EB000402D20020BDE887
:103B2000F883324649462046FFF7DAFF18B1013DD7
:103B3000EEE7BDE8F8832046BDE8F883034611F8B8
:103B4000012B03F8012B002AF9D1704708B5062094
:103B500000F02CF80120FFF72BFC00001F2938B5DE
:103B600004460D4604D9162303604FF0FF3038BDDC
:103B7000426C12B152F821304BB9204600F030F8B7
:103B80002A4601462046BDE8384000F017B8012B10
:103B90000AD0591C03D116230360012038BD00242C
:103BA000284642F825409847002038BD024B014680
:103BB0001868FFF7D3BF00BF1011002038B50023ED
:103BC000064C0546084611462360FFF7F5FB431CEB
:103BD00002D1236803B12B6038BD00BF142600203A
:103BE000FFF7E4BB40A2E4F1646891064E6F2061E8
:103BF0007070207369670A00426164206677206CE8
:103C0000656E6774682025750A0042616420626FE2
:103C10006172645F69642025752073686F756C64D8
:103C20002062652025750A00426164206170702061
:103C3000435243203078253038783A307825303870
:103C400078203078253038783A3078253038780A3E
:103C500000476F6F64206669726D776172650A0054
:103C600072656365697665645F756E697175655FB8
:103C700069645F6C656E203C2055415643414E5F40
:103C800050524F544F434F4C5F44594E414D49435E
:103C90005F4E4F44455F49445F414C4C4F43415454
:103CA000494F4E5F554E495155455F49445F4D411F
:103CB000585F4C454E475448002E2E2F2E2E2F5421
:103CC0006F6F6C732F41505F426F6F746C6F6164E4
:103CD00065722F63616E2E63707000616C6C6F6330
:103CE000617465645F6E6F64655F6964203C3D204C
:103CF000313237006F72672E6172647570696C6F54
:103D0000742E61705F70657269706800766F6964A7
:103D10002068616E646C655F616C6C6F636174696F
:103D20006F6E5F726573706F6E73652843616E614D
:103D30007264496E7374616E63652A2C2043616EF0
:103D400061726452785472616E736665722A2900DA
:103D500063616E617264496E6974000063616E61D3
:103D600072645365744C6F63616C4E6F6465494453
:103D70000000000063616E61726448616E646C658E
:103D800052784672616D650063616E61726444656C
:103D9000636F64655363616C6172000063616E619F
:103DA0007264456E636F64655363616C6172000099
:103DB000696E6372656D656E745472616E7366656B
:103DC00072494400656E7175657565547846726117
:103DD0006D6573007075736854785175657565000D
:103DE00070726570617265466F724E657874547258
:103DF000616E736665720000636F70794269744129
:103E000072726179000000006465736361747465A7
:103E1000725472616E736665725061796C6F616421
:103E20000000000066726565426C6F636B00000005
:103E30006269745F6C656E677468203E2030007242
:103E4000656D61696E696E675F62697473203E209B
:103E50003000696E7075745F6269745F6F66667357
:103E60006574203E3D20626C6F636B5F6269745FB6
:103E70006F666673657400626C6F636B5F656E641A
:103E80005F6269745F6F6666736574203E20626C62
:103E90006F636B5F6269745F6F66667365740072EF
:103EA000656D61696E696E675F6269745F6C656E8E
:103EB000677468203C3D2072656D61696E696E674C
:103EC0005F6269747300696E7075745F6269745FB4
:103ED0006F6666736574203C3D207472616E736614
:103EE00065722D3E7061796C6F61645F6C656E20E8
:103EF0002A2038006F75747075745F6269745F6F23
:103F00006666736574203C3D2036340072656D61D1
:103F1000696E696E675F6269745F6C656E6774680D
:103F2000203D3D20300028726573756C74203E2062
:103F300030292026262028726573756C74203C3D3C
:103F4000203634292026262028726573756C74204B
:103F50003C3D206269745F6C656E6774682900007F
:103F600064657374696E6174696F6E20213D2028E9
:103F700028766F6964202A2930290076616C75657E
:103F800020213D202828766F6964202A29302900C5
:103F90006F66667365745F77697468696E5F626C7B
:103FA0006F636B203C2028333255202D205F5F62E9
:103FB00075696C74696E5F6F66667365746F662091
:103FC0002843616E617264427566666572426C6F09
:103FD000636B2C2064617461292900006F75745F24
:103FE000696E7320213D202828766F6964202A2974
:103FF000302900007372635F6C656E203E2030557F
:10400000000000002863616E5F696420262030781C
:1040100031464646464646465529203D3D20636189
:104020006E5F696400000000616C6C6F6361746FA7
:10403000722D3E737461746973746963732E637552
:104040007272656E745F75736167655F626C6F63D2
:104050006B73203E203000007472616E736665726F
:104060005F696420213D202828766F6964202A2911
:104070003029000073746174652D3E627566666553
:10408000725F626C6F636B73203D3D202828766FF2
:104090006964202A293029002E2E2F2E2E2F6D6F95
:1040A00064756C65732F6C696263616E6172642FF5
:1040B00063616E6172642E63006974656D2D3E6686
:1040C00072616D652E646174615F6C656E203E2067
:1040D0003000000000000000392F0008252F0008E4
:1040E000612F00084D2F0008592F0008452F0008A8
:1040F000312F00081D2F00086D2F00086D61696EBB
:10410000000000001C41000840250020F025002090
:1041100001000000553100080000000069646C6572
:104120000000000000180000888888888858898866
:10413000000000008888888888888888000000003F
:10414000888888888888188800000000888888887F
:1041500088888888000000008888888888888888FF
:104160002C2066756E6374696F6E3A2000617373FC
:10417000657274696F6E2022257322206661696CF6
:1041800065643A2066696C6520222573222C206CB8
:10419000696E65202564257325730A0024C0FF7F9E
:1041A00001000000000000006400000000000000AA
:1041B000FE2A0100D20400001411002000000000BB
:1041C00000000000000000000000000000000000EF
:1041D00000000000000000000000000000000000DF
:1041E00000000000000000000000000000000000CF
:1041F00000000000000000000000000000000000BF
:1042000000000000000000000000000000000000AE
:0C421000000000000000000000000000A2
:00000001FF
