:020000040800F2
:1000000000070020E5040008C51500084515000894
:100010009D1500084515000871150008E704000843
:10002000E7040008E7040008E7040008FD310008C1
:10003000E7040008E7040008E7040008E7040008F4
:10004000E7040008E7040008E7040008E7040008E4
:10005000E7040008E70400080D36000839360008F8
:100060006536000891360008BD360008E704000830
:10007000E7040008E7040008E7040008E7040008B4
:10008000E7040008E7040008E7040008DD2400088E
:10009000492500089D250008F1250008E9360008DB
:1000A000E7040008E7040008E7040008E704000884
:1000B00079340008E7040008E7040008E7040008B2
:1000C000E7040008E7040008E7040008E704000864
:1000D000E7040008513A0008653A0008E704000800
:1000E00051370008E7040008E7040008E7040008A7
:1000F000E7040008E7040008E7040008E704000834
:10010000E7040008E7040008E7040008E704000823
:10011000E7040008E7040008E7040008E704000813
:10012000E7040008E7040008E7040008E704000803
:10013000E7040008E7040008E7040008E7040008F3
:10014000E7040008E7040008E7040008E7040008E3
:10015000E7040008E7040008E7040008E7040008D3
:10016000E7040008E7040008E7040008E7040008C3
:10017000E7040008E7040008E7040008E7040008B3
:10018000E7040008E7040008E7040008E7040008A3
:10019000E7040008E7040008E7040008E704000893
:1001A000E7040008E7040008E7040008E704000883
:1001B000E7040008E7040008E7040008E704000873
:1001C000E7040008E7040008E7040008E704000863
:1001D000E7040008E7040008E7040008E704000853
:1001E00053B94AB9002908BF00281CBF4FF0FF319E
:1001F0004FF0FF3000F074B9ADF1080C6DE904CE9A
:1002000000F006F8DDF804E0DDE9022304B07047F1
:100210002DE9F047089D04468E46002B4DD18A42B9
:10022000944669D9B2FA82F252B101FA02F3C2F1EC
:10023000200120FA01F10CFA02FC41EA030E94407D
:100240004FEA1C48210CBEFBF8F61FFA8CF708FB9E
:1002500016E341EA034306FB07F199420AD91CEB76
:10026000030306F1FF3080F01F81994240F21C81A8
:10027000023E63445B1AA4B2B3FBF8F008FB1033F0
:1002800044EA034400FB07F7A7420AD91CEB040425
:1002900000F1FF3380F00A81A74240F207816444F5
:1002A000023840EA0640E41B00261DB1D44000237A
:1002B000C5E900433146BDE8F0878B4209D9002DDE
:1002C00000F0EF800026C5E9000130463146BDE868
:1002D000F087B3FA83F6002E4AD18B4202D38242D2
:1002E00000F2F980841A61EB030301209E46002D81
:1002F000E0D0C5E9004EDDE702B9FFDEB2FA82F2D6
:10030000002A40F09280A1EB0C014FEA1C471FFA33
:100310008CFE0126200CB1FBF7F307FB131140EA1A
:1003200001410EFB03F0884208D91CEB010103F1E7
:10033000FF3802D2884200F2CB804346091AA4B2A9
:10034000B1FBF7F007FB101144EA01440EFB00FE7D
:10035000A64508D91CEB040400F1FF3102D2A645E2
:1003600000F2BB800846A4EB0E0440EA03409CE781
:10037000C6F12007B34022FA07FC4CEA030C20FA2E
:1003800007F401FA06F31C43F9404FEA1C4900FA4E
:1003900006F3B1FBF9F8200C1FFA8CFE09FB1811CB
:1003A00040EA014108FB0EF0884202FA06F20BD93E
:1003B0001CEB010108F1FF3A80F08880884240F28E
:1003C0008580A8F102086144091AA4B2B1FBF9F0D2
:1003D00009FB101144EA014100FB0EFE8E4508D9CD
:1003E0001CEB010100F1FF346CD28E456AD9023852
:1003F000614440EA0840A0FB0294A1EB0E01A14237
:10040000C846A64656D353D05DB1B3EB080261EBA4
:100410000E0101FA07F722FA06F3F1401F43C5E97E
:10042000007100263146BDE8F087C2F12003D840B4
:100430000CFA02FC21FA03F3914001434FEA1C47F6
:100440001FFA8CFEB3FBF7F007FB10360B0C43EAE8
:10045000064300FB0EF69E4204FA02F408D91CEB98
:10046000030300F1FF382FD29E422DD90238634496
:100470009B1B89B2B3FBF7F607FB163341EA034136
:1004800006FB0EF38B4208D91CEB010106F1FF3885
:1004900016D28B4214D9023E6144C91A46EA00467C
:1004A00038E72E46284605E70646E3E61846F8E60E
:1004B0004B45A9D2B9EB020864EB0C0E0138A3E757
:1004C0004646EAE7204694E74046D1E7D0467BE738
:1004D000023B614432E7304609E76444023842E7B0
:1004E000704700BF02E000F000F8FEE772B63A483D
:1004F00080F30888394880F3098839484EF6085156
:10050000CEF20001086040F20000CCF200004EF68E
:100510003471CEF200010860BFF34F8FBFF36F8FCD
:1005200040F20000C0F2F0004EF68851CEF2000119
:100530000860BFF34F8FBFF36F8F4FF00000E1EE05
:10054000100A4EF63C71CEF200010860062080F3DE
:100550001488BFF36F8F02F0D1FE02F0ADFE02F0FF
:10056000F7FE4FF055301F491B4A91423CBF41F8FE
:10057000040BFAE71C49194A91423CBF41F8040BAD
:10058000FAE71A491A4A1B4B9A423EBF51F8040B2C
:1005900042F8040BF8E700201749184A91423CBF83
:1005A00041F8040BFAE702F08BFE02F01FFF144C37
:1005B000144DAC4203DA54F8041B8847F9E700F005
:1005C00041F8114C114DAC4203DA54F8041B884732
:1005D000F9E702F073BE00000007002000230020AE
:1005E000000000080001002000070020F83F00087C
:1005F000002300202423002028230020F83B002093
:10060000E0010008E0010008E0010008E001000846
:100610002DE9F04F2DED108AC1F80CD0C3689D462E
:10062000BDEC108ABDE8F08F002383F311882846C3
:10063000A047002002F0CCFAFEE702F051FA00DFFA
:10064000FEE700002DE9F04102F076FD074602F0DA
:10065000C1FD054600283ED12B4B9F423BD00133C4
:100660009F423BD0294B27F0FF029A423AD1F8B281
:1006700000F056FAA84642F2107400F05BFC08B194
:100680000024A04600F052FA064678B384BB4646E2
:1006900035B11F4B9F4203D002F094FD0024264643
:1006A000002002F053FD1B4B1B6913F0400322D0C6
:1006B0000EB100F031F800F09BFC00F081FE00F07C
:1006C00083FF0546CCB100F07FFF401BA04214D948
:1006D00000F022F8F3E7A8460024CEE704464FF0E6
:1006E0000108CAE780464FF47A74C6E70446CFE7AC
:1006F0004FF47A74CCE71C46DDE700F02BFD4FF495
:100700007A7002F06BFADDE7010007B0000008B074
:10071000263A09B0000402401E4B1F4A10B51C4681
:100720001968013134D004339342F9D162681B4B0C
:100730009A422DD91A4B9B6803F1006303F580336D
:100740009A4225D202F012FD02F024FD002000F0B2
:1007500051FE144B0220187000F088FE124B1A6CE8
:1007600000221A64196E1A66196E596C5A64596E11
:100770005A665B6E72B64FF0E0232021C3F8084D35
:10078000D4E9003281F311889D4683F3088810472D
:1007900010BD00BF0000010820000108FFFF000895
:1007A000002300202823002000380240094A136853
:1007B00049F2690099B21B0C00FB01331360064B30
:1007C000186844F2506182B2000C01FB020018600C
:1007D00080B27047202300201C23002010B5002188
:1007E0001022044600F05EFE034B03CB20606160E4
:1007F0001868A06010BD00BF107AFF1F2DE9F043FC
:10080000224DBBB000F0E0FEAB6840F2ED22C31A0F
:10081000934232D906AFA8602B46282200213846E1
:1008200001F09CFB05F10E0000F034FE00260446AA
:100830005FFA80F905F10E08F3B2F100994501F174
:10084000280107D908EB06030822384601F086FB89
:100850000136F1E708230122CDE9023205340C4BC1
:100860000193A4B230230093CDE9047405A3D3E926
:100870000023297B074801F089F93BB0BDE8F083EC
:10088000AFF3008078F6339F93CACD8D6833002094
:10089000753300204433002070B50D4614461E46C3
:1008A00001F00AF950B9022E10D1012C0ED112A379
:1008B000D3E90023C5E90023012007E0282C10D04C
:1008C00005D8012C09D0052C0FD0002070BD302C8C
:1008D000FBD10BA3D3E90023ECE70BA3D3E900235F
:1008E000E8E70BA3D3E90023E4E70BA3D3E9002354
:1008F000E0E700BFAFF30080401DA12026812A0B56
:1009000078F6339F93CACD8D9E6AC421818A46EEC4
:1009100026417272DF25D7B7F017304A39059E5647
:1009200013B504462346084620220021019001F019
:1009300015FB22790198032A234628BF032203F8D6
:10094000042F2021022201F009FB62790198072A75
:10095000234628BF072203F8052F2221032201F096
:10096000FDFAA2790198072A234628BF072203F837
:10097000062F2521032201F0F1FA019804F1080362
:100980001022282101F0EAFA382002B010BD000040
:100990002DE9F04FADF5017D21AD0EAE40F275129F
:1009A00080460F4622A80021296000F07BFD4822E6
:1009B0000021304600F076FD00F006FE564B4FF465
:1009C0007A72B0FBF2F0186093E80700012386E822
:1009D00007000DF15A003382FFF700FF44F61D7344
:1009E000338407AB18464D4903F0F4F918223064FC
:1009F0002946304686F83C20FFF792FF12AB0446AA
:100A000001460822284601F0A9FA0822A1180DF192
:100A10004903284601F0A2FA0DF14A03082204F125
:100A20001001284601F09AFA13AB202204F11801B4
:100A3000284601F093FA14AB402204F1380128460D
:100A400001F08CFA16AB082204F17801284601F077
:100A500085FA0DF15903082204F18001284601F0BE
:100A60007DFA04F1880A0DF15A0904F5847B4B469E
:100A70005146082228460AF1080A01F06FFAD345C8
:100A800009F10109F3D11BAB08225946284601F0B0
:100A900065FA04F588744FF0000996F834304B4538
:100AA0000AD9B36B21464B440822284601F056FA76
:100AB000083409F10109F0E74FF0000996F83C30DD
:100AC0004B4504EBC90108D9336C08224B44284636
:100AD00001F044FA09F10109F0E700230393BB7E1A
:100AE0000293073107F119030193C1F3CF010123E9
:100AF000CDE904510093F97E05A3D3E900234046D4
:100B000001F044F80DF5017DBDE8F08FAFF30080F2
:100B10009E6AC421818A46EE2C230020E43D000811
:100B2000014B1870704700BF38230020F0B5334BDD
:100B30001C7B85B034B1324B0E221A810024204632
:100B400005B0F0BD2F4A1068516802AB03C30823FB
:100B50002D492E480DEB030203F01AF9054630B972
:100B6000274B2B480A221A8100F0E8FCE6E70169CE
:100B7000B1F5E02F06D9224B26480B221A8100F04E
:100B8000DDFCDCE7438B41F64F52934207D01C4912
:100B90000C2008811946204800F0D0FCCFE71F4AFE
:100BA000024402F11003994204D2154B1C48102252
:100BB0001A81E4E710398E1A2046144900F008FD26
:100BC0003246074605F11801204600F001FDAB68EA
:100BD0009F4202D1EB6898420AD0094B0D221A813C
:100BE0000090D5E902123B460E4800F0A7FCA5E7AD
:100BF0000D4800F0A3FC0124A1E700BF68330020EA
:100C00002C230020913E0008DCFF060000000108B4
:100C1000003E00080C3E00081E3E00080800FFF7DA
:100C20003C3E0008593E0008823E00082DE9F04F86
:100C3000ADB006AF80460C4600F03EFF05460028EA
:100C40005AD1237E022B1BD1E38A012B18D100F04D
:100C5000BBFC0646FFF7AAFD03464FF4C870DFF859
:100C6000D092B3FBF0F206F5167602FB103316FABB
:100C700083F3C9F80030E37E33B9A84B00221A7021
:100C80009C37BD46BDE8F08FA38AEEB2013BB3426C
:100C900005F101050BD93B1D1E44E9000096002318
:100CA000082201F0F801204601F01CF8ECE707F1FA
:100CB0001400FFF793FD324607F11401381D03F0CD
:100CC00057F80028D9D10F2E08D8944B1E70D9F8A8
:100CD0000030A3F51673C9F80030D1E7FB1CF8709B
:100CE0000146009307220346204600F0FBFFF978F7
:100CF000404600F0D9FEC3E7E38A282B26D010D85F
:100D0000012B1ED0052BBBD1BFF34F8F8449854BE0
:100D1000CA6802F4E0621343CB60BFF34F8F00BF99
:100D2000FDE7302BACD1637E7F4D01336A7BDBB2B4
:100D30009342E94603D1E27E2B7B9A4265D0CD46B1
:100D40009EE721464046FFF723FE99E7A38A013B31
:100D50009BB2C92B94D8744D2E7B26BB05F10C0396
:100D60000093082233463146204600F0BBFF731C37
:100D7000F2B2D9001E46A38A013B9A4205DA0E322E
:100D80002A44009200230822EEE700230022C5E94E
:100D900000230023AB6085F8D730C5F8D8302B7B13
:100DA0000BB9E37E2B73002507F114093B1D0822C4
:100DB00029464846C7E90155FD6001F0CFF83B7A66
:100DC00005F1010AAB424FEACA0608D9FB680822BE
:100DD0002B443146484601F0C1F85546EFE7C6F3CB
:100DE000CF06E17ECDE9049600230393A37E029310
:100DF000193428230093019446A3D3E900234046E5
:100E000000F0C4FEFFF7FAFC3AE74FF0000807F1E4
:100E10001403A7F8148010220093414601232046B2
:100E200000F060FFA68A023EB6B2F31C9B109B0046
:100E30000733DB08A9EBC3039D460DF1180A1FFA1F
:100E400088F34FEAC801B34201F110010AD20AEB5C
:100E50000803009308220023204600F043FF08F116
:100E60000108ECE795F8D70000F0CEFAD5F8D830B5
:100E700004461BB995F8D70000F0D6FAD5F8D8305B
:100E800033449C4204D295F8D700013000F0CCFAEC
:100E90004FEA960B4FF000081FFA88F18B45D5E911
:100EA000003209D90AEB880103EB8800012200F027
:100EB00001FB08F10108EFE7F31842F10002C5E970
:100EC0000032D5F8D83095F8D70006EB0308C5F8FE
:100ED000D88000F099FA804509D395F8D730D5F835
:100EE000D8000133001B85F8D730C5F8D800FF2E95
:100EF00008D800232B7300F0A9FAFFF717FE08B1FA
:100F0000FFF70AFC2B68094A9B0A0133138100236F
:100F1000AB6014E726417272DF25D7B73D3300205E
:100F200000ED00E00400FA05683300202C230020C7
:100F30004033002030B54FF00054244B22689A42D1
:100F400085B007D002F050F90446A8B90024204625
:100F500005B030BD1E4B627D1A701E48237D0373A1
:100F60001D49C9220E3000F08BFA2046E0220021F4
:100F700000F098FA0124EAE7184A194D136C43F07F
:100F800000731364AA6D174B9A42DFD12B6E013B9D
:100F90007E2BDBD8144A07CA01AB83E8070018464A
:100FA000032100F02BFB6B6D83424FF00003CDD18A
:100FB0002A6D8A4201BFAB65054B2A6E1A7003BFCA
:100FC0000A4BEA6D1A601C46C1E700BF9AAD44C5E2
:100FD000382300206833002016000020003802402B
:100FE000006600405041A0B0586600401823002021
:100FF0002DE9FF474B4C02236371002302934A4BB8
:10100000D3F800C0BCF57A7F12D3484B484FB7FBEA
:10101000FCF69C458CBF0A231123581EB6FBF3F542
:1010200003FB1562C1B2002A3ED002280346F4D861
:101030009DF80B303F4940485A1E9DF80A30013B4D
:101040001B0443EA0253BDF80820013A13434B60E6
:1010500001F030FC00230193384B394900933948A3
:10106000394B4FF4805200F0F9FC384B197811B12C
:10107000344800F019FD00F0A7FA0546FFF796FB8B
:101080004FF4C873B0FBF3F202FB130305F51670BF
:1010900010FA83F02E4B186002F09CF808B10F2371
:1010A000238104B0BDE8F0876B1EB3F5806FBFD21B
:1010B000C1EBC10E0EF103034FEAE309C3F3C7030B
:1010C000A1EB030809F1010A4FF47A705FFA88F680
:1010D00009FB00005AFA88F8B0FBF8F0B0F5617F20
:1010E00008D90EF1FF33C3F3C703C91ACEB2591E94
:1010F0000F2914D8721E072A8CBF002201229919C9
:1011000001FB0551B7FBF1F7BC4591D1002A8FD007
:10111000ADF808508DF80A308DF80B6088E713465B
:10112000EDE700BF2C230020182300203F420F00D2
:1011300040787D01102300208034002099080008A9
:101140003C230020443300202D0C000838230020CD
:10115000403300202DE9F04F91A7D7E900670FF247
:101160004829D9E90089874D93B0DFF844B2864C0D
:10117000284600F06FFD0DF1300A079070B3102281
:101180000021504600F08EF9079B197B4FF00002BA
:1011900061F303028DF83020586899680EAA03C2E3
:1011A0001B680D9A63F31C029DF830300D9243F0DA
:1011B00020038DF83030002352461946584601F07E
:1011C00089FB079028B9284600F048FD079B23704B
:1011D000CEE72378072B3CD8013323701822002157
:1011E000504600F05FF9DFF8C8B1684C002319469B
:1011F0005246584601F096FB014670BB102208A8E3
:1012000000F050F9636983F40043636100F0DEF994
:101210000B4612A9024611E903000DF1240C8CE8DB
:1012200003009DF83410C1F3030089064CBF0E99EA
:10123000BDF838C08DF82C0046BFC1F31C0C4CF033
:101240000041CCF30A010891284608A900F0CEFE1F
:10125000CCE7284600F002FDC0E7284600F02CFC51
:101260000446002848D1DFF84CB100F0ADF9DBF8B6
:101270000030984240D300F0A7F90790FFF796FAA4
:10128000079A8DF8204003464FF4C87002F5167295
:10129000B3FBF0F101FB103312FA83F3CBF800300B
:1012A000DFF814B19BF8001011B901238DF820303C
:1012B00050460791FFF792FA0799C1F11004E4B282
:1012C000062C28BF0624224651440DF1210000F0CF
:1012D000D7F808AB03931823029301342C4B0193E6
:1012E000E4B20123009304943B463246284600F0C2
:1012F000E5FB00238BF8003000F066F9254A264C08
:101300001368C31AB3F57A7F31D3106000F05EF929
:1013100002460B46284600F0ABFC284600F0CCFB0A
:1013200028B3237BDFF894B0002B14BF03230223E0
:101330008BF8053000F048F94FF47A735146B0FB52
:10134000F3F0CBF800005846FFF7EAFA182307300D
:101350000293124B0193C0F3CF0040F25513CDE935
:1013600003A0009342464B46284600F0A7FB237B90
:101370002BB1FFF743FA237B002B7FF4F6AE13B0BB
:10138000BDE8F08F443300204D34002000080240B7
:101390003C33002048340020683300204C340020C7
:1013A000401DA12026812A0BF1C6A7C1D068080FD5
:1013B00080340020403300203D3300202C230020C7
:1013C00070B501F06DFD094E094D3080002428688C
:1013D0003388834208D901F05DFD2B680444013352
:1013E000B4F5803F2B60F2D370BD00BF7C34002089
:1013F0005034002001F004BE00F10060920000F5BE
:10140000803001F093BD0000054B1A68054B1B8826
:101410009B1A834202D9104401F03CBD0020704762
:10142000503400207C34002038B5074D044628682D
:10143000204401F037FD28B928682044BDE8384031
:1014400001F048BD38BD00BF50340020064991F876
:10145000243033B10023086A81F824300822FFF7D2
:10146000CBBF0120704700BF54340020022802BFC8
:10147000024B4FF000429A61704700BF00080240E3
:1014800010B50023934203D0CC5CC4540133F9E778
:1014900010BD000003460246D01A12F9011B0029B4
:1014A000FAD1704702440346934202D003F8011B6D
:1014B000FAE770472DE9F8431F4D144695F82420AC
:1014C0000746884652BBDFF870909CB395F82430ED
:1014D0002BB92022FF2148462F62FFF7E3FF95F842
:1014E0002400C0F10802A24228BF2246D6B24146DB
:1014F000920005EB8000FFF7C3FF95F82430A41B92
:101500001E44F6B2082E17449044E4B285F82460D5
:10151000DBD1FFF79BFF0028D7D108E02B6A03EB54
:1015200082038342CFD0FFF791FF0028CBD1002068
:10153000BDE8F8830120FBE7543400200FB40020FD
:1015400004B0704700B59BB0EFF30981682268468C
:10155000FFF796FFEFF30583044B9A6BDA6A9A6AFA
:101560009A6A9A6A9A6A9A6A9B6AFEE700ED00E0B4
:1015700000B59BB0EFF3098168226846FFF780FF52
:10158000EFF30583044B9A6B9A6A9A6A9A6A9A6A8D
:101590009A6A9B6AFEE700BF00ED00E000B59BB0D1
:1015A000EFF3098168226846FFF76AFFEFF30583CE
:1015B000034B5A6B9A6A9A6A9A6A9A6A9B6AFEE71E
:1015C00000ED00E0FEE7000001F054BD01F02CBD8D
:1015D00030B5094D0A4491420DD011F8013B5840F5
:1015E000082340F30004013B2C4013F0FF0384EA7E
:1015F0005000F6D1EFE730BD2083B8EDF7B54FF0DE
:10160000FF33DFF854C0DFF854E000EB81011A46E5
:1016100088421CD050F8044B019401AF042417F801
:10162000015B82EA05620825DB18164605F1FF35E5
:101630005241002EBCBF83EA0C0382EA0E0215F071
:10164000FF05F1D1013C14F0FF04E8D1E0E7D843F5
:10165000D14303B0F0BD00BF9336EAA9EBE1F042FD
:101660002DE9F041C56915B9C161BDE8F0814B684C
:1016700023F06047C3F38A464FEAD37EC3F38078F2
:1016800016EA230638BF3E46AC462B465A68BEEBE8
:10169000D27F22F060440AD0002A18DAA40CB442A7
:1016A00017D19D420FD10D60DEE71346EEE7A7424A
:1016B00007D102F08044C2F3807242450BD054B18E
:1016C000EFE708D2EDE7CCF800100B60CDE7B442AD
:1016D00001D0B442E5D81A689C46002AE5D11960C9
:1016E000C3E700002DE9F047089D01F007044FEA29
:1016F000D508224405F0070500EBD1004FF47F49DF
:10170000944201D1BDE8F08704F0070705F0070A0D
:1017100057453E4638BF5646C6F10806111B8E4255
:1017200028BF0E46E10808EBD50E415C13F80EC049
:10173000B94029FA06F721FA0AF1FFB28CEA010151
:1017400047FA0AF739408CEA010C03F80EC034441A
:101750003544D5E780EA0120082341F2210201B295
:101760004000002980B203F1FF33B8BF504013F0AE
:10177000FF03F4D17047000038B50C468D18A54220
:1017800000D138BD14F8011BFFF7E4FFF7E70000B4
:1017900002684AB113680360C388018901339BB2B0
:1017A0009942C38038BF03811046704770B588B036
:1017B000202204460D4668460021FFF773FE2046AE
:1017C0000495FFF7E5FF024658B16B46054608AEA3
:1017D0001C4603CCB44228606960234605F1080525
:1017E000F6D1104608B070BD10B54B6823B9CA8A4F
:1017F00063F30902CA8210BDC4681A681C60C36022
:10180000438A013B43824A60EFE700002DE9F84F2D
:101810001D46CB8A0F46C3F309010629814692462D
:101820000B4630D00020AAB207F119049EB2052E53
:101830001FFA80F80FD8904503F1010306D3FB8A05
:101840000A4462F30903FB8201201AE01AF80060DF
:10185000E6540130EAE79045F1D2A1F1060B1C23D2
:101860007C68BBFBF3F203FB12BB1FFA8BF6002C68
:1018700045D14846FFF78CFF044638B978606FF0D1
:101880000200BDE8F88F4FF00008E6E7002606608A
:101890007860ADB24FF0000B454510D90AEB080354
:1018A000221D13F8011B9155B1B208F101081B2943
:1018B0001FFA88F82BD0454506F10106F1D8FB8ABE
:1018C000C3F30902154465F30903BCE7013292B280
:1018D0001C462368002BF9D1AB1F0B441C21B3FB22
:1018E000F1F301339BB29A42D3D2BBF1000FD0D1B6
:1018F0004846FFF74DFF20B9C4F800B0BFE701220A
:10190000E7E7C0F800B05E4620600446C1E7454501
:10191000D5D94846FFF73CFF08B92060AFE7C0F8CB
:1019200000B0002620600446B6E700002DE9F04F25
:101930002DED028B83B0CDE90013BDF83C4080460D
:101940009246002A00F087802CB10E9B002B00F0FD
:101950008280072C2BD808F10C00FFF719FF0546F1
:1019600038B96FF00205284603B0BDEC028BBDE824
:10197000F08F14220021FFF795FD22460E9905F104
:101980000800FFF77DFD631C2B749AF800302C448F
:1019900003F01F0363F03F032372009B43F00041F9
:1019A000696040462946FFF75BFE0125DBE700F151
:1019B0000C034FF0000908EE103A4FF0800B4E4632
:1019C0004D4618EE100AFFF7E3FE07460028C8D080
:1019D00014220021FFF766FD002E3AD1019B3B81C6
:1019E00002220E9B02F1080103EB060C57FA81F16B
:1019F0001046B44202F10102D2B201D8024607E019
:101A00001CF8010B01F8010B0136062AB6B2EFD91A
:101A10009AF8001001F01F01B44208BF4FF0400BCC
:101A2000B81841EA49114BEA01030372009B0132E5
:101A300043F000437B603A7439464046FFF710FE9E
:101A40000135B4422DB289F001094FF0000BB8D135
:101A500089E70022C5E76FF0010584E7F8B5154670
:101A60000E462422002104461F46FFF71BFD069B5D
:101A70006360B5F5001F079BA76034BF6A094FF686
:101A8000FF72236204F10C0097B200239A4205D83A
:101A90000023036027826382A382F8BD06600133BE
:101AA00030462036F2E7000003781BB94BB2002B1A
:101AB000C8BF017070470000007870472DE9F74FEC
:101AC000DDF83C90BDF830500D9E9DF83840BDF8D3
:101AD0004070804692469B46B9F1000F01D1002F1D
:101AE00051D11F2C4FD898F80000B0B9072F47D814
:101AF00035F0030347D13A4649464FF6FF70FFF7EA
:101B00003BFE20F001002D02400445EA0464400C35
:101B100044EA40244FF6FF7321E040EA0520072FF6
:101B200040EA0464F6D900254FF6FF73C5F12000A2
:101B3000A5F120022AFA05F10BFA00F001432BFA75
:101B400002F211431846C9B2FFF704FE0835402DD2
:101B50000346EBD13A464946FFF70EFE0346CDE970
:101B60000097324621464046FFF7E0FE33780133C6
:101B7000DBB21F2B88BF0023337003B0BDE8F08FAA
:101B80006FF00300F9E76FF00100F6E72DE9F04F81
:101B900085B09246DDF848800F9D9DF840209DF865
:101BA0004490BDF84C7006469B46B8F1000F01D139
:101BB000002F48D11F2A46D83378002B46D00C027C
:101BC00044EA02649DF8381044EAC93444EA014406
:101BD0001C43072F44F0800432D900234FF6FF72D4
:101BE000C3F1200CA3F120002AFA03F10BFA0CFC3C
:101BF00041EA0C012BFA00F00143C9B210460393ED
:101C0000FFF7A8FD039B0833402B0246E8D13A4674
:101C10004146FFF7B1FD0346CDE900872A4621463C
:101C20003046FFF783FEB9F1010F06D12B7801335F
:101C3000DBB21F2B88BF00232B7005B0BDE8F08FEF
:101C40004FF6FF73E8E76FF00100F6E76FF003006F
:101C5000F3E70000C06900B104307047C3691A6837
:101C6000C261C2681A60C360438A013B4382704705
:101C70002DE9F041D0F81880194E14461D46414612
:101C8000002709B9BDE8F081D1E90223A21A65EB6A
:101C90000303964277EB03031ED283698B420DD177
:101CA000FFF7A2FD83691B688361C3680B60438AE9
:101CB000C1608169013B43828846E2E7FFF794FDFA
:101CC0000B68C8F80030C3680B60438AC160013BF1
:101CD0004382D8F80010D4E788460968D1E700BFEE
:101CE00080841E002DE9F04F8BB00D46DDF850903A
:101CF00014469B468046002800F01981B9F1000F78
:101D000000F01581531E3F2B00F21181012A03D1EF
:101D1000BBF1000F40F00B810023CDE90833B8F888
:101D20001430B5EBC30F4FEAC30703D300200BB049
:101D3000BDE8F08F2B199F42D8F80C303ABF7F1BBB
:101D4000FFB227461BB9D8F81030002B7AD02F2DC0
:101D50004ED8C5F13006B7424FF000032CBFF6B2A3
:101D60003E4600932946D8F8080008AB3246FFF7F4
:101D7000B9FCA7EB060A35445FFA8AFAB8F81430C2
:101D800003F10053063BDB000493D8F80C300393B7
:101D90003021039B13B1BAF1000F2CD1D8F81000F9
:101DA00040B1BAF1000F05D0009608AB5246691A4F
:101DB000FFF798FC38B2002FB8D066070AD00AABFC
:101DC00003EBD401624211F8083C02F00702134110
:101DD00001F8083C082C3CD9102C40F2B580202C8E
:101DE00040F2B780BBF1000F00F09C80082334E084
:101DF000BA460026C2E7049BE02B28BFE0230693E7
:101E00000B44AB42059314D95A1B03980096924594
:101E100034BF5246D2B2691A08AB04300792FFF7BA
:101E200061FC079A1644AAEB020A1544F6B25FFA5F
:101E30008AFA049B069A05999B1A0493039B1B68D4
:101E40000393A6E70093D8F8080008AB3A46294662
:101E5000AEE7BBF1000F13D00123B4EBC30F6CD07E
:101E6000082C12D89DF82030621E23FA02F2D50702
:101E700006D54FF0FF3202FA04F423438DF82030E8
:101E80009DF8203089F8003051E7102C12D8BDF8A9
:101E90002030621E23FA02F2D10706D54FF0FF323E
:101EA00002FA04F42343ADF82030BDF82030A9F83D
:101EB00000303CE7202C0FD80899631E21FA03F369
:101EC000DA0705D54FF0FF3202FA04F40C43089408
:101ED000089BC9F800302AE7402C2BD0DDE90865C3
:101EE000611EC4F12102A4F1210326FA01F105FAD1
:101EF00002F225FA03F311431943CB0712D501224D
:101F0000A4F12003C4F1200102FA03F322FA01F143
:101F1000A240524243EA010363EB430332432B43A3
:101F2000CDE90823DDE90823C9E90023FFE66FF0C6
:101F30000100FCE66FF00800F9E6082CA0D9102C8F
:101F4000B3D9202CEED8C3E7BBF1000FADD00223EC
:101F500083E7BBF1000FBBD004237EE730B5012A35
:101F6000144638BF0124402C85B028BF40240025EA
:101F7000012ACDE9025518D81B788DF8083063077F
:101F80000AD004AB03EBD405624215F8083C02F01A
:101F90000702934005F8083C0091034622460021C1
:101FA00002A8FFF79FFB05B030BD082AE4D9102A2C
:101FB00003D81B88ADF80830E1E7202A8DBFD3E9AC
:101FC00000231B680293CDE90223D8E710B5CB6844
:101FD0001BB98B600B618B8210BDC4681A681C60D2
:101FE000C360438A013B4382CA60F0E72DE9F04FAA
:101FF000D1F8008093B018F0800FCDE90323C8F327
:10200000C01219BFC8F3C03BC8F306264FF0020B3D
:102010001646B8F1000F04460D4680F2C58118F04F
:10202000C043059340F0C0810B7B002B00F0BC81C6
:10203000BBF1020F03D00178B14240F0B88108F043
:102040007F0106916AB3C8F3074A2B44069A93F8B6
:102050000390760646EA0B4646EA82465FEAD913C3
:1020600046EA0A06079300F0908000220023CDE99B
:102070000A23069B009367685B4652460AA92046DE
:10208000B84700287ED0A7699FB9314604F10C00FB
:10209000FFF78CFB0746E0B96FF0020013B0BDE814
:1020A000F08FC8F30F2A18F07F0F08BF0AF0030A59
:1020B000CBE73B699E420DD03F68002FF9D13146F6
:1020C00004F10C00FFF772FB07460028E4D0A36977
:1020D0003B60A761DDE90A2300264FF6FF70C6F1D9
:1020E000200E22FA06F103FA0EFEA6F1200C23FAC6
:1020F0000CFC41EA0E0141EA0C01C9B20836099212
:102100000893FFF727FB402EDDE90832E7D1B882BC
:10211000FB7D09F01F06C3F384039B1BD7E9022153
:1021200098B2002BBCBF00F120031BB252EA0100A1
:10213000C8F304680FD00398821A049860EB010179
:10214000A14890424FF000028A4104D3079A002A26
:1021500055D0012B23DDFA7D4FEA890302F00302FB
:1021600003F07C031343FB7539462046FFF73CFB25
:10217000079BA3B9FB7DC3F38402013262F386039C
:10218000FB7504E06FF00B0088E7A76917B96FF0E3
:102190000C0083E73B699E42BAD03F68F6E719F02E
:1021A000400F2CD0039BBB60049BFB6014220021DA
:1021B0000DA8FFF777F9039B0A93049B0B932B1D44
:1021C0000C932B7BADF83EA0013BDBB2ADF83C306D
:1021D000069B8DF843308DF840B0A3688DF84160C0
:1021E0008DF842800AA920469847FB7DC3F38403FB
:1021F000013303F01F039B02FB8200204EE7FB7DAF
:10220000C9F34012B2EBD31F40F0D480C3F3840370
:10221000B34240F0D28007992B7B4FEA99120029F4
:1022200034D0D20741D4032B40F2CA80039BBB6059
:10223000049BFB602B7BAE1D033BDBB23246394671
:1022400004F10C00FFF7E2FA00280DDA20463946C7
:10225000FFF7CAFAFB7DC3F38403013303F01F03C6
:102260009B02FB82032019E7AB883B832A7B033A5E
:10227000B88AD2B23146FFF77FFAFB7DB882DA43E3
:10228000C2F3C01262F3C713FB75B6E76AB92E1D1D
:10229000013BDBB23246394604F10C00FFF7B6FAD7
:1022A0000028D3DB2A7B013AE2E7F98AC1F309016E
:1022B000013B0529DAB253D8281D002307F11A0C77
:1022C0009A4208D910F801EB0CF801E00131013312
:1022D0000629DBB2F4D103990A9104990B91934238
:1022E00007F11A010C9138BF043379680D9134BF9E
:1022F00055FA83F300230E93FB8AADF83EA0C3F397
:1023000009031A44069B8DF843300023ADF83C20A6
:102310008DF840B08DF841608DF842807B602A7B5B
:10232000B88A013A291DFFF727FA3B8BB88283420E
:1023300003D1A3680AA92046984720460AA9FFF7B7
:1023400045FEFB7DB88AC3F38403013303F01F030A
:102350009B02FB823B8B984214BF112000209DE61C
:102360007B68002BB7D0062001E01C306346D3F811
:1023700000C0BCF1000FF8D1091A081D05F1040CCA
:1023800000EB030905989DF8143001EB000EBEF137
:102390001B0FA0D89A429ED91CF8013B09F8013BBB
:1023A000059B01330593EDE76FF0090076E66FF0CA
:1023B0000A0073E66FF00D0070E66FF00E006DE638
:1023C0006FF00F006AE600BF80841E00404BF0B53E
:1023D0001C6C404E44F000741C641D6E45F000758A
:1023E0001D661B6E3C4B9B6AD3F80052354045F08E
:1023F0000105C3F80052D3F80042344044EA0020FB
:1024000040F00100C3F80002002952D00020C3F8B8
:102410001C020546C3F80402C3F80C02C3F81402F8
:1024200003EBC00401301C28C4F84052C4F84452E5
:10243000F6D100254FF0010C96781488F70748BFB5
:10244000D3F804720CFA04F044BF0743C3F80472D3
:10245000B70742BFD3F80C720743C3F80C72760774
:1024600042BFD3F814620643C3F8146203EBC404FA
:102470005668C4F840629668C4F84462D3F81C42B7
:1024800001352043A942C3F81C0202F10C02D3D14A
:10249000D3F8002222F00102C3F800220C4B1A6C80
:1024A00022F000721A641A6E22F000721A661B6E15
:1024B000F0BD0122C3F84012C3F84412C3F804125D
:1024C000C3F81412C3F80C22C3F81C22E0E700BFC3
:1024D000003802400000FFFF80340020184A916A53
:1024E00008B58B688B6013F0010104D013F00C0F5A
:1024F00018BF4FF48031D80506D513F4406F14BFD0
:1025000041F4003141F00201D80306D513F4402F05
:1025100014BF41F4802141F00401D3690BB1084894
:102520009847202383F311880648002100F07EFBA2
:10253000002383F31188BDE8084000F093BE00BF7C
:10254000803400208834002038B5124CA36ADD683E
:10255000AA0712D05A6922F002025A61A36913B184
:10256000012120469847202383F311880A4800213F
:1025700000F05CFB002383F31188EB0606D5A36A09
:102580001021D960236A0BB102489847BDE8384052
:1025900000F068BE803400209034002038B5124C22
:1025A000A36A1D69AA0712D05A6922F010025A6163
:1025B000A36913B1022120469847202383F3118891
:1025C0000A48002100F032FB002383F31188EB0658
:1025D00006D5A36A10211961236A0BB102489847F6
:1025E000BDE8384000F03EBE80340020903400202A
:1025F00038B50F4CA36A5D685D602A070AD50422CE
:1026000022701A6822F002021A60636A13B1002174
:10261000204698476B0706D5A36A9969236A13B1C8
:10262000034809049847BDE8384000F01BBE00BFCE
:102630008034002010B50E4C204600F029F90D4BD7
:10264000A3620B21132000F00BF90B21142000F0E2
:1026500007F90B21152000F003F90B21162000F0DB
:10266000FFF80022BDE8104011460E20FFF7AEBE75
:102670008034002000640040114B984210B504469D
:1026800009D1104B1A6C42F000721A641A6E42F0B3
:1026900000721A661B6EA36A01221A60A36A5A6846
:1026A000D20707D5626851681268D9611A60064A74
:1026B0005A6110BD0121082000F0AEF9EEE700BF1D
:1026C00080340020003802405B87010003291AD8BB
:1026D000DFE801F0020A0F14836A9B6813F0E05FE1
:1026E00014BF012000207047836A9868C0F380609F
:1026F0007047836A9868C0F3C0607047836A9868BF
:10270000C0F30070704700207047000010B5032927
:1027100025D8DFE801F00225292D836A9968C1F3E5
:102720000161183103EB0113107884064CBF546823
:102730009488C0F300114FEA410148BF41EAC40147
:1027400000F00F004CBF41F0040141EA44515860D1
:1027500041F001019068D2689860DA60196010BD9C
:10276000836A03F5C073DFE7836A03F5C873DBE7A9
:10277000836A03F5D073D7E701290AD002290FD065
:1027800081B9836ADA68920701D1186903E00120F0
:102790007047836AD86810F0030018BF01207047A3
:1027A000836AF2E70020704710B539B9836AD968A7
:1027B00089071BD11B699C0704D110BD012915D0C5
:1027C0000229FAD1816AD1F8C031D1F8C441D1F8D7
:1027D000C8011061D1F8CC0150612020086108695E
:1027E000800717D1486940F0100012E0816AD1F8E3
:1027F000B031D1F8B441D1F8B8011061D1F8BC01C1
:1028000050612020C860C868800703D1486940F043
:1028100002004861C3F34000C3F38001000140EAB5
:102820004111107920F030000143117189064BBF2E
:1028300091681189DB085B0D4CBF63F31C0163F3E6
:102840000A01137948BF916064F3030313714FEADF
:1028500014234FEA144458BF118113705480ACE71D
:1028600000F1604303F561430901C9B283F8001325
:10287000012200F01F039A4043099B0003F16043CB
:1028800003F56143C3F880211A607047FFF7D2BE99
:10289000012300F10802C0E90222037000F11002D6
:1028A0000023C0E90422C0E90633C0E908334360CD
:1028B0007047000010B52023044683F311880223DB
:1028C00003704160FFF7D8FE04232370002383F3D5
:1028D000118810BD2DE9F0411F4604460D461646ED
:1028E000202383F3118800F108082378052B0DD0ED
:1028F00029462046FFF7EAFE40B1204632462946E7
:10290000FFF704FF002080F3118808E039464046B5
:1029100000F070F90028E8D0002383F31188BDE8A7
:10292000F08100002DE9F0411F4604460D46164691
:10293000202383F3118800F110082378052B0DD094
:1029400029462046FFF718FF40B120463246294667
:10295000FFF72AFF002080F3118808E0394640463F
:1029600000F048F90028E8D0002383F31188BDE87F
:10297000F0810000024B0022C3E900339A607047E7
:10298000AC340020002303748268054B1B689968EF
:102990009142FBD25A6803604260106058607047F1
:1029A000AC34002008B5202383F31188037C032B6B
:1029B00005D0042B0DD02BB983F3118808BD4369D2
:1029C00000221A604FF0FF334361FFF7DBFF002363
:1029D000F2E7D0E9003213605A60F3E70023037492
:1029E0008268054B1B6899689142FBD85A6803605E
:1029F0004260106058607047AC340020054B196984
:102A00000874186802681A6053601861012303741F
:102A1000FDF7FEBDAC34002030B54B1C0B4D87B02C
:102A2000044610D02B690A4A01A800F01BF9204681
:102A3000FFF7E4FF049B13B101A800F04FF92B69E5
:102A4000586907B030BDFFF7D9FFF8E7AC34002074
:102A5000A529000838B50C4D41612B6981689A6839
:102A60009142044603D8BDE83840FFF78BBF1846B3
:102A7000FFF7B4FF01232C61014623742046BDE813
:102A80003840FDF7C5BD00BFAC340020044B1A68C8
:102A90001B6990689B68984294BF00200120704792
:102AA000AC34002010B5084C236820691A682260F5
:102AB0005460012223611A74FFF790FF01462069D8
:102AC000BDE81040FDF7A4BDAC34002008B5FFF709
:102AD000DDFF18B1BDE80840FFF7E4BF08BD000006
:102AE000FFF7E0BFFEE7000010B50C4CFFF742FF18
:102AF00000F0AAF80A498022204600F031F80123AC
:102B000044F8180C037400F089FB002383F3118848
:102B100062B60448BDE8104000F042B8D43400204A
:102B20009C3E0008AC3E000800F012B9EFF31180A3
:102B300020B9EFF30583202282F31188704700004B
:102B400010B530B9EFF30584C4F3080414B180F371
:102B5000118810BDFFF7BAFF84F31188F9E7000070
:102B600082600222028270478368A3F17C0243F8EC
:102B70000C2C026943F83C2C426943F8382C074A74
:102B800043F81C2CC26843F8102C022203F8082CCE
:102B9000002203F8072CA3F118007047290600084B
:102BA00010B5202383F31188FFF7DEFF00210446D0
:102BB000FFF750FF002383F31188204610BD00006B
:102BC000024B1B6958610F20FFF718BFAC3400207F
:102BD000202383F31188FFF7F3BF000008B50146F7
:102BE000202383F311880820FFF716FF002383F3C7
:102BF000118808BD49B1064B42681B6918605A60CC
:102C0000136043600420FFF707BF4FF0FF307047A9
:102C1000AC3400200368984206D01A680260506005
:102C200059611846FFF7AEBE7047000038B504463C
:102C30000D462068844200D138BD036823605C6083
:102C40004561FFF79FFEF4E7054B03F11402C3E96A
:102C500005224FF0FF310022C3E90712704700BF81
:102C6000AC34002070B51C4EC0E9032305460C4669
:102C700000F05AFB334653F8142F9A420DD13062BC
:102C8000C5E901242A600A2C2CBF00190A30C6E9C4
:102C90000555BDE8704000F035BB316A431AE318B2
:102CA00038BF1C469368A34202D9081900F038FBCC
:102CB00073699A6894420CD85A68AC602B606A6059
:102CC00015609A685D60121B9A604FF0FF33F361E4
:102CD00070BD1B68A41AECE7AC34002038B51B4C5F
:102CE000636998420DD0D0E9003213605A60002227
:102CF0008168C2609A680A449A604FF0FF33E361CA
:102D000038BD2246036842F8143F002193425A60BE
:102D1000C16003D1BDE8384000F0FCBA9A68816810
:102D2000256A0A449A6000F0FFFA63699A68411BB9
:102D30008A42E5D9AB181D1A092D206A98BF01F106
:102D40000A02BDE83840104400F0EABAAC34002072
:102D50002DE9F041184C002704F11406656900F0D4
:102D6000E3FA236AAA68C11A8A4215D81344236277
:102D7000D5E9003213605A606369D5F80C80EF60C2
:102D8000B34201D100F0C6FA87F311882869C04721
:102D9000202383F31188E1E76169B14209D013442C
:102DA0001B1ABDE8F0410A2B2CBFC0180A3000F0F6
:102DB000B7BABDE8F08100BFAC34002000207047F6
:102DC000FEE70000704700004FF0FF307047000042
:102DD000BFF34F8F024AD368DB03FCD4704700BFB8
:102DE000003C024008B5094B1B7873B9FFF7F0FFB0
:102DF000074B1A69002ABFBF064A5A6002F188329F
:102E00005A601A6822F480621A6008BD6836002091
:102E1000003C02402301674508B50B4B1B7893B972
:102E2000FFF7D6FF094B1A6942F000421A611A688F
:102E300042F480521A601A6822F480521A601A68AA
:102E400042F480621A6008BD68360020003C0240EF
:102E50000728F0B516D80C4C0C4923787BB90C4DDB
:102E60000E4608234FF0006255F8047B46F8042B09
:102E7000013B13F0FF033A44F6D10123237051F8CC
:102E80002000F0BD0020FCE78C3600206C360020CE
:102E9000C43E0008014B53F820007047C43E0008B0
:102EA00008207047072810B5044601D9002010BD3E
:102EB000FFF7CEFF064B53F824301844C21A0BB963
:102EC0000120F4E712680132F0D1043BF6E700BFBD
:102ED000C43E0008072810B5044621D8FFF778FF44
:102EE000FFF780FF0F4AF323D360C300DBB243F444
:102EF000007343F002031361136943F480331361D9
:102F0000FFF766FFFFF7A4FF074B53F8241000F00C
:102F10002BF9FFF781FF2046BDE81040FFF7C2BF45
:102F2000002010BD003C0240C43E0008F8B512F07D
:102F30000103144642D185182E4A954257D82E4B8C
:102F40001B6813F0010352D02C4DFFF74BFFF32306
:102F5000EB60FFF73DFF40F20127032C15D824F06A
:102F600001046618254C401A40F20117B14223694A
:102F700000EB010524D123F001032361FFF74CFF8F
:102F80000120F8BD043C0430E7E78307E7D12B6953
:102F900023F440732B612B693B432B6151F8046B85
:102FA0000660BFF34F8FFFF713FF03689E42E9D01F
:102FB0002B6923F001032B61FFF72EFF0020E0E7D0
:102FC00023F44073236123693B4323610B882B80E7
:102FD000BFF34F8FFFF7FCFE2D8831F8023BADB2F7
:102FE000AB42C3D0236923F001032361E4E7184611
:102FF000C7E700BF0000080800380240003C02405C
:10300000084908B50B7828B11BB9FFF7EBFE01237F
:103010000B7008BD002BFCD0BDE808400870FFF71E
:10302000FBBE00BF6836002070B582B0FFF77EFDA2
:103030000E4E054600F078F93268904237BF0C4AD0
:103040000B49516814682EBFD1E90041013151602C
:103050000419034641F10001284601913360FFF74E
:103060006FFD0199204602B070BD00BF9036002070
:103070009836002070B582B0FFF758FD104E054617
:1030800000F052F93268904237BF0E4A0D4951683C
:1030900014682EBFD1E9004101315160041941F19A
:1030A00000010346284601913360FFF749FD01996D
:1030B0004FF47A7200232046FDF792F802B070BDFB
:1030C000903600209836002010B50244064BD2B24C
:1030D000904200D110BD441C00B253F8200041F8CA
:1030E000040BE0B2F4E700BF502800400F4B30B5AE
:1030F0001C6F240407D41C6F44F400741C671C6FFD
:1031000044F400441C670A4C236843F48073236032
:103110000244084BD2B2904200D130BD441C00B2F0
:1031200051F8045B43F82050E0B2F4E70038024065
:10313000007000405028004007B5012201A900207E
:10314000FFF7C2FF019803B05DF804FB13B5044616
:10315000FFF7F2FFA04205D0012201A9002001944F
:10316000FFF7C4FF02B010BD70470000074B45F2E7
:1031700055521A6002225A6040F6FF729A604CF66D
:10318000CC421A60024B01221A7070470030004096
:10319000A4360020034B1B781BB1034B4AF6AA222E
:1031A0001A607047A436002000300040034B1A68B4
:1031B0001AB9034AD2F874281A607047A036002062
:1031C00000300240024B4FF08072C3F87428704701
:1031D0000030024008B5FFF7E9FF024B1868C0F362
:1031E000407008BDA036002008B5FFF7DFFF024B96
:1031F0001868C0F3007008BDA0360020EFF3098303
:1032000005494A6B22F001024A63683383F3098857
:10321000002383F31188704700EF00E0202080F343
:10322000118862B60C4B0D4AD96821F4E06109049B
:10323000090C0A43DA60D3F8FC20094942F0807295
:10324000C3F8FC200A6842F001020A601022DA7713
:1032500083F82200704700BF00ED00E00003FA058C
:10326000001000E010B5202383F311880E4B5B683B
:1032700013F4006314D0F1EE103AEFF30984683CC4
:103280004FF08073E361094BDB6B236684F309889D
:10329000FFF7FCFB10B1064BA36110BD054BFBE72C
:1032A00083F31188F9E700BF00ED00E000EF00E0D4
:1032B0003B0600083E06000870470000FEE70000DD
:1032C0000A4B0B480B4A90420BD30B4BDA1C121AD9
:1032D000C11E22F003028B4238BF00220021FEF7FC
:1032E000E1B853F8041B40F8041BECE71C4000084D
:1032F000F83B0020F83B0020F83B0020704700001E
:1033000000F080B84FF08043002258631A61022217
:10331000DA6070474FF080430022DA6070470000A7
:103320004FF08043586370474FF08043586A7047AE
:103330004B6843608B688360CB68C3600B694361F3
:103340004B6903628B6943620B680360704700003E
:1033500008B5234B23481A6942F0FF021A611A6923
:1033600022F0FF021A611A691A6B42F0FF021A6317
:103370001A6D42F0FF021A651B4A1B6D1146FFF7DA
:10338000D7FF02F11C0100F58060FFF7D1FF02F1C9
:10339000380100F58060FFF7CBFF02F1540100F522
:1033A0008060FFF7C5FF02F1700100F58060FFF754
:1033B000BFFF02F18C0100F58060FFF7B9FF02F159
:1033C000A80100F58060FFF7B3FF02F1C40100F52A
:1033D0008060FFF7ADFFBDE8084000F097B800BF80
:1033E0000038024000000240E43E000808B500F04A
:1033F00009FAFFF779FBBDE80840FFF7D7BE0000E8
:1034000070470000104B1A6C42F001021A641A6EE9
:1034100042F001021A660D4A1B6E936843F00103E5
:1034200093604FF0804331229A624FF0FF32DA62AC
:1034300000229A615A63DA605A6001225A610821B7
:103440001A601C20FFF70CBA00380240002004E08C
:103450004FF0804208B51169D3680B40D9B2C94317
:103460009B07116107D5202383F31188FFF75CFBCD
:10347000002383F3118808BD08B5FFF7E9FFBDE815
:103480000840FFF7EFBE00001E4B1A6962F0FF0212
:103490001A611A69D2B21A614FF0FF301A695A697B
:1034A000586100215A6959615A691A6A62F080525A
:1034B0001A621A6A02F080521A621A6A5A6A5862CA
:1034C0005A6A59625A6A1A6C42F080521A641A6E29
:1034D00042F080521A661A6E0B4A106840F48070EF
:1034E0001060186F00F44070B0F5007F1EBF4FF4FD
:1034F000803018671967536823F40073536000F035
:1035000061B900BF0038024000700040354B364AB8
:103510001A64364A4FF4404111601A6842F00102C1
:103520001A601A689107FCD59A6822F003029A6023
:103530002C4B9A6812F00C02FBD1196801F0F901CA
:1035400019609A601A6842F480321A601A6892030D
:10355000FCD55A6F42F001025A67224B5A6F90070E
:10356000FCD5234A5A601A6842F080721A601F4ADA
:1035700053685904FCD51B4B1A689201FCD51D4AAF
:103580009A600322C3F88C200022C3F894201A4BBF
:103590001A681A4B9A421A4B21D11A4A11681A4AD0
:1035A00091421CD140F203121A60154A136803F0CD
:1035B0000F03032BFAD10B4B9A6842F002029A6078
:1035C0009A6802F00C02082AFAD15A6C42F480423E
:1035D0005A645A6E42F480425A665B6E704740F2FB
:1035E0000372E1E700380240000400100070004060
:1035F0000819400700948838002004E01164002076
:10360000003C024000ED00E041C20F41084A08B50D
:10361000516913680B4003F00103536123B1054A5C
:1036200013680BB150689847BDE80840FFF71ABE11
:10363000003C0140A8360020084A08B551691368CB
:103640000B4003F00203536123B1054A93680BB1A9
:10365000D0689847BDE80840FFF704BE003C014031
:10366000A8360020084A08B5516913680B4003F0DA
:103670000403536123B1054A13690BB1506998479C
:10368000BDE80840FFF7EEBD003C0140A836002031
:10369000084A08B5516913680B4003F008035361E9
:1036A00023B1054A93690BB1D0699847BDE808403A
:1036B000FFF7D8BD003C0140A8360020084A08B5F5
:1036C000516913680B4003F01003536123B1054A9D
:1036D000136A0BB1506A9847BDE80840FFF7C2BDB6
:1036E000003C0140A8360020174B10B55A691C68F1
:1036F000144004F478725A61A30604D5134A936AFD
:103700000BB1D06A9847600604D5104A136B0BB111
:10371000506B9847210604D50C4A936B0BB1D06BC4
:103720009847E20504D5094A136C0BB1506C9847D1
:10373000A30504D5054A936C0BB1D06C9847BDE83E
:103740001040FFF78FBD00BF003C0140A8360020AD
:103750001A4B10B55A691C68144004F47C425A6133
:10376000620504D5164A136D0BB1506D98472305B9
:1037700004D5134A936D0BB1D06D9847E00404D57E
:103780000F4A136E0BB1506E9847A10404D50C4A32
:10379000936E0BB1D06E9847620404D5084A136F3C
:1037A0000BB1506F9847230404D5054A936F0BB1B2
:1037B000D06F9847BDE81040FFF754BD003C014072
:1037C000A8360020062108B50846FFF749F806216B
:1037D0000720FFF745F806210820FFF741F80621EA
:1037E0000920FFF73DF806210A20FFF739F80621E6
:1037F0001720FFF735F8BDE8084006212820FFF71D
:103800002FB8000008B5FFF73FFE00F079F8FFF78A
:103810003DF800F039F8FFF7F3FDBDE80840FFF789
:103820006FBD0000026843681143016003B118478F
:1038300070470000143000F0E9B900004FF0FF338A
:10384000143000F0E3B90000383000F05FBA000037
:103850004FF0FF33383000F059BA0000143000F058
:10386000AFB900004FF0FF31143000F0A9B90000EB
:10387000383000F009BA00004FF0FF32383000F065
:1038800003BA00000020704700F0F6B837B51546BF
:103890000E4A026000224260C0E902220122044670
:1038A00002740B46009000F15C014FF480721430FA
:1038B00000F05CF900942B464FF4807204F5AE7171
:1038C00004F1380000F0D4F903B030BDC43F000863
:1038D00038B5C36904460D461BB904210844FFF7F7
:1038E000A1FF294604F1140000F04EF9002806DA81
:1038F000201D4FF48061BDE83840FFF793BF38BD0D
:103900000023054A19460133102BC2E9001102F1C8
:103910000802F8D1704700BFA8360020026843684B
:103920001143016003B1184770470000024AD36891
:1039300043F0C003D360704700100140024AD368CF
:1039400043F0C003D3607047004400402DE9F041CC
:10395000D0F85C62F7683368DA0504469DB20DD58D
:10396000202383F311884FF400710430FFF7D6FF52
:103970006FF480733360002383F31188202383F373
:10398000118804F1040815F02F033AD183F311884C
:10399000380615D5290613D5202383F3118804F1A1
:1039A000380000F099F900284DDA0821201DFFF7B2
:1039B000B5FF4FF67F733B40F360002383F311881C
:1039C0007A0616D56B0614D5202383F31188D4E923
:1039D00013239A420AD1236C43B127F040073F04D6
:1039E0001021201D3F0CFFF799FFF760002383F3A0
:1039F0001188D4F86422D3683BB3BDE8F041106964
:103A000018472B0713D015F0080F0CBF0021802199
:103A1000E80748BF41F02001AA0748BF41F0400134
:103A20006B0748BF41F480714046FFF777FFAD0652
:103A3000736805D594F8601220461940FFF748FFD7
:103A40003568ADB29FE77060B7E7BDE8F081000070
:103A500008B50348FFF77AFFBDE80840FFF702BC4E
:103A60002837002008B50348FFF770FFBDE808407D
:103A7000FFF7F8BB9039002010B5094C094A2046E1
:103A80000021FFF703FF084BC4F85C32074C084ADB
:103A900000212046FFF7FAFE064BC4F85C3210BD49
:103AA000283700202D3900080010014090390020EF
:103AB0003D39000800440040F8B5154682680669A3
:103AC000AA420B46816938BF8568761AB54204461A
:103AD0000BD218462A46FDF7D3FCA3692B44A361F9
:103AE000A3685B1BA3602846F8BD0CD91846324674
:103AF000FDF7C6FCAF1BE1683A463044FDF7C0FC59
:103B0000E3683B44EBE718462A46FDF7B9FCE36857
:103B1000E5E7000083689342F7B51546044638BFD1
:103B20008568D0E90460361AB5420BD22A46FDF703
:103B3000A7FC63692B446361A36828465B1BA360F1
:103B400003B0F0BD0DD932460191FDF799FC019902
:103B5000E068AF1B3A463144FDF792FCE3683B4412
:103B6000E9E72A46FDF78CFCE368E4E710B50A4470
:103B70000024C361029B8460C0E90000C0E9051114
:103B8000C1600261036210BD08B5D0E905329342FD
:103B900001D1826882B98268013282605A1C426116
:103BA0001970D0E904329A4224BFC36843610021EE
:103BB000FFF730F8002008BD4FF0FF30FBE70000B2
:103BC00070B5202304460E4683F31188A568A5B17D
:103BD000A368A269013BA360531CA3611578226905
:103BE000934224BFE368A361E3690BB12046984781
:103BF000002383F31188284607E031462046FEF76C
:103C0000F9FF0028E2DA85F3118870BD2DE9F74F3E
:103C100004460E4617469846D0F81C904FF0200AEE
:103C20008AF311884FF0000B154665B12A463146DC
:103C30002046FFF741FF034660B941462046FEF7A4
:103C4000D9FF0028F1D0002383F31188781B03B03B
:103C5000BDE8F08FB9F1000F03D001902046C847AE
:103C6000019B8BF31188ED1A1E448AF31188DCE75F
:103C7000C0E90511C160C3611144009B8260C0E9C5
:103C80000000016103627047F8B504460D46164610
:103C9000202383F31188A768A7B1A368013BA36021
:103CA00063695A1C62611D70D4E904329A4224BFD0
:103CB000E3686361E3690BB120469847002080F315
:103CC000118807E031462046FEF794FF0028E2DA2B
:103CD00087F31188F8BD0000D0E905239A4210B59A
:103CE00001D182687AB98268013282605A1C82618D
:103CF0001C7803699A4224BFC36883610021FEF7E0
:103D000089FF204610BD4FF0FF30FBE72DE9F74F4C
:103D100004460E4617469846D0F81C904FF0200AED
:103D20008AF311884FF0000B154665B12A463146DB
:103D30002046FFF7EFFE034660B941462046FEF7F6
:103D400059FF0028F1D0002383F31188781B03B0BA
:103D5000BDE8F08FB9F1000F03D001902046C847AD
:103D6000019B8BF31188ED1A1E448AF31188DCE75E
:103D700010B501390244904201D1002005E00378DA
:103D800011F8014FA34201D0181B10BD0130F2E71A
:103D90002DE9F041A3B1C91A17780144044603F193
:103DA000FF3C8C42204601D9002009E00578BD4245
:103DB00004F10104F5D10CEB0405D618A54201D19C
:103DC000BDE8F08115F8018D16F801EDF045F5D04C
:103DD000E7E70000034611F8012B03F8012B002A46
:103DE000F9D170476F72672E6172647570696C6F7C
:103DF000742E514634314750535F56310000000055
:103E00004E6F20617070207369670A004261642000
:103E10006677206C656E6774682025750A004261BC
:103E20006420626F6172645F696420257520736825
:103E30006F756C642062652025750A0042616420FC
:103E400066772064657363726970746F72206C6545
:103E50006E6774682025750A004261642061707085
:103E600020435243203078253038783A3078253056
:103E70003878203078253038783A307825303878DE
:103E80000A00476F6F64206669726D776172650A18
:103E90000040A2E4F1646891060000006D61696E63
:103EA0000000000069646C6500000000A43E00088A
:103EB000F03400206836002001000000E52A0008E8
:103EC0000000000000400000004000000040000032
:103ED000004000000000010000000200000002009D
:103EE00000000200A000282800000000AAAAAAAA38
:103EF00050001424FFFF000000770000700700004E
:103F000000000A0000000000AAAAAAAA00000000FF
:103F1000FFFF0000000000008800000000000040DB
:103F200000000000AAAAAAAA00000000FF7F00006B
:103F30000000000000000000000000000000000081
:103F4000AAAAAAAA00000000FFFF000000000000CB
:103F5000000000000000000000000000AAAAAAAAB9
:103F600000000000FFFF0000000000000000000053
:103F70000000000000000000AAAAAAAA0000000099
:103F8000FFFF000000000000000000000000000033
:103F900000000000AAAAAAAA00000000FFFF00007B
:103FA0000000000000000000000000000000000011
:103FB0000A000000000000000300000000000000F4
:103FC0000000000000000000513800083D380008E3
:103FD0007938000865380008713800085D38000835
:103FE00049380008353800088538000824C2FF7FAA
:103FF00001000000000000004F1D00000000000054
:104000000000070000000000640000000000000045
:0C40100040420F00FE2A0100D204000014
:00000001FF
