:020000040800F2
:1000000000070020210500085115000855150008BB
:10001000A9150008551500087D15000823050008DE
:1000200023050008230500082305000815340008EF
:100030002305000823050008230500082305000800
:1000400023050008230500082305000823050008F0
:100050002305000823050008C5370008F13700080C
:100060001D380008493800087538000823050008C5
:1000700023050008230500082305000823050008C0
:10008000230500082305000823050008D1260008E1
:100090003D27000891270008E5270008A13800083F
:1000A0002305000823050008230500082305000890
:1000B000D53500082305000823050008230500089E
:1000C0002305000823050008230500082305000870
:1000D00023050008F13B0008053C00082305000843
:1000E0000939000823050008230500082305000836
:1000F0002305000823050008230500082305000840
:10010000230500082305000823050008230500082F
:10011000230500082305000823050008230500081F
:10012000230500082305000823050008230500080F
:1001300023050008230500082305000823050008FF
:1001400023050008230500082305000823050008EF
:1001500023050008230500082305000823050008DF
:1001600023050008230500082305000823050008CF
:1001700023050008230500082305000823050008BF
:1001800023050008230500082305000823050008AF
:10019000230500082305000823050008230500089F
:1001A000230500082305000823050008230500088F
:1001B000230500082305000823050008230500087F
:1001C000230500082305000823050008230500086F
:1001D000230500082305000823050008230500085F
:1001E000D0400B1CD1409C46203AD3401843524289
:1001F00063469340184370479140031C90409C46CF
:10020000203A9340194352426346D3401943704702
:1002100053B94AB9002908BF00281CBF4FF0FF316D
:100220004FF0FF3000F07AB9ADF1080C6DE904CE63
:1002300000F006F8DDF804E0DDE9022304B07047C1
:100240002DE9F0478C460D460446089E002B51D1FF
:100250008A4217466DD9B2FA82FEBEF1000F0BD06A
:10026000CEF1200C01FA0EF520FA0CFC02FA0EF782
:100270004CEA050C00FA0EF44FEA174A250CBCFBB9
:10028000FAF81FFA87F90AFB18CC45EA0C4508FB77
:1002900009F3AB420AD9ED1908F1FF3280F023814E
:1002A000AB4240F22081A8F102083D44ED1AA4B20D
:1002B000B5FBFAF00AFB105544EA054400FB09F9C6
:1002C000A14509D9E41900F1FF3380F00A81A14565
:1002D00040F2078102383C44A4EB090440EA08409C
:1002E0000021002E61D024FA0EF4002334607360E4
:1002F000BDE8F0878B4207D9002E54D0002186E854
:1003000021000846BDE8F087B3FA83F1002940F0E8
:100310008E80AB4202D3824200F2FA80841A65EBEF
:1003200003050120AC46002E3FD086E81010BDE842
:10033000F08712B90127B7FBF2F7B7FA87FEBEF1D3
:10034000000F34D1EB1B3A0C1FFA87FC0121B3FBE1
:10035000F2F8250C02FB183345EA03450CFB08F3C1
:10036000AB4207D9ED1908F1FF3002D2AB4200F2DF
:10037000D1808046ED1AA3B2B5FBF2F002FB105516
:1003800043EA05440CFB00FCA44507D9E41900F13D
:10039000FF3302D2A44500F2B8801846A4EB0C0447
:1003A00040EA08409DE731463046BDE8F087CEF18F
:1003B000200405FA0EF307FA0EF720FA04F83A0CB7
:1003C00025FA04F448EA0308B4FBF2F14FEA1845B1
:1003D00002FB11441FFA87FC45EA044501FB0CF3BC
:1003E000AB4200FA0EF409D9ED1901F1FF3080F0AB
:1003F0008A80AB4240F2878002393D44EB1A1FFAF3
:1004000088F5B3FBF2F002FB103345EA034500FB2D
:100410000CF3AB4207D9ED1900F1FF386FD2AB42B4
:100420006DD902383D44EB1A40EA01418FE7C1F132
:10043000200722FA07F88B4005FA01F448EA030383
:1004400020FA07FE4FEA134CFD404EEA040EB5FBBE
:10045000FCF94FEA1E440CFB19551FFA83F844EAD5
:10046000054509FB08F4AC4202FA01F200FA01FA70
:1004700008D9ED1809F1FF3043D2AC4241D9A9F1B6
:1004800002091D442D1B1FFA8EFEB5FBFCF00CFB70
:1004900010554EEA054400FB08F8A04507D9E418BA
:1004A00000F1FF3529D2A04527D902381C4440EA83
:1004B0000940A4EB0804A0FB02894C45C6464D4602
:1004C00015D312D056B1BAEB0E0364EB050404FA4F
:1004D00007F7CB401F43CC40376074600021BDE874
:1004E000F0871846F8E69046E0E6C245EAD2B8EB57
:1004F000020E69EB03050138E4E72846D7E74046DA
:1005000091E78146BEE7014678E702383C4445E77B
:10051000084608E7A8F102083D442BE7704700BFF2
:1005200002E000F000F8FEE772B6394880F3088870
:10053000384880F3098838484EF60851CEF2000159
:10054000086040F20000CCF200004EF63471CEF2AA
:1005500000010860BFF34F8FBFF36F8F40F20000C0
:10056000C0F2F0004EF68851CEF200010860BFF3F1
:100570004F8FBFF36F8F4FF00000E1EE100A4EF681
:100580003C71CEF200010860062080F31488BFF3AE
:100590006F8F02F07DFF02F0BDFF4FF055301F4915
:1005A0001B4A91423CBF41F8040BFAE71C49194A27
:1005B00091423CBF41F8040BFAE71A491A4A1B4B17
:1005C0009A423EBF51F8040B42F8040BF8E70020B2
:1005D0001749184A91423CBF41F8040BFAE702F070
:1005E0005BFF02F0EBFF144C144DAC4203DA54F8FD
:1005F000041B8847F9E700F03FF8114C114DAC425D
:1006000003DA54F8041B8847F9E702F043BF0000FF
:100610000007002000230020000000080001002047
:10062000000700203047000800230020742300202A
:1006300078230020F8400020E0010008E0010008D5
:10064000E0010008E00100082DE9F04F2DED108ACF
:10065000C1F80CD0C3689D46BDEC108ABDE8F08F90
:10066000002383F311882846A047002002F018FCDD
:1006700002F020FB00DFFEE72DE9F0413A4C7B233E
:1006800023700523002563701723A570E57025717D
:100690006571A571E57125726572A372E57200F04E
:1006A000B3FE20B10F2325726572A372E57202F0CA
:1006B0005BFE074602F0A8FE054600283AD12B4B08
:1006C0009F4237D001339F4237D0294B27F0FF029A
:1006D0009A4236D1F8B200F055FAA84642F21074A8
:1006E00000F07EFC00F054FA064670B37CBB464630
:1006F00035B1204B9F4203D002F07EFE00242646F7
:10070000002002F03BFE1C4B1B6913F0400321D07C
:100710000EB100F033F800F085FC00F01FFE00F091
:1007200057FF0546C4B900F0D3FC4FF47A7002F0CD
:10073000BDFBF7E7A8460024D2E704464FF00108C6
:10074000CEE780464FF47A74CAE70446D0E74FF408
:100750007A74CDE71C46DEE700F03AFF401BA0426A
:10076000E1D900F00BF8DAE778230020010007B0A8
:10077000000008B0263A09B00004024010B51E4B34
:100780001E4953F8042F013200D110BD8B42F8D11D
:100790001B4C1C4B22689A422CD91B4B9B6803F1C3
:1007A000006303F580339A4224D202F0F9FD02F08F
:1007B0000BFE002000F0ECFD144B0220187000F03E
:1007C0004DFE134B1A6C00221A64196E1A66196ECC
:1007D000596C5A64596E5A665B6E72B60D4A0E4B6E
:1007E00013601B682268202181F311889D4683F3E2
:1007F0000888104710BD00BFFCFF00081C0001085E
:1008000004000108FFFF0008782300208423002053
:100810000038024008ED00E00000010809490B68BB
:1008200049F269009AB21B0C00FB0233064A0B60C6
:10083000136844F2506198B21B0C01FB0030106049
:1008400080B270470C2300200823002010B500213F
:100850001022044600F01EFE034B03CB20606160B3
:100860001868A06010BD00BF107AFF1FF0B51F4CC4
:10087000BBB000F0ADFEA368C31AF92B30D906ADAA
:100880002346A06028220021284601F02FFC04F115
:100890000E0000F0F7FD0023C6B2591D5F1CDBB24D
:1008A000B3424FEAC10107DA0E3323440822284637
:1008B00001F01CFC3B46F0E7012303930823207B57
:1008C00002930B4B0193C1F3CF01302305910093A9
:1008D0000146049503A3D3E90023064801F0D6F9A5
:1008E0003BB0F0BD78F6339F93CACD8DC83300205E
:1008F000D5330020A033002070B50D4614461E46A7
:1009000001F06AF950B9022E0ED1012C0CD112A3BC
:10091000D3E90023C5E90023012070BD052C14D0C4
:1009200003D8012C09D0002070BD282C09D0302C10
:10093000F9D10BA3D3E90023ECE70BA3D3E9002300
:10094000E8E70BA3D3E90023E4E70BA3D3E90023F3
:10095000E0E700BFAFF30080401DA12026812A0BF5
:1009600078F6339F93CACD8D9E6AC421818A46EE64
:1009700026417272DF25D7B7F017304A39059E56E7
:1009800038B504460D46034620222846002101F0D2
:10099000ADFB22792346032A28BF032203F8042F44
:1009A00028460222202101F0A1FB62792346072A72
:1009B00028BF072203F8052F28460322222101F031
:1009C00095FBA2792346072A28BF072203F8062FA2
:1009D00028460322252101F089FB284604F108035B
:1009E0001022282101F082FB382038BD2DE9F04F7C
:1009F000ADF5017D21AE0EAD40F2791280460F4675
:100A00003046002100F046FD48220021284600F033
:100A100041FD00F0DDFD594B4FF47A72B0FBF2F06E
:100A2000186093E80700012385E807002B740DF197
:100A30005A0000236B74FFF709FF052385F8203067
:100A40007B2385F8213007AB18464D4903F0AEFAF9
:100A5000182228643146284685F83C20FFF790FF8D
:100A600012AB044601460822304601F03FFB082243
:100A7000A1180DF14903304601F038FB0DF14A038E
:100A8000082204F11001304601F030FB13AB2022A4
:100A900004F11801304601F029FB14AB402204F1A7
:100AA0003801304601F022FB16AB082204F1780130
:100AB000304601F01BFB0DF15903082204F18001BF
:100AC000304601F013FB04F1880A0DF15A0904F5D0
:100AD000847B4B465146082230460AF1080A01F051
:100AE00005FBD34509F10109F3D11BAB0822594697
:100AF000304601F0FBFA04F588744FF0000995F8D0
:100B000034304B4510D84FF0000995F83C304B4538
:100B100015D92B6C21464B440822304601F0E6FAE9
:100B2000083409F10109F0E7AB6B21464B44082278
:100B3000304601F0DBFA083409F10109DFE7E31D73
:100B4000C3F3CF03F97E0593002304960393BB7E82
:100B50000293193701230093019706A3D3E90023D9
:100B6000404601F093F80DF5017DBDE8F08F00BF20
:100B7000AFF300809E6AC421818A46EE882300205C
:100B800084410008014B1870704700BF9423002077
:100B9000F0B5334B1C7B85B034B1324B0E221A8139
:100BA0000024204605B0F0BD2F4A1068516802AB02
:100BB00003C308230DEB03022C492D4803F0D8F999
:100BC000054630B9274B2B480A221A8100F0B6FCA3
:100BD000E6E70169B1F5B81F06D9224B26480B227A
:100BE0001A8100F0ABFCDCE7438B40F27B5293426E
:100BF00007D01C490C2008811946204800F09EFCB3
:100C0000CFE71F4A024402F11003994204D2154B68
:100C10001C4810221A81E4E710398E1A2046144924
:100C200000F0DAFC3246074605F11801204600F0D4
:100C3000D3FCAB689F4202D1EB6898420AD0094BC3
:100C40000D221A8100903B46EA68A9680E4800F020
:100C500075FCA5E70D4800F071FC0124A1E700BF79
:100C6000C83300208823002054400008DCFF160011
:100C7000000001085C400008684000087A40000855
:100C80000800FFF798400008B5400008DE40000863
:100C90002DE9F04FADB006AF80460C4600F09CFF4A
:100CA000054600286AD1237E022B18D1E38A012B46
:100CB00015D100F08DFC8146FFF7B0FD4FF4C873ED
:100CC000BD4EB0FBF3F209F5167902FB1300E37E8B
:100CD00019FA80F030608BB9B84B00221A709C373B
:100CE000BD46BDE8F08F3B1D1D4400950023082242
:100CF0004FEAC901204601F05DF84D46A38A013B49
:100D0000AB425FFA85F90BD905F10109B9F1110F71
:100D1000E9D1AB4BAB4A40F23911AB4803F0FAF8DA
:100D200007F11400FFF792FD2A4607F11401381D60
:100D300003F00EF903460028CED1B9F1100F07D009
:100D40009E4B83F800903368A3F516733360C6E7B3
:100D500007F19802014602F8950D204600920722FD
:100D600001F028F8F9787F2904DD984B954A4FF473
:100D7000A871D2E7404600F013FFB0E7E38A052BE5
:100D800000F0068106D8012BA9D121464046FFF785
:100D90002DFEA4E7282B3DD0302BA0D1637E8C4DB7
:100DA00001336A7BDBB29342E94640F0EF80E27E9A
:100DB0002B7B9A4240F0EA8007F19803002623F843
:100DC000846D1022009331460123204600F0F2FF8B
:100DD000B4F81480A8F102081FFA88F808F1030398
:100DE00023F003030A3323F00703ADEB030D0DF1EA
:100DF000180A33469BB2B11C98454FEAC10106F16F
:100E000001066CDD5344009308220023204600F0C5
:100E1000D1FFEEE7A38A013B9BB2C92B3FF65FAF40
:100E20006B4E357B4DBB06F10C03009308222B461D
:100E30002946204600F0BEFFA38A05F10109013BC7
:100E4000EDB29D424FEAC90109DA0E3535440095ED
:100E500000230822204600F0ADFF4D46ECE70023BA
:100E60000022C6E900230023B36086F8D730C6F815
:100E7000D830337B0BB9E37E3373002507F11406BA
:100E80003B1D0822294630467D60BD60FD6001F0B3
:100E90002DF93B7A05F10109AB424FEAC90107D9A7
:100EA000FB6808222B44304601F020F94D46F0E75C
:100EB000C1F3CF010023E07E059104960393A37E46
:100EC00002931934282301460093019438A3D3E9EF
:100ED0000023404600F0DAFEFFF7C8FCFFE695F875
:100EE000D70000F05FFAD5F8D83006461BB995F860
:100EF000D70000F067FAD5F8D83043449E4204D2B8
:100F000095F8D700013000F05DFA4FEA980B002405
:100F1000A0B2584504F1010408DA2B6880000AEBFE
:100F200000010122184400F0BDFAF1E7D5E90023E1
:100F3000D5F8D84095F8D70012EB080243F100032A
:100F40004444C5E90023C5F8D84000F02BFA844298
:100F500009D395F8D730013385F8D730D5F8D83094
:100F60009E1BC5F8D860B8F1FF0F08DC00232B7377
:100F700000F03AFAFFF70CFE08B1FFF7FFFB2B6811
:100F8000144A9B0A013313810023AB60CD46A6E6C9
:100F9000BFF34F8F1049114BCA6802F4E06213434C
:100FA000CB60BFF34F8F00BFFDE700BFAFF3008002
:100FB00026417272DF25D7B79C3300209933002079
:100FC000F0400008A0410008494100086B410008BA
:100FD000C83300208823002000ED00E00400FA055B
:100FE00008B54FF000530B4A196891420AD10A4ADA
:100FF000597D117009481B7D0373C92208490E30C1
:1010000000F036FAE02200214FF00050BDE8084021
:1010100000F040BA9AAD44C594230020C8330020A4
:101020001600002030B5204C2049214885B002230D
:10103000637105230025ADF808300123ADF80C508D
:1010400003228DF80C308DF80B301A4B4B608DF865
:101050000A2001F035FD184B019500931749184BF4
:1010600018484FF4805200F065FD174B197825465B
:1010700011B1144800F094FD00F0AAFA0446FFF7FD
:10108000CDFB4FF4C87304F51674B0FBF3F202FB0A
:1010900013000E4B14FA80F0186002F0B5F908B195
:1010A0000F232B8105B030BD8823002000230020B2
:1010B000E034002004000200F90800089823002012
:1010C000910C0008A0330020942300209C330020C2
:1010D0002DE9F04F96A7D7E900670FF25C29D9E90F
:1010E00000898F4C93B0DFF858B2DFF858A2204641
:1010F00000F018FE0CAD079098B31022002128468E
:1011000000F0C8F9079B197B4FF0000261F303025E
:1011100019468DF8302051F8040F49680EAA03C211
:101120001B680D9A63F31C029DF830300D9243F05A
:1011300020038DF8303000232A461946584601F026
:10114000CFFC079030B9204600F0F0FD079B8AF8ED
:101150000030CCE79AF80030072B40DC01338AF8E6
:10116000003018220021284600F094F9DFF8D0B1B1
:10117000DFF8D4A1002319462A46584601F0D8FCCE
:10118000014680BB102208A800F084F9DAF8143078
:1011900083F40043CAF8143000F01CFA0B4612A97D
:1011A000024611E903000DF1240E8EE803009DF8BC
:1011B0003410C1F3030089064CBF0E99BDF83810F6
:1011C0008DF82C0046BFC1F31C0141F00041C1F372
:1011D0000A010891204608A900F0EEFFCAE7204660
:1011E00000F0A4FDBDE7204600F0F6FC8246002892
:1011F0004AD1DFF858B100F0EBF9DBF80030984243
:1012000042D300F0E5F90790FFF708FB079A8DF845
:1012100020A04FF4C87302F51672B0FBF3F101FB86
:10122000130012FA80F0CBF80000DFF824B19BF82D
:10123000001011B901238DF8203028460791FFF7DF
:1012400005FB0799C1F1100A5FFA8AFABAF1060F95
:1012500028BF4FF0060A524629440DF1210000F044
:1012600007F90AF10103049308AB039318230293CF
:101270002C4B01930123009332463B46204600F05D
:10128000ADFC00238BF8003000F0A2F9264ADFF80D
:10129000C4A01368C31AB3F57A7F32D3106000F08C
:1012A00099F902460B46204600F046FD204600F024
:1012B00093FC30B39AF80C30DFF89CB0002B14BFCD
:1012C000032302238BF8053000F082F94FF47A7380
:1012D0002946B0FBF3F0CBF800005846FFF750FB6F
:1012E000182307300293114B0193C0F3CF0040F253
:1012F000551304900093039542464B46204600F058
:101300006DFC9AF80C300BB1FFF7B0FA9AF80C307C
:10131000002B7FF4E8AE13B0BDE8F08FAFF3008090
:10132000A033002098330020A8340020AC340020E3
:10133000401DA12026812A0BF1C6A7C1D068080F45
:10134000E0340020AD340020000802409C3300202F
:1013500099330020C83300208823002070B501F0A5
:10136000CFFE094C094E2070002530682378834257
:1013700008D901F0BFFE336805440133B5F5803F5D
:101380003360F2D370BD00BFDC340020B0340020E5
:1013900001F06EBF00F10060920000F5803001F0B6
:1013A000FDBE0000054B1A68054B1B789B1A834253
:1013B00002D9104401F09EBE00207047B0340020D6
:1013C000DC34002038B5074D04462868204401F07D
:1013D00099FE28B928682044BDE8384001F0AABE2B
:1013E00038BD00BFB0340020064991F8243033B135
:1013F00000230822086A81F82430FFF7CBBF0120C0
:10140000704700BFB4340020124B5A8842F20101E9
:101410008A4293B214D0B3F5805F13D041F2010237
:10142000934211D041F2030293420FD041F20702DE
:1014300093420DD10423084A02EB8303D878704706
:101440000023F8E70123F6E70223F4E70323F2E79A
:1014500000207047002004E0E4410008022802BF99
:10146000024B4FF000429A61704700BF00080240F3
:1014700010B50023934203D0CC5CC4540133F9E788
:1014800010BD000002460346981A13F9011B0029FB
:10149000FAD1704702440346934202D003F8011B7D
:1014A000FAE770472DE9F047234C94F824300546BD
:1014B0008846174683BB2E46DFF87C90C7B394F866
:1014C00024302BB92022FF2148462662FFF7E2FF95
:1014D00094F82400C0F10805BD4228BF3D465FFADC
:1014E00085FAAD0041462A4604EB8000FFF7C0FFB5
:1014F00094F82430A7EB0A079A445FFA8AFABAF103
:10150000080F2E44A844FFB284F824A0D6D1FFF7D8
:101510006BFF0028D2D108E0266A06EB8306B042B2
:10152000CAD0FFF761FF0028C5D10020BDE8F087D1
:101530000120BDE8F08700BFB43400200FB40020C4
:1015400004B070470FB44FF0FF3004B07047000094
:10155000FEE7000000B59BB0EFF309816822684602
:10156000FFF786FFEFF30583034B9A6B9A6A9A6A3B
:101570009A6A9A6A9B6AFEE700ED00E000B59BB0AC
:10158000EFF3098168226846FFF772FFEFF30583E6
:10159000044B9A6B9A6A9A6A9A6A9A6A9A6A9B6ADE
:1015A000FEE700BF00ED00E000B59BB0EFF309815E
:1015B00068226846FFF75CFFEFF30583034B5A6B25
:1015C0009A6A9A6A9A6A9A6A9B6AFEE700ED00E054
:1015D00001F086BE01F060BE30B5084D0A4491426C
:1015E0000BD011F8013B09245840013CF7D040F3DF
:1015F00000032B4083EA5000F7E730BD2083B8EDAD
:101600000246006848B103681360D388118901332A
:101610009BB29942D38038BF1381704770B588B0B0
:101620000D460446202200216846FFF733FF20467E
:101630000495FFF7E5FF054658B16B46044608AE32
:101640001A4603CAB24220606160134604F10804DE
:10165000F6D1284608B070BD2DE9F04130B9274BCE
:10166000274A40F2C531274802F054FC0B7C23B9CD
:10167000254B234A40F2C631F5E7C66986B9C161F8
:10168000BDE8F081002B29DA930CAB4229D1B4429A
:1016900001D10C60F3E7C8F800100C60BDE8F081E0
:1016A0004B6823F06047BD0C4FEAD37EC3F3807CC8
:1016B00015EA230538BF3D46B04634466368BEEBA5
:1016C000D37F23F06042DDD1974203D1C3F380730F
:1016D0009C450AD1974205E01C46EFE7AA4206D096
:1016E00013469D422CBF00230123002BCFD123683A
:1016F000A046002BF0D12160BDE8F08188440008AD
:101700007C420008404500086145000808B5034ACE
:10171000034B044840F25E3102F0FCFB58420008E3
:10172000004500084045000808B503680B60C38801
:10173000016033B9044B054A05484FF4C76102F014
:10174000E9FB013BC38008BDD0440008CC4200083F
:101750004045000870B50C4600F10C05616831B9D0
:10176000E38A61F30903E3820020002170BD0E6863
:101770002846FFF7D9FF6660F0E7000008B5426829
:1017800032B10B4B0B4A0C4840F22F4102F0C2FB26
:10179000C37DC3F38401013161F38603C375C38A3A
:1017A00062F30903C3821B0A62F3C713C37508BD42
:1017B0001C45000888420008404500082DE9F04714
:1017C000089E32B91F4B204A204840F2395102F09E
:1017D000A1FB01F007054FEAD6082A4406F00706E8
:1017E00000EBD1004FF47F49954201D1BDE8F0876D
:1017F00005F0070E06F0070AD645774638BF57466C
:10180000C7F10807511BEC088F4228BF0F46045D43
:1018100008EBD60104FA0EF413F801C029FA07FE0A
:1018200024FA0AF45FFA8EFE8CEA04044EFA0AFEE9
:1018300004EA0E048CEA040C03F801C03D443E4463
:10184000D2E700BF9C440008A042000840450008C1
:101850002DE9F04106460F4600254FF6FF7441F290
:1018600021082A4630463946FEF7BAFCC0B284EA5F
:101870000024082314F4004F4FEA4404A4B203F1F7
:10188000FF3318BF84EA080413F0FF03F2D10835D0
:10189000402DE6D12046BDE8F081000010B50A4495
:1018A00041F22104914200D110BD11F8013B80EAC0
:1018B0000320082310F4004F4FEA400080B203F1E8
:1018C000FF3318BF604013F0FF03F3D1EAE70000D5
:1018D0002DE9F04F85B08A468DE80C00BDF83C40FC
:1018E000814630B9494B4A4A40F26E31494802F0CC
:1018F00011FB11F0604F04D0474B454A40F26F3165
:10190000F4E7009B002B7ED024B10E9B002B7AD0F5
:10191000072C28D809F10C00FFF772FE054628B9FC
:101920006FF00205284605B0BDE8F08F14220021B3
:10193000FFF7B0FD22460E9905F10800FFF798FD6C
:10194000631C2B74009B1B782C4403F01F0363F073
:101950003F0323724AF000436B6029464846FFF775
:101960007BFE0125DEE7019B1B0A4FF00008029376
:1019700000F10C034FF0800B464645460393039855
:10198000FFF73EFE07460028CAD014220021FFF7C9
:1019900081FDB6BB9DF804303B729DF808307B7228
:1019A00002220E9B711E1944B4420AD9B8180132A2
:1019B000D2B211F801EF80F808E00136072AB6B27A
:1019C000F2D1009B197801F01F01B44208BF4FF01B
:1019D000400BB81841EA48114BEA01030372013287
:1019E0004AF000437B603A7439464846FFF734FEBC
:1019F0000135B4422DB288F001084FF0000BBED182
:101A000090E70022CDE76FF001058BE788440008DE
:101A10006C42000840450008AC4400082DE9F0473E
:101A20001E46CB8A9146C3F30902062A80460F461A
:101A300019D013460021B0B28DB25A1992B2052ABC
:101A400009D9A84210D8FA8A034463F30902FA823A
:101A50000120BDE8F087A842F3D93A4419F80140C3
:101A600094760131E8E70025FB8A7C68C3F309001E
:101A7000821F1C23B2FBF3FA03FB1A2A1FFA8AF215
:101A80007CB301212368002B39D1B31F03441C20F0
:101A9000B3FBF0F301339BB299420CD2BAF1000FC1
:101AA00009D14046FFF7ACFD08B1C0F800A02060A6
:101AB00008B304460022B6B24FF0000AB54230D255
:101AC000691E49441346E01801339BB211F801EF37
:101AD00080F804E001351C2BADB214D0AE42F2D830
:101AE000ECE74046FFF78CFD044608B10023036095
:101AF0007C60002CDED16FF00200BDE8F087013180
:101B000089B21C46BEE7AE42D8D94046FFF778FD01
:101B100008B1C0F800A020600028ECD004460022E4
:101B2000CCE7FB8AC3F30902164466F30903FB8280
:101B30008EE70000F8B50E4615461F46044628B944
:101B4000144B154A15484F2102F0E4F924220021D4
:101B5000FFF7A0FC069B6360079B23626A094FF6B0
:101B6000FF739A424FF0000028BF1A46A76020700A
:101B7000A061E06197B204F10C05824205D1002317
:101B80002B6027826382A382F8BD2E600130354628
:101B90002036F2E784440008F84100084045000878
:101BA00008B528B9084B094A7321094802F0B2F96F
:101BB000037823B94BB2002B01DD017008BD054B42
:101BC000024A7D21F1E700BF884400080442000872
:101BD00040450008CC430008007870472DE9F743E2
:101BE0000D9EBDF828900B9D9DF83040BDF83880C3
:101BF00007461946104616B9B8F1000F43D11F2CFD
:101C000041D83B78D3B9B8F1070F39D839F003037D
:101C100039D1424631464FF6FF70FFF73FFE4FEA9B
:101C2000092920F0010009F44079400449EA0464DC
:101C3000400C44EA40244FF6FF730DE043EA0923C9
:101C4000B8F1070F43EA0464F5D9FFF701FE4246F5
:101C50003146FFF723FE03468DE840012A46214620
:101C60003846FFF735FE0DB9FFF750FD2B780133ED
:101C7000DBB21F2B88BF00232B7003B0BDE8F083BD
:101C80006FF00300F9E76FF00100F6E72DE9F74385
:101C90000E9F0B9D9DF83480BDF83C6081469DF8F9
:101CA000300007B9C6BB1F2836D899F800E0BEF14E
:101CB000000F34D00C0244F080049DF8281044EA50
:101CC000C83444EA014444EA0E04072E44EA00649E
:101CD00015D919461046FFF7BBFD32463946FFF7C6
:101CE000DDFD0346019600972A4621464846FFF748
:101CF000EFFDB8F1010F0CD125B9FFF707FD4FF645
:101D0000FF73EFE72B780133DBB21F2B88BF002373
:101D10002B7003B0BDE8F0836FF00100F9E76FF0BE
:101D20000300F6E7C06900B104307047C1690B6871
:101D3000C3610C30FFF7F8BC2DE9F84FD0F818A0BC
:101D4000DFF86C80054616461F4654464FF00009E2
:101D500000F10C0B0CB9BDE8F88FD4E90223B21ADC
:101D600067EB0303994508BF90451FD2AB699C42BE
:101D7000214628460DD1FFF7EDFCAB691B68AB612E
:101D800021465846FFF7D0FCAC692346A2461C46C4
:101D9000E0E7FFF7DFFC2368CAF800302146584629
:101DA000FFF7C2FC5446DAF80030EFE72368EDE7AE
:101DB00080841E002DE9F04F8BB00D46144607932A
:101DC000DDF850908246002800F06481B9F1000FE0
:101DD00000F06081531E3F2B00F25C81012A03D189
:101DE000079B002B40F05681BAF81460F6000023E0
:101DF000B5420893099380F053812B199E420AD271
:101E0000761B16F0FF0607D1AB4BAC4A40F2675188
:101E1000AB4802F07FF82646DAF80C3023B9DAF83E
:101E20001030002B00F0A5802F2D31D8C5F13008DF
:101E300046454FF000032CBF5FFA88F8B046009388
:101E4000294608AB4246DAF80800FFF7B7FCA6EBD4
:101E500008074544FFB2BAF8143003F10053063BBB
:101E6000DB000293DAF80C3005934FF0300B059B42
:101E7000002B51D087B9DAF81000002861D0002F6C
:101E80005FD0AB4550D98F4B8C4A40F2A651BFE78B
:101E900037464FF00008DEE7029B23B98A4B874A9A
:101EA0004FF4B161B4E7029BE02B28BFE023069317
:101EB0005B44AB4204931DD95B1B9F4226BFDBB240
:101EC00003930397AB4504D97E4B7C4A40F2915172
:101ED0009EE70598CDF8008008ABA5EB0B01039AAF
:101EE0000430FFF76BFC039B9844FF1A1D445FFA14
:101EF00088F8FFB2049B9B4504D3744B6F4A40F2B1
:101F00009B5185E7029B069ADDF810B09B1A02935D
:101F1000059B1B680593AAE7029BBB42ABD26C4BA7
:101F2000664A40F2A15173E7CDF800803A46A5EB2E
:101F30000B0108ABFFF742FCB8443D445FFA88F858
:101F40000027BAF81430B5EBC30F04D9614B5B4AD4
:101F500040F2B1515CE7B8F1400F04D95E4B574AEB
:101F600040F2B25154E767B15C4B544A40F2B3516E
:101F70004EE70093324608AB2946DAF80800FFF72F
:101F80001DFC731E3F2B35B201D8A64204DD544B15
:101F9000544A40F235213BE760070AD00AAB03EB15
:101FA000D401624211F8083C02F00702134101F823
:101FB000083C082C21D9102C21D9202C8CBF0823B7
:101FC0000423079A002A6DD0B4EBC30F6CD0082C01
:101FD00004F1FF3215D89DF8203023FA02F2D10720
:101FE00006D54FF0FF3202FA04F423438DF8203077
:101FF0009DF8203089F800304EE00123E1E702230C
:10200000DFE7102C11D8BDF8203023FA02F2D207F6
:1020100006D54FF0FF3202FA04F42343ADF8203026
:10202000BDF82030A9F8003036E0202C0ED80899F1
:1020300021FA02F2D30705D54FF0FF3303FA04F477
:102040000C430894089BC9F8003025E0402C1CD0B4
:10205000DDE9086730463946FEF7C2F8002100F096
:10206000010050EA01030BD0224601200021FEF7B7
:10207000C3F8404261EB410106430F43CDE90867D5
:10208000DDE90823C9E9002306E0174B154A4FF4A0
:102090002071BDE66FF0010528460BB0BDE8F08F5A
:1020A0001D46F9E7012CA3D0082CA1D9102CB7D9D3
:1020B000202CE5D8C6E700BFD8420008B04200088F
:1020C00040450008FA420008E74200081F430008A4
:1020D000474300086E4300089C430008B4430008CF
:1020E000CE43000830420008CC43000830B585B02C
:1020F00030B9244B244A40F2B121244801F00AFFB0
:1021000023B9234B204A40F2B221F6E7402A04D9F2
:10211000204B1D4A40F2B621EFE722B91D4B1A4A67
:102120004FF42F71E9E70024012A0294039417D198
:102130001B788DF8083053070AD004AB03EBD203A9
:10214000554213F8084C05F00705AC4003F8084C5D
:1021500000910346002102A8FFF730FB05B030BD17
:10216000082AE5D9102A03D81B88ADF80830E2E721
:10217000202A02D81B680293DDE7D3E90045CDE9A8
:102180000245D8E7084400084442000840450008DA
:1021900023440008CC43000870B50C4600F10C0540
:1021A000E16819B9A1602161A18270BD0E6828465D
:1021B000FFF7BAFAE660F3E72DE9F04FD1F80090A7
:1021C00091B0C9F3C01604460D46CDE90223002E96
:1021D00050D0C9F3C03BC9F30626B9F1000F80F215
:1021E0009F8119F0C04F40F09B812B7B002B00F0AA
:1021F0009781BBF1020F03D02278B24240F0938165
:1022000009F07F02BBF1020F059236D119F07F0F62
:10221000C9F30F2A01D10AF0030A2B447606059A66
:1022200093F8038046EA0B4646EA82465FEAD813F3
:1022300046EA0A06069300F09A800022002310A9BD
:1022400061E90823059B009367685B465246204678
:10225000B847002800F08880A7698FB9314604F19B
:102260000C00FFF7DBF90746D0B96FF0020011B0A0
:10227000BDE8F08F4FF0020BAFE7C9F3074ACCE798
:102280003B699E420DD03F68002FF9D1314604F1E1
:102290000C00FFF7C3F907460028E6D0A3693B60AE
:1022A000A761DDE90801FFF7D3FAB882F97D08F0EC
:1022B0001F06C1F38401711A89B20FFA81FED7E9B2
:1022C0000223BEF1000FB8BF01F1200EC9F3046173
:1022D000B8BF0FFA8EFE079152EA030100F02F817A
:1022E000DDE90201801A61EB030102460B469F48BB
:1022F0000021994208BF9042C0F02181069B002B2B
:102300003FD0BEF1010F00F31A8118F0400F38D012
:10231000DDE90223C7E90223202200210DEB0200A0
:10232000FFF7B8F8DDE90223CDE908232B1D0A9356
:102330002B7BADF836A0013BDBB2ADF834309DF815
:102340001C308DF83A309DF814308DF83B30204623
:102350008DF838B08DF83960A36808A998473846D9
:10236000FFF70CFA002082E76FF00B007FE7A76908
:1023700017B96FF00C007AE73B699E4296D03F6830
:10238000F6E7FB7DC8F34012B2EBD31F40F0CE80DE
:10239000C3F38403B34240F0CC8006992B7B4FEA11
:1023A000981279B3D2073CD4032B40F2C580DDE903
:1023B0000223C7E902232B7BAE1D033BDBB232466F
:1023C000394604F10C00FFF729FB002808DA3946EA
:1023D0002046FFF7BFF93846FFF7D0F9032046E75C
:1023E000AB883B832A7B033AD2B2B88A3146FFF7E7
:1023F00055FAFB7DB882DA43C2F3C01262F3C71309
:10240000FB75AFE76AB92E1D013BDBB23246394698
:1024100004F10C00FFF702FB0028D8DB2A7B013A0D
:10242000E2E7FA8AC2F30902013B052AD9B250D881
:10243000281D002399420AD907EB020E013210F839
:1024400001CB8EF81AC00133062ADBB2F2D1DDE9E6
:1024500002898B4207F11A02CDE908890A9238BF36
:1024600004337A680B9234BF5B1900230C93FB8A08
:10247000ADF836A0C3F3090319449DF81C308DF85C
:102480003A309DF814308DF83B300023ADF834100D
:102490008DF838B08DF839607B602A7BB88A013AB4
:1024A000291DFFF7FBF93B8BB882834203D1A36858
:1024B00008A92046984708A92046FFF76DFE384630
:1024C000FFF75CF9B88A3B8B984214BF11200020BB
:1024D000CDE6786810B34FF0060E03689BB9A2EB07
:1024E0000E021B2A13D80332024405F1040E1F30DA
:1024F0009942ACD91EF801CB02F801CF01339042CA
:10250000DBB2F5D1A3E70EF11C0E1846E5E7184B38
:10251000184A194840F2B31101F0FCFC034696E753
:102520006FF00900A3E66FF00A00A0E66FF00D005F
:102530009DE66FF00E009AE66FF00F0097E6FB7DC8
:1025400068F386036FF3C713FB7539462046FFF720
:1025500001F9069B002B7FF4D8AEFB7DC3F3840208
:10256000013262F38603FB7503E700BF80841E001F
:10257000384400081C420008404500082DE9F0419D
:10258000504EB04240F089804F4CDFF840E1256C5E
:1025900045F000752564256E45F000752566246EAE
:1025A000846AD4F8007207EA0E0747F00107C4F8FE
:1025B0000072D4F8005205EA0E0545F0010545EA1F
:1025C0000121C4F80012002A69D00021C4F81C12AD
:1025D0000F46C4F80412C4F80C12C4F8141204EB29
:1025E000C10501311C29C5F84072C5F84472F6D105
:1025F0004FF0000E4FF0010C964514D1826AD2F8CC
:102600000032B04223F00103C2F8003257D12E4B02
:102610001A6C22F000721A641A6E22F000721A66A6
:102620001B6EBDE8F0819F781D8817F0010F18BF61
:10263000D4F804820CFA05F11CBF41EA0808C4F87A
:10264000048217F0020F1EBFD4F80C8241EA08087A
:10265000C4F80C827F0742BFD4F814720F43C4F849
:10266000147204EBC5055F68C5F840729F68C5F831
:102670004472D4F81C522943C4F81C120C330EF1D6
:10268000010EB9E7846A0021C4F81C12C4F80412D0
:10269000C4F80C12C4F81412AAE7002AF2D1836A13
:1026A0000022C3F84022C3F84422C3F80422C3F82E
:1026B00014220122C3F80C22C3F81C229EE7BDE8B5
:1026C000F08100BFE0340020003802400000FFFF2E
:1026D000184A916A08B58B688B6013F0010105D028
:1026E00013F00C0F14BF4FF480310121D80506D52B
:1026F00013F4406F14BF41F4003141F00201D803DC
:1027000006D513F4402F14BF41F4802141F0040199
:10271000D3690BB107489847202383F31188002120
:10272000054800F0EBFB002383F31188BDE8084067
:1027300000F080BEE0340020E834002038B5124CB0
:10274000A36ADD68AA0712D05A6922F002025A6110
:10275000A36913B1012120469847202383F31188F0
:1027600000210A4800F0CAFB002383F31188EB061E
:1027700006D5A36A1021D960236A0BB10248984795
:10278000BDE8384000F056BEE0340020F0340020B0
:1027900038B5124CA36A1D69AA0712D05A6922F0F3
:1027A00010025A61A36913B10221204698472023E1
:1027B00083F3118800210A4800F0A0FB002383F373
:1027C0001188EB0606D5A36A10211961236A0BB1A3
:1027D00002489847BDE8384000F02CBEE0340020A5
:1027E000F034002038B50F4CA36A5D685D602A079D
:1027F0000AD5032222701A6822F002021A60636A64
:1028000013B10021204698476B0706D5A36A996942
:10281000236A13B1090403489847BDE8384000F023
:1028200009BE00BFE034002010B50F4C204600F078
:1028300035F90E4BA3620B21132000F017F90B2181
:10284000142000F013F90B21152000F00FF90B21D3
:10285000162000F00BF9002320461A460E21BDE891
:102860001040FFF78BBE00BFE03400200064004042
:10287000114B984210B5044609D1104B1A6C42F026
:1028800000721A641A6E42F000721A661B6EA36A16
:1028900001221A60A36A5A68D20707D56268516894
:1028A0001268D9611A60064A5A6110BD01210820D8
:1028B00000F0BAF9EEE700BFE03400200038024033
:1028C0005B87010003291AD8DFE801F0020A0F1420
:1028D000836A9B6813F0E05F14BF012000207047FB
:1028E000836A9868C0F380607047836A9868C0F311
:1028F000C0607047836A9868C0F30070704700201A
:102900007047000010B503291FD8DFE801F0021F4F
:102910002327816A8B68C3F30163183301EB031328
:10292000107881061ED55468C0F30011490041EAB1
:10293000C40141F0040100F00F00586090689860F5
:10294000D268DA6041F00101196010BD836A03F5B5
:10295000C073E5E7836A03F5C873E1E7836A03F5AB
:10296000D073DDE79488C0F30011490041EA445177
:10297000E1E7000001290CD003D3022910D0002088
:102980007047836ADA68920701D1186903E0012071
:102990007047836AD86810F0030018BF01207047A1
:1029A000836AF2E710B539B9836AD96889071BD100
:1029B0001B699B0704D110BD012915D0022948D1FC
:1029C000816AD1F8C031D1F8C401D1F8C84114618D
:1029D000D1F8CC41546120240C610C69A40717D1B3
:1029E0004C6944F0100412E0816AD1F8B031D1F89A
:1029F000B401D1F8B8411461D1F8BC41546120242C
:102A0000CC60CC68A40703D14C6944F002044C614B
:102A100011795C0864F304119C0864F34511117189
:102A200089064BBF91681189DB085B0D4CBF63F3CE
:102A30001C0163F30A01137948BF916060F303033B
:102A400013714FEA10234FEA104058BF11811370E1
:102A5000508010BD002304491A465A50C818083344
:102A6000802B4260F9D170470C35002000F16043A3
:102A700000F01F02400903F5614309018000C9B25B
:102A800000F1604083F8001300F56140012393409A
:102A9000C0F8803103607047FFF7C6BE00F108023E
:102AA0000123037082600023C26000F110024360C2
:102AB000026142618361C361036243627047000047
:102AC00010B52023044683F311880223037041606C
:102AD000FFF7CEFE03232370002383F3118810BD7C
:102AE0002DE9F0411F4604460D461646202383F388
:102AF000118800F108082378042B0ED029462046BF
:102B0000FFF7E0FE48B1204632462946FFF7FAFEBD
:102B1000002080F31188BDE8F0813946404600F07E
:102B2000D1F90028E7D0002383F31188BDE8F081B4
:102B30002DE9F0411F4604460D461646202383F337
:102B4000118800F110082378042B0ED02946204666
:102B5000FFF710FF48B1204632462946FFF722FF13
:102B6000002080F31188BDE8F0813946404600F02E
:102B7000A9F90028E7D0002383F31188BDE8F0818C
:102B8000024B00221B605B609A6070478C3500200E
:102B9000002303748268054B1B6899689142FBD23D
:102BA0005A68036042601060586070478C3500209E
:102BB00008B5202383F31188037C032B05D0042B55
:102BC0000DD02BB983F3118808BD436900221A6028
:102BD0004FF0FF334361FFF7DBFF0023F2E790E89C
:102BE0000C001A6002685360F2E7000000230374CF
:102BF0008268054B1B6899689142FBD85A6803604C
:102C000042601060586070478C350020054B196990
:102C10000874186802681A6053601861012303740D
:102C2000FDF712BD8C35002030B54B1C87B0054632
:102C30000A4C10D023690A4A01A800F07BF9284603
:102C4000FFF7E4FF049B13B101A800F0AFF923697B
:102C5000586907B030BDFFF7D9FFF8E78C35002081
:102C6000B12B000838B50C4D41612B6981689A6819
:102C70009142044603D8BDE83840FFF789BF1846A3
:102C8000FFF786FF01232C61014623742046BDE82F
:102C90003840FDF7D9BC00BF8C350020044B1A68C2
:102CA0001B6990689B68984294BF00200120704780
:102CB0008C35002010B5084C236820691A68226002
:102CC0005460012223611A74FFF790FF01462069C6
:102CD000BDE81040FDF7B8BC8C35002008B5FFF703
:102CE000DDFF18B1BDE80840FFF7E4BF08BD0000F4
:102CF000FEE7000010B5174CFFF742FF00F00CF99B
:102D000080221549204600F091F8012344F8180C60
:102D10000374124B124AD96821F4E0610904090CCA
:102D20000A431049DA60CA6842F08072CA600E49EC
:102D30000A6842F001020A601022DA77202283F842
:102D40002220002383F3118862B60848BDE81040B2
:102D500000F08EB8B43500207C45000800ED00E09E
:102D60000003FA05F0ED00E0001000E084450008E3
:102D70002DE9F84F1F4C4FF00008656904F1140766
:102D8000C1464FF08043266A5B6AAA689E1B964242
:102D90001DD34FF0200AAA68236AD5F80CB013445B
:102DA00023622B68BB425F60A6EB02066361C5F835
:102DB0000C8001D100F094FB89F311882869D84771
:102DC0008AF311886569AB689E42E4D2D9E76269EB
:102DD000BA420CD0916823628E1B9660A8680228C4
:102DE0002CBF1818981CBDE8F84F00F07FBBBDE859
:102DF000F88F00BF8C350020EFF3118020B9EFF37E
:102E00000583202282F311887047000010B558B95D
:102E1000EFF30584C4F3080414B180F3118810BDE6
:102E2000FFF75CFF84F3118810BD0000826002226E
:102E300002740022427470478368A3F17C0243F855
:102E40000C2C026943F83C2C426943F8382C074AA1
:102E500043F81C2CC26843F8102C022203F8082CFB
:102E6000002203F8072CA3F1180070476106000840
:102E700010B5202383F31188FFF7DEFF00210446FD
:102E8000FFF7F0FE002383F31188204610BD0000F9
:102E9000024B1B6958610F20FFF7B8BE8C3500202C
:102EA000202383F31188FFF7F3BF000008B5014624
:102EB000202383F311880820FFF7B6FE002383F355
:102EC000118808BD49B1064B42681B6918605A60F9
:102ED000136043600420FFF7A7BE4FF0FF30704738
:102EE0008C3500200368984206D01A680260506052
:102EF00059611846FFF74CBE7047000038B50446CC
:102F00000D462068844200D138BD036823605C60B0
:102F10004561FFF73DFEF4E7054B03F114025A61EA
:102F20009A614FF0FF32DA6100221A62704700BFE7
:102F30008C350020F8B503614FF08043C2605C6AB5
:102F4000194B1A46022952F8145F38BF02219542E4
:102F500006461F460AD1586198611C6205604560AB
:102F600081600819BDE8F84000F0B2BA186AAB6891
:102F7000241A0C1902D3E41A2D6804E09C4202D2F0
:102F8000204400F0B3FAAB689C42F4D86B687360DD
:102F900035601E606E60B460A9684FF0FF33091B96
:102FA000A960FB61F8BD00BF8C35002010B41B4C3C
:102FB000234653F8141F814210D0416802680A600A
:102FC000026851609A424FF00001C16003D09368DB
:102FD00081680B4493605DF8044B70470A68626136
:102FE00000209A425360C86003D15DF8044B00F0A2
:102FF00077BA93688868034493604FF08042206AF0
:10300000526A121A9342E6D9991A012998BF931C61
:1030100018445DF8044B00F069BA00BF8C350020FD
:1030200000207047FEE70000704700004FF0FF30BF
:1030300070470000BFF34F8F024AD368DB03FCD414
:10304000704700BF003C024008B5094B1B7873B9BC
:10305000FFF7F0FF074B1A69002ABFBF064A5A6004
:1030600002F188325A601A6822F480621A6008BD40
:10307000C8370020003C02402301674508B50B4BD0
:103080001B7893B9FFF7D6FF094B1A6942F000424B
:103090001A611A6842F480521A601A6822F4805247
:1030A0001A601A6842F480621A6008BDC8370020AE
:1030B000003C02400F2870B513D80B4A0B4C137814
:1030C00063B90B4E4FF0006144F8231056F82350BB
:1030D0000133102B2944F7D10123137054F8200039
:1030E00070BD002070BD00BF0C380020CC37002020
:1030F000A4450008014B53F820007047A445000880
:10310000102070470F2810B5044601D9002010BDCB
:10311000FFF7D0FF064B53F824301844C21A0BB9FE
:10312000012010BD12680132F0D1043BF6E700BF68
:10313000A44500080F2810B5044629D8FFF77AFFE8
:10314000FFF782FF1349F323CB600C23B0FBF3F2AC
:1031500003FB1200D30143EAC003DBB243F4007364
:1031600043F002030B610B6943F480330B61FFF7FB
:1031700061FF2046FFF79EFF074B53F8241000F035
:103180000DF9FFF77BFF2046BDE81040FFF7BABFFF
:10319000002010BD003C0240A44500082DE9F84382
:1031A00012F00103154640D184182E4A94423CD8AF
:1031B0002D4B1B6813F0010337D02C4CFFF744FF55
:1031C000F323E360FFF736FF40F20127032D01D917
:1031D000830713D0254C0F46401A40F20118EB1B11
:1031E0000B44012B00EB0706236924D823F00103CD
:1031F0002361FFF743FF0120BDE8F883236923F42F
:103200004073236123693B43236151F8046B0660DB
:10321000BFF34F8FFFF70EFF03689E4208D023696C
:1032200023F001032361FFF729FF0020BDE8F883A5
:10323000043D0430CAE723F440732361236943EA61
:1032400008032361B94637F8023B3380BFF34F8F41
:10325000FFF7F0FE3688B9F80030B6B2B342BED000
:10326000DDE700BFFFFF170800380240003C0240C6
:10327000084908B50B7828B153B9FFF7E5FE0123DB
:103280000B7008BD23B1BDE808400870FFF7F6BE1B
:1032900008BD00BFC837002070B5FFF7ADFD0E4E6A
:1032A0004FF08043596A3368994210D20B4CD4E9ED
:1032B0000023003243F10103C4E90023541843F111
:1032C00000053160FFF7A2FD2046294670BD034B83
:1032D000D3E90023F2E700BF10380020183800209F
:1032E00008B5FFF7D9FF4FF47A720023FCF790FF7F
:1032F00008BD00BF10B50244064B0439D2B290425B
:1033000000D110BD441C00B253F8200041F8040F56
:10331000E0B2F4E750280040104B30B51C6F240495
:1033200007D41C6F44F400741C671C6F44F4004401
:103330001C670B4C236843F4807323600244094BE1
:103340000439D2B2904200D130BD441C00B251F8D1
:10335000045F43F82050E0B2F4E700BF00380240B9
:10336000007000405028004007B5012201A900204C
:10337000FFF7C0FF019803B05DF804FB13B50446E6
:10338000FFF7F2FFA04206D002A9012241F8044D46
:103390000020FFF7C1FF02B010BD00007047000021
:1033A000074B45F255521A6002225A6040F6FF72EE
:1033B0009A604CF6CC421A60024B01221A70704798
:1033C0000030004021380020034B1B781BB1034B19
:1033D0004AF6AA221A6070472138002000300040C7
:1033E000034B1B689B0042BF024B01221A707047BF
:1033F0007438024020380020024B4FF080721A606F
:10340000704700BF74380240014B1878704700BF06
:1034100020380020064A536823F001035360EFF37D
:103420000983683383F30988002383F31188704785
:1034300030EF00E010B5202383F31188104B5B6858
:1034400013F4006318D0F1EE103AEFF309844FF053
:10345000807344F84C3C0B4BDB6844F8083CA4F107
:10346000680383F30988FFF719FC18B1064B44F889
:10347000503C10BD054BFAE783F3118810BD00BF27
:1034800000ED00E030EF00E071060008740600086F
:1034900070470000FEE70000084A094B09498B42CB
:1034A00004D3094A0021934205D3704752F8040F10
:1034B00043F8040BF3E743F8041BF4E7A0470008C4
:1034C000F8400020F8400020F840002000F096B8B6
:1034D0004FF08043002258631A610222DA6070477D
:1034E0004FF080430022DA60704700004FF08043C5
:1034F000586370474B6843608B688360CB68C360D8
:103500000B6943614B6903628B6943620B6803601B
:103510007047000008B51F4B1F481A6942F0FF02B0
:103520001A611A6922F0FF021A611A691A6B42F0D5
:10353000FF021A631A6D42F0FF021A65174A1B6DEB
:103540001146FFF7D7FF164802F11C01FFF7D2FF23
:10355000144802F13801FFF7CDFF134802F154017E
:10356000FFF7C8FF114802F17001FFF7C3FF1048D1
:1035700002F18C01FFF7BEFF0E4802F1A801FFF730
:10358000B9FF0D4802F1C401FFF7B4FFBDE80840E0
:1035900000F09CB80038024000000240E4450008FA
:1035A0000004024000080240000C024000100240EB
:1035B0000014024000180240001C024008B500F050
:1035C000FDF9FFF797FBBDE80840FFF709BF0000D2
:1035D000704700004FF0804310B51A69920708D574
:1035E00000241C61202383F31188FFF7C1FB84F3BF
:1035F0001188BDE81040FFF71DBF0000104B1A6C8A
:1036000042F001021A641A6E42F001021A660D4A73
:103610001B6E936843F0010393604FF080433122A7
:103620009A624FF0FF32DA6200229A615A63DA60DE
:103630005A6001225A6108211A601C20FFF716BA4D
:1036400000380240002004E01E4B1A6962F0FF02BD
:103650001A611A69D2B21A614FF0FF301A695A69B9
:10366000586100215A6959615A691A6A62F0805298
:103670001A621A6A02F080521A621A6A5A6A586208
:103680005A6A59625A6A1A6C42F080521A641A6E67
:1036900042F080521A661A6E0B4A106840F480702D
:1036A0001060186F00F44070B0F5007F1EBF4FF43B
:1036B000803018671967536823F40073536000F073
:1036C0005DB900BF0038024000700040334B344AFF
:1036D0001A64344A4FF4404111601A6842F0010202
:1036E0001A601A689207FCD59A6822F003029A6061
:1036F0002A4B19469A6812F00C02FBD1186800F0A8
:10370000F90018609A601A6842F480321A600B68F7
:103710009B03FCD54B6F43F001034B671F4B5A6F64
:103720009007FCD5204A5A601A6842F080721A60ED
:103730001C4A53685904FCD5184B1A689201FCD5F1
:103740001A4A9A600422C3F88C200022C3F89420FD
:10375000174B1A68174B9A42174B1BD1174A11681F
:10376000174A914216D140F203121A600B4B9A6825
:1037700042F002029A609A6802F00C02082AFAD11A
:103780005A6C42F480425A645A6E42F480425A663D
:103790005B6E704740F20372E7E700BF00380240FB
:1037A0000004001000700040081940080094083818
:1037B000002004E011640020003C024000ED00E025
:1037C00041C20F41084A08B5536911680B4003F024
:1037D0000103536123B1054A13680BB15068984740
:1037E000BDE80840FFF726BE003C01400C35002034
:1037F000084A08B5536911680B4003F0020353618E
:1038000023B1054A93680BB1D0689847BDE80840DA
:10381000FFF710BE003C01400C350020084A08B5F7
:10382000536911680B4003F00403536123B1054A47
:1038300013690BB150699847BDE80840FFF7FABD1E
:10384000003C01400C350020084A08B55369116856
:103850000B4003F00803536123B1054A93690BB190
:10386000D0699847BDE80840FFF7E4BD003C01403F
:103870000C350020084A08B5536911680B4003F065
:103880001003536123B1054A136A0BB1506A98477C
:10389000BDE80840FFF7CEBD003C01400C350020DC
:1038A000174B10B55C691A68144004F478725A61B9
:1038B000A30604D5134A936A0BB1D06A98476006F1
:1038C00004D5104A136B0BB1506B9847210604D5F1
:1038D0000C4A936B0BB1D06B9847E20504D5094AAB
:1038E000136C0BB1506C9847A30504D5054A936C33
:1038F0000BB1D06C9847BDE81040FFF79BBD00BFEF
:10390000003C01400C3500201A4B10B55C691A6868
:10391000144004F47C425A61620504D5164A136DC2
:103920000BB1506D9847230504D5134A936D0BB125
:10393000D06D9847E00404D50F4A136E0BB1506E5A
:103940009847A10404D50C4A936E0BB1D06E9847EA
:10395000620404D5084A136F0BB1506F98472304D3
:1039600004D5054A936F0BB1D06F9847BDE810405E
:10397000FFF760BD003C01400C350020062108B572
:103980000846FFF773F806210720FFF76FF80621B6
:103990000820FFF76BF806210920FFF767F80621DA
:1039A0000A20FFF763F806211720FFF75FF80621CA
:1039B0002820BDE80840FFF759B8000008B5FFF718
:1039C00043FEFFF747F8FFF767F800F039F8FFF715
:1039D000FFFDBDE80840FFF779BD000002684368BD
:1039E0001143016003B1184770470000143000F024
:1039F000DFB900004FF0FF33143000F0D9B90000F8
:103A0000383000F055BA00004FF0FF33383000F086
:103A10004FBA0000143000F0A5B900004FF0FF319C
:103A2000143000F09FB90000383000F0FFB90000FA
:103A30004FF0FF32383000F0F9B900000020704735
:103A400000F0EAB837B50F4B036000234360836092
:103A5000C360012304460374154600900B464FF4DF
:103A6000007200F15C01143000F052F900942B4612
:103A70004FF4007204F5177104F1380000F0CAF930
:103A800003B030BDC446000838B5C36904460D46CE
:103A90001BB904210844FFF7A1FF294604F11400D3
:103AA00000F044F9002806DA201D4FF48061BDE8DB
:103AB0003840FFF793BF38BD026843681143016087
:103AC00003B1184770470000024AD36843F0C003AF
:103AD000D360704700100140024AD36843F0C0032E
:103AE000D3607047004400402DE9F041D0F85C6499
:103AF000F7683368DA0505469CB20DD5202383F3B9
:103B000011884FF400710430FFF7D6FF6FF4807313
:103B10003360002383F31188202383F3118805F198
:103B2000040814F02F0333D183F31188380615D518
:103B3000210613D5202383F3118805F1380000F006
:103B40009DF9002846DA0821281DFFF7B5FF4FF63A
:103B50007F733B40F360002383F311887A060ED510
:103B600063060CD5202383F31188EA6C2B6D9A42EF
:103B700002D12B6C002B2FD1002383F31188D5F8B1
:103B80006424D368002B31D01069BDE8F041184798
:103B9000230713D014F0080F0CBF00218021E00789
:103BA00048BF41F02001A20748BF41F04001630730
:103BB00048BF41F480714046FFF77EFFA40673685A
:103BC00005D595F8601428461940FFF75DFF346865
:103BD000A4B2A6E77060BEE727F040073F041021BB
:103BE000281D3F0CFFF768FFF760C5E7BDE8F081CF
:103BF00008B50348FFF778FFBDE80840FFF71ABC97
:103C00002438002008B50348FFF76EFFBDE80840E0
:103C1000FFF710BC8C3C002010B5094C094A204627
:103C20000021FFF70FFF084BC4F85C34074C084A2B
:103C300000212046FFF706FF064BC4F85C3410BD98
:103C400024380020C93A0008001001408C3C0020B4
:103C5000D93A000800440040F8B515468268066964
:103C6000AA420B46816938BF8568761AB542044678
:103C700007D218462A46FDF7FBFBA3692B44A36134
:103C80000DE011D932461846FDF7F2FBAF1B3A465C
:103C9000E1683044FDF7ECFBE2683A44A261A368B6
:103CA0005B1BA3602846F8BD18462A46FDF7E0FBDB
:103CB000E368E4E783682DE9F04104469342154642
:103CC000266938BF85684069361AB5420F4606D264
:103CD0002A46FDF7CDFB63692B4463610DE012D9E1
:103CE0003246A5EB0608FDF7C3FB4246B919E0686A
:103CF000FDF7BEFBE26842446261A3685B1BA36000
:103D00002846BDE8F0812A46FDF7B2FBE368E4E708
:103D100010B50A440024C361029B006040608460C7
:103D2000C160816141610261036210BD08B58269B1
:103D30004369934201D1826882B98268013282600C
:103D40005A1C42611970426903699A4201D3C368DF
:103D500043610021FFF7C6F8002008BD4FF0FF3097
:103D600008BD000070B5202304460E4683F3118879
:103D7000A568A5B1A368A269013BA360531CA36118
:103D800015782269934224BFE368A361E3690BB10C
:103D900020469847002383F31188284670BD31469A
:103DA0002046FFF78FF80028E2DA85F3118870BD0E
:103DB0002DE9F74F05460F4690469A46D0F81C90DD
:103DC000202686F311884FF0000B144664B122467A
:103DD00039462846FFF740FF034668B95146284652
:103DE000FFF770F80028F1D0002383F31188A8EBC7
:103DF000040003B0BDE8F08FB9F1000F03D00190CB
:103E00002846C847019B8BF31188E41A1F4486F3A8
:103E10001188DBE7C16081614161C3611144009B8E
:103E2000006040608260016103627047F8B504463B
:103E30000E461746202383F31188A568A5B1A36811
:103E4000013BA36063695A1C62611E702369626949
:103E50009A4224BFE3686361E3690BB12046984747
:103E6000002080F31188F8BD39462046FFF72AF874
:103E70000028E2DA85F31188F8BD00008369426901
:103E80009A4210B501D182687AB9826801328260A3
:103E90005A1C82611C7803699A4201D3C36883610A
:103EA0000021FFF71FF8204610BD4FF0FF3010BD76
:103EB0002DE9F74F05460F4690469A46D0F81C90DC
:103EC000202686F311884FF0000B144664B1224679
:103ED00039462846FFF7EEFE034668B951462846A4
:103EE000FEF7F0FF0028F1D0002383F31188A8EB40
:103EF000040003B0BDE8F08FB9F1000F03D00190CA
:103F00002846C847019B8BF31188E41A1F4486F3A7
:103F10001188DBE71FB51C46094B1B680546D868AE
:103F200052B1084B02928DE80A0022462B46064900
:103F3000FDF708FB00F042F8044B1A46F2E700BF19
:103F400010230020EC460008F9460008EC40000869
:103F500010B501390244904201D1002010BD10F883
:103F6000013B11F8014FA342F5D0181B10BD000012
:103F70002DE9F8430746884691461E468BB10D460B
:103F8000A8EB0500B54207EB000402D20020BDE813
:103F9000F883324649462046FFF7DAFF18B1013D63
:103FA000EEE7BDE8F8832046BDE8F883034611F844
:103FB000012B03F8012B002AF9D1704708B5062020
:103FC00000F02CF80120FFF72DF800001F2938B56C
:103FD00004460D4604D9162303604FF0FF3038BD68
:103FE000426C12B152F821304BB9204600F030F843
:103FF0002A4601462046BDE8384000F017B8012B9C
:104000000AD0591C03D116230360012038BD0024B7
:1040100042F8254028469847002038BD024B01460B
:104020001868FFF7D3BF00BF1023002038B5074C36
:1040300000230546084611462360FEF7F7FF431CA0
:1040400002D1236803B12B6038BD00BFF4400020CB
:10405000FEF7E6BF40A2E4F1646891064E6F20616E
:104060007070207369670A00426164206677206C73
:10407000656E6774682025750A0042616420626F6E
:104080006172645F69642025752073686F756C6464
:104090002062652025750A004261642066772064ED
:1040A000657363726970746F72206C656E67746893
:1040B0002025750A004261642061707020435243DC
:1040C000203078253038783A3078253038782030EC
:1040D00078253038783A3078253038780A00476FBC
:1040E0006F64206669726D776172650A0000000076
:1040F00072656365697665645F756E697175655F24
:1041000069645F6C656E203C2055415643414E5FAB
:1041100050524F544F434F4C5F44594E414D4943C9
:104120005F4E4F44455F49445F414C4C4F434154BF
:10413000494F4E5F554E495155455F49445F4D418A
:10414000585F4C454E475448002E2E2F2E2E2F548C
:104150006F6F6C732F41505F426F6F746C6F61644F
:1041600065722F63616E2E63707000616C6C6F639B
:10417000617465645F6E6F64655F6964203C3D20B7
:10418000313237006F72672E6172647570696C6FBF
:10419000742E514634314750535F563100000000B1
:1041A000766F69642068616E646C655F616C6C6FCA
:1041B000636174696F6E5F726573706F6E7365288B
:1041C00043616E617264496E7374616E63652A2C1B
:1041D0002043616E61726452785472616E736665D9
:1041E000722A2900012033000010410101105A01F8
:1041F000031059010710310163616E617264496EE9
:104200006974000063616E6172645365744C6F631E
:10421000616C4E6F646549440000000063616E612B
:10422000726448616E646C6552784672616D6500B7
:1042300063616E6172644465636F64655363616C4E
:104240006172000063616E617264456E636F6465E4
:104250005363616C61720000696E6372656D656EB7
:10426000745472616E73666572494400656E71754F
:1042700065756554784672616D6573007075736815
:104280005478517565756500707265706172654628
:104290006F724E6578745472616E73666572000059
:1042A000636F707942697441727261790000000035
:1042B0006465736361747465725472616E7366656C
:1042C000725061796C6F6164000000006672656510
:1042D000426C6F636B0000006269745F6C656E67AF
:1042E0007468203E20300072656D61696E696E678A
:1042F0005F62697473203E203000696E7075745F70
:104300006269745F6F6666736574203E3D20626CFF
:104310006F636B5F6269745F6F666673657400627A
:104320006C6F636B5F656E645F6269745F6F666616
:10433000736574203E20626C6F636B5F6269745FAB
:104340006F66667365740072656D61696E696E672C
:104350005F6269745F6C656E677468203C3D2072B3
:10436000656D61696E696E675F6269747300696E1D
:104370007075745F6269745F6F6666736574203C04
:104380003D207472616E736665722D3E7061796C4A
:104390006F61645F6C656E202A2038006F757470E1
:1043A00075745F6269745F6F6666736574203C3D07
:1043B0002036340072656D61696E696E675F62698F
:1043C000745F6C656E677468203D3D203000287214
:1043D0006573756C74203E203029202626202872B3
:1043E0006573756C74203C3D2036342920262620C8
:1043F00028726573756C74203C3D206269745F6C33
:10440000656E67746829000064657374696E617411
:10441000696F6E20213D202828766F6964202A2943
:1044200030290076616C756520213D202828766F43
:104430006964202A293029006F66667365745F7786
:10444000697468696E5F626C6F636B203C2028330F
:104450003255202D205F5F6275696C74696E5F6FE5
:1044600066667365746F66202843616E617264428C
:104470007566666572426C6F636B2C206461746153
:10448000292900006F75745F696E7320213D202813
:1044900028766F6964202A29302900007372635FCF
:1044A0006C656E203E203055000000002863616E70
:1044B0005F696420262030783146464646464646A7
:1044C0005529203D3D2063616E5F69640000000056
:1044D000616C6C6F6361746F722D3E73746174698B
:1044E00073746963732E63757272656E745F75732E
:1044F0006167655F626C6F636B73203E2030000004
:104500007472616E736665725F696420213D202854
:1045100028766F6964202A29302900007374617439
:10452000652D3E6275666665725F626C6F636B7364
:10453000203D3D202828766F6964202A29302900F3
:104540002E2E2F2E2E2F6D6F64756C65732F6C6958
:104550006263616E6172642F63616E6172642E6367
:10456000006974656D2D3E6672616D652E646174BF
:10457000615F6C656E203E20300000006D61696EE9
:10458000000000009C450008D0350020C8370020FE
:1045900001000000F12C00080000000069646C6557
:1045A000000000000040000000400000004000004B
:1045B00000400000000001000000020000000200B6
:1045C00000000200000002000000020000000200E3
:1045D00000000200000002000000020000000200D3
:1045E00000000200A000282800000000AAAAAAAA31
:1045F00050001400FFFF000000770000700700006B
:1046000000000A0000000000AAAAAAAA00000000F8
:10461000FFFF0000000000008800000000000040D4
:1046200000000000AAAAAAAA00000000FF7F000064
:10463000000000000000000000000000000000007A
:10464000AAAAAAAA00000000FFFF000000000000C4
:10465000000000000000000000000000AAAAAAAAB2
:1046600000000000FFFF000000000000000000004C
:104670000000000000000000AAAAAAAA0000000092
:10468000FFFF00000000000000000000000000002C
:1046900000000000AAAAAAAA00000000FFFF000074
:1046A000000000000000000000000000000000000A
:1046B0000A000000000000000300000000000000ED
:1046C0000000000000000000093A0008F539000869
:1046D000313A00081D3A0008293A0008153A000846
:1046E000013A0008ED3900083D3A00082C206675B3
:1046F0006E6374696F6E3A200061737365727469DA
:104700006F6E2022257322206661696C65643A20F1
:1047100066696C6520222573222C206C696E6520E9
:104720002564257325730A0018BBFF7F0100000074
:104730006400000000000000FE2A0100D204000016
:104740001423002000000000000000000000000012
:104750000000000000000000000000000000000059
:104760000000000000000000000000000000000049
:104770000000000000000000000000000000000039
:104780000000000000000000000000000000000029
:104790000000000000000000000000000000000019
:0447A0000000000015
:00000001FF
