:020000040800F2
:1000000000060020E10100083D0E0008410E000836
:10001000990E0008410E00086D0E0008E30100086B
:10002000E3010008E3010008E3010008692100087A
:10003000E3010008E3010008E3010008E301000810
:10004000E3010008E3010008E3010008E301000800
:10005000E3010008E3010008493200087532000896
:10006000A1320008CD320008F9320008E30100088F
:10007000E3010008E3010008E3010008E3010008D0
:10008000E3010008E3010008E3010008E3010008C0
:10009000E3010008E3010008E3010008253300083C
:1000A000E3010008E3010008E3010008E3010008A0
:1000B000BD300008E3010008E3010008E301000887
:1000C000E3010008E3010008E3010008E301000880
:1000D000E3010008E3010008E3010008E301000870
:1000E0008D330008E3010008E3010008E301000884
:1000F000E3010008E3010008E3010008E301000850
:10010000E3010008E3010008E3010008E30100083F
:10011000E3010008E3010008E3010008E30100082F
:10012000E3010008E3010008E3010008E30100081F
:10013000E3010008E3010008E3010008E30100080F
:10014000E3010008E3010008E3010008AD2800080E
:10015000E3010008E3010008E3010008E3010008EF
:10016000E3010008E3010008E3010008E3010008DF
:10017000E3010008E3010008E3010008E3010008CF
:10018000E3010008E3010008E3010008E3010008BF
:10019000E3010008E3010008E3010008E3010008AF
:1001A000E3010008E3010008E3010008E30100089F
:1001B000E3010008E3010008E3010008E30100088F
:1001C000E3010008E3010008E3010008E30100087F
:1001D000E3010008E3010008E3010008E30100086F
:1001E00002E000F000F8FEE772B6394880F30888B4
:1001F000384880F3098838484EF60851CEF200019D
:10020000086040F20000CCF200004EF63471CEF2ED
:1002100000010860BFF34F8FBFF36F8F40F2000003
:10022000C0F2F0004EF68851CEF200010860BFF334
:100230004F8FBFF36F8F4FF00000E1EE100A4EF6C4
:100240003C71CEF200010860062080F31488BFF3F1
:100250006F8F01F0E7FF02F08DFE4FF055301F4920
:100260001B4A91423CBF41F8040BFAE71C49194A6A
:1002700091423CBF41F8040BFAE71A491A4A1B4B5A
:100280009A423EBF51F8040B42F8040BF8E70020F5
:100290001749184A91423CBF41F8040BFAE701F0B4
:1002A000C5FF02F0C3FE144C144DAC4203DA54F8FF
:1002B000041B8847F9E700F041F8114C114DAC429E
:1002C00003DA54F8041B8847F9E701F0ADBF0000DA
:1002D000000600200022002000000008000000208E
:1002E00000060020A037000800220020282200205D
:1002F00028220020942D0020E0010008E0010008E1
:10030000E0010008E00100082DE9F04F2DED108A12
:10031000C1F80CD0C3689D46BDEC108ABDE8F08FD3
:10032000002383F311882846A047002001F048FBF2
:10033000FEE701F0C9FA00DFFEE700001A4B682271
:1003400070B51A701B2200245A700F229C70DC704A
:100350001C715C719C71DC711C725C729A72DC7233
:1003600001F0D4FE064601F0F9FE054650B90F4BE8
:100370009E4217D001339E4241F2883412BF054697
:1003800000240125002001F0CBFE0DB100F058F84B
:1003900000F028FD00F09EFB204600F0AFF800F0D2
:1003A0004FF8F9E70446EDE728220020010007B0E6
:1003B00008B500F061FBA0F120035842584108BD88
:1003C00007B5054B02211B88ADF8043001A800F0E9
:1003D00071FB03B05DF804FB7034000810B52023F6
:1003E00083F311881248C3680BB101F085FB002329
:1003F000104A0F484FF47A7101F02CFB002383F36D
:1004000011880D4C236813B12368013B2360636896
:1004100013B16368013B6360084B1B7833B96368B1
:1004200023B9022000F044FC3223636010BD00BFFA
:1004300034220020DD030008502300204822002041
:1004400010B5254B254953F8042F013200D110BDBA
:100450008B42F8D1224C234B22689A423AD9224B44
:100460009B6803F1006303F580339A4232D2002087
:1004700000F04AFB1D4B0220187000F00BFC1C4BD7
:100480001A6C00221A64196E1A66196E596C5A6435
:10049000596E5A665A6E5A6942F080025A615A6918
:1004A00022F080025A615A691A6942F000521A61B8
:1004B0001A6922F000521A611B6972B60D4A0E4B7E
:1004C00013601B682268202181F311889D4683F305
:1004D0000888104710BD00BFFCFF00081C00010881
:1004E00004000108FFFF0008282200204822002005
:1004F0000038024008ED00E0000001082DE9F04F4F
:1005000099B0B94D00902022FF2110A8AC6800F0EE
:100510000BFCB64A01951378A3B9B5480121C36015
:100520001170202383F31188C3680BB101F0E4FA42
:100530000023B04AAE484FF47A7101F08BFA0023E1
:1005400083F31188009BAC4A03B11360AB4B009D51
:10055000029300261E705660B2463746B14601200F
:1005600000F098FB002D00F02582A34B1B68002BA8
:1005700040F0208219B0BDE8F08F0220FFF718FF8D
:10058000002840F01082009B002E08BF1D469C4BA7
:1005900002211B88ADF82C300BA800F08BFADEE7A7
:1005A0004FF47A7000F068FAB0F10008EBDB02203B
:1005B000FFF7FEFE0028E6D008F1FF38B8F1040F7F
:1005C00000F2F381DFE808F0031E2124270018A8B9
:1005D000052340F8343D042100F06CFA012303FAAE
:1005E00008F848EA0A0A5FFA8AFA4FF0000900F0B0
:1005F000EFFB27B10AF00B030B2B08BF0025FFF719
:10060000DFFEACE704217848E6E704217D48E3E714
:1006100004217D48E0E74FF01C09484600F076FAD7
:1006200009F104090B9004210BA800F043FAB9F179
:100630002C0FF2D1D2E7002FA5D00AF00B030B2B21
:10064000A1D10220FFF7B4FE804600289BD00120F4
:100650006A4E00F059FA0220307000F01BFB0027B0
:100660005FFA87FB584600F05FFA054688B15846A6
:1006700000F06AFA01370028F2D146460025634BA4
:1006800002211B88ADF82C300BA800F013FA474666
:1006900065E701230220337000F0EEFA2C46019B3F
:1006A0009B689C4206D2204600F030FA0130E4D12B
:1006B0000434F4E7029B00241C704F4B46465C60F8
:1006C0004746254693E7002F3FF45DAF0AF00B0342
:1006D0000B2B7FF458AF029B0220187000F0DAFA5F
:1006E000322000F0C9F9B0F1000BFFF64CAF1BF05F
:1006F00003087FF448AF019B996804EB0B028A4220
:100700003FF641AFBBF5807F3FF63DAF404A0392D5
:10071000D8450FDA4FF47A7000F0AEF904900499DE
:100720000029FFF630AF039A049908F8021008F187
:100730000108ECE7C820FFF73BFE804600283FF4A5
:1007400022AF1F2C11D8C4F120075F4528BF5F4698
:1007500010AB24F003003A462D49184400F0BAFAD1
:100760003A46FF212A4800F0DFFA4FEAAB03DAB23B
:1007700027490393204600F0DFFA074600283FF49C
:100780007EAF039B04EB830431E70220FFF710FEEA
:1007900000283FF4F8AE00F0FDF900283FF4F3AE76
:1007A0004FF000084346019A9268904532D2B8F162
:1007B0001F0F12D8109A01320FD028F0030218A987
:1007C0000A4452F8202C0B92184604220BA900F080
:1007D00077FB08F104080346E5E74046039300F081
:1007E00095F9039B0B90EFE7282200204C23002073
:1007F00034220020DD03000850230020482200207E
:10080000723400082C2200203022002074340008AA
:100810004C22002018A8042140F84C3D00F04AF971
:10082000E5E618A8002340F8343D642100F038F9CB
:1008300000287FF4A8AE0220FFF7BAFD00283FF49D
:10084000A2AE0B9800F092F918AB43F8480D0421C2
:100850001846E3E718A8002340F8343D642100F06F
:100860001FF900287FF48FAE0220FFF7A1FD0028BA
:100870003FF489AE0B9800F087F918AB43F8440DAC
:10088000E5E70220FFF794FD00283FF47CAE00F07E
:1008900091F918AB43F8400DD9E70220FFF788FD26
:1008A00000283FF470AE0BA9142000F089F98046AF
:1008B00018A8042140F83C8D00F0FCF841460BA834
:1008C000ACE7322000F0D8F8B0F10008FFF65BAEDC
:1008D00018F0030F7FF457AE019A926808EB0903F2
:1008E00093423FF650AE0220FFF762FD00283FF42E
:1008F0004AAE28F00308C844C1453FF478AE4846E4
:1009000000F004F904210A900AA800F0D3F809F1D4
:100910000409F1E74FF47A70FFF74AFD00283FF42D
:1009200032AE00F037F9002842D0109B01330BD0D3
:10093000082210A9002000F0FFF9002838D020225A
:10094000FF2110A800F0F0F9FFF73AFD364801F05A
:100950003DF80FE6002F3FF416AE0AF00B030B2B09
:100960007FF411AE18A8002340F8343D642100F054
:1009700097F8804600287FF406AE0220FFF718FDA6
:1009800000283FF400AE0390FFF71AFD41F28830D3
:1009900001F01CF80B9800F04FFA00F019FA039BD5
:1009A00045461F46DBE5074621E64FF00009EAE52C
:1009B000B84664E6002000F05FF80490049B002B2A
:1009C000FFF6D0AD012000F057F9049B213B122B1C
:1009D0003FF6C5AD01A252F823F000BF7B05000829
:1009E000A1050008370600085F0500085F0500083C
:1009F0005F050008C7060008C30800088B07000849
:100A00002308000855080008830800085F0500084F
:100A10009B0800085F05000815090008EF0500089D
:100A20005F05000855090008A086010070B50F4B4E
:100A30000C4619780131C9B2012906460FD80C4875
:100A400003681D6A4FF47A73534331462246A84720
:100A5000844204D1074B00221A70012070BD4FF46C
:100A6000FA7000F0B3FF002070BD00BF002200202C
:100A7000C02500208423002007B502AB002203F824
:100A8000012D012102461846FFF7D0FF20B19DF845
:100A9000070003B05DF804FB4FF0FF30F9E70000FA
:100AA0000A4608B50421FFF7C1FF80F00100C0B27B
:100AB000404208BD30B4054C2368DD69044B0A464A
:100AC000AC460146204630BC604700BFC025002030
:100AD000A086010070B501F01DFA094C094E208076
:100AE000002530682388834208D901F00DFA336865
:100AF00005440133B5F5803F3360F2D370BD00BFCC
:100B0000862300205823002001F0B2BA00F10060D3
:100B100000F580300068704700F10060920000F539
:100B2000803001F03DBA0000054B1A68054B1B8868
:100B30009B1A834202D9104401F0E6B900207047A5
:100B4000582300208623002038B5074D0446286826
:100B5000204401F0E1F928B928682044BDE8384074
:100B600001F0F2B938BD00BF5823002010F0030394
:100B700008D1B0F5047F05D200F10050A0F508407F
:100B80000068704700207047014BC058704700BF95
:100B9000107AFF1F064991F8243033B10023082250
:100BA000086A81F82430FFF7B7BF0120704700BF03
:100BB0005C230020014B1868704700BF002004E050
:100BC00070B52A4B1C68C4F30B03240C63B140F2CC
:100BD0001342934231D040F2194293422FD040F257
:100BE000214293422DD10323214A0C2505FB0323E7
:100BF0005D6893F9082042F201039C4224D0B4F5C9
:100C0000805F23D041F201039C4221D041F20303D3
:100C10009C421FD041F207039C4208BF3122441E70
:100C20000C44013D0B46A3421ED215F9016F581C1E
:100C300096B1034600F8016CF5E70123D4E70223DF
:100C4000D2E73F220B4DD6E73322E3E74122E1E72B
:100C50005A22E4E75922E2E72C2584421D7001D98B
:100C6000981C5A70401A70BD1846FBE7002004E03B
:100C70008434000878340008022804D14FF0005270
:100C8000034B9A6170470128FCD14FF08042F7E78F
:100C900000080240022804D14FF40052034B9A612D
:100CA00070470128FCD14FF48042F7E7000802406A
:100CB000022805D1064A536983F4005353617047F3
:100CC0000128FCD1024A536983F48043F6E700BF50
:100CD0000008024010B50023934203D0CC5CC454FA
:100CE0000133F9E710BD000030B5441E14F9010FBF
:100CF0000B4660B193F90050854201F1010106D124
:100D00001AB993F90020801A30BD013AEEE7002AA3
:100D1000F7D1104630BD000002460346981A13F979
:100D2000011B0029FAD1704702440346934202D0C6
:100D300003F8011BFAE770472DE9F047234C94F8BC
:100D4000243005468846174683BB2E46DFF87C9044
:100D5000C7B394F824302BB92022FF2148462662DD
:100D6000FFF7E2FF94F82400C0F10805BD4228BF58
:100D70003D465FFA85FAAD0041462A4604EB800005
:100D8000FFF7A8FF94F82430A7EB0A079A445FFA0C
:100D90008AFABAF1080F2E44A844FFB284F824A0BE
:100DA000D6D1FFF7F7FE0028D2D108E0266A06EB7D
:100DB0008306B042CAD0FFF7EDFE0028C5D100205F
:100DC000BDE8F0870120BDE8F08700BF5C2300206C
:100DD000024B1A78024B1A70704700BF8423002020
:100DE0000022002038B5104D104C284600F004F9C0
:100DF0002146284600F02CF924680D48626DD2F88F
:100E0000043843F00203C2F8043800F0DFFD09495A
:100E1000204600F029FA626DD2F8043823F002036C
:100E2000C2F8043838BD00BFC0250020783500085E
:100E300040420F00A035000870470000FEE70000A8
:100E400000B59BB0EFF3098168226846FFF742FFC7
:100E5000EFF30583044B9A6BDA6A9A6A9A6A9A6A84
:100E60009A6A9A6A9B6AFEE700ED00E000B59BB0C3
:100E7000EFF3098168226846FFF72CFFEFF3058343
:100E8000044B9A6B9A6A9A6A9A6A9A6A9A6A9B6AF5
:100E9000FEE700BF00ED00E000B59BB0EFF3098175
:100EA00068226846FFF716FFEFF30583034B5A6B82
:100EB0009A6A9A6A9A6A9A6A9B6AFEE700ED00E06B
:100EC00030B5084D0A4491420BD011F8013B09247A
:100ED0005840013CF7D040F300032B4083EA500018
:100EE000F7E730BD2083B8ED002304491A465A5075
:100EF000C8180833802B4260F9D17047882300203E
:100F0000026843681143016003B11847704700004D
:100F100013B5446BD4F894341A681178042915D1A8
:100F2000217C022912D11979128901238B401342A5
:100F30000CD101A904F14C0001F020FFD4F8944435
:100F4000019B21790246206800F0DAF902B010BD59
:100F5000143001F0A3BE00004FF0FF33143001F055
:100F60009DBE00004C3001F075BF00004FF0FF3314
:100F70004C3001F06FBF0000143001F071BE000072
:100F80004FF0FF31143001F06BBE00004C3001F027
:100F900041BF00004FF0FF324C3001F03BBF00007A
:100FA000D0F8942438B5136819780429054601D07F
:100FB000012038BD017C0229FAD112795C89012017
:100FC00090400440F4D105F1140001F003FE024604
:100FD0000028EDD0D5F894544FF4807328686979CF
:100FE00000F07CF9204638BD406BFFF7D9BF000008
:100FF00000207047704700007FB5124B036000234C
:1010000043608360C360012502260F4B05740446CC
:101010000290019300F18402294600964FF48073F8
:10102000143001F0B3FD094B0193029400964FF484
:10103000807304F52372294604F14C0001F07AFE16
:1010400004B070BDD4340008E90F0008110F000887
:101050000B68202282F311880A7903EB82029061E7
:101060004A79093243F822008A7912B103EB8203EC
:10107000986102230374C0F89414002383F3118849
:101080007047000038B5037F044613B190F8543020
:10109000ABB9201D01250221FFF732FF04F1140036
:1010A00025776FF0010100F0B9FC84F8545004F189
:1010B0004C006FF00101BDE8384000F0AFBC38BD16
:1010C00010B5012104460430FFF71AFF00232377EF
:1010D00084F8543010BD000038B5044600251430A3
:1010E00001F06CFD04F14C00257701F03BFE201D62
:1010F00084F854500121FFF703FF2046BDE8384033
:10110000FFF74EBF90F8443003F06003202B19D155
:1011100090F84520212A0AD0222A4FF000030ED051
:10112000202A0FD1084A82630722C26304E0064BDB
:1011300083630723C3630023036401207047836331
:10114000C363F9E70020704701220020D0F89434EF
:1011500037B51A681178042904461AD1017C02298E
:1011600017D11979128901238B40134211D100F153
:101170004C05284601F0B6FE58B101A9284601F0F9
:10118000FDFDD4F89444019B21790246206800F0CB
:10119000B7F803B030BD000000EB8103F7B59C69E0
:1011A00005460E46F4B1202383F3118805EB86072C
:1011B000201D0821FFF7A4FEFB685B691B684C3407
:1011C00013B1204601F0E8FD01A9204601F0D6FD4B
:1011D000024648B1019B3146284600F091F80023B1
:1011E00083F3118803B0F0BDFB685A691268002AC6
:1011F000F5D01B8A013B1340F1D105F14402EAE727
:10120000093138B550F82140DCB1202383F311882F
:10121000D4F894241368527903EB8203DB689B694A
:101220005D6845B104216018FFF76AFE294604F1A4
:10123000140001F0D9FC2046FFF7B2FE002383F32F
:10124000118838BD7047000001F082B80123037097
:1012500000234360C36183620362C362436203632A
:10126000038143817047000038B50446202383F38F
:10127000118800254160C56005614561856101F007
:1012800077F80223237085F3118838BD70B500EB21
:10129000810305465069DA600E46144618B11022E3
:1012A0000021FFF741FDA06918B110220021FFF7CE
:1012B0003BFD31462846BDE8704001F023B90000EF
:1012C000028902F001020281428902F00102428198
:1012D000002202614261826101F0A8B9F0B400EB22
:1012E00081044789E4680125A4698D403D43458117
:1012F00023600023A2606360F0BC01F0C3B900006A
:10130000F0B400EB81040789E468012564698D402D
:101310003D43058123600023A2606360F0BC01F0BF
:101320003DBA000070B50223002504460370A0F802
:101330004C5080F84E5080F84F5005814581C56073
:1013400005614561856180F8345001F077F8636884
:101350001B6823B129462046BDE87040184770BD80
:10136000037880F850300523037043681B6810B57C
:1013700004460BB10421984700232381638110BDEB
:10138000436890F850201B6802700BB10521184784
:101390007047000090F8343070B5044613B1002354
:1013A00080F8343004F14402204601F061F96368AA
:1013B0009B6863BB94F8445015F0600615D194F80F
:1013C000453005F07F0545EA032540F202339D4292
:1013D00000F00E815BD8022D00F0DC803FD8002D9C
:1013E00000F08780012D00F0CF800021204601F021
:1013F00099FB0021204601F08BFB63681B6813B149
:10140000062120469847062384F8343070BD2046D4
:1014100098470028CED094F84B2094F84A3043EAFD
:101420000223E26B934238BFE36394F94430E56BE7
:10143000002B4FF0200380F2FD80002D00F0EC80A7
:10144000092284F8342083F311880021E36BA26B16
:101450002046FFF755FF002383F3118870BDB5F5D3
:10146000817F00F0B180B5F5407F49D0B5F5807F30
:10147000BBD194F84630012BB7D1B4F84C3023F0EF
:101480000203A4F84C30A663E6632664C3E740F287
:1014900001639D421ED8B5F5C06F3BD2B5F5A06F74
:1014A000A3D1B4F84430B3F5A06F0ED194F8463010
:1014B00084F84E30204601F019F863681B6813B1B8
:1014C000012120469847032323700023A363E3638D
:1014D0002364A0E7B5F5106F32D040F602439D4279
:1014E00052D0B5F5006F80D104F14F03A3630123FF
:1014F00024E004F14C03A3630223E36325648AE739
:1015000094F84630012B7FF470AFB4F84C3043F0C0
:101510000203B6E794F84920616894F848304D68B2
:1015200094F8471043EA0223204694F84620A8473F
:1015300000283FF45AAF4368A3630368E363A4E75A
:101540002378042B10D1202383F311882046FFF742
:10155000B7FE86F31188636884F84F601B68032127
:1015600021700BB12046984794F84630002BACD040
:1015700084F84F300423237063681B68002BA4D0C9
:10158000022120469847A0E7374BA3630223E36379
:1015900000239DE794F8481011F0800F204601F0D9
:1015A0000F010ED001F056F8012806D002287FF472
:1015B0001CAF2E4BA363E06367E72D4BA363E5638A
:1015C00063E701F039F8EFE794F84630002B7FF439
:1015D0000CAF94F8483013F00F013FF476AF1A06C1
:1015E000204602D501F0B2FA6FE701F0A5FA6CE7E8
:1015F00094F84630002B7FF4F8AE94F8483013F09E
:101600000F013FF462AF1B06204602D501F08AFAB3
:101610005BE701F07DFA58E7142284F8342083F365
:1016200011882B462A4629462046FFF757FE85F3A8
:10163000118870BD5DB1152284F8342083F31188C0
:101640000021E36BA26B2046FFF748FE03E70B2265
:1016500084F8342083F311882B462A4629462046F5
:10166000FFF74EFEE3E700BF04350008FC34000836
:101670000035000838B590F834300446152B29D8C9
:10168000DFE803F03E28282828283E28280B29399F
:1016900028282828282828283E3E90F84B1090F823
:1016A0004A20C36B42EA01229A4214D9C268128AC4
:1016B000B3FBF2F502FB15356DB9202383F31188D6
:1016C0002B462A462946FFF71BFE85F311880A237D
:1016D00084F8343038BD142384F83430202383F365
:1016E000118800231A4619462046FFF7F7FD00230C
:1016F00083F3118838BD036C03B198470023E7E7F3
:10170000002101F00FFA0021204601F001FA636880
:101710001B6813B10621204698470623D8E700002E
:1017200090F83420152A38B5044622D80123934076
:1017300040F6416213421DD113F480150FD19B0274
:1017400017D50B2380F83430202383F311882B46E0
:101750002A462946FFF7D4FD85F3118838BDC368B2
:101760009B695B682BB9036C03B19847002384F82D
:10177000343038BD002101F0D5F90021204601F0B8
:10178000C7F963681B6813B10621204698470623F2
:10179000EDE70000024B00221B605B609A6070471F
:1017A00008240020002303748268054B1B68996895
:1017B0009142FBD25A6803604260106058607047E3
:1017C0000824002008B5202383F31188037C032B11
:1017D00005D0042B0DD02BB983F3118808BD4369C4
:1017E00000221A604FF0FF334361FFF7DBFF002355
:1017F000F2E790E80C001A6002685360F2E700001C
:10180000002303748268054B1B6899689142FBD8DA
:101810005A680360426010605860704708240020D6
:10182000054B19690874186802681A6053601861DA
:1018300001230374FEF768BD0824002030B54B1C5B
:1018400087B005460A4C10D023690A4A01A800F067
:1018500001F92846FFF7E4FF049B13B101A800F04B
:101860004BF92369586907B030BDFFF7D9FFF8E796
:1018700008240020C517000838B50C4D41612B69BC
:1018800081689A689142044603D8BDE83840FFF762
:1018900089BF1846FFF7B4FF01232C61014623746A
:1018A0002046BDE83840FEF72FBD00BF08240020C9
:1018B000044B1A681B6990689B68984294BF00208B
:1018C000012070470824002010B5084C23682069C7
:1018D0001A6822605460012223611A74FFF790FF96
:1018E00001462069BDE81040FEF70EBD0824002027
:1018F000FEE7000010B50C4CFFF74CFF00F09CF821
:1019000080220A49204600F021F8012344F8180CEF
:10191000037400F039FC002383F3118862B6044895
:10192000BDE8104000F034B830240020083500082D
:101930001035000800F01AB9034B59685A68521A5A
:101940009042FBD8704700BF001000E08260022286
:1019500002740022427470478368A3F17C0243F84A
:101960000C2C026943F83C2C426943F8382C074A96
:1019700043F81C2CC26843F8102C022203F8082CF0
:10198000002203F8072CA3F1180070472103000878
:1019900010B5202383F31188FFF7DEFF00210446F2
:1019A000FFF76AFF002383F31188204610BD000073
:1019B000024B1B6958610F20FFF732BF082400203B
:1019C000202383F31188FFF7F3BF000008B5014619
:1019D000202383F311880820FFF730FF002383F3CF
:1019E000118808BD49B1064B42681B6918605A60EE
:1019F000136043600420FFF721BF4FF0FF307047B2
:101A0000082400200368984206D01A6802605060DB
:101A100059611846FFF7C6BE7047000038B5044646
:101A20000D462068844200D138BD036823605C60A5
:101A30004561FFF7B7FEF4E7054B03F114025A6165
:101A40009A614FF0FF32DA6100221A62704700BFDC
:101A500008240020F8B5274F0361C2600D460446F4
:101A600001F074FA3B46022D53F8142F294638BF73
:101A700002219A423E461D460AD138627C61BC6111
:101A8000084422606260A160BDE8F84001F04CBAF1
:101A9000D7F820E0A0EB0E035F181FD30027906853
:101AA000834217D8376AAA421F44376201D0C01A4E
:101AB000906073699A68914219D85A68236062608D
:101AC00014605C60A1609868411A99604FF0FF3320
:101AD000F361F8BD97601B1A1268E0E793689F42B4
:101AE00003D20EEB070001F02DFA3946E1E7891A1F
:101AF0001B68DFE70824002038B51B4B01685A69D2
:101B000090421D4603F114020CD044682160036822
:101B1000002193425C60C16025D09A6881680A44C4
:101B20009A6038BD59614A605B6900219342C16087
:101B300003D1BDE8384001F0FFB99A6881680A44D2
:101B40009A602C6A01F002FA6A699268001B82426C
:101B500009D9111A012998BF821C286ABDE83840AA
:101B6000104401F0EFB938BD082400202DE9F84FEA
:101B7000204C0027656904F11406B84601F0E6F927
:101B8000236AA0EB030AAB6853451DD84FF0200928
:101B9000236AAA68D5F80CB013442362AB68AAEB99
:101BA000030A2B68B3425E606361EF6001D101F00C
:101BB000C3F988F311882869D84789F311886569C2
:101BC000AB689A45E4D2D9E76369B34210D020628A
:101BD0009A68A2EB0A029A60226AAB68821A9B1A80
:101BE000022B2CBFC0180230BDE8F84F01F0AAB993
:101BF000BDE8F88F0824002000207047FEE70000B1
:101C0000704700004FF0FF3070470000022906D0F7
:101C1000032906D00129064818BF0020704705484F
:101C20007047032A9ABF044800EBC20000207047A7
:101C3000FC350008B03500080822002070B59AB0C5
:101C400001AD064608462946144600F095F8284698
:101C5000FFF762F8C0B2431C5B0086E818002370EF
:101C600003236370002302341946DAB2904204F170
:101C7000020401D81AB070BDEA5C04F8022C04F822
:101C8000011C0133F1E7000008B5202383F311881C
:101C90000348FFF75BFA002383F3118808BD00BFF8
:101CA000C025002010B50446052916D8DFE801F04C
:101CB00016150316161D202383F311880E4A0121E1
:101CC000FFF7E4FA20460D4A0221FFF7DFFA0C483D
:101CD000FFF702FA002383F3118810BD202383F35A
:101CE00011880748FFF7CEF9F4E7202383F3118822
:101CF0000348FFF7E5F9EDE73035000854350008F3
:101D0000C025002038B50C4D0C4C0D492A4604F175
:101D10000800FFF793FF05F1CA0204F1100009491A
:101D2000FFF78CFF05F5CA7204F118000649BDE8FB
:101D30003840FFF783BF00BF882A00200822002018
:101D4000803500088A3500089535000870B50446CE
:101D500008460D46FEF7E0FFC6B220460134037880
:101D60000BB9184670BD32462946FEF7BDFF002864
:101D7000F3D1012070BD00002DE9F84F05460C4657
:101D8000FEF7CAFF2A49C6B22846FFF7DFFF08B1AF
:101D90000136F6B227492846FFF7D8FF08B11036BA
:101DA000F6B2632E0DD8DFF88890DFF888A0224FB6
:101DB000DFF88CB0DFF88C802E7846B92670BDE84D
:101DC000F88F29462046BDE8F84F01F049BB252E83
:101DD00029D1072249462846FEF786FF40B9D8F8A0
:101DE00000302360D8F80430636007350834E3E737
:101DF000082251462846FEF777FFA0B90F4BA21CD8
:101E000013F8011F09095B45C95D02F8021C197826
:101E100001F00F0102F10202C95D02F8031CEFD1CB
:101E200018340835C8E7267001350134C4E700BF0F
:101E30001C360008953500082D3600080F7AFF1F64
:101E40001B7AFF1F24360008BFF34F8F024AD36866
:101E5000DB03FCD4704700BF003C024008B5094BCF
:101E60001B7873B9FFF7F0FF074B1A69002ABFBF51
:101E7000064A5A6002F188325A601A6822F4806277
:101E80001A6008BDE62C0020003C02402301674593
:101E900008B50B4B1B7893B9FFF7D6FF094B1A69AE
:101EA00042F000421A611A6842F480521A601A68BD
:101EB00022F480521A601A6842F480621A6008BDE7
:101EC000E62C0020003C02400B2870B513D80B4ACA
:101ED0000B4C137863B90B4E4FF0006144F823109C
:101EE00056F8235001330C2B2944F7D101231370EA
:101EF00054F8200070BD002070BD00BF182D0020D8
:101F0000E82C002040360008014B53F820007047B1
:101F1000403600080C2070470B2810B5044601D944
:101F2000002010BDFFF7D0FF064B53F824301844B3
:101F3000C21A0BB9012010BD12680132F0D1043B66
:101F4000F6E700BF403600080B2810B5044621D83C
:101F5000FFF77AFFFFF782FF0F4AF323D360C30036
:101F6000DBB243F4007343F002031361136943F4DB
:101F700080331361FFF768FFFFF7A6FF074B53F8A5
:101F8000241000F0DDF8FFF783FF2046BDE8104085
:101F9000FFF7C2BF002010BD003C024040360008E1
:101FA0002DE9F84312F00103154640D18218B2F131
:101FB000016F3CD22C4B1B6813F0010337D02B4C24
:101FC000FFF74CFFF323E360FFF73EFF40F20127EA
:101FD000032D01D9830713D0244C0F46401A40F239
:101FE0000118EB1B0B44012B00EB0706236924D8D7
:101FF00023F001032361FFF74BFF0120BDE8F883C5
:10200000236923F44073236123693B43236151F81F
:10201000046B0660BFF34F8FFFF716FF03689E4205
:1020200008D0236923F001032361FFF731FF00206B
:10203000BDE8F883043D0430CAE723F4407323610C
:10204000236943EA08032361B94637F8023B33802A
:10205000BFF34F8FFFF7F8FE3688B9F80030B6B2FD
:10206000B342BED0DDE700BF00380240003C024072
:10207000084908B50B7828B153B9FFF7EFFE0123E3
:102080000B7008BD23B1BDE808400870FFF700BF22
:1020900008BD00BFE62C002010B50244064B0439F1
:1020A000D2B2904200D110BD441C00B253F82000BF
:1020B00041F8040FE0B2F4E750280040104B30B56F
:1020C0001C6F240407D41C6F44F400741C671C6F3D
:1020D00044F400441C670B4C236843F48073236072
:1020E0000244094B0439D2B2904200D130BD441CA5
:1020F00000B251F8045F43F82050E0B2F4E700BFAB
:1021000000380240007000405028004007B501220E
:1021100001A90020FFF7C0FF019803B05DF804FBA0
:1021200013B50446FFF7F2FFA04206D002A9012230
:1021300041F8044D0020FFF7C1FF02B010BD0000C0
:1021400070470000034B1B689B0042BF024B0122FB
:102150001A70704774380240192D0020014B18780E
:10216000704700BF192D0020EFF3098305494A6825
:1021700022F001024A60683383F30988002383F365
:102180001188704730EF00E0202080F3118862B69C
:102190000B4B0C4AD96821F4E0610904090C0A438D
:1021A0000949DA60CA6842F08072CA6007490A6861
:1021B00042F001020A601022DA7783F822007047A9
:1021C00000ED00E00003FA05F0ED00E0001000E093
:1021D00010B5202383F311880E4B5B6813F4006362
:1021E00014D0F1EE103AEFF30984683C4FF080739D
:1021F000E361094BDB68236684F30988FFF758FB2A
:1022000010B1064BA36110BD054BFBE783F31188AA
:1022100010BD00BF00ED00E030EF00E03303000828
:102220003603000870470000FEE70000084A094B2B
:1022300009498B4204D3094A0021934205D37047D0
:1022400052F8040F43F8040BF3E743F8041BF4E7D8
:10225000C4370008942D0020942D0020942D0020D8
:10226000836D70B5446D9E6800214FF0FF354A01C3
:10227000A3180131D3F800090028BEBFD3F8000924
:1022800040F08040C3F80009D3F8000B0028BEBF1F
:10229000D3F8000B40F08040C3F8000BA3188E4227
:1022A000C3F80859C3F8085BE1D24FF00113C4F832
:1022B0001C3870BD890141F02001016103699B0652
:1022C000FCD41220FFF738BB204B03EB80022DE932
:1022D000F047D2F80CE05D6DDEF81420461CD2F811
:1022E00000C005EB063605EB4018516861450BD37D
:1022F000D5F83428012303FA00F022EA0000C5F8DB
:1023000034081846BDE8F087BEF81040ACEB010376
:10231000A34228BF2346D8F81849A4B2B3EB840FD0
:1023200010D894681F46A4F1040959F804AFC6F800
:1023300000A0042F01D9043FF7E71C440B4494602C
:102340005360D2E70020BDE8F08700BF1C2D0020BD
:1023500010B5054C2046FEF779FF4FF0A0436365AA
:10236000024BA36510BD00BF1C2D00209436000851
:102370000378012B70B5054650D12A4B446D984225
:102380001BD1294B5A6B42F080025A635A6D42F0BE
:1023900080025A655A6D5A6942F080025A615A6940
:1023A00022F080025A610E2143205B6900F0D8FBC5
:1023B0001E4BE3601E4BC4F800380023C4F8003EF7
:1023C000C02323606E6D4FF40413A3633369002BA5
:1023D000FCDA012333610C20FFF7AEFA3369DB0727
:1023E000FCD41220FFF7A8FA3369002BFCDA002690
:1023F000A6602846FFF734FF6B68C4F81068DB68F6
:10240000C4F81468C4F81C684BB90A4BA3614FF0B8
:10241000FF336361A36843F00103A36070BD064B03
:10242000F4E700BF1C2D002000380240401400409B
:1024300003002002003C30C0083C30C0F8B5446DB9
:10244000054600212046FFF735FFA96D00234FF018
:1024500001128F68C4F834384FF00066C4F81C28A5
:102460004FF0FF3004EB431201339F42C2F8006982
:10247000C2F8006BC2F80809C2F8080BF2D20B6868
:102480006A6DEB65636210231361166916F010061E
:10249000FBD11220FFF750FAD4F8003823F4FE6382
:1024A000C4F80038A36943F4402343F01003A36148
:1024B0000923C4F81038C4F814380A4BEB604FF005
:1024C000C043C4F8103B084BC4F8003BC4F8106983
:1024D000C4F80039EB6D03F1100243F48013EA6590
:1024E000A362F8BD7036000840800010426D90F87D
:1024F0004E10D2F8003823F4FE6343EA0113C2F809
:10250000003870472DE9F0410EB200EB86080D4609
:10251000D8F80C100F6807F00303022B50D0032BE0
:1025200050D03D4A3D4F012B18BF1746446D4FEA2E
:10253000451E04EB0E030022C3F8102B8A6905F137
:10254000100C002A40D04A8A05F158035B013A4337
:10255000E2500123D4F81C2803FA0CF31343A644D9
:102560004A69C4F81C380023CEF8103905F13F033E
:10257000002A39D00A8A898B9208012988BF4A43E8
:10258000C16D04EB8303561841EA0242C665294631
:102590005A602046FFF78EFED8F80C301B8A43EABB
:1025A00085531F4305F148035B01E7500123D4F82D
:1025B0001C2803FA05F51543C4F81C58BDE8F08142
:1025C000174FB3E7174FB1E704EB4613D3F8002BCF
:1025D00022F40042C3F8002BD4F81C28012303FA8C
:1025E0000CF322EA0303BAE704EB83030E4A5A60B2
:1025F00004EB461629462046FFF75CFED6F8003964
:1026000023F40043C6F80039D4F81C38012202FA3A
:1026100005F523EA0505CFE70080001000800410CF
:102620000080081000800C1000040002826D126807
:10263000C265FFF715BE00005831436D49015B5874
:1026400013F4004004D013F4001F14BF0120022033
:10265000704700004831436D49015B5813F4004056
:1026600004D013F4001F14BF0120022070470000A3
:1026700000EB8101CB68196A0B6813604B685360EB
:102680007047000000EB810330B5DD68AA6913686C
:10269000D36019B9402B84BF402313606B8A146840
:1026A000426D1C44013CB4FBF3F46343033323F059
:1026B000030302EB411043EAC44343F0C043C0F8B4
:1026C000103B2B6803F00303012B09B20ED1D2F8A3
:1026D000083802EB411013F4807FD0F8003B14BFA0
:1026E00043F0805343F00053C0F8003B02EB41122B
:1026F000D2F8003B43F00443C2F8003B30BD000079
:102700002DE9F041244D6E6D06EB40130446D3F8DD
:10271000087BC3F8087B38070AD5D6F814381907A0
:1027200006D505EB84032146DB6828465B6898479D
:10273000FA072FD5D6F81438DB072BD505EB840321
:10274000D968CCB98B69488A5E68B6FBF0F200FBA9
:1027500012628AB91868DA6890420DD2121A83E8B8
:102760001400202383F311880B482146FFF78AFFCA
:1027700084F31188BDE8F081012303FA04F26B8928
:1027800023EA02036B81CB6823B121460248BDE8EE
:10279000F0411847BDE8F0811C2D002000EB8103BB
:1027A00070B5DD68436D6C692668E6604A0156BB0A
:1027B0001A444FF40020C2F810092A6802F00302FC
:1027C000012A0AB20ED1D3F8080803EB421410F420
:1027D000807FD4F8000914BF40F0805040F00050D2
:1027E000C4F8000903EB4212D2F8000940F004409B
:1027F000C2F80009D3F83408012202FA01F10143BA
:10280000C3F8341870BD19B9402E84BF4020206031
:1028100020682E8A841940F00050013C1A44B4FB11
:10282000F6F440EAC440C6E7F8B504461E48456DD4
:1028300005EB4413D3F80869C3F80869F10717D505
:10284000D5F81038DA0713D500EB8403D9684B6943
:102850001F68DA68974218D2D21B00271A605F609F
:10286000202383F311882146FFF798FF87F311880F
:10287000330617D5D5F834280123A340134211D0CD
:102880002046BDE8F840FFF71FBD012303FA04F21C
:10289000038923EA020303818B68002BE8D02146D9
:1028A0009847E5E7F8BD00BF1C2D002097482DE9AB
:1028B000F84F456D6E69AB691E4016F4805F6E611E
:1028C000044605D0FEF72EFDBDE8F84FFFF780BCAB
:1028D000002E12DAD5F8003E8C489B071EBFD5F8B3
:1028E000003E23F00303C5F8003ED5F8043823F07A
:1028F0000103C5F80438FEF743FD370505D58348C5
:10290000FFF7AEFC8148FEF72BFDB0040CD5D5F8DF
:10291000083813F0060FEB6823F470530CBF43F430
:10292000105343F4A053EB60310704D56368DB68B0
:102930000BB176489847F2025AD4B3020CD5D4F8BA
:102940005480DFF8C8A100274FF00109A36D9B68F0
:10295000F9B28B4280F08780F70619D5616D0A6A5B
:10296000C2F30A1702F00F0302F4F012B2F5802F3F
:1029700000F0A180B2F5402F0AD104EB830301F5EA
:102980008051DB68186A00231A469F4240F0878016
:102990003003D5F8184813D5E10302D50020FFF71E
:1029A000AFFEA20302D50120FFF7AAFE630302D502
:1029B0000220FFF7A5FE270302D50320FFF7A0FEA4
:1029C000750381D5E00702D50020FFF72DFFA10791
:1029D00002D50120FFF728FF620702D50220FFF78A
:1029E00023FF23077FF570AF0320FFF71DFF6BE781
:1029F000D4F85480DFF814A100274FF00109A36D2B
:102A00009B685FFA87FB5B4597D308EB4B13D3F8C2
:102A1000002902F44022B2F5802F22D1D3F80029F8
:102A2000002A1EDAD3F8002942F09042C3F80029A8
:102A3000D3F80029002AFBDB5946606DFFF73AFC0A
:102A4000228909FA0BF322EA0303238104EB8B03A7
:102A5000DB689B6813B15946504698475846FFF7C4
:102A600033FC0137CBE708EB4112D2F8003B03F40B
:102A70004023B3F5802F10D1D2F8003B002B0CDAA5
:102A8000628909FA01F322EA0303638104EB8103FB
:102A9000DB68DB680BB150469847013756E79C0767
:102AA00008BF0A68072B98BF027003F101039CBF9F
:102AB000120A013069E7023304EB830201F5805109
:102AC000526890690268D0F808C04068A2EB000E16
:102AD0000022104697420AD104EB830463689B6985
:102AE0009A683A449A605A6817445F6050E712F057
:102AF000030F08BF0868964588BF8CF8000002F1F4
:102B0000010284BF000A0CF1010CE3E71C2D002038
:102B1000436D03EB4111D1F8003B43F40013C1F8BE
:102B2000003B7047436D03EB4111D1F8003943F48A
:102B30000013C1F800397047436D03EB4111D1F820
:102B4000003B23F40013C1F8003B7047436D03EBD7
:102B50004111D1F8003923F40013C1F8003970474E
:102B600000F1604300F01F02400903F561430901D1
:102B70008000C9B200F1604083F8001300F56140A5
:102B800001239340C0F880310360704730B5039C47
:102B90000172043304FB0325C361049B036300211A
:102BA000059B00604060C160426102618561046212
:102BB00042628162C162436330BD00000022416A0B
:102BC00041610161C2608262C2626FF00101FEF781
:102BD00025BF000003694269934203D1C2680AB16C
:102BE00000207047181D704703691960C2680132E0
:102BF000C260C269134482690361934224BF436A7D
:102C000003610021FEF7FEBE38B504460D46E368B9
:102C10003BB16269131D1268A3621344E362002092
:102C200038BD237A33B929462046FEF7DBFE00285B
:102C3000EDDA38BD6FF00100FBE70000C368C26940
:102C4000013BC3604369134482694361934224BFDB
:102C5000436A436100238362036B03B118477047E3
:102C600070B52023044683F31188866A3EB9FFF7C6
:102C7000CBFF054618B186F31188284670BDA36ABC
:102C8000E26A13F8015BA362934202D32046FFF786
:102C9000D5FF002383F31188EFE700002DE9F84FFB
:102CA00004460E4690469946202787F31188002552
:102CB000AA46D4F828B0BBF1000F09D149462046F6
:102CC000FFF7A2FF20B18BF311882846BDE8F88FEB
:102CD000A16AE36AA8EB050B5B1A9B4528BF9B46DC
:102CE000BBF1400F1BD9334601F1400251F8040BF0
:102CF00043F8040B9142F9D1A36A40334036A362F2
:102D00004035A26AE36A9A4202D32046FFF796FF53
:102D10008AF311884545D8D287F31188C9E7304630
:102D20005A46FDF7D7FFA36A5B445E44A3625D4445
:102D3000E7E7000010B5029C0172043303FB042195
:102D4000C36100238362C362039B0363049B00602F
:102D50004060C46042610261816104624262436317
:102D600010BD0000026AC260426A42610261002234
:102D70008262C2626FF00101FEF750BE43690269D0
:102D80009A4203D1C2680AB100207047184650F831
:102D9000043B0B6070470000C368C2690133C36025
:102DA0004369134482694361934224BF436A436188
:102DB0000021FEF727BE000038B504460D46E36843
:102DC0003BB123691A1DA262E2691344E362002049
:102DD00038BD237A33B929462046FEF703FE002882
:102DE000EDDA38BD6FF00100FBE700000369196000
:102DF000C268013AC260C2691344826903619342A6
:102E000024BF436A036100238362036B03B1184745
:102E10007047000070B5202304460E4683F31188E6
:102E2000856A35B91146FFF7C7FF10B185F31188E0
:102E300070BDA36A1E70A36AE26A01339342A36263
:102E400004D3E16920460439FFF7D0FF002080F366
:102E5000118870BD2DE9F84F04460D4691469A46FB
:102E60004FF0200888F311880026B346A76A4FB9AF
:102E700051462046FFF7A0FF20B187F31188304666
:102E8000BDE8F88FA06AE76AA9EB06033F1A9F42E4
:102E900028BF1F46402F1BD905F1400355F8042BCE
:102EA00040F8042B9D42F9D1A36A4033A362403617
:102EB000A26AE36A9A4204D3E16920460439FFF723
:102EC00095FF8BF311884E45D9D288F31188CDE751
:102ED00029463A46FDF7FEFEA36A3B443D44A36201
:102EE0003E44E5E7026943699A4203D1C3681BB9CE
:102EF000184670470023FBE7836A002BF8D0043B99
:102F00009B1AF5D01360C368013BC360C3691A44C0
:102F1000836902619A4224BF436A0361002383628A
:102F20000123E5E700F090B84FF08043002258639A
:102F30001A610222DA6070474FF080430022DA60A3
:102F4000704700004FF08043586370474FF0804354
:102F5000586A70474B6843608B688360CB68C36076
:102F60000B6943614B6903628B6943620B680360C1
:102F70007047000008B5224B22481A6940F2FF1141
:102F80000A431A611A6922F4FF7222F001021A61DF
:102F90001A691A6B0A431A631A6D0A431A651A4AA8
:102FA0001B6D1146FFF7D6FF184802F11C01FFF711
:102FB000D1FF174802F13801FFF7CCFF154802F1A5
:102FC0005401FFF7C7FF144802F17001FFF7C2FF79
:102FD000124802F18C01FFF7BDFF114802F1A80170
:102FE000FFF7B8FF0F4802F1C401FFF7B3FF0E4827
:102FF00002F1E001FFF7AEFFBDE8084000F0AAB81B
:103000000038024000000240A036000800040240E0
:1030100000080240000C0240001002400014024070
:1030200000180240001C02400020024008B500F0D9
:1030300007FAFEF75FFCFFF785F8BDE80840FEF7EA
:1030400061BE000070470000104B1A6C42F0010294
:103050001A641A6E42F001021A660D4A1B6E9368DA
:1030600043F0010393604FF0804353229A624FF084
:10307000FF32DA6200229A615A63DA605A600122F2
:103080005A6108211A601C20FFF76ABD003802400F
:10309000002004E04FF0804208B51369D1680B406E
:1030A000D9B2C9439B07116107D5202383F3118847
:1030B000FEF740FC002383F3118808BD08B5FFF735
:1030C000E9FFBDE80840FFF783B800001F4B1A690D
:1030D0006FEAC2526FEAD2521A611A69C2F3080249
:1030E0001A614FF0FF301A695A69586100215A6914
:1030F00059615A691A6A62F080521A621A6A02F0B9
:1031000080521A621A6A5A6A58625A6A59625A6A2C
:103110001A6C42F080521A641A6E42F080521A669B
:103120001A6E0B4A106840F480701060186F00F43B
:103130004070B0F5007F1EBF4FF4803018671967EC
:10314000536823F40073536000F05AB9003802400A
:1031500000700040334B4FF080521A64324A4FF4F3
:10316000404111601A6842F001021A601A68920721
:10317000FCD59A6822F003029A602A4B19469A6895
:1031800012F00C02FBD1186800F0F90018609A6088
:103190001A6842F480321A600B689B03FCD54B6FAF
:1031A00043F001034B671F4B5A6F9007FCD51F4A32
:1031B0005A601A6842F080721A601B4A53685904B8
:1031C000FCD5184B1A689201FCD5194A9A60194B24
:1031D0001A68194B9A42194B21D1194A1168194A98
:1031E00091421CD140F205121A60144A136803F090
:1031F0000F03052BFAD10B4B9A6842F002029A603A
:103200009A6802F00C02082AFAD15A6C42F4804201
:103210005A645A6E42F480425A665B6E704740F2BE
:103220000572E1E70038024000700040082A4007BC
:1032300000948838002004E011640020003C024023
:1032400000ED00E041C20F41084A08B5536911681A
:103250000B4003F00103536123B1054A13680BB11E
:1032600050689847BDE80840FEF7B2BF003C0140F7
:1032700088230020084A08B5536911680B4003F001
:103280000203536123B1054A93680BB1D068984794
:10329000BDE80840FEF79CBF003C014088230020A9
:1032A000084A08B5536911680B4003F004035361E1
:1032B00023B1054A13690BB150699847BDE808402E
:1032C000FEF786BF003C014088230020084A08B56D
:1032D000536911680B4003F00803536123B1054A99
:1032E00093690BB1D0699847BDE80840FEF770BFFD
:1032F000003C014088230020084A08B55369116842
:103300000B4003F01003536123B1054A136A0BB15C
:10331000506A9847BDE80840FEF75ABF003C01409C
:1033200088230020174B10B55C691A68144004F418
:1033300078725A61A30604D5134A936A0BB1D06A16
:103340009847600604D5104A136B0BB1506B984731
:10335000210604D50C4A936B0BB1D06B9847E2055C
:1033600004D5094A136C0BB1506C9847A30504D5DA
:10337000054A936C0BB1D06C9847BDE81040FEF73E
:1033800027BF00BF003C0140882300201A4B10B526
:103390005C691A68144004F47C425A61620504D5E1
:1033A000164A136D0BB1506D9847230504D5134A87
:1033B000936D0BB1D06D9847E00404D50F4A136E9E
:1033C0000BB1506E9847A10404D50C4A936E0BB113
:1033D000D06E9847620404D5084A136F0BB1506F42
:1033E0009847230404D5054A936F0BB1D06F9847D3
:1033F000BDE81040FEF7ECBE003C014088230020F1
:10340000062108B50846FFF7ABFB06210720FFF7AA
:10341000A7FB06210820FFF7A3FB06210920FFF7E1
:103420009FFB06210A20FFF79BFB06211720FFF7D1
:1034300097FB06212820BDE80840FFF791BB00005C
:1034400008B5FFF743FEFDF74FFDFDF7FDFEFDF765
:10345000D1FDFFF7F7FDBDE80840FFF763BD0000B1
:10346000034611F8012B03F8012B002AF9D170470C
:10347000121012131211000053544D3332463F3FC5
:103480003F00000000000000783400083F0000000A
:1034900013040000B43400083F00000019040000C9
:1034A000BE3400083F00000021040000C8340008BA
:1034B0003F00000053544D333246343078005354AB
:1034C0004D3332463432780053544D33324634341F
:1034D00036585800000000006D0F0008590F000812
:1034E000950F0008810F00088D0F0008790F000864
:1034F000650F0008510F0008F10F000800000000E0
:1035000001000000000000006D61696E0000000015
:103510002835000848240020C025002001000000B4
:10352000F11800080000000069646C6500000000EC
:1035300002000000000000009911000801120008BC
:1035400040004000582A0020682A002002000000A5
:103550000000000003000000000000004512000809
:103560000000000010000000782A00200000000089
:1035700001000000000000001C2D002001010200DD
:103580004172647550696C6F740025424F4152441A
:10359000252D424C002553455249414C2500000041
:1035A000A51C00080D1C000805110008891C000856
:1035B00043000000B835000809024300020100C0C2
:1035C0003209040000010202010005240010010577
:1035D00024010001042402020524060001070582DB
:1035E000030800FF09040100020A000000070501AA
:1035F00002400000070581024000000012000000A8
:10360000043600081201100102000040091241575F
:1036100000020102030100000403090425424F4196
:10362000524425005146344E395F53440030313204
:10363000333435363738394142434445460000007B
:10364000004000000040000000400000004000007A
:103650000000010000000200000002000000020063
:103660000000020000000200000002000000020052
:1036700000000000951300087516000821170008C7
:10368000400040007C2D00207C2D00200100000027
:103690008C2D00208000000040010000030000008D
:1036A0000000800200000000AAAAAAAA00000000F0
:1036B000FFFF00000000000000A00A00040000005E
:1036C00000000000AAAAAAAA04000000FFFF000050
:1036D00000000000000000000011011400000000C4
:1036E000AAAAAAAA00010100BF9F000000000000D2
:1036F000000000000000000000000000AAAAAAAA22
:1037000000000000FFFF00000000000000000000BB
:103710000000000000000000AAAAAAAA0000000001
:10372000FFFF00000000000000000000000000009B
:1037300000000000AAAAAAAA00000000FFFF0000E3
:103740000000000000000000000000000000000079
:10375000AAAAAAAA00000000FFFF000000000000C3
:103760000000000000000000000000000A0000004F
:103770000000000003000000000000000000000046
:103780000000000000000000000000000000000039
:103790000000000000000000000000000000000029
:1037A000FF00960000000008040000001836000822
:1037B0000000000000000000000000000000000009
:0837C000000000000000000001
:00000001FF
