:020000040800F2
:1000000000060020A1020008A10F0008A50F0008AB
:10001000FD0F0008A50F0008D10F0008A30200087B
:10002000A3020008A3020008A30200085D23000841
:10003000A3020008A3020008A3020008A30200080C
:10004000A3020008A3020008A3020008A3020008FC
:10005000A3020008A3020008DD37000809380008E1
:1000600035380008613800088D380008A302000800
:10007000A3020008A3020008A3020008A3020008CC
:10008000A3020008A3020008A3020008A3020008BC
:10009000A3020008A3020008A3020008B938000860
:1000A000A3020008A3020008A3020008A30200089C
:1000B000A3020008A3020008A3020008A30200088C
:1000C000A3020008A3020008A3020008A30200087C
:1000D000A3020008A3020008A3020008A30200086C
:1000E0001D390008A3020008A3020008A3020008AB
:1000F000A3020008A3020008A3020008A30200084C
:10010000A3020008A302000891390008A302000816
:10011000A3020008A3020008A3020008A30200082B
:10012000A3020008A3020008A3020008A30200081B
:10013000A3020008A3020008A3020008A30200080B
:10014000A3020008A3020008A3020008A3020008FB
:10015000A3020008A3020008A3020008A3020008EB
:10016000A3020008A3020008A3020008A3020008DB
:10017000A3020008FD2E0008A3020008A302000845
:10018000A3020008A3020008A3020008A3020008BB
:10019000A3020008A3020008A3020008A3020008AB
:1001A000A3020008A3020008A3020008A30200089B
:1001B000A3020008A3020008A3020008A30200088B
:1001C000A3020008A3020008A3020008A30200087B
:1001D000A3020008E92E0008A3020008A3020008F9
:1001E000A3020008A3020008A3020008A30200085B
:1001F000A3020008A3020008A3020008A30200084B
:10020000A3020008A3020008A3020008A30200083A
:10021000A3020008A3020008A3020008A30200082A
:10022000A3020008A3020008A3020008A30200081A
:10023000A3020008A3020008A3020008A30200080A
:10024000A3020008A3020008A3020008A3020008FA
:10025000A3020008A3020008A3020008A3020008EA
:10026000A3020008A3020008A3020008A3020008DA
:10027000A3020008A3020008A3020008A3020008CA
:10028000A3020008A3020008A3020008A3020008BA
:10029000A3020008A3020008A3020008A3020008AA
:1002A00002E000F000F8FEE772B6394880F30888F3
:1002B000384880F3098838484EF60851CEF20001DC
:1002C000086040F20000CCF200004EF63471CEF22D
:1002D00000010860BFF34F8FBFF36F8F40F2000043
:1002E000C0F2F0004EF68851CEF200010860BFF374
:1002F0004F8FBFF36F8F4FF00000E1EE100A4EF604
:100300003C71CEF200010860062080F31488BFF330
:100310006F8F02F087F803F03BF84FF055301F491C
:100320001B4A91423CBF41F8040BFAE71C49194AA9
:1003300091423CBF41F8040BFAE71A491A4A1B4B99
:100340009A423EBF51F8040B42F8040BF8E7002034
:100350001749184A91423CBF41F8040BFAE702F0F2
:10036000A5F803F095F8144C144DAC4203DA54F898
:10037000041B8847F9E700F041F8114C114DAC42DD
:1003800003DA54F8041B8847F9E702F08DB800003F
:1003900000060020002200200000000800000020CD
:1003A00000060020483D00080022002044220020D2
:1003B0004822002068420020A0020008A002000895
:1003C000A0020008A00200082DE9F04F2DED108AD0
:1003D000C1F80CD0D0F80CD0BDEC108ABDE8F08F7D
:1003E000002383F311882846A047002001F0B2FBC8
:1003F000FEE701F033FB00DFFEE7000038B51F4CDD
:100400006A23002523701B23A57063701E23E570EB
:1004100025716571A571E57125726572A372E5722A
:1004200000F0DCFC20B10E2325726572A372E57228
:1004300001F056FF044601F08BFF0546D0B9104B82
:100440009C4219D001339C4241F2883412BF0546C8
:1004500000240125002001F04DFF0DB100F05AF8F5
:1004600000F070FD00F002FC204600F013F900F0EF
:1004700051F8F9E70024EDE70446EBE748220020B5
:10048000010007B008B500F0C3FBA0F120035842FB
:10049000584108BD054B07B51B88022101A8ADF8DE
:1004A000043000F0D3FB03B05DF804FB403A0008D1
:1004B00010B5202383F311881248C3680BB101F0F3
:1004C000E5FB0023104A4FF47A710E4801F08CFBD3
:1004D000002383F311880D4C236813B12368013B7B
:1004E0002360636813B16368013B6360084B1B784A
:1004F00033B9636823B9022000F08CFC32236360B7
:1005000010BD00BF54220020B10400087023002059
:1005100068220020554B56492DE9F04153F8042F2D
:10052000013201D1BDE8F0818B42F7D1514C524BE1
:1005300022689A4240F29880504B9B6803F1006316
:1005400003F500339A4280F08F80002000F0AAFB70
:1005500002204B4B187000F051FC4A4BD3F8E820B6
:100560000022C3F8E820D3F81011C3F81021D3F803
:100570001011D3F8EC10C3F8EC20D3F81411C3F821
:100580001421D3F81411D3F8F010C3F8F020D3F8E5
:100590001811C3F81821D3F81811D3F8801041F0BE
:1005A0000061C3F88010D3F8801021F00061C3F817
:1005B0008010D3F88010D3F8801041F00071C3F898
:1005C0008010D3F8801021F00071C3F88010D3F8A8
:1005D000803072B62C4B2D490B601D682468BFF328
:1005E0004F8FBFF36F8F2A4BC3F88420BFF34F8F19
:1005F0005A6922F480325A61BFF34F8FD3F88020BA
:1006000043F6E07EC2F3C906C2F34E32B707520189
:1006100002EA0E0838463146013948EA000C00F17A
:100620004040B1F1FF3FC3F874C2F5D1203A12F156
:10063000200FEDD1BFF34F8FBFF36F8FBFF34F8FFD
:10064000BFF36F8F5A6922F400325A610022C3F857
:100650005022BFF34F8FBFF36F8F202383F3118896
:10066000AD4685F308882047BDE8F081FCFF01080E
:100670001C00020804000208FFFF010848220020B5
:1006800068220020004402580000020808ED00E043
:1006900000ED00E02DE9F04F99B0B94D2022FF2187
:1006A000009010A8AC6800F0EFFBB64A01951378F3
:1006B000A3B90121B4481170C360202383F31188CA
:1006C000C3680BB101F0E2FA0023B04A4FF47A712B
:1006D000AD4801F089FA002383F31188009BAC4AEE
:1006E00003B113600026AB4B009DB2463746B146BE
:1006F0001E7056600293012000F080FB002D00F078
:100700002582A34B1B68002B40F0208219B0BDE866
:10071000F08F0220FFF7B6FE002840F01082009B09
:1007200002210BA8002E08BF1D469B4B1B88ADF86D
:100730002C3000F08BFADEE74FF47A7000F068FAA4
:10074000B0F10008EBDB0220FFF79CFE0028E6D0AA
:1007500008F1FF38B8F1040F00F2F381DFE808F088
:10076000031E2124270018A80523042140F8343D46
:1007700000F06CFA01234FF0000903FA08F848EA88
:100780000A0A5FFA8AFA00F0D3FB27B10AF00B03DA
:100790000B2B08BF0025FFF77DFEACE7042178484E
:1007A000E6E704217D48E3E704217D48E0E74FF0D8
:1007B0001C09484609F1040900F076FA04210B905F
:1007C0000BA800F043FAB9F12C0FF2D1D2E7002FB9
:1007D000A5D00AF00B030B2BA1D10220FFF752FE8C
:1007E000804600289BD001206A4E00F05BFA00276B
:1007F0000220307000F002FB5FFA87FB584600F0E1
:1008000061FA054688B15846013700F06BFA0028B6
:10081000F2D146460025634B02210BA847461B88B0
:10082000ADF82C3000F012FA65E701232C460220C7
:10083000337000F0D5FA019B9B689C4206D220469B
:1008400000F032FA0130E4D10434F4E70024029BD2
:10085000464647461C7025464D4B5C6093E7002F8B
:100860003FF45DAF0AF00B030B2B7FF458AF02206F
:10087000029B187000F0C2FA322000F0C9F9B0F102
:10088000000BFFF64CAF1BF003087FF448AF019B51
:1008900004EB0B0299688A423FF641AFBBF5807FBB
:1008A0003FF63DAF404AD84503920FDA4FF47A70D5
:1008B00000F0AEF9049004990029FFF630AF0499D6
:1008C000039A08F8021008F10108ECE7C820FFF7C6
:1008D000D9FD804600283FF422AF1F2C11D8C4F167
:1008E000200710AB24F003002F495F45184428BFB0
:1008F0005F463A4600F0A0FA3A46FF212A4800F047
:10090000C3FA4FEAAB0328492046DAB2039300F05A
:10091000C3FA074600283FF47EAF039B04EB830431
:1009200031E70220FFF7AEFD00283FF4F8AE00F0FB
:10093000F3F900283FF4F3AE4FF000084346019A64
:100940009268904532D2B8F11F0F12D8109A013236
:100950000FD028F0030218A90A4452F8202C0B9259
:10096000184604220BA908F1040800F05BFB0346BB
:10097000E5E74046039300F097F9039B0B90EFE700
:10098000482200206C23002054220020B1040008DB
:100990007023002068220020423A00084C220020E8
:1009A00050220020443A00086C22002018A804219C
:1009B00040F84C3D00F04AF9E5E618A80023642110
:1009C00040F8343D00F038F900287FF4A8AE02204A
:1009D000FFF758FD00283FF4A2AE0B9800F094F901
:1009E00018AB43F8480D04211846E3E718A8002384
:1009F000642140F8343D00F01FF900287FF48FAEE9
:100A00000220FFF73FFD00283FF489AE0B9800F06D
:100A10007DF918AB43F8440DE5E70220FFF732FDFE
:100A200000283FF47CAE00F087F918AB43F8400D86
:100A3000D9E70220FFF726FD00283FF470AE0BA98E
:100A4000142000F07FF9804618A8042140F83C8D5E
:100A500000F0FCF841460BA8ACE7322000F0D8F8D3
:100A6000B0F10008FFF65BAE18F0030F7FF457AE4D
:100A7000019A08EB0903926893423FF650AE0220B8
:100A8000FFF700FD00283FF44AAE28F00308C844F1
:100A9000C1453FF478AE484609F1040900F004F975
:100AA00004210A900AA800F0D1F8F1E74FF47A7017
:100AB000FFF7E8FC00283FF432AE00F02DF90028E3
:100AC00042D0109B01330BD0082210A9002000F067
:100AD000E3F9002838D02022FF2110A800F0D4F933
:100AE000FFF7D8FC364801F03BF80FE6002F3FF443
:100AF00016AE0AF00B030B2B7FF411AE18A80023DF
:100B0000642140F8343D00F097F8804600287FF4D7
:100B100006AE0220FFF7B6FC00283FF400AE0390BB
:100B2000FFF7B8FC41F28830454601F019F80B9800
:100B300000F034FA00F0FCF9039B1F46DBE50746A2
:100B400021E64FF00009EAE5B84664E6002000F02F
:100B50005FF80490049B002BFFF6D0AD012000F05D
:100B60003FF9049B213B122B3FF6C5AD01A252F881
:100B700023F000BF1307000839070008CF0700085B
:100B8000F7060008F7060008F70600085F080008E7
:100B90005B0A000823090008BB090008ED090008EA
:100BA0001B0A0008F7060008330A0008F7060008C9
:100BB000AD0A000887070008F7060008ED0A0008DC
:100BC000A08601000F4B70B50C461978064601311E
:100BD000C9B201290FD80C48314603681D6A4FF489
:100BE0007A7353432246A847844204D10022074B1C
:100BF00001201A7070BD4FF4FA7000F0B1FF0020B0
:100C000070BD00BF00220020E0250020A4230020AA
:100C100007B5002202AB012103F8012D0246184658
:100C2000FFF7D0FF20B19DF8070003B05DF804FB8B
:100C30004FF0FF30F9E700000A46042108B5FFF73E
:100C4000C1FF80F00100C0B2404208BD30B4054C85
:100C50000A46014623682046DD69034BAC4630BC9A
:100C6000604700BFE0250020A0860100F8B50A4CCF
:100C700000250A4E01F01AFA094F208030682388B7
:100C8000834207D901F00EFA336805440133BD42AF
:100C90003360F3D9F8BD00BFA623002078230020DD
:100CA000FFFF010001F0D0BA00F1006000F5003054
:100CB0000068704700F10060920000F5003001F01C
:100CC00051BA0000054B1A68054B1B889B1A8342DA
:100CD00002D9104401F0E6B90020704778230020C3
:100CE000A623002038B5074D04462868204401F0AB
:100CF000DFF928B928682044BDE8384001F0EAB996
:100D000038BD00BF7823002000207047014BC05839
:100D1000704700BF00E8F11F064991F8243033B155
:100D200000230822086A81F82430FFF7C3BF01209E
:100D3000704700BF7C230020014B1868704700BF3C
:100D40000010005C234BF0B5234C1B682788C3F3CD
:100D50000B0665681B0C94F90820BE4228D0A789B1
:100D6000BE4206D101220C2505FB0244656894F9B8
:100D7000082041F20104A3421CD041F20304A34223
:100D80001AD042F20104A34218D042F20304A34253
:100D900008BF5622441E013D0B460C44A34217D205
:100DA00015F9016F581C5EB1034600F8016CF5E7B8
:100DB0000022D8E75A22EDE75922EBE75822E9E76B
:100DC0002C2584421D7001D9981C5A70401AF0BD20
:100DD0001846FBE70010005C04220020002070474A
:100DE000022804D14FF48022034B9A6170470128F6
:100DF000FCD14FF40022F7E700080258022803D183
:100E00000422034B9A6170470128FCD10822F8E7BD
:100E100000080258022805D1064A536983F00403EA
:100E2000536170470128FCD1024A536983F00803DB
:100E3000F6E700BF00080258002310B5934203D024
:100E4000CC5CC4540133F9E710BD000030B5441E3A
:100E500014F9010F0B4658B193F900500131854246
:100E600006D11AB993F90020801A30BD013AEFE794
:100E7000002AF7D1104630BD02460346981A13F9EE
:100E8000011B0029FAD1704702440346934202D065
:100E900003F8011BFAE770472DE9F047234C05469C
:100EA0008846174694F8243083BB2E46DFF87C90A2
:100EB000C7B394F824302BB92022FF21484626627C
:100EC000FFF7E2FF94F824004146C0F1080504EB67
:100ED0008000BD4228BF3D465FFA85FAAD00A7EB12
:100EE0000A072A462E44FFF7A7FF94F82430A844A7
:100EF000FFB29A445FFA8AFABAF1080F84F824A084
:100F0000D6D1FFF709FF0028D2D108E0266A06EB08
:100F10008306B042CAD0FFF7FFFE0028C5D10020EB
:100F2000BDE8F0870120BDE8F08700BF7C230020EA
:100F3000024B1A78024B1A70704700BFA42300209E
:100F40000022002038B5114D114C284600F006F95A
:100F50002146284600F02EF924680E48D4F8902047
:100F6000D2F8043843F00203C2F8043800F0F8FD68
:100F70000949204600F030FAD4F89020D2F804381D
:100F800023F00203C2F8043838BD00BFE02500207A
:100F9000083B000840420F00303B0008704700004B
:100FA000FEE7000000B59BB0EFF3098168226846B8
:100FB000FFF742FFEFF30583044B9A6BDA6A9A6AF4
:100FC0009A6A9A6A9A6A9A6A9B6AFEE700ED00E05A
:100FD00000B59BB0EFF3098168226846FFF72CFF4C
:100FE000EFF30583044B9A6B9A6A9A6A9A6A9A6A33
:100FF0009A6A9B6AFEE700BF00ED00E000B59BB077
:10100000EFF3098168226846FFF716FFEFF30583C7
:10101000034B5A6B9A6A9A6A9A6A9A6A9B6AFEE7C3
:1010200000ED00E030B50A44074D91420BD011F8B5
:10103000013B09245840013CF7D040F300032B400A
:1010400083EA5000F7E730BD2083B8ED0023044960
:101050001A465A50C81808334260802BF9D170479D
:10106000A8230020026843681143016003B11847B8
:101070007047000037B5446B41F6A40563591A6800
:101080001178042914D1217C022911D11979012365
:1010900012898B4013420BD101A904F14C0002F0DC
:1010A00075F864590246019B2179206800F0ECF93B
:1010B00003B030BD143001F0F9BF00004FF0FF3332
:1010C000143001F0F3BF00004C3002F0CBB8000048
:1010D0004FF0FF334C3002F0C5B80000143001F07F
:1010E000C7BF00004FF0FF31143001F0C1BF000056
:1010F0004C3002F097B800004FF0FF324C3002F055
:1011000091B8000070B541F6A406054682591368EF
:101110001978042901D0012070BD017C0229FAD17F
:10112000127901205C8990400440F4D105F114004B
:1011300001F058FF02460028EDD0AD594FF440733E
:101140002868697900F08EF9204670BD406BFFF782
:10115000D9BF000000207047704700007FB5124BD8
:1011600001250426044603600023057400F184026F
:10117000436029468360C3600C4B02901430019396
:101180004FF44073009601F009FF094B04F69442B6
:101190002946019304F14C004FF4407302940096E9
:1011A00001F0D0FF04B070BD643A00084D11000892
:1011B000751000080A68202383F311880B790B331C
:1011C00042F823004B79133342F823008B7913B193
:1011D0000B3342F8230041F6A403C15002230374E9
:1011E000002383F31188704738B5037F044613B199
:1011F00090F85430ABB90125201D0221FFF732FFD2
:1012000004F1140025776FF0010100F0D1FC84F89F
:10121000545004F14C006FF00101BDE8384000F07B
:10122000C7BC38BD10B5012104460430FFF71AFFD2
:101230000023237784F8543010BD000038B50446ED
:101240000025143001F0C2FE04F14C00257701F0B6
:1012500091FF201D84F854500121FFF703FF204621
:10126000BDE83840FFF74EBF90F8803003F06003D0
:10127000202B19D190F88120212A0AD0222A4FF060
:1012800000030ED0202A0FD1084A42670722826746
:1012900004E0064B4367072383670023C3670120ED
:1012A000704743678367F9E7002070471C220020DE
:1012B00073B541F6A405044643591A681178042908
:1012C00019D1017C022916D11979012312898B4089
:1012D000134210D100F14C06304602F00BF850B129
:1012E00001A9304601F052FF64590246019B217961
:1012F000206800F0C9F802B070BD000001F10B03D6
:10130000F7B550F8234005460E46F4B1202383F389
:10131000118805EB8607201D08214C34FFF7A2FE3B
:10132000FB685B691B6813B1204601F03DFF01A912
:10133000204601F02BFF024648B1019B314628466A
:1013400000F0A2F8002383F3118803B0F0BDFB681E
:101350005A691268002AF5D01B8A013B1340F1D16B
:1013600005F18002EAE70000133138B550F821405A
:10137000E4B1202383F3118841F6A403E2581368F3
:10138000527903EB8203DB689B695D6845B10421F8
:101390006018FFF767FE294604F1140001F02CFEE7
:1013A0002046FFF7AFFE002383F3118838BD00000D
:1013B0007047000001F00EB9012300F1300200F186
:1013C000500103700023436042F8043B8A42D3611A
:1013D000FAD103814381704738B50446202383F353
:1013E0001188002500F10C0300F13002416043F840
:1013F000045B9342FBD1204601F00EF902232370D7
:1014000085F3118838BD000070B500EB81030546F7
:1014100050690E461446DA6018B110220021FFF719
:1014200033FDA06918B110220021FFF72DFD3146D0
:101430002846BDE8704001F001BA0000038900F1C0
:101440003002002103F001030381438903F001030B
:10145000438100F1100343F8041B9342FBD101F0D8
:1014600085BA0000F0B4012500EB810447898D4066
:10147000E4683D43A469458123600023A260636062
:10148000F0BC01F0A1BA0000F0B4012500EB81042A
:1014900007898D40E4683D4364690581236000232A
:1014A000A2606360F0BC01F019BB0000022300F1F0
:1014B0000C0200F1300110B5037004460023A0F8BF
:1014C000883080F88A3080F88B300381438142F87D
:1014D000043B8A42FBD184F87030204601F042F987
:1014E00063681B6823B120460021BDE810401847FF
:1014F00010BD0000037880F88C300523037043682A
:101500001B6810B504460BB10421984700232381C2
:10151000638110BD436890F88C201B6802700BB18A
:10152000052118477047000090F8703070B50446E8
:1015300013B1002380F8703004F18002204601F0DE
:1015400039FA63689B6863BB94F8805015F06006B5
:1015500015D194F8813005F07F0545EA032540F266
:1015600002339D4200F00E815BD8022D00F0DC803A
:101570003FD8002D00F08780012D00F0CF800021A2
:10158000204601F0D1FC0021204601F0C1FC636837
:101590001B6813B1062120469847062384F8703053
:1015A00070BD204698470028CED094F8872094F844
:1015B000863043EA0223A26F934238BFA36794F9AF
:1015C0008030A56F002B4FF0200380F2FD80002DAE
:1015D00000F0EC80092284F8702083F31188002148
:1015E000A36F626F2046FFF74FFF002383F311883C
:1015F00070BDB5F5817F00F0B180B5F5407F49D071
:10160000B5F5807FBBD194F88230012BB7D1B4F807
:10161000883023F00203A4F888306667A667E6677F
:10162000C3E740F201639D421ED8B5F5C06F3BD2BF
:10163000B5F5A06FA3D1B4F88030B3F5A06F0ED18B
:1016400094F88230204684F88A3001F0E9F8636823
:101650001B6813B101212046984703232370002300
:101660006367A367E367A0E7B5F5106F32D040F674
:1016700002439D4252D0B5F5006F80D104F18B0337
:101680006367012324E004F18803E56763670223AD
:10169000A3678AE794F88230012B7FF470AFB4F827
:1016A000883043F00203B6E794F88520204661684D
:1016B00094F884304D6843EA022394F8831094F838
:1016C0008220A84700283FF45AAF43686367036845
:1016D000A367A4E72378042B10D1202383F3118878
:1016E0002046FFF7ABFE86F311886368032184F878
:1016F0008B601B6821700BB12046984794F88230AC
:10170000002BACD084F88B300423237063681B68F3
:10171000002BA4D0022120469847A0E7374B6367EF
:101720000223A36700239DE794F88410204611F05C
:10173000800F01F00F010ED001F02EF9012806D024
:1017400002287FF41CAF2E4BA067636767E72D4B21
:10175000A567636763E701F011F9EFE794F882305A
:10176000002B7FF40CAF94F8843013F00F013FF49A
:1017700076AF1A06204602D501F0EEFB6FE701F0C6
:10178000DFFB6CE794F88230002B7FF4F8AE94F81E
:10179000843013F00F013FF462AF1B06204602D5E0
:1017A00001F0C2FB5BE701F0B3FB58E7142284F8B9
:1017B000702083F311882B462A4629462046FFF7DE
:1017C00051FE85F3118870BD5DB1152284F870203B
:1017D00083F311880021A36F626F2046FFF742FE5A
:1017E00003E70B2284F8702083F311882B462A46E6
:1017F00029462046FFF748FEE3E700BF943A000879
:101800008C3A0008903A000838B590F870300446D9
:10181000152B29D8DFE803F03E28282828283E2861
:10182000280B293928282828282828283E3E90F8DF
:10183000871090F88620836F42EA01229A4214D9D9
:10184000C268128AB3FBF2F502FB15356DB920238D
:1018500083F311882B462A462946FFF715FE85F3A8
:1018600011880A2384F8703038BD142384F870304E
:10187000202383F31188002320461A461946FFF7D8
:10188000F1FD002383F3118838BDC36F03B198477E
:101890000023E7E7002101F047FB0021204601F08B
:1018A00037FB63681B6813B106212046984706235F
:1018B000D8E7000090F87020152A38B5044622D8E1
:1018C0000123934040F6416213421DD113F4801569
:1018D0000FD19B0217D50B2380F87030202383F3A0
:1018E00011882B462A462946FFF7CEFD85F311883D
:1018F00038BDC3689B695B682BB9C36F03B1984758
:10190000002384F8703038BD002101F00DFB002168
:10191000204601F0FDFA63681B6813B106212046DA
:1019200098470623EDE70000024B00221B605B6036
:101930009A60704728240020002382680374054BB6
:101940001B6899689142FBD25A680360426010603C
:10195000586070472824002008B5202383F311889D
:10196000037C032B05D0042B0DD02BB983F31188F6
:1019700008BD436900221A604FF0FF334361FFF74F
:10198000DBFF0023F2E790E80C001A600268536066
:10199000F2E70000002382680374054B1B68996816
:1019A0009142FBD85A6803604260106058607047EB
:1019B00028240020054B19690874186802685360D0
:1019C0001A60186101230374FEF7FEBC282400206E
:1019D0004B1C30B5054687B00A4C10D0236901A8CE
:1019E000094A00F001F92846FFF7E4FF049B13B110
:1019F00001A800F04BF92369586907B030BDFFF723
:101A0000D9FFF8E7282400205919000838B50C4DF3
:101A1000044641612B6981689A68914203D8BDE808
:101A20003840FFF789BF1846FFF7B4FF01232C6148
:101A3000014623742046BDE83840FEF7C5BC00BF10
:101A400028240020044B1A681B6990689B68984200
:101A500094BF0020012070472824002010B5084CB6
:101A6000236820691A6854602260012223611A7475
:101A7000FFF790FF01462069BDE81040FEF7A4BCC7
:101A800028240020FEE7000010B50C4CFFF74CFFA7
:101A900000F09CF880220A49204600F021F801233A
:101AA00044F8180C037400F069FC002383F31188D8
:101AB00062B60448BDE8104000F034B8502400205D
:101AC000983A0008A03A000800F01AB9034B596888
:101AD0005A68521A9042FBD8704700BF001000E0CD
:101AE0008260022202740022427470478368A3F16C
:101AF0007C0243F80C2C026943F83C2C426943F801
:101B0000382C074A43F81C2CC268A3F1180043F88C
:101B1000102C022203F8082C002203F8072C70472F
:101B2000E103000810B5202383F31188FFF7DEFFDF
:101B300000210446FFF76AFF002383F31188204643
:101B400010BD0000024B1B6958610F20FFF732BF28
:101B500028240020202383F31188FFF7F3BF00001F
:101B600008B50146202383F311880820FFF730FFD2
:101B7000002383F3118808BD49B1064B42681B69F5
:101B800018605A60136043600420FFF721BF4FF0D4
:101B9000FF307047282400200368984206D01A6856
:101BA0000260506018465961FFF7C6BE70470000DA
:101BB00038B504460D462068844200D138BD03681C
:101BC00023605C604561FFF7B7FEF4E7054B03F166
:101BD00014025A619A614FF0FF32DA6100221A62F0
:101BE000704700BF28240020F8B5274F0D46036139
:101BF0000446C2603E4601F0B5FB3B46022D294635
:101C000053F8142F38BF02219A421D460AD1386278
:101C100008447C61BC6122606260A160BDE8F8405C
:101C200001F08ABBD7F820E0A0EB0E035F181FD3AA
:101C300000279068834217D8376AAA421F44376248
:101C400001D0C01A906073699A68914219D85A6895
:101C50002360626014605C60A1609868411A9960BA
:101C60004FF0FF33F361F8BD97601B1A1268E0E78D
:101C700093689F4203D20EEB070001F06DFB3946DB
:101C8000E1E7891A1B68DFE72824002038B51B4BE1
:101C900001685A691D46904203F114020CD0446851
:101CA00021600021036893425C60C16025D09A687E
:101CB00081680A449A6038BD59614A6000215B69B5
:101CC000C160934203D1BDE8384001F03FBB9A6840
:101CD00081680A449A602C6A01F044FB6A69001B1F
:101CE0009268824209D9111A012998BF821C286A78
:101CF000BDE83840104401F02FBB38BD2824002037
:101D00002DE9F84F204C0027656904F11406B84608
:101D100001F028FB236AA0EB030AAB6853451DD8EA
:101D20004FF02009236AAA68D5F80CB01344236247
:101D3000AB68AAEB030A2B68B3425E606361EF6095
:101D400001D101F003FB88F311882869D84789F392
:101D500011886569AB689A45E4D2D9E76369B342F3
:101D600010D020629A68A2EB0A029A60226AAB68DD
:101D7000821A9B1A022B2CBFC0180230BDE8F84F04
:101D800001F0EABABDE8F88F28240020002070474F
:101D9000FEE70000704700004FF0FF307047000082
:101DA000022906D0032906D00129064818BF0020C1
:101DB000704705487047032A9ABF044800EBC200E9
:101DC000002070478C3B0008403B00082422002084
:101DD00070B59AB006460846144601AD294600F093
:101DE00095F82846FFF748F8C0B2431C5B0086E828
:101DF000180023700323023404F8013C0023194621
:101E0000DAB20234904201D81AB070BDEA5C0133F4
:101E100004F8011C04F8022CF2E7000008B52023A6
:101E200083F311880348FFF743FA002383F31188F3
:101E300008BD00BFE025002010B50446052916D8CE
:101E4000DFE801F016150316161D202383F3118811
:101E50000E4A0121FFF7D8FA20460D4A0221FFF76A
:101E6000D3FA0C48FFF7EAF9002383F3118810BD79
:101E7000202383F311880748FFF7B6F9F4E72023FE
:101E800083F311880348FFF7CDF9EDE7C03A000866
:101E9000E43A0008E025002038B50C4D0C4C2A46E9
:101EA0000C4904F10800FFF793FF05F1CA0204F1A1
:101EB00010000949FFF78CFF05F5CA7204F11800FC
:101EC0000649BDE83840FFF783BF00BFB83E002099
:101ED00024220020103B00081A3B0008253B000884
:101EE00070B5044608460D46FEF7C6FFC6B220464A
:101EF000013403780BB9184670BD32462946FEF707
:101F0000A5FF0028F3D1012070BD00002DE9F84F96
:101F100005460C46FEF7B0FF2C49C6B22846FFF72F
:101F2000DFFF08B10536F6B229492846FFF7D8FF8A
:101F300008B11036F6B2632E0DD8DFF89080DFF8C6
:101F40009090244FDFF894A0DFF894B02E7846B933
:101F50002670BDE8F88F29462046BDE8F84F01F00D
:101F600067BD252E2ED1072241462846FEF76EFF7B
:101F700070B9DBF8003007350C3444F80C3CDBF862
:101F8000043044F8083CDBF8083044F8043CDDE752
:101F9000082249462846FEF759FF98B9A21C0E4B65
:101FA00013F8011F023209095345C95D02F8041CE8
:101FB000197801F00F01C95D02F8031CF0D1183443
:101FC0000835C3E7267001350134BFE7AC3B000894
:101FD000253B0008C13B0008FFE7F11F0BE8F11F9C
:101FE000B43B0008BFF34F8F044B1A695107FCD173
:101FF000D3F810215207F8D1704700BF00200052DB
:1020000008B50D4B1B78ABB9FFF7ECFF0B4BDA684B
:10201000D10704D50A4A5A6002F188325A60D3F8CF
:102020000C21D20706D5064AC3F8042102F18832F2
:10203000C3F8042108BD00BF164100200020005253
:102040002301674508B5114B1B78F3B9104B1A698A
:10205000510703D5DA6842F04002DA60D3F8102164
:10206000520705D5D3F80C2142F04002C3F80C21E9
:10207000FFF7B8FF064BDA6842F00102DA60D3F8E6
:102080000C2142F00102C3F80C2108BD16410020CA
:10209000002000520F289ABF00F580604004002005
:1020A000704700004FF40030704700001020704768
:1020B0000F2808B50BD8FFF7EDFF00F500330268D5
:1020C000013204D104308342F9D1012008BD00203F
:1020D00008BD00000F2810B504463FD8FFF782FF67
:1020E000FFF78EFF1E484FF0FF33072C4361C0F807
:1020F00014311DD80361FFF775FF230243F0240359
:10210000C360C36843F08003C36003695A07FCD40B
:10211000FFF768FF2046FFF7BDFF4FF4003100F0E6
:10212000F9F8FFF78FFF2046BDE81040FFF7C0BF6A
:10213000C0F81031FFF756FFA4F108031B0243F06B
:102140002403C0F80C31D0F80C3143F08003C0F800
:102150000C31D0F810315B07FBD4D9E7002010BD5B
:10216000002000522DE9F84F40EA02030546894657
:102170009046DB065AD122F0030203460244934202
:1021800005D1FFF73DFF4E46DFF8B8B042E01968D1
:1021900001314BD10433F2E7264A05F17843264852
:1021A0009342264B264F88BF9A46A3F1FC039CBF5F
:1021B000DA46184603F1F80388BF1F46FFF712FFFF
:1021C0004FF0FF3306F11C02A5EB060E03603B68DF
:1021D00043F002033B60331FDAF8004014F00504BB
:1021E000FAD153F8041F9A424EF80310F4D1BFF30A
:1021F0004F8FFFF7F7FE4FF0FF3320223146036089
:1022000028463B6823F002033B6001F001FC58B90B
:1022100020352036A8EB06034B441F2BBCD80120E9
:10222000FFF710FFBDE8F88F2046F9E70020BDE872
:10223000F88F00BFFFFF0F00142100521021005241
:102240000C2000521020005210B5084C237828B101
:1022500053B9FFF7D5FE0123237010BD23B12070C1
:10226000BDE81040FFF7EEBE10BD00BF16410020D4
:1022700002440439064BD2B210B5904200D110BDD1
:10228000441C00B253F8200041F8040FE0B2F4E718
:10229000504000580F4B30B51C6F240405D41C6F00
:1022A0001C671C6F44F400441C670B4C0244043947
:1022B0002368D2B243F480732360084B904200D16C
:1022C00030BD441C51F8045F00B243F82050E0B226
:1022D000F4E700BF0044025800480258504000583C
:1022E00007B5012201A90020FFF7C2FF019803B042
:1022F0005DF804FB13B50446FFF7F2FFA04206D0D9
:1023000002A90122002041F8044DFFF7C3FF02B0EB
:1023100010BD00000144BFF34F8F064B884204D329
:10232000BFF34F8FBFF36F8F7047C3F85C0220304D
:10233000F4E700BF00ED00E0034B1B685B0142BF08
:102340000122024B1A707047D044025817410020F6
:10235000014B1878704700BF17410020EFF3098345
:10236000054968334A6822F001024A6083F309880C
:10237000002383F31188704730EF00E0202080F3C2
:10238000118862B60D4B0E4AD96821F4E061090448
:10239000090C0A430B49DA60CA6842F08072CA60CD
:1023A000094A0A49C2F8B01F116841F001011160E1
:1023B0001022DA7783F82200704700BF00ED00E0BA
:1023C0000003FA05F0ED00E0001000E055CEACC5CA
:1023D00010B5202383F311880E4B5B6813F4006360
:1023E00014D0F1EE103AEFF309844FF08073683C9B
:1023F000E361094BDB68236684F30988FFF722FB5E
:1024000010B1064BA36110BD054BFBE783F31188A8
:1024100010BD00BF00ED00E030EF00E0F303000866
:10242000F6030008F0B5BFF34F8FBFF36F8F1D4B5E
:102430000021C3F85012BFF34F8FBFF36F8F5A695B
:1024400042F400325A61BFF34F8FBFF36F8FC3F86E
:102450008410BFF34F8FD3F8802043F6E076C2F3A9
:10246000C904C2F34E32A507520102EA060E2846FD
:1024700021464EEA0007013900F14040C3F860727E
:102480004F1CF6D1203A12F1200FEED1BFF34F8F3F
:102490005A6942F480325A61BFF34F8FBFF36F8F96
:1024A000F0BD00BF00ED00E0FEE70000084A094B68
:1024B00009498B4204D3094A0021934205D370474E
:1024C00052F8040F43F8040BF3E743F8041BF4E756
:1024D000883D0008684200206842002068420020D1
:1024E000D0F89430002170B5D0F890404FF0FF350F
:1024F0009E684A01A318D3F80009002805DAD3F82A
:10250000000940F08040C3F80009D3F8000B002810
:1025100005DAD3F8000B40F08040C3F8000B01311E
:10252000A3188E42C3F80859C3F8085BE1D24FF0F4
:102530000113C4F81C3870BD00EB81032DE9F04F86
:10254000D3F80CE04F1C4FEA4118DEF814403F036B
:10255000D4F800C06568D0F8902065450AD3012002
:10256000D2F8343800FA01F123EA0101C2F8341834
:10257000BDE8F08FACEB0503BEF81060B34228BF96
:10258000334602EB0806D6F81869B6B2B3EB860FED
:1025900013D8A6683A449946A6F1040A5AF804BF2B
:1025A000B9F1040FC2F800B002D9A9F10409F5E7A6
:1025B0001E442B44A6606360CCE70020BDE8F08F8A
:1025C000890141F02001016103699B06FCD41220BE
:1025D000FFF77CBA10B50A4C2046FEF7EDFE094B1A
:1025E000C4F89030084BC4F89430084C2046FEF7ED
:1025F000E3FE074BC4F89030064BC4F8943010BD8E
:102600001841002000000840F83B0008B4410020B9
:1026100000000440043C00080378012B70B5054617
:102620005DD1494BD0F89040984259D1474B0E218B
:102630006520D3F8D82042F00062C3F8D820D3F840
:10264000002142F00062C3F80021D3F80021D3F842
:10265000802042F00062C3F88020D3F8802022F06E
:102660000062C3F88020D3F8803000F081FC384B42
:10267000E360384BC4F800380023D5F89060C4F804
:10268000003EC02323604FF40413A3633369002B7F
:10269000FCDA01230C203361FFF718FA3369DB07FA
:1026A000FCD41220FFF712FA3369002BFCDA002663
:1026B0002846A660FFF714FF6B68C4F81068DB6853
:1026C000C4F81468C4F81C68002B3AD1224BA361EB
:1026D0004FF0FF336361A36843F00103A36070BD53
:1026E0001E4B9842C8D1194B0E214D20D3F8D8204B
:1026F00042F00072C3F8D820D3F8002142F00072F3
:10270000C3F80021D3F80021D3F8802042F00072F2
:10271000C3F88020D3F8802022F00072C3F8802014
:10272000D3F88020D3F8D82022F08062C3F8D820D4
:10273000D3F8002122F08062C3F80021D3F80031E1
:1027400093E7074BC3E700BF18410020004402583D
:102750004014004003002002003C30C0B44100207F
:10276000083C30C0F8B5D0F89040054600214FF045
:1027700000662046FFF724FFD5F8941000234FF0A1
:1027800001128F684FF0FF30C4F83438C4F81C28A9
:1027900004EB431201339F42C2F80069C2F8006B98
:1027A000C2F80809C2F8080BF2D20B68D5F89020DD
:1027B000C5F89830636210231361166916F010068D
:1027C000FBD11220FFF782F9D4F8003823F4FE631E
:1027D000C4F80038A36943F4402343F01003A36115
:1027E0000923C4F81038C4F814380B4BEB604FF0D1
:1027F000C043C4F8103B094BC4F8003BC4F810694F
:10280000C4F80039D5F8983003F1100243F480136E
:10281000C5F89820A362F8BDD43B000840800010A2
:10282000D0F8902090F88A10D2F8003823F4FE6394
:1028300043EA0113C2F80038704700002DE9F04167
:102840000EB20D4600EB8608D8F80C100F6807F0A2
:102850000303022B53D0032B53D03F4A3F4F012B8E
:1028600018BF1746D0F890404FEA451E002205F1E8
:10287000100C04EB0E03C3F8102B8A69002A42D017
:102880004A8A05F158033A435B01E2500123D4F828
:102890001C2803FA0CF31343C4F81C38A644002385
:1028A0004A69CEF8103905F13F03002A3BD00A8A65
:1028B00004EB8303898B9208012988BF4A43D0F82F
:1028C0009810561841EA02422946C0F898602046FE
:1028D0005A60FFF775FED8F80C301B8A43EA85531F
:1028E0001F4305F148035B01E7500123D4F81C287E
:1028F00003FA05F51543C4F81C58BDE8F081184FDC
:10290000B0E7184FAEE704EB4613D3F8002B22F4E0
:102910000042C3F8002B0123D4F81C2803FA0CF35F
:1029200022EA0303B8E704EB83030F4A04EB4616DD
:1029300029465A602046FFF743FED6F800390122A7
:1029400023F4004302FA05F5C6F80039D4F81C3820
:1029500023EA0505CFE700BF0080001000800410C7
:102960000080081000800C1000040002D0F89420B1
:102970001268C0F89820FFF7B3BD00005831D0F8B6
:10298000903049015B5813F4004004D013F4001F49
:1029900014BF0120022070474831D0F8903049011F
:1029A0005B5813F4004004D013F4001F14BF01203F
:1029B0000220704700EB8101CB68196A0B68136035
:1029C0004B6853607047000000EB810330B5DD6851
:1029D000AA691368D36019B9402B84BF40231360E0
:1029E0006B8A1468D0F890201C4402EB4110013C23
:1029F00009B2B4FBF3F46343033323F0030343EA64
:102A0000C44343F0C043C0F8103B2B6803F00303FA
:102A1000012B0ED1D2F8083802EB411013F4807F5D
:102A2000D0F8003B14BF43F0805343F00053C0F88C
:102A3000003B02EB4112D2F8003B43F00443C2F8E2
:102A4000003B30BD2DE9F041D0F8906005460C46C2
:102A500006EB4113D3F8087B3A07C3F8087B08D587
:102A6000D6F814381B0704D500EB8103DB685B68DC
:102A70009847FA072FD5D6F81438DB072BD505EB86
:102A80008403D968CCB98B69488A5E68B6FBF0F2DA
:102A900000FB12628AB91868DA6890420DD2121AE5
:102AA00083E81400202383F3118821462846FFF78A
:102AB0008BFF84F31188BDE8F081012303FA04F24F
:102AC0006B8923EA02036B81CB6823B12146284638
:102AD000BDE8F0411847BDE8F081000000EB81033C
:102AE0004A0170B5DD68D0F890306C692668E66000
:102AF00056BB1A444FF40020C2F810092A6802F0AD
:102B00000302012A0AB20ED1D3F8080803EB4214DB
:102B100010F4807FD4F8000914BF40F0805040F0DA
:102B20000050C4F8000903EB4212D2F8000940F04B
:102B30000440C2F800090122D3F8340802FA01F176
:102B40000143C3F8341870BD19B9402E84BF40202A
:102B5000206020681A442E8A841940F00050013CFD
:102B6000B4FBF6F440EAC440C6E700002DE9F041AA
:102B7000D0F8906004460D4606EB4113D3F808796F
:102B8000C3F80879FB071CD5D6F81038DA0718D532
:102B900000EB8103D3F80CE0DEF81430D3F800C06A
:102BA000DA6894451BD2A2EB0C024FF000081A60C1
:102BB000C3F80480202383F31188FFF78FFF88F385
:102BC00011883B0618D50123D6F83428AB401342B0
:102BD00012D029462046BDE8F041FFF7ADBC0123E5
:102BE00003FA01F2038923EA02030381DEF80830C5
:102BF000002BE6D09847E4E7BDE8F0812DE9F047E7
:102C0000D0F8905004466E69AB691E40F1046E61C5
:102C100003D5BDE8F047FEF749BC002E12DAD5F81F
:102C2000003E9A0705D0D5F8003E23F00303C5F80F
:102C3000003ED5F80438204623F00103C5F80438D7
:102C4000FEF768FC330505D52046FFF749FC204612
:102C5000FEF750FCB7040CD5D5F8083813F0060F72
:102C6000EB6823F470530CBF43F4105343F4A053A8
:102C7000EB60300704D56368DB680BB120469847EA
:102C8000F10200F1A180B2020BD5D4F890800027A8
:102C90004FF00109D4F89430F9B29B688B4280F070
:102CA000D280F3061AD5D4F890100A6AC2F30A1734
:102CB00002F00F0302F4F012B2F5802F00F0EB8067
:102CC000B2F5402F0AD104EB830301F58051DB6894
:102CD000186A00231A469F4240F0D1803003D5F88D
:102CE000185835D5E90303D500212046FFF7AAFE81
:102CF000AA0303D501212046FFF7A4FE6B0303D5E9
:102D000002212046FFF79EFE2F0303D50321204614
:102D1000FFF798FEE80203D504212046FFF792FE54
:102D2000A90203D505212046FFF78CFE6A0203D5D0
:102D300006212046FFF786FE2B0203D507212046F9
:102D4000FFF780FEEF0103D508212046FFF77AFE4A
:102D5000700340F1C780E90703D500212046FFF743
:102D600005FFAA0703D501212046FFF7FFFE6B07E9
:102D700003D502212046FFF7F9FE2F0703D50321D3
:102D80002046FFF7F3FEEE0603D504212046FFF7A9
:102D9000EDFEA80603D505212046FFF7E7FE6906EC
:102DA00003D506212046FFF7E1FE2A0603D50721B9
:102DB0002046FFF7DBFEEB0540F19480204608211A
:102DC000BDE8F047FFF7D2BED4F890904FF000086E
:102DD0004FF0010AD4F894305FFA88F79B68BB4241
:102DE000FFF451AF09EB4713D3F8002902F4402256
:102DF000B2F5802F24D1D3F80029002A20DAD3F8A5
:102E0000002942F09042C3F80029D3F80029002A93
:102E1000FBDB3946D4F89000FFF7D2FB22890AFA8F
:102E200007F322EA0303238104EB8703DB689B6833
:102E300013B139462046984739462046FFF77CFBB8
:102E400008F10108C6E708EB4112D2F8003B03F491
:102E50004023B3F5802F10D1D2F8003B002B0CDAC1
:102E6000628909FA01F322EA0303638104EB810317
:102E7000DB68DB680BB12046984701370AE713F09F
:102E8000030F00D10A68072B03F101039EBF0270F4
:102E9000120A01301FE704EB830301F58051DA6861
:102EA00090690268D0F808C04068A2EB000E0022CA
:102EB0001046974208D1DB689B699A683A449A6049
:102EC0005A6817445F6009E712F0030F00D10868E1
:102ED000964502F1010282BF8CF80000000A0CF155
:102EE000010CE6E7BDE8F08708B50348FFF786FE6A
:102EF000BDE80840FFF76CBA1841002008B5034848
:102F0000FFF77CFEBDE80840FFF762BAB44100203D
:102F1000D0F8903003EB4111D1F8003B43F400139B
:102F2000C1F8003B70470000D0F8903003EB41112E
:102F3000D1F8003943F40013C1F80039704700009C
:102F4000D0F8903003EB4111D1F8003B23F400138B
:102F5000C1F8003B70470000D0F8903003EB4111FE
:102F6000D1F8003923F40013C1F80039704700008C
:102F700000F1604300F01F020901400903F56143BD
:102F8000C9B2800083F80013012300F16040934030
:102F900000F56140C0F880310360704730B50433FC
:102FA000039C0172002104FB0325C361049B0060A4
:102FB0000363059B4060C1604261026185610462F8
:102FC00042628162C162436330BD00000022416AF7
:102FD000C260416101616FF001018262C262FEF76D
:102FE000E7BD000003694269934203D1C2680AB198
:102FF00000207047181D7047036919600021C268DE
:103000000132C260C269134482699342036124BFE2
:10301000436A0361FEF7C0BD38B504460D46E36858
:103020003BB162690020131D1268A3621344E3627E
:1030300038BD237A33B929462046FEF79DFD002886
:10304000EDDA38BD6FF00100FBE70000C368C2692C
:10305000013BC3604369134482699342436124BFC7
:10306000436A436100238362036B03B118477047CF
:1030700070B52023044683F31188866A3EB9FFF7B2
:10308000CBFF054618B186F31188284670BDA36AA8
:10309000E26A13F8015B9342A36202D32046FFF772
:1030A000D5FF002383F31188EFE700002DE9F84FE7
:1030B00004460E4690469946202787F3118800253E
:1030C000AA46D4F828B0BBF1000F09D149462046E2
:1030D000FFF7A2FF20B18BF311882846BDE8F88FD7
:1030E000A16AA8EB050BE36A5B1A9B4528BF9B46C8
:1030F000BBF1400F1BD9334601F1400251F8040BDC
:10310000914243F8040BF9D1A36A4036403540336D
:10311000A362A26AE36A9A4202D32046FFF796FFAF
:103120008AF311884545D8D287F31188C9E730461C
:103130005A46FDF781FEA36A5E445D445B44A36288
:10314000E7E7000010B5029C04330172C36103FB82
:103150000421002300608362C362039B4060036319
:10316000049BC46042610261816104624262436304
:1031700010BD0000026A6FF00101C260426A426144
:10318000026100228262C262FEF712BD43690269D7
:103190009A4203D1C2680AB100207047184650F81D
:1031A000043B0B6070470000C3680021C269013313
:1031B000C3604369134482699342436124BF436AF5
:1031C0004361FEF7E9BC000038B504460D46E368EC
:1031D0003BB1236900201A1DA262E2691344E36235
:1031E00038BD237A33B929462046FEF7C5FC0028AE
:1031F000EDDA38BD6FF00100FBE7000003691960EC
:10320000C268013AC260C269134482699342036191
:1032100024BF436A036100238362036B03B1184731
:103220007047000070B5202304460E4683F31188D2
:10323000856A35B91146FFF7C7FF10B185F31188CC
:1032400070BDA36A1E70A36AE26A01339342A3624F
:1032500004D3E16920460439FFF7D0FF002080F352
:10326000118870BD2DE9F84F04460D4691469A46E7
:103270004FF0200888F311880026B346A76A4FB99B
:1032800051462046FFF7A0FF20B187F31188304652
:10329000BDE8F88FA06AA9EB0603E76A3F1A9F42D0
:1032A00028BF1F46402F1BD905F1400355F8042BBA
:1032B0009D4240F8042BF9D1A36A40364033A36203
:1032C000A26AE36A9A4204D3E16920460439FFF70F
:1032D00095FF8BF311884E45D9D288F31188CDE73D
:1032E00029463A46FDF7A8FDA36A3D443E443B44C7
:1032F000A362E5E7026943699A4203D1C3681BB937
:10330000184670470023FBE7836A002BF8D0043B84
:103310009B1AF5D01360C368013BC360C3691A44AC
:1033200083699A42026124BF436A03610023836276
:103330000123E5E700F0BAB8034B002258631A6195
:103340000222DA60704700BF000C00400022014BEF
:10335000DA607047000C0040014B5863704700BFB3
:10336000000C0040014B586A704700BF000C004041
:103370004B6843608B688360CB68C3600B694361B3
:103380004B6903628B6943620B68036070470000FE
:1033900008B5304B40F2FF712F48D3F888200A431C
:1033A000C3F88820D3F8882022F4FF6222F00702B5
:1033B000C3F88820D3F88820D3F8E0200A43C3F864
:1033C000E020D3F808210A43C3F80821234AD3F8A0
:1033D00008311146FFF7CCFF214802F11C01FFF72D
:1033E000C7FF204802F13801FFF7C2FF1E4802F173
:1033F0005401FFF7BDFF1D4802F17001FFF7B8FF50
:103400001B4802F18C01FFF7B3FF1A4802F1A80133
:10341000FFF7AEFF184802F1C401FFF7A9FF1748F4
:1034200002F1E001FFF7A4FF154802F1FC01FFF7EC
:103430009FFF144802F58C71FFF79AFF00F0EAF83D
:10344000114B05229A604FF06052DA600F4A1A6100
:1034500008BD00BF0044025800000258103C00089C
:103460000004025800080258000C025800100258CC
:103470000014025800180258001C0258002002587C
:10348000002402580028025890ED00E01F000803B5
:1034900008B500F0ADFAFEF7F7FAFEF74DFFBDE80C
:1034A0000840FEF7F9BC000070470000114BD3F84C
:1034B000E82042F00802C3F8E820D3F8102142F0D7
:1034C0000802C3F810210C4AD3F81031D36B43F033
:1034D0000803D363C722094B9A624FF0FF32DA62C6
:1034E00000229A615A63DA605A6001225A611A60B6
:1034F000704700BF004402580010005C000C004000
:10350000094A08B51369D1680B40D9B29B076FEA25
:103510000101116107D5202383F31188FEF7D4FA46
:10352000002383F3118808BD000C0040384B4FF096
:10353000FF31D3F88020C3F88010D3F88020002218
:10354000C3F88020D3F88000D3F88400C3F8841037
:10355000D3F88400C3F88420D3F88400D86F40F0F7
:10356000FF4040F4FF0040F43F5040F03F00D86778
:10357000D86F20F0FF4020F4FF0020F43F5020F0EF
:103580003F00D867D86FD3F888006FEA40506FEAE1
:103590005050C3F88800D3F88800C0F30A00C3F87D
:1035A0008800D3F88800D3F89000C3F89010D3F8BF
:1035B0009000C3F89020D3F89000D3F89400C3F89B
:1035C0009410D3F89400C3F89420D3F89400D3F85F
:1035D0009800C3F89810D3F89800C3F89820D3F84F
:1035E0009800D3F88C00C3F88C10D3F88C00C3F883
:1035F0008C20D3F88C00D3F89C00C3F89C10D3F82F
:103600009C10C3F89C20D3F89C3000F0C9B900BFCF
:10361000004402580122614B1A60614BD3F8F42038
:1036200042F00202C3F8F420D3F81C2142F0020257
:10363000C3F81C210222D3F81C315A4BDA605A68B5
:103640009104FCD5584A1A6001229A60574ADA6000
:1036500000221A614FF440429A61524B9A699204D7
:10366000FCD51A6842F480721A604D4B1A6F12F43E
:10367000407F04D04FF480321A6700221A671A681C
:1036800042F001021A60464A134611684807FCD509
:10369000002111611A6912F03802FBD10121196071
:1036A0004FF0804159605A67414ADA62414A1A61D3
:1036B0001A6842F480321A60394A13461168890345
:1036C000FCD5116841F4805111601A689204FCD550
:1036D000394A3A499A6200225A6319633849DA63CF
:1036E00099635A64374A1A64374ADA621A6842F0B0
:1036F000A8521A602A4B1A6802F02852B2F1285FC9
:10370000F9D148229A614FF48862DA6140221A6244
:103710002E4ADA644FF000521A652D4A5A652D4A36
:103720009A6532222C4B1A601A6802F00F02022AA4
:10373000FAD11B4B1A6942F003021A611A6902F0AE
:103740003802182AFAD1D3F8DC2042F00052C3F82C
:10375000DC20D3F8042142F00052C3F80421D3F84E
:103760000421D3F8DC2042F08042C3F8DC20D3F8F7
:10377000042142F08042C3F80421D3F80421D3F895
:10378000DC2042F00042C3F8DC20D3F8042142F0F0
:103790000042C3F80421D3F8043170470881005176
:1037A000004402580048025800C000F00200000126
:1037B0000000FF01008890082220400063020701FA
:1037C0001802030347040508FD0BFF010000012058
:1037D0000010E00000010100002000524FF0B04254
:1037E00008B5D2F8883003F00103C2F8883023B15D
:1037F000044A13680BB150689847BDE80840FEF7CB
:10380000E7BD00BFA82300204FF0B04208B5D2F8B2
:10381000883003F00203C2F8883023B1044A936869
:103820000BB1D0689847BDE80840FEF7D1BD00BF96
:10383000A82300204FF0B04208B5D2F8883003F03A
:103840000403C2F8883023B1044A13690BB15069EC
:103850009847BDE80840FEF7BBBD00BFA823002085
:103860004FF0B04208B5D2F8883003F00803C2F830
:10387000883023B1044A93690BB1D0699847BDE8F9
:103880000840FEF7A5BD00BFA82300204FF0B042BE
:1038900008B5D2F8883003F01003C2F8883023B19D
:1038A000044A136A0BB1506A9847BDE80840FEF716
:1038B0008FBD00BFA82300204FF0B04310B5D3F850
:1038C000884004F47872C3F88820A30604D5124A0D
:1038D000936A0BB1D06A9847600604D50E4A136B01
:1038E0000BB1506B9847210604D50B4A936B0BB173
:1038F000D06B9847E20504D5074A136C0BB1506CA6
:103900009847A30504D5044A936C0BB1D06C984733
:10391000BDE81040FEF75CBDA82300204FF0B04387
:1039200010B5D3F8884004F47C42C3F888206205BF
:1039300004D5164A136D0BB1506D9847230504D575
:10394000124A936D0BB1D06D9847E00404D50F4A2D
:10395000136E0BB1506E9847A10404D50B4A936EB9
:103960000BB1D06E9847620404D5084A136F0BB1AF
:10397000506F9847230404D5044A936F0BB1D06F5E
:103980009847BDE81040FEF723BD00BFA8230020E4
:1039900008B5FFF7B5FDBDE80840FEF719BD00000A
:1039A000062108B50846FFF7E3FA06210720FFF7CE
:1039B000DFFA06210820FFF7DBFA06210920FFF7CE
:1039C000D7FA06210A20FFF7D3FA06211720FFF7BE
:1039D000CFFA06212820FFF7CBFA09217A20FFF73A
:1039E000C7FA07213220BDE80840FFF7C1BA00003E
:1039F00008B5FFF79BFDFDF729FBFDF7DBFCFDF7A5
:103A0000ABFBFFF751FDBDE80840FFF793BC00009A
:103A100010B501390244904201D1002010BD10F8C8
:103A2000013B11F8014FA342F5D0181B10BD000057
:103A3000034611F8012B03F8012B002AF9D1704736
:103A4000121012131211000053544D333248373FF5
:103A50003F3F0053544D3332483734332F373533DB
:103A60000000000000000000D1100008BD10000898
:103A7000F9100008E5100008F1100008DD1000083A
:103A8000C9100008B510000855110008000000001A
:103A900001000000000000006D61696E0000000080
:103AA000B83A000868240020E0250020010000004A
:103AB000851A00080000000069646C6500000000C1
:103AC0000200000000000000FD1200086913000859
:103AD00040004000883E0020983E00200200000088
:103AE000000000000300000000000000B113000807
:103AF0000000000010000000A83E002000000000B0
:103B00000100000000000000184100200101020037
:103B10004172647550696C6F740025424F41524484
:103B2000252D424C002553455249414C25000000AB
:103B3000391E0008A11D0008691200081D1E00089A
:103B400043000000483B000809024300020100C096
:103B500032090400000102020100052400100105E1
:103B60002401000104240202052406000107058245
:103B7000030800FF09040100020A00000007050114
:103B80000240000007058102400000001200000012
:103B9000943B000812011001020000400912415735
:103BA00000020102030100000403090425424F4101
:103BB000524425005148374D432D626473686F7439
:103BC0000030313233343536373839414243444599
:103BD0004600000000000000291500080918000830
:103BE000B51800084000400050420020504200201C
:103BF0000100000060420020800000004001000041
:103C0000080000000001000000040000080000009F
:103C10000000800200000000AAAAAAAA000000007A
:103C2000FFFF00000000000000A00A0000000000EC
:103C300000000000AAAAAAAA00000000FFFF0000DE
:103C40000000000000000000500000000000000024
:103C5000AAAAAAAA00000000FFFF000000000000BE
:103C6000000000000001000000000000AAAAAAAAAB
:103C700000010000FFFF0000000000000000000045
:103C80000000000000000000AAAAAAAA000000008C
:103C9000FFFF000000000000000000000000000026
:103CA00000000000AAAAAAAA00000000FFFF00006E
:103CB0000000000000000000000000000000000004
:103CC000AAAAAAAA00000000FFFF0000000000004E
:103CD000000000000000000000000000AAAAAAAA3C
:103CE00000000000FFFF00000000000000000000D6
:103CF0000000000000000000AAAAAAAA000000001C
:103D0000FFFF0000000000000000000000000000B5
:103D100000000000AAAAAAAA00000000FFFF0000FD
:103D20000000000000000000000000000000000093
:103D3000AAAAAAAA00000000FFFF000000000000DD
:103D40000000000000000000FF0000000000000074
:103D5000483A00083F00000050040000533A0008B1
:103D60003F00000000960000000008000400000072
:103D7000A83B000800000000000000000000000058
:0C3D800000000000000000000000000037
:00000001FF
