:020000040800F2
:1000000000040020A1020008DD0F0008E10F000835
:1000100035100008E10F000809100008A3020008CD
:10002000A3020008A3020008A3020008D9330008B5
:10003000A3020008A3020008A3020008A30200080C
:10004000A3020008A3020008A3020008A3020008FC
:10005000A3020008A3020008C9370008F53700080A
:10006000213800084D38000879380008A30200083C
:10007000A3020008A3020008A3020008A3020008CC
:10008000A3020008A3020008A3020008A3020008BC
:10009000A3020008A3020008A3020008A538000874
:1000A000A3020008A3020008A3020008A30200089C
:1000B000A3020008A3020008A3020008A30200088C
:1000C000A3020008A3020008A3020008A30200087C
:1000D000A3020008A3020008A3020008A30200086C
:1000E0000D390008A3020008A3020008A3020008BB
:1000F000A3020008A3020008A3020008A30200084C
:10010000A3020008A302000855340008A302000857
:10011000A3020008A3020008A3020008A30200082B
:10012000A3020008A3020008A3020008A30200081B
:10013000A3020008A3020008A3020008A30200080B
:10014000A3020008A3020008A3020008A3020008FB
:10015000A3020008A3020008A3020008A3020008EB
:10016000A3020008A3020008A3020008A3020008DB
:10017000A3020008252D0008A3020008A30200081E
:10018000A3020008A3020008A3020008A3020008BB
:10019000A3020008A3020008A3020008A3020008AB
:1001A000A3020008A3020008A3020008A30200089B
:1001B000A3020008A3020008A3020008A30200088B
:1001C000A3020008A3020008A3020008A30200087B
:1001D000A3020008112D0008A3020008A3020008D2
:1001E000A3020008A3020008A3020008A30200085B
:1001F000A3020008A3020008A3020008A30200084B
:10020000A3020008A3020008A3020008A30200083A
:10021000A3020008A3020008A3020008A30200082A
:10022000A3020008A3020008A3020008A30200081A
:10023000A3020008A3020008A3020008A30200080A
:10024000A3020008A3020008A3020008A3020008FA
:10025000A3020008A3020008A3020008A3020008EA
:10026000A3020008A3020008A3020008A3020008DA
:10027000A3020008A3020008A3020008A3020008CA
:10028000A3020008A3020008A3020008A3020008BA
:10029000A3020008A3020008A3020008A3020008AA
:1002A00002E000F000F8FEE772B6394880F30888F3
:1002B000384880F3098838484EF60851CEF20001DC
:1002C000086040F20000CCF200004EF63471CEF22D
:1002D00000010860BFF34F8FBFF36F8F40F2000043
:1002E000C0F2F0004EF68851CEF200010860BFF374
:1002F0004F8FBFF36F8F4FF00000E1EE100A4EF604
:100300003C71CEF200010860062080F31488BFF330
:100310006F8F01F0A9FF02F0DDFF4FF055301F494C
:100320001B4A91423CBF41F8040BFAE71C49194AA9
:1003300091423CBF41F8040BFAE71A491A4A1B4B99
:100340009A423EBF51F8040B42F8040BF8E7002034
:100350001749184A91423CBF41F8040BFAE701F0F3
:10036000C7FF03F02BF8144C144DAC4203DA54F8D9
:10037000041B8847F9E700F03FF8114C114DAC42DF
:1003800003DA54F8041B8847F9E701F0AFBF000017
:1003900000040020002400200000000800000020CD
:1003A00000040020203D00080024002044240020F8
:1003B00048240020D8300020A0020008A002000835
:1003C000A0020008A00200082DE9F04F2DED108AD0
:1003D000C1F80CD0D0F80CD0BDEC108ABDE8F08F7D
:1003E000002383F311882846A047002001F09AFBE0
:1003F00001F04AFB00DFFEE738B51F4C5A23002509
:1004000023701B23A57063701E23E5702571657131
:10041000A571E57125726572A372E57200F022FD87
:1004200020B10E2325726572A372E57201F0DEFE23
:10043000044601F013FF0546D0B9104B9C4219D079
:1004400001339C4241F2883412BF05460024012545
:10045000002001F0D5FE0DB100F0B6F800F090FDDF
:1004600000F058FC204600F06FF900F0ADF8F9E715
:100470000024EDE70446EBE748240020010007B024
:1004800008B500F0E9FBA0F120035842584108BD2F
:10049000054B07B51B88022101A8ADF8043000F018
:1004A00029FC03B05DF804FB103A0008064991F8F6
:1004B000243033B100230822086A81F8243000F088
:1004C0004DBC0120704700BF682400202DE9F84F83
:1004D000234C05468846174694F824308BBB2E469D
:1004E000DFF87C90002F38D094F824A0BAF1000FE8
:1004F00005D12022FF214846266200F02FFDCAF1D7
:100500000805414604EB8A00BD4228BF3D465FFA1C
:1005100085FBAD00A7EB0B072A462E4400F0F6FC46
:1005200094F82430A844FFB29B445FFA8BFBBBF1E4
:10053000080F84F824B0D5D1FFF7B8FF0028D1D137
:1005400008E0266A06EB8306B042C9D0FFF7AEFF8B
:100550000028C4D10020BDE8F88F0120BDE8F88F45
:100560006824002010B5202383F311881248C36843
:100570000BB101F05DFB0023104A4FF47A710E4875
:1005800001F01AFB002383F311880D4C236813B18B
:100590002368013B2360636813B16368013B6360B8
:1005A000084B1B7833B9636823B9022000F09CFC28
:1005B0003223636010BD00BF54240020650500088D
:1005C0009825002090240020554B56492DE9F041F4
:1005D00053F8042F013201D1BDE8F0818B42F7D1ED
:1005E000514C524B22689A4240F29880504B9B6883
:1005F00003F1006303F500339A4280F08F800020FE
:1006000000F0A4FB02204B4B187000F05FFC4A4B3B
:10061000D3F8E8200022C3F8E820D3F81011C3F87B
:100620001021D3F81011D3F8EC10C3F8EC20D3F854
:100630001411C3F81421D3F81411D3F8F010C3F82F
:10064000F020D3F81811C3F81821D3F81811D3F8F3
:10065000801041F00061C3F88010D3F8801021F0C1
:100660000061C3F88010D3F88010D3F8801041F0F7
:100670000071C3F88010D3F8801021F00071C3F826
:100680008010D3F8803072B62C4B2D490B601D685A
:100690002468BFF34F8FBFF36F8F2A4BC3F88420BA
:1006A000BFF34F8F5A6922F480325A61BFF34F8FE4
:1006B000D3F8802043F6E07EC2F3C906C2F34E327F
:1006C000B707520102EA0E0838463146013948EAB6
:1006D000000C00F14040B1F1FF3FC3F874C2F5D106
:1006E000203A12F1200FEDD1BFF34F8FBFF36F8F80
:1006F000BFF34F8FBFF36F8F5A6922F400325A61F4
:100700000022C3F85022BFF34F8FBFF36F8F202317
:1007100083F31188AD4685F308882047BDE8F08152
:10072000FCFF01081C00020804000208FFFF01088A
:1007300048240020902400200044025800000208B1
:1007400008ED00E000ED00E02DE9F04F99B0B34C6A
:100750002022FF21019010A8A66800F0FFFBB04AFC
:10076000A3461378A3B90121AE481170C3602023BA
:1007700083F31188C3680BB101F05AFA0023AA4A27
:100780004FF47A71A74801F017FA002383F3118818
:10079000019B13B1A54B019A1A600023A44AA349F7
:1007A000019F99461C461D46984613704B60029265
:1007B000012000F08BFB002F00F012829B4B1B6886
:1007C000002B40F00D8219B0BDE8F08F0220FFF73A
:1007D00057FE002840F0FB81019BB9F1000F08BFD4
:1007E0001F46944B1B8802210BA8ADF82C3000F05B
:1007F00081FADDE74FF47A7000F02EFA031E0393BE
:10080000EADB0220FFF73CFE82460028E4D0039B8F
:10081000581E042800F2DD81DFE800F0030E1114F9
:10082000170018A80523042140F8343D00F062FAAF
:1008300054464FF0000856E004217848F6E70421BA
:100840007D48F3E704217D48F0E71C24204604346A
:1008500000F07EFA04210B900BA800F04BFA2C2C30
:10086000F4D1E5E7002DB7D0002CB5D00220FFF77A
:1008700007FE0546002800F0AF8101206C4C00F017
:1008800065FA4FF000090220207000F01FFB5FFAAC
:1008900089FA504600F06AFA074658B1504609F105
:1008A000010900F073FA0028F1D12C46A94600276F
:1008B000634B97E701233E460220237000F0F8FACD
:1008C000DBF808309E4206D2304600F041FA013093
:1008D000EBD10436F4E70026029BA9462C461E7095
:1008E0003746524B5E6000F041FB15B1002C18BF3B
:1008F0000027FFF7CDFD5BE7002D3FF46DAF002C27
:100900003FF46AAF0220029B187000F0DFFA322039
:1009100000F0A2F9B0F1000AC0F25E811AF00305FE
:1009200040F05A8106EB0A03DBF80820934200F2FC
:100930005381BAF5807F00F24F8155450DDA4FF4AF
:100940007A7000F089F90490049B002BC0F2448176
:10095000049B3C4AAB540135EFE7C820FFF790FDFC
:100960000546002800F038811F2E11D8C6F120045A
:1009700010AB26F0030033495445184428BF5446B1
:10098000224600F0C3FA2246FF212E4800F0E6FA84
:100990004FEAAA0A2B4930465FFA8AF2FFF796FD22
:1009A0000446002800F01A8106EB8A0605469AE7FD
:1009B0000220FFF765FD00283FF40EAFFFF776FD3C
:1009C00000283FF409AF4FF0000A5346DBF8082037
:1009D00092451CD2BAF11F0F12D8109A01320FD0D3
:1009E0002AF0030218A90A4452F8202C0B92184648
:1009F00004220BA90AF1040A00F030FB0346E5E7E4
:100A00005046039300F0A4F9039B0B90EFE718A85E
:100A1000042140F84C3D00F06DF964E748240020C3
:100A20009425002054240020650500089825002006
:100A300090240020123A00084C240020502400206A
:100A4000143A00089424002018A80023642140F8D8
:100A5000343D00F02BF900287FF4BEAE0220FFF7F2
:100A60000FFD00283FF4B8AE0B9800F0A1F918ABC9
:100A700043F8480D04211846CDE718A80023642147
:100A800040F8343D00F012F900287FF4A5AE0220B2
:100A9000FFF7F6FC00283FF49FAE0B9800F08AF9B0
:100AA00018AB43F8440DE5E70220FFF7E9FC002806
:100AB0003FF492AE00F084F918AB43F8400DD9E74B
:100AC0000220FFF7DDFC00283FF486AE0BA91420BE
:100AD00000F07CF9824618A8042140F83CAD00F0F3
:100AE00009F951460BA896E7322000F0B5F8B0F1AD
:100AF000000AFFF671AE1AF0030F7FF46DAE0AEB39
:100B00000803DBF8082093423FF666AE0220FFF7A9
:100B1000B7FC00283FF460AE2AF0030AC244D04577
:100B20003FF4E1AE404608F1040800F011F9042159
:100B30000A900AA800F0DEF8F1E74FF47A70FFF7A8
:100B40009FFC00283FF448AEFFF7B0FC00283FF4BC
:100B5000AFAE109B01330CD0082210A90020FFF784
:100B6000B5FC00283FF4A4AE2022FF2110A800F01D
:100B7000F5F9FFF78DFC374800F0DAFF23E6002D8A
:100B80003FF42AAE002C3FF427AE18A800236421BE
:100B900040F8343D00F08AF8824600287FF41CAE0D
:100BA0000220FFF76DFC00283FF416AE0390FFF71C
:100BB0006FFC41F28830574600F0BAFF0B9800F006
:100BC0000BFA00F0D3F9039B1C461D46F0E50546E1
:100BD00089E64FF00008FFE52546FDE52C4667E66F
:100BE000002000F039F80490049B002BFFF6E3ADE1
:100BF000012000F05DF9049B213B122B3FF6D8AD9C
:100C000001A252F823F000BFCD070008F507000845
:100C100065080008B1070008B1070008B10700081F
:100C2000F9080008E90A0008B1090008490A0008A3
:100C30007B0A0008A90A0008B1070008C10A0008D9
:100C4000B10700083B0B0008E7080008B1070008DF
:100C50007F0B0008A0860100114B37B51A780024DD
:100C6000014601328DF80740D2B2012A11D80D4851
:100C7000012203681D6A4FF47A734B430DF107019B
:100C8000A847012805D1084B9DF807001C7003B048
:100C900030BD4FF4FA7000F04BFF4FF0FF30F6E735
:100CA0000024002068260020A425002038B50E4B23
:100CB00005461A780132D2B2012A0ED80B48042216
:100CC00003681C6A4FF47A734B432946A0470428F3
:100CD00003D10020064B187038BD4FF4FA7000F0B5
:100CE00027FF4FF0FF3038BD002400206826002089
:100CF000A425002030B4054C0A460146236820464E
:100D0000DD69034BAC4630BC604700BF682600205D
:100D1000A0860100F8B50A4C00250A4E01F04EF9F4
:100D2000094F207030682378834207D901F042F9D7
:100D3000336805440133BD423360F3D9F8BD00BFC9
:100D4000A5250020A0250020FFFF010001F002BA28
:100D500000F1006000F500300068704700F10060AD
:100D6000920000F5003001F085B90000054B1A68CB
:100D7000054B1B789B1A834202D9104401F01AB923
:100D800000207047A0250020A525002038B5074D7C
:100D900004462868204401F013F928B92868204443
:100DA000BDE8384001F01EB938BD00BFA0250020C5
:100DB00000207047014BC058704700BF00E8F11F8A
:100DC000014B1868704700BF0010005C234BF0B562
:100DD000234C1B682788C3F30B0665681B0C94F92A
:100DE0000820BE4228D0A789BE4206D101220C2588
:100DF00005FB0244656894F9082041F20104A3420E
:100E00001CD041F20304A3421AD042F20104A342CF
:100E100018D042F20304A34208BF5622441E013DEB
:100E20000B460C44A34217D215F9016F581C5EB152
:100E3000034600F8016CF5E70022D8E75A22EDE7F7
:100E40005922EBE75822E9E72C2584421D7001D98D
:100E5000981C5A70401AF0BD1846FBE70010005C61
:100E600004240020104B41F201015B888B429AB2AE
:100E700011D041F203018B420FD042F201039A429A
:100E80000DD042F203039A420BD10323074A02EB2F
:100E90008303D87870470023F8E70123F6E702239D
:100EA000F4E70020704700BF0010005C183A00080B
:100EB000022804D14FF00072034B9A617047012859
:100EC000FCD14FF08062F7E700100258022804D1ED
:100ED0004FF40072034B9A6170470128FCD14FF424
:100EE0008062F7E700100258022805D1064A5369CC
:100EF00083F40073536170470128FCD1024A53699F
:100F000083F48063F6E700BF00100258002310B599
:100F1000934203D0CC5CC4540133F9E710BD000008
:100F200030B5441E14F9010F0B4658B193F9005027
:100F30000131854206D11AB993F90020801A30BDDB
:100F4000013AEFE7002AF7D1104630BD02460346CA
:100F5000981A13F9011B0029FAD17047024403467D
:100F6000934202D003F8011BFAE77047024B1A784C
:100F7000024B1A70704700BFA425002000240020F7
:100F800038B5114D114C284600F004F92146284689
:100F900000F02CF924680E48D4F89020D2F80438D8
:100FA00043F00203C2F8043800F0C2FD09492046AC
:100FB00000F02CFAD4F89020D2F8043823F0020381
:100FC000C2F8043838BD00BF68260020C03A0008C7
:100FD00040420F00E83A000870470000FEE70000BA
:100FE00000B59BB0EFF3098168226846FFF78EFFDA
:100FF000EFF30583034B9A6B9A6A9A6A9A6A9A6A24
:101000009B6AFEE700ED00E000B59BB0EFF30981BD
:1010100068226846FFF77AFFEFF30583044B9A6B6B
:101020009A6A9A6A9A6A9A6A9A6A9B6AFEE700BF03
:1010300000ED00E000B59BB0EFF30981682268463F
:10104000FFF764FFEFF30583034B5A6B9A6A9A6AC2
:101050009A6A9A6A9B6AFEE700ED00E030B50A449E
:10106000074D91420BD011F8013B09245840013C37
:10107000F7D040F300032B4083EA5000F7E730BD80
:101080002083B8ED002304491A465A50C818083383
:101090004260802BF9D17047A82500200268436880
:1010A0001143016003B118477047000013B5446B4A
:1010B000D4F894341A681178042915D1217C0229B6
:1010C00012D11979012312898B4013420CD101A945
:1010D00004F14C0001F06EFFD4F894440246019BE9
:1010E0002179206800F0EAF902B010BD143001F057
:1010F000F1BE00004FF0FF33143001F0EBBE0000F2
:101100004C3001F0C3BF00004FF0FF334C3001F012
:10111000BDBF0000143001F0BFBE00004FF0FF3132
:10112000143001F0B9BE00004C3001F08FBF000058
:101130004FF0FF324C3001F089BF0000D0F894240A
:1011400038B5136805461978042901D0012038BD47
:10115000017C0229FAD1127901205C899040044077
:10116000F4D105F1140001F051FE02460028EDD043
:10117000D5F894544FF480732868697900F08CF99D
:10118000204638BD406BFFF7D9BF000000207047F4
:10119000704700007FB5124B01250226044603600C
:1011A0000023057400F18402436029468360C36014
:1011B0000C4B0290143001934FF48073009601F0B1
:1011C00001FE094B04F523722946019304F14C00FA
:1011D0004FF480730294009601F0C8FE04B070BD15
:1011E000443A000885110008AD1000080A68202361
:1011F00083F311880B790B3342F823004B791333B7
:1012000042F823008B7913B10B3342F823000223F9
:10121000C0F894140374002383F31188704700000E
:1012200038B5037F044613B190F85430ABB90125AB
:10123000201D0221FFF732FF04F1140025776FF023
:10124000010100F09DFC84F8545004F14C006FF053
:101250000101BDE8384000F093BC38BD10B5012154
:1012600004460430FFF71AFF0023237784F8543034
:1012700010BD000038B504460025143001F0BAFD59
:1012800004F14C00257701F089FE201D84F85450AC
:101290000121FFF703FF2046BDE83840FFF74EBFAE
:1012A00090F8803003F06003202B19D190F8812052
:1012B000212A0AD0222A4FF000030ED0202A0FD173
:1012C000084A42670722826704E0064B4367072308
:1012D00083670023C3670120704743678367F9E78B
:1012E000002070471C240020D0F8943437B51A68C9
:1012F0000446117804291AD1017C022917D11979E1
:10130000012312898B40134211D100F14C0528466C
:1013100001F004FF58B101A9284601F04BFED4F8B2
:1013200094440246019B2179206800F0C7F803B07D
:1013300030BD000001F10B03F7B550F8234005461E
:101340000E46F4B1202383F3118805EB8607201D98
:1013500008214C34FFF7A2FEFB685B691B6813B1E0
:10136000204601F035FE01A9204601F023FE024689
:1013700048B1019B3146284600F0A0F8002383F3D2
:10138000118803B0F0BDFB685A691268002AF5D0D5
:101390001B8A013B1340F1D105F18002EAE700000E
:1013A000133138B550F82140DCB1202383F3118884
:1013B000D4F894241368527903EB8203DB689B69A9
:1013C0005D6845B104216018FFF768FE294604F105
:1013D000140001F025FD2046FFF7B0FE002383F343
:1013E000118838BD7047000001F00AB8012300F1F0
:1013F000300200F1500103700023436042F8043BC7
:101400008A42D361FAD103814381704738B50446DB
:10141000202383F31188002500F10C0300F1300232
:10142000416043F8045B9342FBD1204601F00AF887
:101430000223237085F3118838BD000070B500EBDE
:101440008103054650690E461446DA6018B1102231
:101450000021FFF783FDA06918B110220021FFF7DA
:101460007DFD31462846BDE8704001F0FDB8000022
:10147000038900F13002002103F001030381438955
:1014800003F00103438100F1100343F8041B93426E
:10149000FBD101F081B90000F0B4012500EB81041B
:1014A00047898D40E4683D43A4694581236000235A
:1014B000A2606360F0BC01F09DB90000F0B40125AA
:1014C00000EB810407898D40E4683D436469058130
:1014D00023600023A2606360F0BC01F015BA000035
:1014E000022300F10C0200F1300110B50370044634
:1014F0000023A0F8883080F88A3080F88B30038190
:10150000438142F8043B8A42FBD184F87030204684
:1015100001F03EF863681B6823B120460021BDE856
:101520001040184710BD00000278436880F88C20F6
:1015300005221B6802700BB1042118477047000098
:10154000436890F88C201B6802700BB10521184786
:101550007047000090F8703070B5044613B1002356
:1015600080F8703004F18002204601F039F9636898
:101570009B6863BB94F8805015F0600615D194F811
:10158000813005F07F0545EA032540F202339D4294
:1015900000F00E815BD8022D00F0DC803FD8002DDA
:1015A00000F08780012D00F0CF800021204601F05F
:1015B000CFFB0021204601F0BFFB63681B6813B11D
:1015C000062120469847062384F8703070BD2046D7
:1015D00098470028CED094F8872094F8863043EAC4
:1015E0000223A26F934238BFA36794F98030A56F9E
:1015F000002B4FF0200380F2FD80002D00F0EC80E6
:10160000092284F8702083F311880021A36F626F90
:101610002046FFF753FF002383F3118870BDB5F513
:10162000817F00F0B180B5F5407F49D0B5F5807F6E
:10163000BBD194F88230012BB7D1B4F8883023F0B5
:101640000203A4F888306667A667E667C3E740F23E
:1016500001639D421ED8B5F5C06F3BD2B5F5A06FB2
:10166000A3D1B4F88030B3F5A06F0ED194F88230D6
:10167000204684F88A3000F0E9FF63681B6813B1E4
:101680000121204698470323237000236367A36743
:10169000E367A0E7B5F5106F32D040F602439D42F4
:1016A00052D0B5F5006F80D104F18B03636701233D
:1016B00024E004F18803E56763670223A3678AE7F0
:1016C00094F88230012B7FF470AFB4F8883043F087
:1016D0000203B6E794F885202046616894F88430C8
:1016E0004D6843EA022394F8831094F88220A847B7
:1016F00000283FF45AAF436863670368A367A4E711
:101700002378042B10D1202383F311882046FFF780
:10171000AFFE86F311886368032184F88B601B6831
:1017200021700BB12046984794F88230002BACD042
:1017300084F88B300423237063681B68002BA4D0CB
:10174000022120469847A0E7374B63670223A3672F
:1017500000239DE794F88410204611F0800F01F0DB
:101760000F010ED001F02EF8012806D002287FF4D8
:101770001CAF2E4BA067636767E72D4BA5676367B8
:1017800063E701F011F8EFE794F88230002B7FF463
:101790000CAF94F8843013F00F013FF476AF1A06C3
:1017A000204602D501F0ECFA6FE701F0DDFA6CE7B4
:1017B00094F88230002B7FF4F8AE94F8843013F064
:1017C0000F013FF462AF1B06204602D501F0C0FABC
:1017D0005BE701F0B1FA58E7142284F8702083F334
:1017E00011882B462A4629462046FFF755FE85F3E9
:1017F000118870BD5DB1152284F8702083F31188C3
:101800000021A36F626F2046FFF746FE03E70B221D
:1018100084F8702083F311882B462A4629462046F7
:10182000FFF74CFEE3E700BF743A00086C3A00088B
:10183000703A000838B590F870300446152B29D856
:10184000DFE803F03E28282828283E28280B2939DD
:1018500028282828282828283E3E90F8871090F825
:101860008620836F42EA01229A4214D9C268128A02
:10187000B3FBF2F502FB15356DB9202383F3118814
:101880002B462A462946FFF719FE85F311880A23BD
:1018900084F8703038BD142384F87030202383F32B
:1018A0001188002320461A461946FFF7F5FD00234C
:1018B00083F3118838BDC36F03B198470023E7E76E
:1018C000002101F045FA0021204601F035FA636855
:1018D0001B6813B10621204698470623D8E700006D
:1018E00090F87020152A38B5044622D80123934079
:1018F00040F6416213421DD113F480150FD19B02B3
:1019000017D50B2380F87030202383F311882B46E2
:101910002A462946FFF7D2FD85F3118838BDC368F2
:101920009B695B682BB9C36F03B19847002384F8A8
:10193000703038BD002101F00BFA0021204601F083
:10194000FBF963681B6813B10621204698470623FC
:10195000EDE70000024B00221B605B609A6070475D
:1019600028260020002382680374054B1B689968B1
:101970009142FBD25A680360426010605860704721
:101980002826002008B5202383F31188037C032B2D
:1019900005D0042B0DD02BB983F3118808BD436902
:1019A00000221A604FF0FF334361FFF7DBFF002393
:1019B000F2E790E80C001A6002685360F2E700005A
:1019C000002382680374054B1B6899689142FBD819
:1019D0005A680360426010605860704728260020F3
:1019E000054B196908741868026853601A60186119
:1019F00001230374FEF7E8BC282600204B1C30B5F9
:101A0000054687B00A4C10D0236901A8094A00F0A6
:101A1000D3F82846FFF7E4FF049B13B101A800F0B8
:101A200007F92369586907B030BDFFF7D9FFF8E718
:101A3000282600208519000838B50C4D0446416160
:101A40002B6981689A68914203D8BDE83840FFF756
:101A500089BF1846FFF786FF01232C6101462374D6
:101A60002046BDE83840FEF7AFBC00BF2826002066
:101A7000044B1A681B6990689B68984294BF0020C9
:101A8000012070472826002010B5084C23682069E3
:101A90001A6854602260012223611A74FFF790FFD4
:101AA00001462069BDE81040FEF78EBC28260020C4
:101AB0008260022202740022427470478368A3F19C
:101AC0007C0243F80C2C026943F83C2C426943F831
:101AD000382C074A43F81C2CC268A3F1180043F8BD
:101AE000102C022203F8082C002203F8072C704760
:101AF000E103000810B5202383F31188FFF7DEFF10
:101B000000210446FFF798FF002383F31188204645
:101B100010BD0000024B1B6958610F20FFF760BF2A
:101B200028260020202383F31188FFF7F3BF00004D
:101B300008B50146202383F311880820FFF75EFFD4
:101B4000002383F3118808BD49B1064B42681B6925
:101B500018605A60136043600420FFF74FBF4FF0D6
:101B6000FF307047282600200368984206D01A6884
:101B70000260506018465961FFF7F4BE70470000DC
:101B800038B504460D462068844200D138BD03684C
:101B900023605C604561FFF7E5FEF4E7054B03F168
:101BA00014025A619A614FF0FF32DA6100221A6220
:101BB000704700BF28260020F8B5036102291A4BA0
:101BC0000646C26038BF02215C6A184B1A461F469F
:101BD00052F8145F95420AD1586198611C62056001
:101BE000456081600819BDE8F84001F0B9BA186A8B
:101BF000AB68241A0C1902D3E41A2D6804E09C4245
:101C000002D2204401F0BCFAAB689C42F4D86B6865
:101C1000356073601E604FF0FF336E60B460A9687A
:101C2000091BA960FB61F8BD000C004028260020BC
:101C300010B41A4C234653F8141F814210D0416847
:101C400002680A60026851609A424FF00001C16068
:101C500003D0936881680B4493605DF8044B704730
:101C60000A6800209A4262615360C86003D15DF83F
:101C7000044B01F07FBA936888680344206A93603C
:101C8000074A526A121A9342E7D9991A5DF8044B2F
:101C9000012998BF931C184401F072BA282600202D
:101CA000000C004000207047FEE700007047000075
:101CB0004FF0FF3070470000022906D0032906D0FC
:101CC0000129064818BF0020704705487047032ABD
:101CD0009ABF044800EBC20000207047443B000854
:101CE000F83A00082424002070B59AB00646084649
:101CF000144601AD294600F095F82846FFF726F96D
:101D0000C0B2431C5B0086E8180023700323023432
:101D100004F8013C00231946DAB20234904201D89B
:101D20001AB070BDEA5C013304F8011C04F8022CFF
:101D3000F2E7000008B5202383F311880348FFF77A
:101D4000D3FA002383F3118808BD00BF6826002062
:101D500010B50446052916D8DFE801F0161503165C
:101D6000161D202383F311880E4A0121FFF766FB1D
:101D700020460D4A0221FFF761FB0C48FFF77AFA73
:101D8000002383F3118810BD202383F311880748B3
:101D9000FFF746FAF4E7202383F311880348FFF79F
:101DA0005DFAEDE7783A00089C3A000868260020C2
:101DB00038B50C4D0C4C2A460C4904F10800FFF7CD
:101DC00093FF05F1CA0204F110000949FFF78CFFE7
:101DD00005F5CA7204F118000649BDE83840FFF75E
:101DE00083BF00BF302B002024240020C83A000805
:101DF000D23A0008DD3A000870B5044608460D46A0
:101E0000FFF7A4F8C6B22046013403780BB9184690
:101E100070BD32462946FFF783F80028F3D1012030
:101E200070BD00002DE9F84F05460C46FFF78EF80F
:101E30002A49C6B22846FFF7DFFF08B1023EF6B2D4
:101E400027492846FFF7D8FF08B11036F6B2632EAF
:101E50000DD8DFF88890DFF888A0224FDFF88CB02B
:101E6000DFF88C802E7846B92670BDE8F88F2946B9
:101E70002046BDE8F84F01F0C3BD252E2AD1072228
:101E800049462846FFF74CF850B9D8F800300735D6
:101E9000053444F8053C98F8043004F8013CE1E7C7
:101EA000082251462846FFF73BF898B9A21C0E4B72
:101EB00013F8011F023209095B45C95D02F8041CD1
:101EC000197801F00F01C95D02F8031CF0D1183434
:101ED0000835C7E7267001350134C3E7643B0008C5
:101EE000DD3A0008723B0008FFE7F11F0BE8F11F25
:101EF0006C3B0008BFF34F8F044B1A695107FCD1AC
:101F0000D3F810215207F8D1704700BF00200052CB
:101F100008B50D4B1B78ABB9FFF7ECFF0B4BDA683C
:101F2000D10704D50A4A5A6002F188325A60D3F8C0
:101F30000C21D20706D5064AC3F8042102F18832E3
:101F4000C3F8042108BD00BF8E2D002000200052E0
:101F50002301674508B5114B1B78F3B9104B1A697B
:101F6000510703D5DA6842F04002DA60D3F8102155
:101F7000520705D5D3F80C2142F04002C3F80C21DA
:101F8000FFF7B8FF064BDA6842F00102DA60D3F8D7
:101F90000C2142F00102C3F80C2108BD8E2D002057
:101FA000002000520F289ABF00F5806040040020F6
:101FB000704700004FF40030704700001020704759
:101FC0000F2808B50BD8FFF7EDFF00F500330268C6
:101FD000013204D104308342F9D1012008BD002030
:101FE00008BD00000F2810B504463FD8FFF782FF58
:101FF000FFF78EFF1E484FF0FF33072C4361C0F8F8
:1020000014311DD80361FFF775FF230243F0240349
:10201000C360C36843F08003C36003695A07FCD4FC
:10202000FFF768FF2046FFF7BDFF4FF4003100F0D7
:10203000F7F8FFF78FFF2046BDE81040FFF7C0BF5D
:10204000C0F81031FFF756FFA4F108031B0243F05C
:102050002403C0F80C31D0F80C3143F08003C0F8F1
:102060000C31D0F810315B07FBD4D9E7002010BD4C
:10207000002000522DE9F84F40EA020305460E46C3
:102080001746DB0656D13446DFF8C090DFF8C0A013
:10209000FFF73EFF3B1B33441F2B04D8FFF75AFFCB
:1020A0000120BDE8F88F20222146284601F098FC47
:1020B000002837D005F17843214A22489342224B29
:1020C00098BF984603F5827392BFD346C8469B4695
:1020D000A3F1080388BF1846FFF70CFF4FF0FF334A
:1020E00004F11C01A5EB040ECBF80030036843F0AB
:1020F00002030360231FD8F8002012F0050FFAD165
:1021000053F8042F99424EF80320F4D1BFF34F8FB8
:10211000FFF7F0FE4FF0FF33CBF80030036823F0F9
:102120000203036020222146284601F059FC20B119
:10213000FFF710FF0020BDE8F88F20352034A9E715
:10214000FFFF0F000C2000521020005210210052FF
:102150001420005210B5084C237828B153B9FFF76A
:10216000D7FE0123237010BD23B12070BDE81040BD
:10217000FFF7F0BE10BD00BF8E2D002002440439D1
:10218000064BD2B210B5904200D110BD441C00B233
:1021900053F8200041F8040FE0B2F4E75040005833
:1021A0000F4B30B51C6F240405D41C6F1C671C6FCB
:1021B00044F400441C670B4C024404392368D2B237
:1021C00043F480732360084B904200D130BD441C1F
:1021D00051F8045F00B243F82050E0B2F4E700BFCA
:1021E00000440258004802585040005807B50122E8
:1021F00001A90020FFF7C2FF019803B05DF804FBBE
:1022000013B50446FFF7F2FFA04206D002A901224F
:10221000002041F8044DFFF7C3FF02B010BD0000DD
:102220000144BFF34F8F064B884204D3BFF34F8F57
:10223000BFF36F8F7047C3F85C022030F4E700BF34
:1022400000ED00E0034B1B685B0142BF0122024B23
:102250001A707047D04402588F2D0020014B187817
:10226000704700BF8F2D0020F0B5BFF34F8FBFF335
:102270006F8F1D4B0021C3F85012BFF34F8FBFF378
:102280006F8F5A6942F400325A61BFF34F8FBFF328
:102290006F8FC3F88410BFF34F8FD3F8802043F6BD
:1022A000E076C2F3C904C2F34E32A507520102EA36
:1022B000060E284621464EEA0007013900F140404B
:1022C000C3F860724F1CF6D1203A12F1200FEED104
:1022D000BFF34F8F5A6942F480325A61BFF34F8F78
:1022E000BFF36F8FF0BD00BF00ED00E0FEE7000020
:1022F000084A094B09498B4204D3094A00219342F9
:1023000005D3704752F8040F43F8040BF3E743F882
:10231000041BF4E7603D0008D8300020D8300020CE
:10232000D8300020D0F89430002230B51146D0F8D3
:1023300090409D684FF0FF3004EB4213013295420C
:10234000C3F80019C3F81019C3F80809C3F8001B33
:10235000C3F8101BC3F8080BEED24FF00113C4F8FA
:102360001C3830BD00EB81032DE9F04FD3F80CE0B1
:102370004F1C4FEA4118DEF814403F03D4F800C068
:102380006568D0F8902065450AD30120D2F834382A
:1023900000FA01F123EA0101C2F83418BDE8F08F18
:1023A000ACEB0503BEF81060B34228BF334602EB26
:1023B0000806D6F81869B6B2B3EB860F13D8A6682C
:1023C0003A449946A6F1040A5AF804BFB9F1040F39
:1023D000C2F800B002D9A9F10409F5E71E442B4464
:1023E000A6606360CCE70020BDE8F08F890141F072
:1023F0002001016103699B06FCD4122000F050BF4C
:1024000010B50A4C2046FEF7F1FF094BC4F8903096
:10241000084BC4F89430084C2046FEF7E7FF074B02
:10242000C4F89030064BC4F8943010BD902D0020B5
:1024300000000840A83B00082C2E002000000440AB
:10244000B43B00080378012B70B505465DD1494BBC
:10245000D0F89040984259D1474B0E216520D3F8CF
:10246000D82042F00062C3F8D820D3F8002142F00F
:102470000062C3F80021D3F80021D3F8802042F095
:102480000062C3F88020D3F8802022F00062C3F8F5
:102490008020D3F8803000F07FFC384BE360384B6D
:1024A000C4F800380023D5F89060C4F8003EC0237B
:1024B00023604FF40413A3633369002BFCDA012378
:1024C0000C20336100F0ECFE3369DB07FCD41220F2
:1024D00000F0E6FE3369002BFCDA00262846A660F1
:1024E000FFF720FF6B68C4F81068DB68C4F8146855
:1024F000C4F81C68002B3AD1224BA3614FF0FF3384
:102500006361A36843F00103A36070BD1E4B984252
:10251000C8D1194B0E214D20D3F8D82042F00072BB
:10252000C3F8D820D3F8002142F00072C3F800218C
:10253000D3F80021D3F8802042F00072C3F8802045
:10254000D3F8802022F00072C3F88020D3F88020D6
:10255000D3F8D82022F08062C3F8D820D3F8002125
:1025600022F08062C3F80021D3F8003193E7074BD3
:10257000C3E700BF902D00200044025840140040E3
:1025800003002002003C30C02C2E0020083C30C04C
:10259000F8B5D0F89040054600214FF0006620467F
:1025A000FFF724FFD5F8941000234FF001128F6835
:1025B0004FF0FF30C4F83438C4F81C2804EB431241
:1025C00001339F42C2F80069C2F8006BC2F80809E3
:1025D000C2F8080BF2D20B68D5F89020C5F89830F5
:1025E000636210231361166916F01006FBD11220E6
:1025F00000F056FED4F8003823F4FE63C4F8003827
:10260000A36943F4402343F01003A3610923C4F8F2
:102610001038C4F814380B4BEB604FF0C043C4F8CB
:10262000103B094BC4F8003BC4F81069C4F80039EA
:10263000D5F8983003F1100243F48013C5F89820C0
:10264000A362F8BD843B000840800010D0F89020C1
:1026500090F88A10D2F8003823F4FE6343EA01139D
:10266000C2F80038704700002DE9F0410EB20D4667
:1026700000EB8608D8F80C100F6807F00303022B54
:1026800053D0032B53D03F4A3F4F012B18BF17465F
:10269000D0F890404FEA451E002205F1100C04EBE3
:1026A0000E03C3F8102B8A69002A42D04A8A05F12A
:1026B00058033A435B01E2500123D4F81C2803FA83
:1026C0000CF31343C4F81C38A64400234A69CEF81F
:1026D000103905F13F03002A3BD00A8A04EB83033B
:1026E000898B9208012988BF4A43D0F89810561860
:1026F00041EA02422946C0F8986020465A60FFF736
:1027000075FED8F80C301B8A43EA85531F4305F148
:1027100048035B01E7500123D4F81C2803FA05F5B0
:102720001543C4F81C58BDE8F081184FB0E7184FA6
:10273000AEE704EB4613D3F8002B22F40042C3F8B3
:10274000002B0123D4F81C2803FA0CF322EA03031C
:10275000B8E704EB83030F4A04EB461629465A6098
:102760002046FFF743FED6F80039012223F4004348
:1027700002FA05F5C6F80039D4F81C3823EA050535
:10278000CFE700BF00800010008004100080081018
:1027900000800C1000040002D0F894201268C0F8E9
:1027A0009820FFF7BFBD00005831D0F890304901A4
:1027B0005B5813F4004004D013F4001F14BF012031
:1027C000022070474831D0F8903049015B5813F42B
:1027D000004004D013F4001F14BF012002207047F2
:1027E00000EB8101CB68196A0B6813604B6853607A
:1027F0007047000000EB810330B5DD68AA691368FB
:10280000D36019B9402B84BF402313606B8A1468CE
:10281000D0F890201C4402EB4110013C09B2B4FBFB
:10282000F3F46343033323F0030343EAC44343F065
:10283000C043C0F8103B2B6803F00303012B0ED1FB
:10284000D2F8083802EB411013F4807FD0F8003B37
:1028500014BF43F0805343F00053C0F8003B02EB39
:102860004112D2F8003B43F00443C2F8003B30BDB4
:102870002DE9F041D0F8906005460C4606EB411377
:10288000D3F8087B3A07C3F8087B08D5D6F8143884
:102890001B0704D500EB8103DB685B689847FA07E8
:1028A0002FD5D6F81438DB072BD505EB8403D96870
:1028B000CCB98B69488A5E68B6FBF0F200FB126205
:1028C0008AB91868DA6890420DD2121A83E81400A7
:1028D000202383F3118821462846FFF78BFF84F3DA
:1028E0001188BDE8F081012303FA04F26B8923EA21
:1028F00002036B81CB6823B121462846BDE8F04135
:102900001847BDE8F081000000EB81034A0170B573
:10291000DD68D0F890306C692668E66056BB1A44D2
:102920004FF40020C2F810092A6802F00302012ABD
:102930000AB20ED1D3F8080803EB421410F4807FDA
:10294000D4F8000914BF40F0805040F00050C4F8A3
:10295000000903EB4212D2F8000940F00440C2F82B
:1029600000090122D3F8340802FA01F10143C3F847
:10297000341870BD19B9402E84BF402020602068F3
:102980001A442E8A841940F00050013CB4FBF6F43E
:1029900040EAC440C6E700002DE9F041D0F890605D
:1029A00004460D4606EB4113D3F80879C3F80879BD
:1029B000FB071CD5D6F81038DA0718D500EB8103D1
:1029C000D3F80CE0DEF81430D3F800C0DA68944590
:1029D0001BD2A2EB0C024FF000081A60C3F804806F
:1029E000202383F31188FFF78FFF88F311883B06BC
:1029F00018D50123D6F83428AB40134212D029460B
:102A00002046BDE8F041FFF7ADBC012303FA01F217
:102A1000038923EA02030381DEF80830002BE6D0A5
:102A20009847E4E7BDE8F0812DE9F047D0F89050F1
:102A300004466E69AB691E40F1046E6103D5BDE8C2
:102A4000F047FEF74DBD002E12DAD5F8003E9A078A
:102A500005D0D5F8003E23F00303C5F8003ED5F8B5
:102A60000438204623F00103C5F80438FEF768FD5A
:102A7000330502D52046FEF757FDB7040CD5D5F82F
:102A8000083813F0060FEB6823F470530CBF43F4BF
:102A9000105343F4A053EB60300704D56368DB6840
:102AA0000BB120469847F10200F1A180B2020BD58C
:102AB000D4F8908000274FF00109D4F89430F9B28F
:102AC0009B688B4280F0D280F3061AD5D4F8901020
:102AD0000A6AC2F30A1702F00F0302F4F012B2F509
:102AE000802F00F0EB80B2F5402F0AD104EB830376
:102AF00001F58051DB68186A00231A469F4240F0B6
:102B0000D1803003D5F8185835D5E90303D5002115
:102B10002046FFF7ADFEAA0303D501212046FFF7AB
:102B2000A7FE6B0303D502212046FFF7A1FE2F036A
:102B300003D503212046FFF79BFEE80203D50421BD
:102B40002046FFF795FEA90203D505212046FFF791
:102B50008FFE6A0203D506212046FFF789FE2B026D
:102B600003D507212046FFF783FEEF0103D5082197
:102B70002046FFF77DFE700340F1C780E90703D5CB
:102B800000212046FFF708FFAA0703D501212046B0
:102B9000FFF702FF6B0703D502212046FFF7FCFE7B
:102BA0002F0703D503212046FFF7F6FEEE0603D5D7
:102BB00004212046FFF7F0FEA80603D50521204694
:102BC000FFF7EAFE690603D506212046FFF7E4FE7B
:102BD0002A0603D507212046FFF7DEFEEB0540F16C
:102BE000948020460821BDE8F047FFF7D5BED4F811
:102BF00090904FF000084FF0010AD4F894305FFA3B
:102C000088F79B68BB42FFF451AF09EB4713D3F839
:102C1000002902F44022B2F5802F24D1D3F80029F4
:102C2000002A20DAD3F8002942F09042C3F80029A4
:102C3000D3F80029002AFBDB3946D4F89000FFF7CF
:102C4000D5FB22890AFA07F322EA0303238104EB66
:102C50008703DB689B6813B139462046984739469D
:102C60002046FFF77FFB08F10108C6E708EB411299
:102C7000D2F8003B03F44023B3F5802F10D1D2F8F3
:102C8000003B002B0CDA628909FA01F322EA030304
:102C9000638104EB8103DB68DB680BB12046984756
:102CA00001370AE713F0030F00D10A68072B03F17D
:102CB00001039EBF0270120A01301FE704EB830379
:102CC00001F58051DA6890690268D0F808C0406860
:102CD000A2EB000E00221046974208D1DB689B69E8
:102CE0009A683A449A605A6817445F6009E712F09C
:102CF000030F00D10868964502F1010282BF8CF8EB
:102D00000000000A0CF1010CE6E7BDE8F0870000C6
:102D100008B50348FFF788FEBDE8084000F06CBB2B
:102D2000902D002008B50348FFF77EFEBDE808405F
:102D300000F062BB2C2E0020D0F8903003EB411144
:102D4000D1F8003B43F40013C1F8003B704700008A
:102D5000D0F8903003EB4111D1F8003943F400135F
:102D6000C1F8003970470000D0F8903003EB4111F2
:102D7000D1F8003B23F40013C1F8003B704700007A
:102D8000D0F8903003EB4111D1F8003923F400134F
:102D9000C1F800397047000000F1604300F01F02E5
:102DA0000901400903F56143C9B2800083F80013AB
:102DB000012300F16040934000F56140C0F880318C
:102DC0000360704730B50433039C0172002104FB9B
:102DD0000325C361049B00600363059B4060C160E1
:102DE000426102618561046242628162C162436341
:102DF00030BD00000022416AC260416101616FF094
:102E000001018262C262FEF7BBBE00000369426933
:102E1000934203D1C2680AB100207047181D704761
:102E2000036919600021C2680132C260C26913449B
:102E300082699342036124BF436A0361FEF794BE33
:102E400038B504460D46E3683BB162690020131DA6
:102E50001268A3621344E36238BD237A33B929466A
:102E60002046FEF771FE0028EDDA38BD6FF0010054
:102E7000FBE70000C368C269013BC36043691344B8
:102E800082699342436124BF436A436100238362A2
:102E9000036B03B11847704770B52023044683F3D2
:102EA0001188866A3EB9FFF7CBFF054618B186F355
:102EB0001188284670BDA36AE26A13F8015B934249
:102EC000A36202D32046FFF7D5FF002383F31188C6
:102ED000EFE700002DE9F84F04460E46904699466C
:102EE000202787F311880025AA46D4F828B0BBF123
:102EF000000F09D149462046FFF7A2FF20B18BF30E
:102F000011882846BDE8F88FA16AA8EB050BE36A93
:102F10005B1A9B4528BF9B46BBF1400F1BD933462C
:102F200001F1400251F8040B914243F8040BF9D12E
:102F3000A36A403640354033A362A26AE36A9A42EC
:102F400002D32046FFF796FF8AF311884545D8D271
:102F500087F31188C9E730465A46FDF7D7FFA36AC1
:102F60005E445D445B44A362E7E7000010B5029C49
:102F700004330172C36103FB0421002300608362F8
:102F8000C362039B40600363049BC46042610261AF
:102F9000816104624262436310BD0000026A6FF007
:102FA0000101C260426A4261026100228262C26221
:102FB000FEF7E6BD436902699A4203D1C2680AB1CD
:102FC00000207047184650F8043B0B607047000023
:102FD000C3680021C2690133C36043691344826935
:102FE0009342436124BF436A4361FEF7BDBD0000C5
:102FF00038B504460D46E3683BB1236900201A1D2D
:10300000A262E2691344E36238BD237A33B92946E8
:103010002046FEF799FD0028EDDA38BD6FF001007B
:10302000FBE7000003691960C268013AC260C26927
:10303000134482699342036124BF436A03610023FE
:103040008362036B03B118477047000070B52023FB
:1030500004460E4683F31188856A35B91146FFF799
:10306000C7FF10B185F3118870BDA36A1E70A36AF3
:10307000E26A01339342A36204D3E1692046043932
:10308000FFF7D0FF002080F3118870BD2DE9F84FC5
:1030900004460D4691469A464FF0200888F3118861
:1030A0000026B346A76A4FB951462046FFF7A0FF56
:1030B00020B187F311883046BDE8F88FA06AA9EBEC
:1030C0000603E76A3F1A9F4228BF1F46402F1BD9BD
:1030D00005F1400355F8042B9D4240F8042BF9D12B
:1030E000A36A40364033A362A26AE36A9A4204D3D9
:1030F000E16920460439FFF795FF8BF311884E45AF
:10310000D9D288F31188CDE729463A46FDF7FEFE6D
:10311000A36A3D443E443B44A362E5E70269436938
:103120009A4203D1C3681BB9184670470023FBE7D6
:10313000836A002BF8D0043B9B1AF5D01360C36858
:10314000013BC360C3691A4483699A42026124BF88
:10315000436A0361002383620123E5E700F08EB92F
:10316000034B002258631A610222DA60704700BFE5
:10317000000C00400022014BDA607047000C004058
:10318000014B5863704700BF000C0040FEE7000091
:1031900010B5194CFEF7DEFBFEF700FD8022174943
:1031A0002046FEF785FC012344F8180C0374144BE9
:1031B000144AD96821F4E0610904090C0A43124950
:1031C000DA60CA6842F08072CA60104A1049C2F8D8
:1031D000B01F116841F0010111601022DA7720223E
:1031E00083F82220002383F3118862B60948BDE8E2
:1031F0001040FEF77FBC00BF50260020C03B0008F7
:1032000000ED00E00003FA05F0ED00E0001000E042
:1032100055CEACC5C83B00082DE9F84F1E4C4FF009
:103220000008DFF87890656904F11407D9F82430B4
:10323000266AAA689E1B96421CD34FF0200AAA68F1
:10324000236AD5F80CB0B61A134423622B68BB422C
:103250005F606361C5F80C8001D1FFF78BFF88F3D5
:1032600011882869D8478AF311886569AB689E423E
:10327000E5D2DBE76269BA420CD0916823628E1B0B
:103280009660A86802282CBF1818981CBDE8F84F53
:10329000FFF776BFBDE8F88F28260020000C00401D
:1032A000034B59685A68521A9042FBD8704700BFC6
:1032B000001000E04B6843608B688360CB68C3609C
:1032C0000B6943614B6903628B6943620B6803605E
:1032D0007047000008B52C4B40F2FF712B48D3F823
:1032E00088200A43C3F88820D3F8882022F4FF629C
:1032F00022F00702C3F88820D3F88820D3F8E02012
:103300000A43C3F8E020D3F808210A43C3F8082190
:103310001F4AD3F808311146FFF7CCFF1D4802F1D0
:103320001C01FFF7C7FF1C4802F13801FFF7C2FF7D
:103330001A4802F15401FFF7BDFF194802F170016C
:10334000FFF7B8FF174802F18C01FFF7B3FF1648EB
:1033500002F1A801FFF7AEFF144802F1C401FFF724
:10336000A9FF134802F1E001FFF7A4FF114802F1A1
:10337000FC01FFF79FFF104802F58C71FFF79AFFE1
:10338000BDE8084000F054B900440258000002585B
:10339000E83B00080004025800080258000C0258DC
:1033A000001002580014025800180258001C02585D
:1033B00000200258002402580028025808B500F0E6
:1033C000FFFAFFF7E5FEFEF73DFFBDE80840FEF718
:1033D000EFBC000070470000064A536823F0010369
:1033E0005360EFF30983683383F30988002383F381
:1033F0001188704730EF00E010B5202383F3118867
:10340000104B5B6813F4006318D0F1EE103AEFF341
:1034100009844FF0807344F84C3C0B4BDB6844F854
:10342000083CA4F1680383F30988FEF721FB18B177
:10343000064B44F8503C10BD054BFAE783F3118866
:1034400010BD00BF00ED00E030EF00E0F103000828
:10345000F4030008084B1A69920710B508D5002438
:103460001C61202383F31188FFF7D6FE84F31188B3
:10347000BDE81040FFF7C0BF000C0040124B082110
:103480003220D3F8E82042F00802C3F8E820D3F84D
:10349000102142F00802C3F810210C4AD3F8103171
:1034A000D36B43F00803D363C722094B9A624FF0F2
:1034B000FF32DA6200229A615A63DA605A600122AE
:1034C0005A611A60FFF768BC004402580010005CA3
:1034D000000C0040F8B5514B0024D3F880204FF089
:1034E000FF32C3F88020D3F88010C3F88040D3F8AF
:1034F0008010D3F88410C3F88420D3F88410C3F864
:103500008440D3F88410D96F41F0FF4141F4FF01AA
:1035100041F4DF4141F07F01D967D96F21F0FF41CC
:1035200021F4FF0121F4DF4121F07F01D967D96F38
:10353000D3F888106FEA41516FEA5151C3F88810EF
:10354000D3F88810C1F30A01C3F88810D3F88810A3
:10355000D3F89010C3F89020D3F89010C3F890409F
:10356000D3F89010D3F89410C3F89420D3F89410A3
:10357000C3F89440D3F89410D3F89810C3F8982067
:10358000D3F89810C3F89840D3F89810D3F88C105B
:10359000C3F88C20D3F88C10C3F88C40D3F88C106F
:1035A000D3F89C10C3F89C20D3F89C20C3F89C400F
:1035B000D3F89C3000F0E4F9194B07229A60194ABD
:1035C000DA60194A1A6105225A60184A536A43F4AC
:1035D00080335362C2F88440BFF34F8FD2F88030FB
:1035E00043F6E076C3F3C904C3F34E33A5075B018A
:1035F00003EA060E284621464EEA0007013900F18B
:103600004040C2F874724F1CF6D1203B13F1200FDA
:10361000EED1BFF34F8FBFF36F8FF8BD0044025858
:1036200090ED00E0000004301B00080300ED00E016
:103630000122574B57491A60574B19609A60574AF5
:10364000DA6000221A614FF440429A619A6990044C
:10365000FCD51A6842F480721A60514B1A6F12F44A
:10366000407F04D04FF480321A6700221A671A682C
:1036700042F001021A604A4A134611684907FCD514
:10368000002111611A6912F03802FBD10121196081
:103690004FF0804159605A67424ADA62424A1A61E1
:1036A0001A6842F480321A603D4B1A689203FCD5C6
:1036B0003E4A3F499A6200225A631963A1F580216C
:1036C000DA634B3999635A643A4A1A643A4ADA62BD
:1036D0001A6842F0A8521A60314B1A6802F0285258
:1036E000B2F1285FF9D1482222219A614FF4886211
:1036F000DA6140221A624FF00052DA641A652F4AEA
:103700005A652F4A9A652F4A11601A6942F00302DE
:103710001A61234B1A6902F03802182AFAD1D3F839
:10372000DC2042F00052C3F8DC20D3F8042142F040
:103730000052C3F80421D3F80421D3F8DC2042F06E
:103740008042C3F8DC20D3F8042142F08042C3F861
:103750000421D3F80421D3F8DC2042F00042C3F85E
:10376000DC20D3F8042142F00042C3F80421D3F84E
:103770000421D3F8F42042F00202C3F8F420D3F875
:103780001C2142F00202C3F81C21D3F81C317047FF
:103790000881005100C000F00048025802000001FA
:1037A000004402580000FF010088900822204000D9
:1037B0006302070147040508FD0BFF010010E0004C
:1037C0000001010000200052084A08B59368116802
:1037D0000B4003F00103936023B1054A13680BB15A
:1037E00050689847BDE80840FFF706BE80000058C3
:1037F000A8250020084A08B5936811680B4003F01B
:103800000203936023B1054A93680BB1D0689847CF
:10381000BDE80840FFF7F0BD80000058A825002053
:10382000084A08B5936811680B4003F004039360DD
:1038300023B1054A13690BB150699847BDE80840A8
:10384000FFF7DABD80000058A8250020084A08B517
:10385000936811680B4003F00803936023B1054A95
:1038600093690BB1D0699847BDE80840FFF7C4BD24
:1038700080000058A8250020084A08B59368116800
:103880000B4003F01003936023B1054A136A0BB198
:10389000506A9847BDE80840FFF7AEBD8000005869
:1038A000A8250020174B10B59C681A68144004F432
:1038B00078729A60A30604D5134A936A0BB1D06A52
:1038C0009847600604D5104A136B0BB1506B9847AC
:1038D000210604D50C4A936B0BB1D06B9847E205D7
:1038E00004D5094A136C0BB1506C9847A30504D555
:1038F000054A936C0BB1D06C9847BDE81040FFF7B8
:103900007BBD00BF80000058A82500201A4B10B5D1
:103910009C681A68144004F47C429A60620504D5DD
:10392000164A136D0BB1506D9847230504D5134A01
:10393000936D0BB1D06D9847E00404D50F4A136E18
:103940000BB1506E9847A10404D50C4A936E0BB18D
:10395000D06E9847620404D5084A136F0BB1506FBC
:103960009847230404D5054A936F0BB1D06F98474D
:10397000BDE81040FFF740BD80000058A82500209A
:10398000062108B50846FFF707FA06210720FFF7CA
:1039900003FA06210820FFF7FFF906210920FFF7A7
:1039A000FBF906210A20FFF7F7F906211720FFF798
:1039B000F3F906212820BDE80840FFF7EDB9000023
:1039C00008B5FFF787FDFDF75DFBFDF70DFDFDF782
:1039D000DFFBFFF7FFFCBDE80840FFF7BFBB0000BF
:1039E00010B501390244904201D1002010BD10F8F9
:1039F000013B11F8014FA342F5D0181B10BD000088
:103A0000034611F8012B03F8012B002AF9D1704766
:103A1000121012131211000001105A000310590065
:103A2000012058000320560053544D333248373F8D
:103A30003F3F0053544D3332483734332F373533FB
:103A4000000000000000000009110008F510000847
:103A5000311100081D110008291100081511000876
:103A600001110008ED1000088D1100080000000091
:103A70000100000000000000020000000000000043
:103A800035130008A113000840004000002B00205F
:103A9000102B0020020000000000000003000000C6
:103AA00000000000E5130008000000001000000006
:103AB000202B00200000000001000000000000009A
:103AC000902D0020010102004172647550696C6FF5
:103AD000740025424F415244252D424C0025534548
:103AE0005249414C25000000511D0008B91C000836
:103AF000A1120008351D000843000000003B00082B
:103B000009024300020100C0320904000001020260
:103B10000100052400100105240100010424020213
:103B20000524060001070582030800FF09040100BF
:103B3000020A00000007050102400000070581029B
:103B400040000000120000004C3B00081201100170
:103B50000200004009124157000201020301000067
:103B60000403090425424F4152442500514D485653
:103B700037003031323334353637383941424344F7
:103B800045460000000000005515000835180008E3
:103B9000E118000840004000C82E0020C82E002078
:103BA00001000000D82E002080000000400100002D
:103BB00008000000000100000004000008000000F0
:103BC0006D61696E00000000E03B0008E02E0020FF
:103BD000D8300020010000008D31000800000000F6
:103BE00069646C65000000000000801200000000A5
:103BF000AAAAAAAA00000010FFFF0000000000000F
:103C000000A00A000000000000000000AAAAAAAA62
:103C100000000000FFFF00000000000000000000A6
:103C20000000000000000000AAAAAAAA00000000EC
:103C3000FFFF000000000000000000000005000081
:103C400000000000AAAAAAAA00050000FFFF0000C9
:103C50000000000000000000100014000000000040
:103C6000AAAAAAAA10000000FFFF0000000000009E
:103C7000000000000000000000000000AAAAAAAA9C
:103C800000000000FFFF0000000000000000000036
:103C90000000000000000000AAAAAAAA000000007C
:103CA000FFFF000000000000000000000000000016
:103CB00000000000AAAAAAAA00000000FFFF00005E
:103CC00000000000000000000000000000000000F4
:103CD000AAAAAAAA00000000FFFF0000000000003E
:103CE000000000000000000000000000AAAAAAAA2C
:103CF00000000000FFFF00000000000000000000C6
:103D00000000000000000000AAAAAAAA000000000B
:103D1000FFFF0000000000000000000000000000A5
:103D2000FF00000000000000283A00083F000000EB
:103D300050040000333A00083F00000000960000E5
:103D40000000080004000000603B000800000000C4
:103D50000000000000000000000000000000000063
:043D6000000000005F
:00000001FF
